{
	"Project.sol": {
		"TTTGame": {
			"abi": [
				{
					"inputs": [
						{
							"internalType": "address",
							"name": "_p1",
							"type": "address"
						},
						{
							"internalType": "address",
							"name": "_p2",
							"type": "address"
						}
					],
					"stateMutability": "nonpayable",
					"type": "constructor"
				},
				{
					"inputs": [
						{
							"internalType": "address",
							"name": "",
							"type": "address"
						}
					],
					"name": "balanceOf",
					"outputs": [
						{
							"internalType": "uint256",
							"name": "",
							"type": "uint256"
						}
					],
					"stateMutability": "view",
					"type": "function"
				},
				{
					"inputs": [],
					"name": "dep",
					"outputs": [
						{
							"internalType": "uint256",
							"name": "",
							"type": "uint256"
						}
					],
					"stateMutability": "view",
					"type": "function"
				},
				{
					"inputs": [],
					"name": "gameEnded",
					"outputs": [
						{
							"internalType": "bool",
							"name": "",
							"type": "bool"
						}
					],
					"stateMutability": "view",
					"type": "function"
				},
				{
					"inputs": [
						{
							"internalType": "uint256",
							"name": "",
							"type": "uint256"
						}
					],
					"name": "gameState",
					"outputs": [
						{
							"internalType": "uint256",
							"name": "",
							"type": "uint256"
						}
					],
					"stateMutability": "view",
					"type": "function"
				},
				{
					"inputs": [
						{
							"internalType": "uint256[9]",
							"name": "_turn",
							"type": "uint256[9]"
						}
					],
					"name": "makeTurn",
					"outputs": [],
					"stateMutability": "nonpayable",
					"type": "function"
				},
				{
					"inputs": [],
					"name": "p1",
					"outputs": [
						{
							"internalType": "address payable",
							"name": "",
							"type": "address"
						}
					],
					"stateMutability": "view",
					"type": "function"
				},
				{
					"inputs": [],
					"name": "p2",
					"outputs": [
						{
							"internalType": "address payable",
							"name": "",
							"type": "address"
						}
					],
					"stateMutability": "view",
					"type": "function"
				},
				{
					"inputs": [],
					"name": "turn",
					"outputs": [
						{
							"internalType": "bool",
							"name": "",
							"type": "bool"
						}
					],
					"stateMutability": "view",
					"type": "function"
				},
				{
					"stateMutability": "payable",
					"type": "receive"
				}
			],
			"devdoc": {
				"kind": "dev",
				"methods": {},
				"version": 1
			},
			"evm": {
				"assembly": "    /* \"Project.sol\":61:3957  contract TTTGame {... */\n  mstore(0x40, 0x80)\n    /* \"Project.sol\":170:179  0.5 ether */\n  0x06f05b59d3b20000\n    /* \"Project.sol\":149:179  uint256 public dep = 0.5 ether */\n  0x02\n  sstore\n    /* \"Project.sol\":342:565  constructor(address _p1, address _p2) {... */\n  callvalue\n  dup1\n  iszero\n  tag_1\n  jumpi\n  0x00\n  dup1\n  revert\ntag_1:\n  pop\n  mload(0x40)\n  sub(codesize, bytecodeSize)\n  dup1\n  bytecodeSize\n  dup4\n  codecopy\n  dup2\n  dup2\n  add\n  0x40\n  mstore\n  dup2\n  add\n  swap1\n  tag_2\n  swap2\n  swap1\n  tag_3\n  jump\t// in\ntag_2:\n    /* \"Project.sol\":404:407  _p1 */\n  dup2\n    /* \"Project.sol\":391:393  p1 */\n  0x00\n  dup1\n    /* \"Project.sol\":391:408  p1 = payable(_p1) */\n  0x0100\n  exp\n  dup2\n  sload\n  dup2\n  0xffffffffffffffffffffffffffffffffffffffff\n  mul\n  not\n  and\n  swap1\n  dup4\n  0xffffffffffffffffffffffffffffffffffffffff\n  and\n  mul\n  or\n  swap1\n  sstore\n  pop\n    /* \"Project.sol\":432:435  _p2 */\n  dup1\n    /* \"Project.sol\":419:421  p2 */\n  0x01\n  0x00\n    /* \"Project.sol\":419:436  p2 = payable(_p2) */\n  0x0100\n  exp\n  dup2\n  sload\n  dup2\n  0xffffffffffffffffffffffffffffffffffffffff\n  mul\n  not\n  and\n  swap1\n  dup4\n  0xffffffffffffffffffffffffffffffffffffffff\n  and\n  mul\n  or\n  swap1\n  sstore\n  pop\n    /* \"Project.sol\":454:459  false */\n  0x00\n    /* \"Project.sol\":447:451  turn */\n  0x04\n  0x00\n    /* \"Project.sol\":447:459  turn = false */\n  0x0100\n  exp\n  dup2\n  sload\n  dup2\n  0xff\n  mul\n  not\n  and\n  swap1\n  dup4\n  iszero\n  iszero\n  mul\n  or\n  swap1\n  sstore\n  pop\n    /* \"Project.sol\":470:501  gameState = [0,0,0,0,0,0,0,0,0] */\n  mload(0x40)\n  dup1\n  0x0120\n  add\n  0x40\n  mstore\n  dup1\n    /* \"Project.sol\":483:484  0 */\n  0x00\n    /* \"Project.sol\":470:501  gameState = [0,0,0,0,0,0,0,0,0] */\n  0xff\n  and\n  dup2\n  mstore\n  0x20\n  add\n    /* \"Project.sol\":485:486  0 */\n  0x00\n    /* \"Project.sol\":470:501  gameState = [0,0,0,0,0,0,0,0,0] */\n  0xff\n  and\n  dup2\n  mstore\n  0x20\n  add\n    /* \"Project.sol\":487:488  0 */\n  0x00\n    /* \"Project.sol\":470:501  gameState = [0,0,0,0,0,0,0,0,0] */\n  0xff\n  and\n  dup2\n  mstore\n  0x20\n  add\n    /* \"Project.sol\":489:490  0 */\n  0x00\n    /* \"Project.sol\":470:501  gameState = [0,0,0,0,0,0,0,0,0] */\n  0xff\n  and\n  dup2\n  mstore\n  0x20\n  add\n    /* \"Project.sol\":491:492  0 */\n  0x00\n    /* \"Project.sol\":470:501  gameState = [0,0,0,0,0,0,0,0,0] */\n  0xff\n  and\n  dup2\n  mstore\n  0x20\n  add\n    /* \"Project.sol\":493:494  0 */\n  0x00\n    /* \"Project.sol\":470:501  gameState = [0,0,0,0,0,0,0,0,0] */\n  0xff\n  and\n  dup2\n  mstore\n  0x20\n  add\n    /* \"Project.sol\":495:496  0 */\n  0x00\n    /* \"Project.sol\":470:501  gameState = [0,0,0,0,0,0,0,0,0] */\n  0xff\n  and\n  dup2\n  mstore\n  0x20\n  add\n    /* \"Project.sol\":497:498  0 */\n  0x00\n    /* \"Project.sol\":470:501  gameState = [0,0,0,0,0,0,0,0,0] */\n  0xff\n  and\n  dup2\n  mstore\n  0x20\n  add\n    /* \"Project.sol\":499:500  0 */\n  0x00\n    /* \"Project.sol\":470:501  gameState = [0,0,0,0,0,0,0,0,0] */\n  0xff\n  and\n  dup2\n  mstore\n  pop\n    /* \"Project.sol\":470:479  gameState */\n  0x03\n    /* \"Project.sol\":470:501  gameState = [0,0,0,0,0,0,0,0,0] */\n  swap1\n  0x09\n  tag_6\n  swap3\n  swap2\n  swap1\n  tag_7\n  jump\t// in\ntag_6:\n  pop\n    /* \"Project.sol\":552:557  false */\n  0x00\n    /* \"Project.sol\":540:549  gameEnded */\n  0x04\n  0x01\n    /* \"Project.sol\":540:557  gameEnded = false */\n  0x0100\n  exp\n  dup2\n  sload\n  dup2\n  0xff\n  mul\n  not\n  and\n  swap1\n  dup4\n  iszero\n  iszero\n  mul\n  or\n  swap1\n  sstore\n  pop\n    /* \"Project.sol\":342:565  constructor(address _p1, address _p2) {... */\n  pop\n  pop\n    /* \"Project.sol\":61:3957  contract TTTGame {... */\n  jump(tag_8)\ntag_7:\n  dup3\n  dup1\n  sload\n  dup3\n  dup3\n  sstore\n  swap1\n  0x00\n  mstore\n  keccak256(0x00, 0x20)\n  swap1\n  dup2\n  add\n  swap3\n  dup3\n  iszero\n  tag_9\n  jumpi\n  swap2\n  0x20\n  mul\n  dup3\n  add\ntag_10:\n  dup3\n  dup2\n  gt\n  iszero\n  tag_11\n  jumpi\n  dup3\n  mload\n  dup3\n  swap1\n  0xff\n  and\n  swap1\n  sstore\n  swap2\n  0x20\n  add\n  swap2\n  swap1\n  0x01\n  add\n  swap1\n  jump(tag_10)\ntag_11:\ntag_9:\n  pop\n  swap1\n  pop\n  tag_12\n  swap2\n  swap1\n  tag_13\n  jump\t// in\ntag_12:\n  pop\n  swap1\n  jump\t// out\ntag_13:\ntag_14:\n  dup1\n  dup3\n  gt\n  iszero\n  tag_15\n  jumpi\n  0x00\n  dup2\n  0x00\n  swap1\n  sstore\n  pop\n  0x01\n  add\n  jump(tag_14)\ntag_15:\n  pop\n  swap1\n  jump\t// out\n    /* \"#utility.yul\":88:205   */\ntag_17:\n    /* \"#utility.yul\":197:198   */\n  0x00\n    /* \"#utility.yul\":194:195   */\n  dup1\n    /* \"#utility.yul\":187:199   */\n  revert\n    /* \"#utility.yul\":334:460   */\ntag_19:\n    /* \"#utility.yul\":371:378   */\n  0x00\n    /* \"#utility.yul\":411:453   */\n  0xffffffffffffffffffffffffffffffffffffffff\n    /* \"#utility.yul\":404:409   */\n  dup3\n    /* \"#utility.yul\":400:454   */\n  and\n    /* \"#utility.yul\":389:454   */\n  swap1\n  pop\n    /* \"#utility.yul\":334:460   */\n  swap2\n  swap1\n  pop\n  jump\t// out\n    /* \"#utility.yul\":466:562   */\ntag_20:\n    /* \"#utility.yul\":503:510   */\n  0x00\n    /* \"#utility.yul\":532:556   */\n  tag_29\n    /* \"#utility.yul\":550:555   */\n  dup3\n    /* \"#utility.yul\":532:556   */\n  tag_19\n  jump\t// in\ntag_29:\n    /* \"#utility.yul\":521:556   */\n  swap1\n  pop\n    /* \"#utility.yul\":466:562   */\n  swap2\n  swap1\n  pop\n  jump\t// out\n    /* \"#utility.yul\":568:690   */\ntag_21:\n    /* \"#utility.yul\":641:665   */\n  tag_31\n    /* \"#utility.yul\":659:664   */\n  dup2\n    /* \"#utility.yul\":641:665   */\n  tag_20\n  jump\t// in\ntag_31:\n    /* \"#utility.yul\":634:639   */\n  dup2\n    /* \"#utility.yul\":631:666   */\n  eq\n    /* \"#utility.yul\":621:684   */\n  tag_32\n  jumpi\n    /* \"#utility.yul\":680:681   */\n  0x00\n    /* \"#utility.yul\":677:678   */\n  dup1\n    /* \"#utility.yul\":670:682   */\n  revert\n    /* \"#utility.yul\":621:684   */\ntag_32:\n    /* \"#utility.yul\":568:690   */\n  pop\n  jump\t// out\n    /* \"#utility.yul\":696:839   */\ntag_22:\n    /* \"#utility.yul\":753:758   */\n  0x00\n    /* \"#utility.yul\":784:790   */\n  dup2\n    /* \"#utility.yul\":778:791   */\n  mload\n    /* \"#utility.yul\":769:791   */\n  swap1\n  pop\n    /* \"#utility.yul\":800:833   */\n  tag_34\n    /* \"#utility.yul\":827:832   */\n  dup2\n    /* \"#utility.yul\":800:833   */\n  tag_21\n  jump\t// in\ntag_34:\n    /* \"#utility.yul\":696:839   */\n  swap3\n  swap2\n  pop\n  pop\n  jump\t// out\n    /* \"#utility.yul\":845:1352   */\ntag_3:\n    /* \"#utility.yul\":924:930   */\n  0x00\n    /* \"#utility.yul\":932:938   */\n  dup1\n    /* \"#utility.yul\":981:983   */\n  0x40\n    /* \"#utility.yul\":969:978   */\n  dup4\n    /* \"#utility.yul\":960:967   */\n  dup6\n    /* \"#utility.yul\":956:979   */\n  sub\n    /* \"#utility.yul\":952:984   */\n  slt\n    /* \"#utility.yul\":949:1068   */\n  iszero\n  tag_36\n  jumpi\n    /* \"#utility.yul\":987:1066   */\n  tag_37\n  tag_17\n  jump\t// in\ntag_37:\n    /* \"#utility.yul\":949:1068   */\ntag_36:\n    /* \"#utility.yul\":1107:1108   */\n  0x00\n    /* \"#utility.yul\":1132:1196   */\n  tag_38\n    /* \"#utility.yul\":1188:1195   */\n  dup6\n    /* \"#utility.yul\":1179:1185   */\n  dup3\n    /* \"#utility.yul\":1168:1177   */\n  dup7\n    /* \"#utility.yul\":1164:1186   */\n  add\n    /* \"#utility.yul\":1132:1196   */\n  tag_22\n  jump\t// in\ntag_38:\n    /* \"#utility.yul\":1122:1196   */\n  swap3\n  pop\n    /* \"#utility.yul\":1078:1206   */\n  pop\n    /* \"#utility.yul\":1245:1247   */\n  0x20\n    /* \"#utility.yul\":1271:1335   */\n  tag_39\n    /* \"#utility.yul\":1327:1334   */\n  dup6\n    /* \"#utility.yul\":1318:1324   */\n  dup3\n    /* \"#utility.yul\":1307:1316   */\n  dup7\n    /* \"#utility.yul\":1303:1325   */\n  add\n    /* \"#utility.yul\":1271:1335   */\n  tag_22\n  jump\t// in\ntag_39:\n    /* \"#utility.yul\":1261:1335   */\n  swap2\n  pop\n    /* \"#utility.yul\":1216:1345   */\n  pop\n    /* \"#utility.yul\":845:1352   */\n  swap3\n  pop\n  swap3\n  swap1\n  pop\n  jump\t// out\n    /* \"Project.sol\":61:3957  contract TTTGame {... */\ntag_8:\n  dataSize(sub_0)\n  dup1\n  dataOffset(sub_0)\n  0x00\n  codecopy\n  0x00\n  return\nstop\n\nsub_0: assembly {\n        /* \"Project.sol\":61:3957  contract TTTGame {... */\n      mstore(0x40, 0x80)\n      jumpi(tag_1, lt(calldatasize, 0x04))\n      shr(0xe0, calldataload(0x00))\n      dup1\n      0x855a0fe3\n      gt\n      tag_11\n      jumpi\n      dup1\n      0x855a0fe3\n      eq\n      tag_7\n      jumpi\n      dup1\n      0x8b299903\n      eq\n      tag_8\n      jumpi\n      dup1\n      0xad86287a\n      eq\n      tag_9\n      jumpi\n      dup1\n      0xc2a2747b\n      eq\n      tag_10\n      jumpi\n      jump(tag_2)\n    tag_11:\n      dup1\n      0x2f6fe396\n      eq\n      tag_3\n      jumpi\n      dup1\n      0x4e0e1a3e\n      eq\n      tag_4\n      jumpi\n      dup1\n      0x70a08231\n      eq\n      tag_5\n      jumpi\n      dup1\n      0x81d01ed3\n      eq\n      tag_6\n      jumpi\n      jump(tag_2)\n    tag_1:\n      jumpi(tag_2, calldatasize)\n        /* \"Project.sol\":3653:3662  msg.value */\n      callvalue\n        /* \"Project.sol\":3628:3637  balanceOf */\n      0x05\n        /* \"Project.sol\":3628:3649  balanceOf[msg.sender] */\n      0x00\n        /* \"Project.sol\":3638:3648  msg.sender */\n      caller\n        /* \"Project.sol\":3628:3649  balanceOf[msg.sender] */\n      0xffffffffffffffffffffffffffffffffffffffff\n      and\n      0xffffffffffffffffffffffffffffffffffffffff\n      and\n      dup2\n      mstore\n      0x20\n      add\n      swap1\n      dup2\n      mstore\n      0x20\n      add\n      0x00\n      keccak256\n      0x00\n        /* \"Project.sol\":3628:3662  balanceOf[msg.sender] += msg.value */\n      dup3\n      dup3\n      sload\n      tag_14\n      swap2\n      swap1\n      tag_15\n      jump\t// in\n    tag_14:\n      swap3\n      pop\n      pop\n      dup2\n      swap1\n      sstore\n      pop\n        /* \"Project.sol\":3701:3710  0.5 ether */\n      0x06f05b59d3b20000\n        /* \"Project.sol\":3677:3686  balanceOf */\n      0x05\n        /* \"Project.sol\":3677:3698  balanceOf[msg.sender] */\n      0x00\n        /* \"Project.sol\":3687:3697  msg.sender */\n      caller\n        /* \"Project.sol\":3677:3698  balanceOf[msg.sender] */\n      0xffffffffffffffffffffffffffffffffffffffff\n      and\n      0xffffffffffffffffffffffffffffffffffffffff\n      and\n      dup2\n      mstore\n      0x20\n      add\n      swap1\n      dup2\n      mstore\n      0x20\n      add\n      0x00\n      keccak256\n      sload\n        /* \"Project.sol\":3677:3710  balanceOf[msg.sender] > 0.5 ether */\n      gt\n        /* \"Project.sol\":3673:3947  if (balanceOf[msg.sender] > 0.5 ether){... */\n      iszero\n      tag_16\n      jumpi\n        /* \"Project.sol\":3726:3740  uint256 amount */\n      0x00\n        /* \"Project.sol\":3767:3776  0.5 ether */\n      0x06f05b59d3b20000\n        /* \"Project.sol\":3743:3752  balanceOf */\n      0x05\n        /* \"Project.sol\":3743:3764  balanceOf[msg.sender] */\n      0x00\n        /* \"Project.sol\":3753:3763  msg.sender */\n      caller\n        /* \"Project.sol\":3743:3764  balanceOf[msg.sender] */\n      0xffffffffffffffffffffffffffffffffffffffff\n      and\n      0xffffffffffffffffffffffffffffffffffffffff\n      and\n      dup2\n      mstore\n      0x20\n      add\n      swap1\n      dup2\n      mstore\n      0x20\n      add\n      0x00\n      keccak256\n      sload\n        /* \"Project.sol\":3743:3776  balanceOf[msg.sender] - 0.5 ether */\n      tag_17\n      swap2\n      swap1\n      tag_18\n      jump\t// in\n    tag_17:\n        /* \"Project.sol\":3726:3776  uint256 amount = balanceOf[msg.sender] - 0.5 ether */\n      swap1\n      pop\n        /* \"Project.sol\":3815:3824  0.5 ether */\n      0x06f05b59d3b20000\n        /* \"Project.sol\":3791:3800  balanceOf */\n      0x05\n        /* \"Project.sol\":3791:3812  balanceOf[msg.sender] */\n      0x00\n        /* \"Project.sol\":3801:3811  msg.sender */\n      caller\n        /* \"Project.sol\":3791:3812  balanceOf[msg.sender] */\n      0xffffffffffffffffffffffffffffffffffffffff\n      and\n      0xffffffffffffffffffffffffffffffffffffffff\n      and\n      dup2\n      mstore\n      0x20\n      add\n      swap1\n      dup2\n      mstore\n      0x20\n      add\n      0x00\n      keccak256\n        /* \"Project.sol\":3791:3824  balanceOf[msg.sender] = 0.5 ether */\n      dup2\n      swap1\n      sstore\n      pop\n        /* \"Project.sol\":3839:3848  bool sent */\n      0x00\n        /* \"Project.sol\":3859:3869  msg.sender */\n      caller\n        /* \"Project.sol\":3851:3875  payable(msg.sender).send */\n      0xffffffffffffffffffffffffffffffffffffffff\n      and\n        /* \"Project.sol\":3851:3883  payable(msg.sender).send(amount) */\n      0x08fc\n        /* \"Project.sol\":3876:3882  amount */\n      dup4\n        /* \"Project.sol\":3851:3883  payable(msg.sender).send(amount) */\n      swap1\n      dup2\n      iszero\n      mul\n      swap1\n      mload(0x40)\n      0x00\n      mload(0x40)\n      dup1\n      dup4\n      sub\n      dup2\n      dup6\n      dup9\n      dup9\n      call\n      swap4\n      pop\n      pop\n      pop\n      pop\n        /* \"Project.sol\":3839:3883  bool sent = payable(msg.sender).send(amount) */\n      swap1\n      pop\n        /* \"Project.sol\":3906:3910  sent */\n      dup1\n        /* \"Project.sol\":3898:3935  require(sent, \"Failed to send Ether\") */\n      tag_20\n      jumpi\n      mload(0x40)\n      0x08c379a000000000000000000000000000000000000000000000000000000000\n      dup2\n      mstore\n      0x04\n      add\n      tag_21\n      swap1\n      tag_22\n      jump\t// in\n    tag_21:\n      mload(0x40)\n      dup1\n      swap2\n      sub\n      swap1\n      revert\n    tag_20:\n        /* \"Project.sol\":3711:3947  {... */\n      pop\n      pop\n        /* \"Project.sol\":3673:3947  if (balanceOf[msg.sender] > 0.5 ether){... */\n    tag_16:\n        /* \"Project.sol\":61:3957  contract TTTGame {... */\n      stop\n    tag_2:\n      0x00\n      dup1\n      revert\n        /* \"Project.sol\":259:280  bool public gameEnded */\n    tag_3:\n      callvalue\n      dup1\n      iszero\n      tag_23\n      jumpi\n      0x00\n      dup1\n      revert\n    tag_23:\n      pop\n      tag_24\n      tag_25\n      jump\t// in\n    tag_24:\n      mload(0x40)\n      tag_26\n      swap2\n      swap1\n      tag_27\n      jump\t// in\n    tag_26:\n      mload(0x40)\n      dup1\n      swap2\n      sub\n      swap1\n      return\n        /* \"Project.sol\":186:209  uint[] public gameState */\n    tag_4:\n      callvalue\n      dup1\n      iszero\n      tag_28\n      jumpi\n      0x00\n      dup1\n      revert\n    tag_28:\n      pop\n      tag_29\n      0x04\n      dup1\n      calldatasize\n      sub\n      dup2\n      add\n      swap1\n      tag_30\n      swap2\n      swap1\n      tag_31\n      jump\t// in\n    tag_30:\n      tag_32\n      jump\t// in\n    tag_29:\n      mload(0x40)\n      tag_33\n      swap2\n      swap1\n      tag_34\n      jump\t// in\n    tag_33:\n      mload(0x40)\n      dup1\n      swap2\n      sub\n      swap1\n      return\n        /* \"Project.sol\":289:333  mapping(address => uint256) public balanceOf */\n    tag_5:\n      callvalue\n      dup1\n      iszero\n      tag_35\n      jumpi\n      0x00\n      dup1\n      revert\n    tag_35:\n      pop\n      tag_36\n      0x04\n      dup1\n      calldatasize\n      sub\n      dup2\n      add\n      swap1\n      tag_37\n      swap2\n      swap1\n      tag_38\n      jump\t// in\n    tag_37:\n      tag_39\n      jump\t// in\n    tag_36:\n      mload(0x40)\n      tag_40\n      swap2\n      swap1\n      tag_34\n      jump\t// in\n    tag_40:\n      mload(0x40)\n      dup1\n      swap2\n      sub\n      swap1\n      return\n        /* \"Project.sol\":117:142  address payable public p2 */\n    tag_6:\n      callvalue\n      dup1\n      iszero\n      tag_41\n      jumpi\n      0x00\n      dup1\n      revert\n    tag_41:\n      pop\n      tag_42\n      tag_43\n      jump\t// in\n    tag_42:\n      mload(0x40)\n      tag_44\n      swap2\n      swap1\n      tag_45\n      jump\t// in\n    tag_44:\n      mload(0x40)\n      dup1\n      swap2\n      sub\n      swap1\n      return\n        /* \"Project.sol\":149:179  uint256 public dep = 0.5 ether */\n    tag_7:\n      callvalue\n      dup1\n      iszero\n      tag_46\n      jumpi\n      0x00\n      dup1\n      revert\n    tag_46:\n      pop\n      tag_47\n      tag_48\n      jump\t// in\n    tag_47:\n      mload(0x40)\n      tag_49\n      swap2\n      swap1\n      tag_34\n      jump\t// in\n    tag_49:\n      mload(0x40)\n      dup1\n      swap2\n      sub\n      swap1\n      return\n        /* \"Project.sol\":216:232  bool public turn */\n    tag_8:\n      callvalue\n      dup1\n      iszero\n      tag_50\n      jumpi\n      0x00\n      dup1\n      revert\n    tag_50:\n      pop\n      tag_51\n      tag_52\n      jump\t// in\n    tag_51:\n      mload(0x40)\n      tag_53\n      swap2\n      swap1\n      tag_27\n      jump\t// in\n    tag_53:\n      mload(0x40)\n      dup1\n      swap2\n      sub\n      swap1\n      return\n        /* \"Project.sol\":573:1725  function makeTurn(uint[9] memory _turn) external {... */\n    tag_9:\n      callvalue\n      dup1\n      iszero\n      tag_54\n      jumpi\n      0x00\n      dup1\n      revert\n    tag_54:\n      pop\n      tag_55\n      0x04\n      dup1\n      calldatasize\n      sub\n      dup2\n      add\n      swap1\n      tag_56\n      swap2\n      swap1\n      tag_57\n      jump\t// in\n    tag_56:\n      tag_58\n      jump\t// in\n    tag_55:\n      stop\n        /* \"Project.sol\":85:110  address payable public p1 */\n    tag_10:\n      callvalue\n      dup1\n      iszero\n      tag_59\n      jumpi\n      0x00\n      dup1\n      revert\n    tag_59:\n      pop\n      tag_60\n      tag_61\n      jump\t// in\n    tag_60:\n      mload(0x40)\n      tag_62\n      swap2\n      swap1\n      tag_45\n      jump\t// in\n    tag_62:\n      mload(0x40)\n      dup1\n      swap2\n      sub\n      swap1\n      return\n        /* \"Project.sol\":259:280  bool public gameEnded */\n    tag_25:\n      0x04\n      0x01\n      swap1\n      sload\n      swap1\n      0x0100\n      exp\n      swap1\n      div\n      0xff\n      and\n      dup2\n      jump\t// out\n        /* \"Project.sol\":186:209  uint[] public gameState */\n    tag_32:\n      0x03\n      dup2\n      dup2\n      sload\n      dup2\n      lt\n      tag_63\n      jumpi\n      0x00\n      dup1\n      revert\n    tag_63:\n      swap1\n      0x00\n      mstore\n      keccak256(0x00, 0x20)\n      add\n      0x00\n      swap2\n      pop\n      swap1\n      pop\n      sload\n      dup2\n      jump\t// out\n        /* \"Project.sol\":289:333  mapping(address => uint256) public balanceOf */\n    tag_39:\n      mstore(0x20, 0x05)\n      dup1\n      0x00\n      mstore\n      keccak256(0x00, 0x40)\n      0x00\n      swap2\n      pop\n      swap1\n      pop\n      sload\n      dup2\n      jump\t// out\n        /* \"Project.sol\":117:142  address payable public p2 */\n    tag_43:\n      0x01\n      0x00\n      swap1\n      sload\n      swap1\n      0x0100\n      exp\n      swap1\n      div\n      0xffffffffffffffffffffffffffffffffffffffff\n      and\n      dup2\n      jump\t// out\n        /* \"Project.sol\":149:179  uint256 public dep = 0.5 ether */\n    tag_48:\n      sload(0x02)\n      dup2\n      jump\t// out\n        /* \"Project.sol\":216:232  bool public turn */\n    tag_52:\n      0x04\n      0x00\n      swap1\n      sload\n      swap1\n      0x0100\n      exp\n      swap1\n      div\n      0xff\n      and\n      dup2\n      jump\t// out\n        /* \"Project.sol\":573:1725  function makeTurn(uint[9] memory _turn) external {... */\n    tag_58:\n        /* \"Project.sol\":642:651  gameEnded */\n      0x04\n      0x01\n      swap1\n      sload\n      swap1\n      0x0100\n      exp\n      swap1\n      div\n      0xff\n      and\n        /* \"Project.sol\":641:651  !gameEnded */\n      iszero\n        /* \"Project.sol\":633:670  require(!gameEnded, \"game has ended\") */\n      tag_66\n      jumpi\n      mload(0x40)\n      0x08c379a000000000000000000000000000000000000000000000000000000000\n      dup2\n      mstore\n      0x04\n      add\n      tag_67\n      swap1\n      tag_68\n      jump\t// in\n    tag_67:\n      mload(0x40)\n      dup1\n      swap2\n      sub\n      swap1\n      revert\n    tag_66:\n        /* \"Project.sol\":698:700  p1 */\n      0x00\n      dup1\n      sload\n      swap1\n      0x0100\n      exp\n      swap1\n      div\n      0xffffffffffffffffffffffffffffffffffffffff\n      and\n        /* \"Project.sol\":684:700  msg.sender == p1 */\n      0xffffffffffffffffffffffffffffffffffffffff\n      and\n        /* \"Project.sol\":684:694  msg.sender */\n      caller\n        /* \"Project.sol\":684:700  msg.sender == p1 */\n      0xffffffffffffffffffffffffffffffffffffffff\n      and\n      sub\n        /* \"Project.sol\":681:1195  if(msg.sender == p1) {... */\n      tag_69\n      jumpi\n        /* \"Project.sol\":742:751  0.5 ether */\n      0x06f05b59d3b20000\n        /* \"Project.sol\":725:734  balanceOf */\n      0x05\n        /* \"Project.sol\":725:738  balanceOf[p1] */\n      0x00\n        /* \"Project.sol\":735:737  p1 */\n      dup1\n      0x00\n      swap1\n      sload\n      swap1\n      0x0100\n      exp\n      swap1\n      div\n      0xffffffffffffffffffffffffffffffffffffffff\n      and\n        /* \"Project.sol\":725:738  balanceOf[p1] */\n      0xffffffffffffffffffffffffffffffffffffffff\n      and\n      0xffffffffffffffffffffffffffffffffffffffff\n      and\n      dup2\n      mstore\n      0x20\n      add\n      swap1\n      dup2\n      mstore\n      0x20\n      add\n      0x00\n      keccak256\n      sload\n        /* \"Project.sol\":725:751  balanceOf[p1] == 0.5 ether */\n      eq\n        /* \"Project.sol\":717:766  require(balanceOf[p1] == 0.5 ether, \"no deposit\") */\n      tag_70\n      jumpi\n      mload(0x40)\n      0x08c379a000000000000000000000000000000000000000000000000000000000\n      dup2\n      mstore\n      0x04\n      add\n      tag_71\n      swap1\n      tag_72\n      jump\t// in\n    tag_71:\n      mload(0x40)\n      dup1\n      swap2\n      sub\n      swap1\n      revert\n    tag_70:\n        /* \"Project.sol\":790:794  turn */\n      0x04\n      0x00\n      swap1\n      sload\n      swap1\n      0x0100\n      exp\n      swap1\n      div\n      0xff\n      and\n        /* \"Project.sol\":789:794  !turn */\n      iszero\n        /* \"Project.sol\":781:812  require(!turn, \"not your turn\") */\n      tag_73\n      jumpi\n      mload(0x40)\n      0x08c379a000000000000000000000000000000000000000000000000000000000\n      dup2\n      mstore\n      0x04\n      add\n      tag_74\n      swap1\n      tag_75\n      jump\t// in\n    tag_74:\n      mload(0x40)\n      dup1\n      swap2\n      sub\n      swap1\n      revert\n    tag_73:\n        /* \"Project.sol\":827:837  uint place */\n      0x00\n        /* \"Project.sol\":861:867  uint i */\n      dup1\n        /* \"Project.sol\":857:1017  for(uint i = 0; i < 9; i++){... */\n    tag_76:\n        /* \"Project.sol\":877:878  9 */\n      0x09\n        /* \"Project.sol\":873:874  i */\n      dup2\n        /* \"Project.sol\":873:878  i < 9 */\n      lt\n        /* \"Project.sol\":857:1017  for(uint i = 0; i < 9; i++){... */\n      iszero\n      tag_77\n      jumpi\n        /* \"Project.sol\":919:920  0 */\n      0x00\n        /* \"Project.sol\":907:912  _turn */\n      dup4\n        /* \"Project.sol\":913:914  i */\n      dup3\n        /* \"Project.sol\":907:915  _turn[i] */\n      0x09\n      dup2\n      lt\n      tag_79\n      jumpi\n      tag_80\n      tag_81\n      jump\t// in\n    tag_80:\n    tag_79:\n      0x20\n      mul\n      add\n      mload\n        /* \"Project.sol\":907:920  _turn[i] != 0 */\n      eq\n        /* \"Project.sol\":903:1002  if (_turn[i] != 0) {... */\n      tag_82\n      jumpi\n        /* \"Project.sol\":953:954  i */\n      dup1\n        /* \"Project.sol\":945:954  place = i */\n      swap2\n      pop\n        /* \"Project.sol\":977:982  break */\n      jump(tag_77)\n        /* \"Project.sol\":903:1002  if (_turn[i] != 0) {... */\n    tag_82:\n        /* \"Project.sol\":880:883  i++ */\n      dup1\n      dup1\n      0x01\n      add\n      swap2\n      pop\n      pop\n        /* \"Project.sol\":857:1017  for(uint i = 0; i < 9; i++){... */\n      jump(tag_76)\n    tag_77:\n      pop\n        /* \"Project.sol\":1059:1060  0 */\n      0x00\n        /* \"Project.sol\":1039:1048  gameState */\n      0x03\n        /* \"Project.sol\":1049:1054  place */\n      dup3\n        /* \"Project.sol\":1039:1055  gameState[place] */\n      dup2\n      sload\n      dup2\n      lt\n      tag_83\n      jumpi\n      tag_84\n      tag_81\n      jump\t// in\n    tag_84:\n    tag_83:\n      swap1\n      0x00\n      mstore\n      keccak256(0x00, 0x20)\n      add\n      sload\n        /* \"Project.sol\":1039:1060  gameState[place] == 0 */\n      eq\n        /* \"Project.sol\":1031:1090  require(gameState[place] == 0, \"this tile is already used\") */\n      tag_86\n      jumpi\n      mload(0x40)\n      0x08c379a000000000000000000000000000000000000000000000000000000000\n      dup2\n      mstore\n      0x04\n      add\n      tag_87\n      swap1\n      tag_88\n      jump\t// in\n    tag_87:\n      mload(0x40)\n      dup1\n      swap2\n      sub\n      swap1\n      revert\n    tag_86:\n        /* \"Project.sol\":1124:1125  1 */\n      0x01\n        /* \"Project.sol\":1105:1114  gameState */\n      0x03\n        /* \"Project.sol\":1115:1120  place */\n      dup3\n        /* \"Project.sol\":1105:1121  gameState[place] */\n      dup2\n      sload\n      dup2\n      lt\n      tag_89\n      jumpi\n      tag_90\n      tag_81\n      jump\t// in\n    tag_90:\n    tag_89:\n      swap1\n      0x00\n      mstore\n      keccak256(0x00, 0x20)\n      add\n        /* \"Project.sol\":1105:1125  gameState[place] = 1 */\n      dup2\n      swap1\n      sstore\n      pop\n        /* \"Project.sol\":1148:1152  turn */\n      0x04\n      0x00\n      swap1\n      sload\n      swap1\n      0x0100\n      exp\n      swap1\n      div\n      0xff\n      and\n        /* \"Project.sol\":1147:1152  !turn */\n      iszero\n        /* \"Project.sol\":1140:1144  turn */\n      0x04\n      0x00\n        /* \"Project.sol\":1140:1152  turn = !turn */\n      0x0100\n      exp\n      dup2\n      sload\n      dup2\n      0xff\n      mul\n      not\n      and\n      swap1\n      dup4\n      iszero\n      iszero\n      mul\n      or\n      swap1\n      sstore\n      pop\n        /* \"Project.sol\":1167:1183  _checkWin(p1, 1) */\n      tag_92\n        /* \"Project.sol\":1177:1179  p1 */\n      0x00\n      dup1\n      sload\n      swap1\n      0x0100\n      exp\n      swap1\n      div\n      0xffffffffffffffffffffffffffffffffffffffff\n      and\n        /* \"Project.sol\":1181:1182  1 */\n      0x01\n        /* \"Project.sol\":1167:1176  _checkWin */\n      tag_93\n        /* \"Project.sol\":1167:1183  _checkWin(p1, 1) */\n      jump\t// in\n    tag_92:\n        /* \"Project.sol\":702:1195  {... */\n      pop\n        /* \"Project.sol\":681:1195  if(msg.sender == p1) {... */\n    tag_69:\n        /* \"Project.sol\":1222:1224  p2 */\n      0x01\n      0x00\n      swap1\n      sload\n      swap1\n      0x0100\n      exp\n      swap1\n      div\n      0xffffffffffffffffffffffffffffffffffffffff\n      and\n        /* \"Project.sol\":1208:1224  msg.sender == p2 */\n      0xffffffffffffffffffffffffffffffffffffffff\n      and\n        /* \"Project.sol\":1208:1218  msg.sender */\n      caller\n        /* \"Project.sol\":1208:1224  msg.sender == p2 */\n      0xffffffffffffffffffffffffffffffffffffffff\n      and\n      sub\n        /* \"Project.sol\":1205:1718  if(msg.sender == p2) {... */\n      tag_94\n      jumpi\n        /* \"Project.sol\":1266:1275  0.5 ether */\n      0x06f05b59d3b20000\n        /* \"Project.sol\":1249:1258  balanceOf */\n      0x05\n        /* \"Project.sol\":1249:1262  balanceOf[p2] */\n      0x00\n        /* \"Project.sol\":1259:1261  p2 */\n      0x01\n      0x00\n      swap1\n      sload\n      swap1\n      0x0100\n      exp\n      swap1\n      div\n      0xffffffffffffffffffffffffffffffffffffffff\n      and\n        /* \"Project.sol\":1249:1262  balanceOf[p2] */\n      0xffffffffffffffffffffffffffffffffffffffff\n      and\n      0xffffffffffffffffffffffffffffffffffffffff\n      and\n      dup2\n      mstore\n      0x20\n      add\n      swap1\n      dup2\n      mstore\n      0x20\n      add\n      0x00\n      keccak256\n      sload\n        /* \"Project.sol\":1249:1275  balanceOf[p2] == 0.5 ether */\n      eq\n        /* \"Project.sol\":1241:1290  require(balanceOf[p2] == 0.5 ether, \"no deposit\") */\n      tag_95\n      jumpi\n      mload(0x40)\n      0x08c379a000000000000000000000000000000000000000000000000000000000\n      dup2\n      mstore\n      0x04\n      add\n      tag_96\n      swap1\n      tag_72\n      jump\t// in\n    tag_96:\n      mload(0x40)\n      dup1\n      swap2\n      sub\n      swap1\n      revert\n    tag_95:\n        /* \"Project.sol\":1313:1317  turn */\n      0x04\n      0x00\n      swap1\n      sload\n      swap1\n      0x0100\n      exp\n      swap1\n      div\n      0xff\n      and\n        /* \"Project.sol\":1305:1335  require(turn, \"not your turn\") */\n      tag_97\n      jumpi\n      mload(0x40)\n      0x08c379a000000000000000000000000000000000000000000000000000000000\n      dup2\n      mstore\n      0x04\n      add\n      tag_98\n      swap1\n      tag_75\n      jump\t// in\n    tag_98:\n      mload(0x40)\n      dup1\n      swap2\n      sub\n      swap1\n      revert\n    tag_97:\n        /* \"Project.sol\":1350:1360  uint place */\n      0x00\n        /* \"Project.sol\":1384:1390  uint i */\n      dup1\n        /* \"Project.sol\":1380:1540  for(uint i = 0; i < 9; i++){... */\n    tag_99:\n        /* \"Project.sol\":1400:1401  9 */\n      0x09\n        /* \"Project.sol\":1396:1397  i */\n      dup2\n        /* \"Project.sol\":1396:1401  i < 9 */\n      lt\n        /* \"Project.sol\":1380:1540  for(uint i = 0; i < 9; i++){... */\n      iszero\n      tag_100\n      jumpi\n        /* \"Project.sol\":1442:1443  0 */\n      0x00\n        /* \"Project.sol\":1430:1435  _turn */\n      dup4\n        /* \"Project.sol\":1436:1437  i */\n      dup3\n        /* \"Project.sol\":1430:1438  _turn[i] */\n      0x09\n      dup2\n      lt\n      tag_102\n      jumpi\n      tag_103\n      tag_81\n      jump\t// in\n    tag_103:\n    tag_102:\n      0x20\n      mul\n      add\n      mload\n        /* \"Project.sol\":1430:1443  _turn[i] != 0 */\n      eq\n        /* \"Project.sol\":1426:1525  if (_turn[i] != 0) {... */\n      tag_104\n      jumpi\n        /* \"Project.sol\":1476:1477  i */\n      dup1\n        /* \"Project.sol\":1468:1477  place = i */\n      swap2\n      pop\n        /* \"Project.sol\":1500:1505  break */\n      jump(tag_100)\n        /* \"Project.sol\":1426:1525  if (_turn[i] != 0) {... */\n    tag_104:\n        /* \"Project.sol\":1403:1406  i++ */\n      dup1\n      dup1\n      0x01\n      add\n      swap2\n      pop\n      pop\n        /* \"Project.sol\":1380:1540  for(uint i = 0; i < 9; i++){... */\n      jump(tag_99)\n    tag_100:\n      pop\n        /* \"Project.sol\":1582:1583  0 */\n      0x00\n        /* \"Project.sol\":1562:1571  gameState */\n      0x03\n        /* \"Project.sol\":1572:1577  place */\n      dup3\n        /* \"Project.sol\":1562:1578  gameState[place] */\n      dup2\n      sload\n      dup2\n      lt\n      tag_105\n      jumpi\n      tag_106\n      tag_81\n      jump\t// in\n    tag_106:\n    tag_105:\n      swap1\n      0x00\n      mstore\n      keccak256(0x00, 0x20)\n      add\n      sload\n        /* \"Project.sol\":1562:1583  gameState[place] == 0 */\n      eq\n        /* \"Project.sol\":1554:1613  require(gameState[place] == 0, \"this tile is already used\") */\n      tag_108\n      jumpi\n      mload(0x40)\n      0x08c379a000000000000000000000000000000000000000000000000000000000\n      dup2\n      mstore\n      0x04\n      add\n      tag_109\n      swap1\n      tag_88\n      jump\t// in\n    tag_109:\n      mload(0x40)\n      dup1\n      swap2\n      sub\n      swap1\n      revert\n    tag_108:\n        /* \"Project.sol\":1647:1648  2 */\n      0x02\n        /* \"Project.sol\":1628:1637  gameState */\n      0x03\n        /* \"Project.sol\":1638:1643  place */\n      dup3\n        /* \"Project.sol\":1628:1644  gameState[place] */\n      dup2\n      sload\n      dup2\n      lt\n      tag_110\n      jumpi\n      tag_111\n      tag_81\n      jump\t// in\n    tag_111:\n    tag_110:\n      swap1\n      0x00\n      mstore\n      keccak256(0x00, 0x20)\n      add\n        /* \"Project.sol\":1628:1648  gameState[place] = 2 */\n      dup2\n      swap1\n      sstore\n      pop\n        /* \"Project.sol\":1671:1675  turn */\n      0x04\n      0x00\n      swap1\n      sload\n      swap1\n      0x0100\n      exp\n      swap1\n      div\n      0xff\n      and\n        /* \"Project.sol\":1670:1675  !turn */\n      iszero\n        /* \"Project.sol\":1663:1667  turn */\n      0x04\n      0x00\n        /* \"Project.sol\":1663:1675  turn = !turn */\n      0x0100\n      exp\n      dup2\n      sload\n      dup2\n      0xff\n      mul\n      not\n      and\n      swap1\n      dup4\n      iszero\n      iszero\n      mul\n      or\n      swap1\n      sstore\n      pop\n        /* \"Project.sol\":1690:1706  _checkWin(p2, 2) */\n      tag_113\n        /* \"Project.sol\":1700:1702  p2 */\n      0x01\n      0x00\n      swap1\n      sload\n      swap1\n      0x0100\n      exp\n      swap1\n      div\n      0xffffffffffffffffffffffffffffffffffffffff\n      and\n        /* \"Project.sol\":1704:1705  2 */\n      0x02\n        /* \"Project.sol\":1690:1699  _checkWin */\n      tag_93\n        /* \"Project.sol\":1690:1706  _checkWin(p2, 2) */\n      jump\t// in\n    tag_113:\n        /* \"Project.sol\":1226:1718  {... */\n      pop\n        /* \"Project.sol\":1205:1718  if(msg.sender == p2) {... */\n    tag_94:\n        /* \"Project.sol\":573:1725  function makeTurn(uint[9] memory _turn) external {... */\n      pop\n      jump\t// out\n        /* \"Project.sol\":85:110  address payable public p1 */\n    tag_61:\n      0x00\n      dup1\n      sload\n      swap1\n      0x0100\n      exp\n      swap1\n      div\n      0xffffffffffffffffffffffffffffffffffffffff\n      and\n      dup2\n      jump\t// out\n        /* \"Project.sol\":1733:3120  function _checkWin(address _win, uint val) internal {... */\n    tag_93:\n        /* \"Project.sol\":1840:1843  val */\n      dup1\n        /* \"Project.sol\":1824:1833  gameState */\n      0x03\n        /* \"Project.sol\":1834:1835  0 */\n      0x00\n        /* \"Project.sol\":1824:1836  gameState[0] */\n      dup2\n      sload\n      dup2\n      lt\n      tag_115\n      jumpi\n      tag_116\n      tag_81\n      jump\t// in\n    tag_116:\n    tag_115:\n      swap1\n      0x00\n      mstore\n      keccak256(0x00, 0x20)\n      add\n      sload\n        /* \"Project.sol\":1824:1843  gameState[0] == val */\n      eq\n        /* \"Project.sol\":1823:1869  (gameState[0] == val) && (gameState[1] == val) */\n      dup1\n      iszero\n      tag_118\n      jumpi\n      pop\n        /* \"Project.sol\":1865:1868  val */\n      dup1\n        /* \"Project.sol\":1849:1858  gameState */\n      0x03\n        /* \"Project.sol\":1859:1860  1 */\n      0x01\n        /* \"Project.sol\":1849:1861  gameState[1] */\n      dup2\n      sload\n      dup2\n      lt\n      tag_119\n      jumpi\n      tag_120\n      tag_81\n      jump\t// in\n    tag_120:\n    tag_119:\n      swap1\n      0x00\n      mstore\n      keccak256(0x00, 0x20)\n      add\n      sload\n        /* \"Project.sol\":1849:1868  gameState[1] == val */\n      eq\n        /* \"Project.sol\":1823:1869  (gameState[0] == val) && (gameState[1] == val) */\n    tag_118:\n        /* \"Project.sol\":1823:1894  (gameState[0] == val) && (gameState[1] == val) && (gameState[2] == val) */\n      dup1\n      iszero\n      tag_122\n      jumpi\n      pop\n        /* \"Project.sol\":1890:1893  val */\n      dup1\n        /* \"Project.sol\":1874:1883  gameState */\n      0x03\n        /* \"Project.sol\":1884:1885  2 */\n      0x02\n        /* \"Project.sol\":1874:1886  gameState[2] */\n      dup2\n      sload\n      dup2\n      lt\n      tag_123\n      jumpi\n      tag_124\n      tag_81\n      jump\t// in\n    tag_124:\n    tag_123:\n      swap1\n      0x00\n      mstore\n      keccak256(0x00, 0x20)\n      add\n      sload\n        /* \"Project.sol\":1874:1893  gameState[2] == val */\n      eq\n        /* \"Project.sol\":1823:1894  (gameState[0] == val) && (gameState[1] == val) && (gameState[2] == val) */\n    tag_122:\n        /* \"Project.sol\":1819:1936  if ((gameState[0] == val) && (gameState[1] == val) && (gameState[2] == val)){... */\n      iszero\n      tag_126\n      jumpi\n        /* \"Project.sol\":1910:1924  _endGame(_win) */\n      tag_127\n        /* \"Project.sol\":1919:1923  _win */\n      dup3\n        /* \"Project.sol\":1910:1918  _endGame */\n      tag_128\n        /* \"Project.sol\":1910:1924  _endGame(_win) */\n      jump\t// in\n    tag_127:\n        /* \"Project.sol\":1819:1936  if ((gameState[0] == val) && (gameState[1] == val) && (gameState[2] == val)){... */\n    tag_126:\n        /* \"Project.sol\":1967:1970  val */\n      dup1\n        /* \"Project.sol\":1951:1960  gameState */\n      0x03\n        /* \"Project.sol\":1961:1962  4 */\n      0x04\n        /* \"Project.sol\":1951:1963  gameState[4] */\n      dup2\n      sload\n      dup2\n      lt\n      tag_129\n      jumpi\n      tag_130\n      tag_81\n      jump\t// in\n    tag_130:\n    tag_129:\n      swap1\n      0x00\n      mstore\n      keccak256(0x00, 0x20)\n      add\n      sload\n        /* \"Project.sol\":1951:1970  gameState[4] == val */\n      eq\n        /* \"Project.sol\":1950:1996  (gameState[4] == val) && (gameState[5] == val) */\n      dup1\n      iszero\n      tag_132\n      jumpi\n      pop\n        /* \"Project.sol\":1992:1995  val */\n      dup1\n        /* \"Project.sol\":1976:1985  gameState */\n      0x03\n        /* \"Project.sol\":1986:1987  5 */\n      0x05\n        /* \"Project.sol\":1976:1988  gameState[5] */\n      dup2\n      sload\n      dup2\n      lt\n      tag_133\n      jumpi\n      tag_134\n      tag_81\n      jump\t// in\n    tag_134:\n    tag_133:\n      swap1\n      0x00\n      mstore\n      keccak256(0x00, 0x20)\n      add\n      sload\n        /* \"Project.sol\":1976:1995  gameState[5] == val */\n      eq\n        /* \"Project.sol\":1950:1996  (gameState[4] == val) && (gameState[5] == val) */\n    tag_132:\n        /* \"Project.sol\":1950:2021  (gameState[4] == val) && (gameState[5] == val) && (gameState[6] == val) */\n      dup1\n      iszero\n      tag_136\n      jumpi\n      pop\n        /* \"Project.sol\":2017:2020  val */\n      dup1\n        /* \"Project.sol\":2001:2010  gameState */\n      0x03\n        /* \"Project.sol\":2011:2012  6 */\n      0x06\n        /* \"Project.sol\":2001:2013  gameState[6] */\n      dup2\n      sload\n      dup2\n      lt\n      tag_137\n      jumpi\n      tag_138\n      tag_81\n      jump\t// in\n    tag_138:\n    tag_137:\n      swap1\n      0x00\n      mstore\n      keccak256(0x00, 0x20)\n      add\n      sload\n        /* \"Project.sol\":2001:2020  gameState[6] == val */\n      eq\n        /* \"Project.sol\":1950:2021  (gameState[4] == val) && (gameState[5] == val) && (gameState[6] == val) */\n    tag_136:\n        /* \"Project.sol\":1946:2063  if ((gameState[4] == val) && (gameState[5] == val) && (gameState[6] == val)){... */\n      iszero\n      tag_140\n      jumpi\n        /* \"Project.sol\":2037:2051  _endGame(_win) */\n      tag_141\n        /* \"Project.sol\":2046:2050  _win */\n      dup3\n        /* \"Project.sol\":2037:2045  _endGame */\n      tag_128\n        /* \"Project.sol\":2037:2051  _endGame(_win) */\n      jump\t// in\n    tag_141:\n        /* \"Project.sol\":1946:2063  if ((gameState[4] == val) && (gameState[5] == val) && (gameState[6] == val)){... */\n    tag_140:\n        /* \"Project.sol\":2094:2097  val */\n      dup1\n        /* \"Project.sol\":2078:2087  gameState */\n      0x03\n        /* \"Project.sol\":2088:2089  7 */\n      0x07\n        /* \"Project.sol\":2078:2090  gameState[7] */\n      dup2\n      sload\n      dup2\n      lt\n      tag_142\n      jumpi\n      tag_143\n      tag_81\n      jump\t// in\n    tag_143:\n    tag_142:\n      swap1\n      0x00\n      mstore\n      keccak256(0x00, 0x20)\n      add\n      sload\n        /* \"Project.sol\":2078:2097  gameState[7] == val */\n      eq\n        /* \"Project.sol\":2077:2123  (gameState[7] == val) && (gameState[8] == val) */\n      dup1\n      iszero\n      tag_145\n      jumpi\n      pop\n        /* \"Project.sol\":2119:2122  val */\n      dup1\n        /* \"Project.sol\":2103:2112  gameState */\n      0x03\n        /* \"Project.sol\":2113:2114  8 */\n      0x08\n        /* \"Project.sol\":2103:2115  gameState[8] */\n      dup2\n      sload\n      dup2\n      lt\n      tag_146\n      jumpi\n      tag_147\n      tag_81\n      jump\t// in\n    tag_147:\n    tag_146:\n      swap1\n      0x00\n      mstore\n      keccak256(0x00, 0x20)\n      add\n      sload\n        /* \"Project.sol\":2103:2122  gameState[8] == val */\n      eq\n        /* \"Project.sol\":2077:2123  (gameState[7] == val) && (gameState[8] == val) */\n    tag_145:\n        /* \"Project.sol\":2077:2148  (gameState[7] == val) && (gameState[8] == val) && (gameState[9] == val) */\n      dup1\n      iszero\n      tag_149\n      jumpi\n      pop\n        /* \"Project.sol\":2144:2147  val */\n      dup1\n        /* \"Project.sol\":2128:2137  gameState */\n      0x03\n        /* \"Project.sol\":2138:2139  9 */\n      0x09\n        /* \"Project.sol\":2128:2140  gameState[9] */\n      dup2\n      sload\n      dup2\n      lt\n      tag_150\n      jumpi\n      tag_151\n      tag_81\n      jump\t// in\n    tag_151:\n    tag_150:\n      swap1\n      0x00\n      mstore\n      keccak256(0x00, 0x20)\n      add\n      sload\n        /* \"Project.sol\":2128:2147  gameState[9] == val */\n      eq\n        /* \"Project.sol\":2077:2148  (gameState[7] == val) && (gameState[8] == val) && (gameState[9] == val) */\n    tag_149:\n        /* \"Project.sol\":2073:2190  if ((gameState[7] == val) && (gameState[8] == val) && (gameState[9] == val)){... */\n      iszero\n      tag_153\n      jumpi\n        /* \"Project.sol\":2164:2178  _endGame(_win) */\n      tag_154\n        /* \"Project.sol\":2173:2177  _win */\n      dup3\n        /* \"Project.sol\":2164:2172  _endGame */\n      tag_128\n        /* \"Project.sol\":2164:2178  _endGame(_win) */\n      jump\t// in\n    tag_154:\n        /* \"Project.sol\":2073:2190  if ((gameState[7] == val) && (gameState[8] == val) && (gameState[9] == val)){... */\n    tag_153:\n        /* \"Project.sol\":2242:2245  val */\n      dup1\n        /* \"Project.sol\":2226:2235  gameState */\n      0x03\n        /* \"Project.sol\":2236:2237  0 */\n      0x00\n        /* \"Project.sol\":2226:2238  gameState[0] */\n      dup2\n      sload\n      dup2\n      lt\n      tag_155\n      jumpi\n      tag_156\n      tag_81\n      jump\t// in\n    tag_156:\n    tag_155:\n      swap1\n      0x00\n      mstore\n      keccak256(0x00, 0x20)\n      add\n      sload\n        /* \"Project.sol\":2226:2245  gameState[0] == val */\n      eq\n        /* \"Project.sol\":2225:2271  (gameState[0] == val) && (gameState[3] == val) */\n      dup1\n      iszero\n      tag_158\n      jumpi\n      pop\n        /* \"Project.sol\":2267:2270  val */\n      dup1\n        /* \"Project.sol\":2251:2260  gameState */\n      0x03\n        /* \"Project.sol\":2261:2262  3 */\n      dup1\n        /* \"Project.sol\":2251:2263  gameState[3] */\n      dup2\n      sload\n      dup2\n      lt\n      tag_159\n      jumpi\n      tag_160\n      tag_81\n      jump\t// in\n    tag_160:\n    tag_159:\n      swap1\n      0x00\n      mstore\n      keccak256(0x00, 0x20)\n      add\n      sload\n        /* \"Project.sol\":2251:2270  gameState[3] == val */\n      eq\n        /* \"Project.sol\":2225:2271  (gameState[0] == val) && (gameState[3] == val) */\n    tag_158:\n        /* \"Project.sol\":2225:2296  (gameState[0] == val) && (gameState[3] == val) && (gameState[6] == val) */\n      dup1\n      iszero\n      tag_162\n      jumpi\n      pop\n        /* \"Project.sol\":2292:2295  val */\n      dup1\n        /* \"Project.sol\":2276:2285  gameState */\n      0x03\n        /* \"Project.sol\":2286:2287  6 */\n      0x06\n        /* \"Project.sol\":2276:2288  gameState[6] */\n      dup2\n      sload\n      dup2\n      lt\n      tag_163\n      jumpi\n      tag_164\n      tag_81\n      jump\t// in\n    tag_164:\n    tag_163:\n      swap1\n      0x00\n      mstore\n      keccak256(0x00, 0x20)\n      add\n      sload\n        /* \"Project.sol\":2276:2295  gameState[6] == val */\n      eq\n        /* \"Project.sol\":2225:2296  (gameState[0] == val) && (gameState[3] == val) && (gameState[6] == val) */\n    tag_162:\n        /* \"Project.sol\":2221:2338  if ((gameState[0] == val) && (gameState[3] == val) && (gameState[6] == val)){... */\n      iszero\n      tag_166\n      jumpi\n        /* \"Project.sol\":2312:2326  _endGame(_win) */\n      tag_167\n        /* \"Project.sol\":2321:2325  _win */\n      dup3\n        /* \"Project.sol\":2312:2320  _endGame */\n      tag_128\n        /* \"Project.sol\":2312:2326  _endGame(_win) */\n      jump\t// in\n    tag_167:\n        /* \"Project.sol\":2221:2338  if ((gameState[0] == val) && (gameState[3] == val) && (gameState[6] == val)){... */\n    tag_166:\n        /* \"Project.sol\":2369:2372  val */\n      dup1\n        /* \"Project.sol\":2353:2362  gameState */\n      0x03\n        /* \"Project.sol\":2363:2364  1 */\n      0x01\n        /* \"Project.sol\":2353:2365  gameState[1] */\n      dup2\n      sload\n      dup2\n      lt\n      tag_168\n      jumpi\n      tag_169\n      tag_81\n      jump\t// in\n    tag_169:\n    tag_168:\n      swap1\n      0x00\n      mstore\n      keccak256(0x00, 0x20)\n      add\n      sload\n        /* \"Project.sol\":2353:2372  gameState[1] == val */\n      eq\n        /* \"Project.sol\":2352:2398  (gameState[1] == val) && (gameState[4] == val) */\n      dup1\n      iszero\n      tag_171\n      jumpi\n      pop\n        /* \"Project.sol\":2394:2397  val */\n      dup1\n        /* \"Project.sol\":2378:2387  gameState */\n      0x03\n        /* \"Project.sol\":2388:2389  4 */\n      0x04\n        /* \"Project.sol\":2378:2390  gameState[4] */\n      dup2\n      sload\n      dup2\n      lt\n      tag_172\n      jumpi\n      tag_173\n      tag_81\n      jump\t// in\n    tag_173:\n    tag_172:\n      swap1\n      0x00\n      mstore\n      keccak256(0x00, 0x20)\n      add\n      sload\n        /* \"Project.sol\":2378:2397  gameState[4] == val */\n      eq\n        /* \"Project.sol\":2352:2398  (gameState[1] == val) && (gameState[4] == val) */\n    tag_171:\n        /* \"Project.sol\":2352:2423  (gameState[1] == val) && (gameState[4] == val) && (gameState[7] == val) */\n      dup1\n      iszero\n      tag_175\n      jumpi\n      pop\n        /* \"Project.sol\":2419:2422  val */\n      dup1\n        /* \"Project.sol\":2403:2412  gameState */\n      0x03\n        /* \"Project.sol\":2413:2414  7 */\n      0x07\n        /* \"Project.sol\":2403:2415  gameState[7] */\n      dup2\n      sload\n      dup2\n      lt\n      tag_176\n      jumpi\n      tag_177\n      tag_81\n      jump\t// in\n    tag_177:\n    tag_176:\n      swap1\n      0x00\n      mstore\n      keccak256(0x00, 0x20)\n      add\n      sload\n        /* \"Project.sol\":2403:2422  gameState[7] == val */\n      eq\n        /* \"Project.sol\":2352:2423  (gameState[1] == val) && (gameState[4] == val) && (gameState[7] == val) */\n    tag_175:\n        /* \"Project.sol\":2348:2465  if ((gameState[1] == val) && (gameState[4] == val) && (gameState[7] == val)){... */\n      iszero\n      tag_179\n      jumpi\n        /* \"Project.sol\":2439:2453  _endGame(_win) */\n      tag_180\n        /* \"Project.sol\":2448:2452  _win */\n      dup3\n        /* \"Project.sol\":2439:2447  _endGame */\n      tag_128\n        /* \"Project.sol\":2439:2453  _endGame(_win) */\n      jump\t// in\n    tag_180:\n        /* \"Project.sol\":2348:2465  if ((gameState[1] == val) && (gameState[4] == val) && (gameState[7] == val)){... */\n    tag_179:\n        /* \"Project.sol\":2496:2499  val */\n      dup1\n        /* \"Project.sol\":2480:2489  gameState */\n      0x03\n        /* \"Project.sol\":2490:2491  2 */\n      0x02\n        /* \"Project.sol\":2480:2492  gameState[2] */\n      dup2\n      sload\n      dup2\n      lt\n      tag_181\n      jumpi\n      tag_182\n      tag_81\n      jump\t// in\n    tag_182:\n    tag_181:\n      swap1\n      0x00\n      mstore\n      keccak256(0x00, 0x20)\n      add\n      sload\n        /* \"Project.sol\":2480:2499  gameState[2] == val */\n      eq\n        /* \"Project.sol\":2479:2525  (gameState[2] == val) && (gameState[5] == val) */\n      dup1\n      iszero\n      tag_184\n      jumpi\n      pop\n        /* \"Project.sol\":2521:2524  val */\n      dup1\n        /* \"Project.sol\":2505:2514  gameState */\n      0x03\n        /* \"Project.sol\":2515:2516  5 */\n      0x05\n        /* \"Project.sol\":2505:2517  gameState[5] */\n      dup2\n      sload\n      dup2\n      lt\n      tag_185\n      jumpi\n      tag_186\n      tag_81\n      jump\t// in\n    tag_186:\n    tag_185:\n      swap1\n      0x00\n      mstore\n      keccak256(0x00, 0x20)\n      add\n      sload\n        /* \"Project.sol\":2505:2524  gameState[5] == val */\n      eq\n        /* \"Project.sol\":2479:2525  (gameState[2] == val) && (gameState[5] == val) */\n    tag_184:\n        /* \"Project.sol\":2479:2550  (gameState[2] == val) && (gameState[5] == val) && (gameState[8] == val) */\n      dup1\n      iszero\n      tag_188\n      jumpi\n      pop\n        /* \"Project.sol\":2546:2549  val */\n      dup1\n        /* \"Project.sol\":2530:2539  gameState */\n      0x03\n        /* \"Project.sol\":2540:2541  8 */\n      0x08\n        /* \"Project.sol\":2530:2542  gameState[8] */\n      dup2\n      sload\n      dup2\n      lt\n      tag_189\n      jumpi\n      tag_190\n      tag_81\n      jump\t// in\n    tag_190:\n    tag_189:\n      swap1\n      0x00\n      mstore\n      keccak256(0x00, 0x20)\n      add\n      sload\n        /* \"Project.sol\":2530:2549  gameState[8] == val */\n      eq\n        /* \"Project.sol\":2479:2550  (gameState[2] == val) && (gameState[5] == val) && (gameState[8] == val) */\n    tag_188:\n        /* \"Project.sol\":2475:2592  if ((gameState[2] == val) && (gameState[5] == val) && (gameState[8] == val)){... */\n      iszero\n      tag_192\n      jumpi\n        /* \"Project.sol\":2566:2580  _endGame(_win) */\n      tag_193\n        /* \"Project.sol\":2575:2579  _win */\n      dup3\n        /* \"Project.sol\":2566:2574  _endGame */\n      tag_128\n        /* \"Project.sol\":2566:2580  _endGame(_win) */\n      jump\t// in\n    tag_193:\n        /* \"Project.sol\":2475:2592  if ((gameState[2] == val) && (gameState[5] == val) && (gameState[8] == val)){... */\n    tag_192:\n        /* \"Project.sol\":2639:2642  val */\n      dup1\n        /* \"Project.sol\":2623:2632  gameState */\n      0x03\n        /* \"Project.sol\":2633:2634  0 */\n      0x00\n        /* \"Project.sol\":2623:2635  gameState[0] */\n      dup2\n      sload\n      dup2\n      lt\n      tag_194\n      jumpi\n      tag_195\n      tag_81\n      jump\t// in\n    tag_195:\n    tag_194:\n      swap1\n      0x00\n      mstore\n      keccak256(0x00, 0x20)\n      add\n      sload\n        /* \"Project.sol\":2623:2642  gameState[0] == val */\n      eq\n        /* \"Project.sol\":2622:2668  (gameState[0] == val) && (gameState[4] == val) */\n      dup1\n      iszero\n      tag_197\n      jumpi\n      pop\n        /* \"Project.sol\":2664:2667  val */\n      dup1\n        /* \"Project.sol\":2648:2657  gameState */\n      0x03\n        /* \"Project.sol\":2658:2659  4 */\n      0x04\n        /* \"Project.sol\":2648:2660  gameState[4] */\n      dup2\n      sload\n      dup2\n      lt\n      tag_198\n      jumpi\n      tag_199\n      tag_81\n      jump\t// in\n    tag_199:\n    tag_198:\n      swap1\n      0x00\n      mstore\n      keccak256(0x00, 0x20)\n      add\n      sload\n        /* \"Project.sol\":2648:2667  gameState[4] == val */\n      eq\n        /* \"Project.sol\":2622:2668  (gameState[0] == val) && (gameState[4] == val) */\n    tag_197:\n        /* \"Project.sol\":2622:2693  (gameState[0] == val) && (gameState[4] == val) && (gameState[8] == val) */\n      dup1\n      iszero\n      tag_201\n      jumpi\n      pop\n        /* \"Project.sol\":2689:2692  val */\n      dup1\n        /* \"Project.sol\":2673:2682  gameState */\n      0x03\n        /* \"Project.sol\":2683:2684  8 */\n      0x08\n        /* \"Project.sol\":2673:2685  gameState[8] */\n      dup2\n      sload\n      dup2\n      lt\n      tag_202\n      jumpi\n      tag_203\n      tag_81\n      jump\t// in\n    tag_203:\n    tag_202:\n      swap1\n      0x00\n      mstore\n      keccak256(0x00, 0x20)\n      add\n      sload\n        /* \"Project.sol\":2673:2692  gameState[8] == val */\n      eq\n        /* \"Project.sol\":2622:2693  (gameState[0] == val) && (gameState[4] == val) && (gameState[8] == val) */\n    tag_201:\n        /* \"Project.sol\":2618:2735  if ((gameState[0] == val) && (gameState[4] == val) && (gameState[8] == val)){... */\n      iszero\n      tag_205\n      jumpi\n        /* \"Project.sol\":2709:2723  _endGame(_win) */\n      tag_206\n        /* \"Project.sol\":2718:2722  _win */\n      dup3\n        /* \"Project.sol\":2709:2717  _endGame */\n      tag_128\n        /* \"Project.sol\":2709:2723  _endGame(_win) */\n      jump\t// in\n    tag_206:\n        /* \"Project.sol\":2618:2735  if ((gameState[0] == val) && (gameState[4] == val) && (gameState[8] == val)){... */\n    tag_205:\n        /* \"Project.sol\":2766:2769  val */\n      dup1\n        /* \"Project.sol\":2750:2759  gameState */\n      0x03\n        /* \"Project.sol\":2760:2761  2 */\n      0x02\n        /* \"Project.sol\":2750:2762  gameState[2] */\n      dup2\n      sload\n      dup2\n      lt\n      tag_207\n      jumpi\n      tag_208\n      tag_81\n      jump\t// in\n    tag_208:\n    tag_207:\n      swap1\n      0x00\n      mstore\n      keccak256(0x00, 0x20)\n      add\n      sload\n        /* \"Project.sol\":2750:2769  gameState[2] == val */\n      eq\n        /* \"Project.sol\":2749:2795  (gameState[2] == val) && (gameState[4] == val) */\n      dup1\n      iszero\n      tag_210\n      jumpi\n      pop\n        /* \"Project.sol\":2791:2794  val */\n      dup1\n        /* \"Project.sol\":2775:2784  gameState */\n      0x03\n        /* \"Project.sol\":2785:2786  4 */\n      0x04\n        /* \"Project.sol\":2775:2787  gameState[4] */\n      dup2\n      sload\n      dup2\n      lt\n      tag_211\n      jumpi\n      tag_212\n      tag_81\n      jump\t// in\n    tag_212:\n    tag_211:\n      swap1\n      0x00\n      mstore\n      keccak256(0x00, 0x20)\n      add\n      sload\n        /* \"Project.sol\":2775:2794  gameState[4] == val */\n      eq\n        /* \"Project.sol\":2749:2795  (gameState[2] == val) && (gameState[4] == val) */\n    tag_210:\n        /* \"Project.sol\":2749:2820  (gameState[2] == val) && (gameState[4] == val) && (gameState[6] == val) */\n      dup1\n      iszero\n      tag_214\n      jumpi\n      pop\n        /* \"Project.sol\":2816:2819  val */\n      dup1\n        /* \"Project.sol\":2800:2809  gameState */\n      0x03\n        /* \"Project.sol\":2810:2811  6 */\n      0x06\n        /* \"Project.sol\":2800:2812  gameState[6] */\n      dup2\n      sload\n      dup2\n      lt\n      tag_215\n      jumpi\n      tag_216\n      tag_81\n      jump\t// in\n    tag_216:\n    tag_215:\n      swap1\n      0x00\n      mstore\n      keccak256(0x00, 0x20)\n      add\n      sload\n        /* \"Project.sol\":2800:2819  gameState[6] == val */\n      eq\n        /* \"Project.sol\":2749:2820  (gameState[2] == val) && (gameState[4] == val) && (gameState[6] == val) */\n    tag_214:\n        /* \"Project.sol\":2745:2862  if ((gameState[2] == val) && (gameState[4] == val) && (gameState[6] == val)){... */\n      iszero\n      tag_218\n      jumpi\n        /* \"Project.sol\":2836:2850  _endGame(_win) */\n      tag_219\n        /* \"Project.sol\":2845:2849  _win */\n      dup3\n        /* \"Project.sol\":2836:2844  _endGame */\n      tag_128\n        /* \"Project.sol\":2836:2850  _endGame(_win) */\n      jump\t// in\n    tag_219:\n        /* \"Project.sol\":2745:2862  if ((gameState[2] == val) && (gameState[4] == val) && (gameState[6] == val)){... */\n    tag_218:\n        /* \"Project.sol\":2872:2882  uint place */\n      0x00\n        /* \"Project.sol\":2885:2888  100 */\n      0x64\n        /* \"Project.sol\":2872:2888  uint place = 100 */\n      swap1\n      pop\n        /* \"Project.sol\":2904:2910  uint i */\n      0x00\n        /* \"Project.sol\":2900:3044  for(uint i = 0; i < 9; i++){... */\n    tag_220:\n        /* \"Project.sol\":2920:2921  9 */\n      0x09\n        /* \"Project.sol\":2916:2917  i */\n      dup2\n        /* \"Project.sol\":2916:2921  i < 9 */\n      lt\n        /* \"Project.sol\":2900:3044  for(uint i = 0; i < 9; i++){... */\n      iszero\n      tag_221\n      jumpi\n        /* \"Project.sol\":2962:2963  0 */\n      0x00\n        /* \"Project.sol\":2946:2955  gameState */\n      0x03\n        /* \"Project.sol\":2956:2957  i */\n      dup3\n        /* \"Project.sol\":2946:2958  gameState[i] */\n      dup2\n      sload\n      dup2\n      lt\n      tag_223\n      jumpi\n      tag_224\n      tag_81\n      jump\t// in\n    tag_224:\n    tag_223:\n      swap1\n      0x00\n      mstore\n      keccak256(0x00, 0x20)\n      add\n      sload\n        /* \"Project.sol\":2946:2963  gameState[i] == 0 */\n      sub\n        /* \"Project.sol\":2942:3033  if (gameState[i] == 0) {... */\n      tag_226\n      jumpi\n        /* \"Project.sol\":2992:2993  i */\n      dup1\n        /* \"Project.sol\":2984:2993  place = i */\n      swap2\n      pop\n        /* \"Project.sol\":3012:3017  break */\n      jump(tag_221)\n        /* \"Project.sol\":2942:3033  if (gameState[i] == 0) {... */\n    tag_226:\n        /* \"Project.sol\":2923:2926  i++ */\n      dup1\n      dup1\n      0x01\n      add\n      swap2\n      pop\n      pop\n        /* \"Project.sol\":2900:3044  for(uint i = 0; i < 9; i++){... */\n      jump(tag_220)\n    tag_221:\n      pop\n        /* \"Project.sol\":3067:3070  100 */\n      0x64\n        /* \"Project.sol\":3058:3063  place */\n      dup2\n        /* \"Project.sol\":3058:3070  place == 100 */\n      sub\n        /* \"Project.sol\":3054:3113  if (place == 100) {... */\n      tag_227\n      jumpi\n        /* \"Project.sol\":3087:3101  _endGameDraw() */\n      tag_228\n        /* \"Project.sol\":3087:3099  _endGameDraw */\n      tag_229\n        /* \"Project.sol\":3087:3101  _endGameDraw() */\n      jump\t// in\n    tag_228:\n        /* \"Project.sol\":3054:3113  if (place == 100) {... */\n    tag_227:\n        /* \"Project.sol\":1785:3120  {... */\n      pop\n        /* \"Project.sol\":1733:3120  function _checkWin(address _win, uint val) internal {... */\n      pop\n      pop\n      jump\t// out\n        /* \"Project.sol\":3128:3308  function _endGame(address _winner) internal {... */\n    tag_128:\n        /* \"Project.sol\":3195:3199  true */\n      0x01\n        /* \"Project.sol\":3183:3192  gameEnded */\n      0x04\n      0x01\n        /* \"Project.sol\":3183:3199  gameEnded = true */\n      0x0100\n      exp\n      dup2\n      sload\n      dup2\n      0xff\n      mul\n      not\n      and\n      swap1\n      dup4\n      iszero\n      iszero\n      mul\n      or\n      swap1\n      sstore\n      pop\n        /* \"Project.sol\":3210:3219  bool sent */\n      0x00\n        /* \"Project.sol\":3230:3237  _winner */\n      dup2\n        /* \"Project.sol\":3222:3243  payable(_winner).send */\n      0xffffffffffffffffffffffffffffffffffffffff\n      and\n        /* \"Project.sol\":3222:3252  payable(_winner).send(1 ether) */\n      0x08fc\n        /* \"Project.sol\":3244:3251  1 ether */\n      0x0de0b6b3a7640000\n        /* \"Project.sol\":3222:3252  payable(_winner).send(1 ether) */\n      swap1\n      dup2\n      iszero\n      mul\n      swap1\n      mload(0x40)\n      0x00\n      mload(0x40)\n      dup1\n      dup4\n      sub\n      dup2\n      dup6\n      dup9\n      dup9\n      call\n      swap4\n      pop\n      pop\n      pop\n      pop\n        /* \"Project.sol\":3210:3252  bool sent = payable(_winner).send(1 ether) */\n      swap1\n      pop\n        /* \"Project.sol\":3271:3275  sent */\n      dup1\n        /* \"Project.sol\":3263:3300  require(sent, \"Failed to send Ether\") */\n      tag_232\n      jumpi\n      mload(0x40)\n      0x08c379a000000000000000000000000000000000000000000000000000000000\n      dup2\n      mstore\n      0x04\n      add\n      tag_233\n      swap1\n      tag_22\n      jump\t// in\n    tag_233:\n      mload(0x40)\n      dup1\n      swap2\n      sub\n      swap1\n      revert\n    tag_232:\n        /* \"Project.sol\":3172:3308  {... */\n      pop\n        /* \"Project.sol\":3128:3308  function _endGame(address _winner) internal {... */\n      pop\n      jump\t// out\n        /* \"Project.sol\":3316:3582  function _endGameDraw() internal {... */\n    tag_229:\n        /* \"Project.sol\":3372:3376  true */\n      0x01\n        /* \"Project.sol\":3360:3369  gameEnded */\n      0x04\n      0x01\n        /* \"Project.sol\":3360:3376  gameEnded = true */\n      0x0100\n      exp\n      dup2\n      sload\n      dup2\n      0xff\n      mul\n      not\n      and\n      swap1\n      dup4\n      iszero\n      iszero\n      mul\n      or\n      swap1\n      sstore\n      pop\n        /* \"Project.sol\":3387:3396  bool sent */\n      0x00\n        /* \"Project.sol\":3407:3409  p1 */\n      dup1\n      0x00\n      swap1\n      sload\n      swap1\n      0x0100\n      exp\n      swap1\n      div\n      0xffffffffffffffffffffffffffffffffffffffff\n      and\n        /* \"Project.sol\":3399:3415  payable(p1).send */\n      0xffffffffffffffffffffffffffffffffffffffff\n      and\n        /* \"Project.sol\":3399:3426  payable(p1).send(0.5 ether) */\n      0x08fc\n        /* \"Project.sol\":3416:3425  0.5 ether */\n      0x06f05b59d3b20000\n        /* \"Project.sol\":3399:3426  payable(p1).send(0.5 ether) */\n      swap1\n      dup2\n      iszero\n      mul\n      swap1\n      mload(0x40)\n      0x00\n      mload(0x40)\n      dup1\n      dup4\n      sub\n      dup2\n      dup6\n      dup9\n      dup9\n      call\n      swap4\n      pop\n      pop\n      pop\n      pop\n        /* \"Project.sol\":3387:3426  bool sent = payable(p1).send(0.5 ether) */\n      swap1\n      pop\n        /* \"Project.sol\":3445:3449  sent */\n      dup1\n        /* \"Project.sol\":3437:3474  require(sent, \"Failed to send Ether\") */\n      tag_236\n      jumpi\n      mload(0x40)\n      0x08c379a000000000000000000000000000000000000000000000000000000000\n      dup2\n      mstore\n      0x04\n      add\n      tag_237\n      swap1\n      tag_22\n      jump\t// in\n    tag_237:\n      mload(0x40)\n      dup1\n      swap2\n      sub\n      swap1\n      revert\n    tag_236:\n        /* \"Project.sol\":3485:3495  bool sent2 */\n      0x00\n        /* \"Project.sol\":3506:3508  p2 */\n      0x01\n      0x00\n      swap1\n      sload\n      swap1\n      0x0100\n      exp\n      swap1\n      div\n      0xffffffffffffffffffffffffffffffffffffffff\n      and\n        /* \"Project.sol\":3498:3514  payable(p2).send */\n      0xffffffffffffffffffffffffffffffffffffffff\n      and\n        /* \"Project.sol\":3498:3525  payable(p2).send(0.5 ether) */\n      0x08fc\n        /* \"Project.sol\":3515:3524  0.5 ether */\n      0x06f05b59d3b20000\n        /* \"Project.sol\":3498:3525  payable(p2).send(0.5 ether) */\n      swap1\n      dup2\n      iszero\n      mul\n      swap1\n      mload(0x40)\n      0x00\n      mload(0x40)\n      dup1\n      dup4\n      sub\n      dup2\n      dup6\n      dup9\n      dup9\n      call\n      swap4\n      pop\n      pop\n      pop\n      pop\n        /* \"Project.sol\":3485:3525  bool sent2 = payable(p2).send(0.5 ether) */\n      swap1\n      pop\n        /* \"Project.sol\":3544:3549  sent2 */\n      dup1\n        /* \"Project.sol\":3536:3574  require(sent2, \"Failed to send Ether\") */\n      tag_239\n      jumpi\n      mload(0x40)\n      0x08c379a000000000000000000000000000000000000000000000000000000000\n      dup2\n      mstore\n      0x04\n      add\n      tag_240\n      swap1\n      tag_22\n      jump\t// in\n    tag_240:\n      mload(0x40)\n      dup1\n      swap2\n      sub\n      swap1\n      revert\n    tag_239:\n        /* \"Project.sol\":3349:3582  {... */\n      pop\n      pop\n        /* \"Project.sol\":3316:3582  function _endGameDraw() internal {... */\n      jump\t// out\n        /* \"#utility.yul\":7:84   */\n    tag_241:\n        /* \"#utility.yul\":44:51   */\n      0x00\n        /* \"#utility.yul\":73:78   */\n      dup2\n        /* \"#utility.yul\":62:78   */\n      swap1\n      pop\n        /* \"#utility.yul\":7:84   */\n      swap2\n      swap1\n      pop\n      jump\t// out\n        /* \"#utility.yul\":90:270   */\n    tag_242:\n        /* \"#utility.yul\":138:215   */\n      0x4e487b7100000000000000000000000000000000000000000000000000000000\n        /* \"#utility.yul\":135:136   */\n      0x00\n        /* \"#utility.yul\":128:216   */\n      mstore\n        /* \"#utility.yul\":235:239   */\n      0x11\n        /* \"#utility.yul\":232:233   */\n      0x04\n        /* \"#utility.yul\":225:240   */\n      mstore\n        /* \"#utility.yul\":259:263   */\n      0x24\n        /* \"#utility.yul\":256:257   */\n      0x00\n        /* \"#utility.yul\":249:264   */\n      revert\n        /* \"#utility.yul\":276:467   */\n    tag_15:\n        /* \"#utility.yul\":316:319   */\n      0x00\n        /* \"#utility.yul\":335:355   */\n      tag_281\n        /* \"#utility.yul\":353:354   */\n      dup3\n        /* \"#utility.yul\":335:355   */\n      tag_241\n      jump\t// in\n    tag_281:\n        /* \"#utility.yul\":330:355   */\n      swap2\n      pop\n        /* \"#utility.yul\":369:389   */\n      tag_282\n        /* \"#utility.yul\":387:388   */\n      dup4\n        /* \"#utility.yul\":369:389   */\n      tag_241\n      jump\t// in\n    tag_282:\n        /* \"#utility.yul\":364:389   */\n      swap3\n      pop\n        /* \"#utility.yul\":412:413   */\n      dup3\n        /* \"#utility.yul\":409:410   */\n      dup3\n        /* \"#utility.yul\":405:414   */\n      add\n        /* \"#utility.yul\":398:414   */\n      swap1\n      pop\n        /* \"#utility.yul\":433:436   */\n      dup1\n        /* \"#utility.yul\":430:431   */\n      dup3\n        /* \"#utility.yul\":427:437   */\n      gt\n        /* \"#utility.yul\":424:460   */\n      iszero\n      tag_283\n      jumpi\n        /* \"#utility.yul\":440:458   */\n      tag_284\n      tag_242\n      jump\t// in\n    tag_284:\n        /* \"#utility.yul\":424:460   */\n    tag_283:\n        /* \"#utility.yul\":276:467   */\n      swap3\n      swap2\n      pop\n      pop\n      jump\t// out\n        /* \"#utility.yul\":473:667   */\n    tag_18:\n        /* \"#utility.yul\":513:517   */\n      0x00\n        /* \"#utility.yul\":533:553   */\n      tag_286\n        /* \"#utility.yul\":551:552   */\n      dup3\n        /* \"#utility.yul\":533:553   */\n      tag_241\n      jump\t// in\n    tag_286:\n        /* \"#utility.yul\":528:553   */\n      swap2\n      pop\n        /* \"#utility.yul\":567:587   */\n      tag_287\n        /* \"#utility.yul\":585:586   */\n      dup4\n        /* \"#utility.yul\":567:587   */\n      tag_241\n      jump\t// in\n    tag_287:\n        /* \"#utility.yul\":562:587   */\n      swap3\n      pop\n        /* \"#utility.yul\":611:612   */\n      dup3\n        /* \"#utility.yul\":608:609   */\n      dup3\n        /* \"#utility.yul\":604:613   */\n      sub\n        /* \"#utility.yul\":596:613   */\n      swap1\n      pop\n        /* \"#utility.yul\":635:636   */\n      dup2\n        /* \"#utility.yul\":629:633   */\n      dup2\n        /* \"#utility.yul\":626:637   */\n      gt\n        /* \"#utility.yul\":623:660   */\n      iszero\n      tag_288\n      jumpi\n        /* \"#utility.yul\":640:658   */\n      tag_289\n      tag_242\n      jump\t// in\n    tag_289:\n        /* \"#utility.yul\":623:660   */\n    tag_288:\n        /* \"#utility.yul\":473:667   */\n      swap3\n      swap2\n      pop\n      pop\n      jump\t// out\n        /* \"#utility.yul\":673:842   */\n    tag_243:\n        /* \"#utility.yul\":757:768   */\n      0x00\n        /* \"#utility.yul\":791:797   */\n      dup3\n        /* \"#utility.yul\":786:789   */\n      dup3\n        /* \"#utility.yul\":779:798   */\n      mstore\n        /* \"#utility.yul\":831:835   */\n      0x20\n        /* \"#utility.yul\":826:829   */\n      dup3\n        /* \"#utility.yul\":822:836   */\n      add\n        /* \"#utility.yul\":807:836   */\n      swap1\n      pop\n        /* \"#utility.yul\":673:842   */\n      swap3\n      swap2\n      pop\n      pop\n      jump\t// out\n        /* \"#utility.yul\":848:1018   */\n    tag_244:\n        /* \"#utility.yul\":988:1010   */\n      0x4661696c656420746f2073656e64204574686572000000000000000000000000\n        /* \"#utility.yul\":984:985   */\n      0x00\n        /* \"#utility.yul\":976:982   */\n      dup3\n        /* \"#utility.yul\":972:986   */\n      add\n        /* \"#utility.yul\":965:1011   */\n      mstore\n        /* \"#utility.yul\":848:1018   */\n      pop\n      jump\t// out\n        /* \"#utility.yul\":1024:1390   */\n    tag_245:\n        /* \"#utility.yul\":1166:1169   */\n      0x00\n        /* \"#utility.yul\":1187:1254   */\n      tag_293\n        /* \"#utility.yul\":1251:1253   */\n      0x14\n        /* \"#utility.yul\":1246:1249   */\n      dup4\n        /* \"#utility.yul\":1187:1254   */\n      tag_243\n      jump\t// in\n    tag_293:\n        /* \"#utility.yul\":1180:1254   */\n      swap2\n      pop\n        /* \"#utility.yul\":1263:1356   */\n      tag_294\n        /* \"#utility.yul\":1352:1355   */\n      dup3\n        /* \"#utility.yul\":1263:1356   */\n      tag_244\n      jump\t// in\n    tag_294:\n        /* \"#utility.yul\":1381:1383   */\n      0x20\n        /* \"#utility.yul\":1376:1379   */\n      dup3\n        /* \"#utility.yul\":1372:1384   */\n      add\n        /* \"#utility.yul\":1365:1384   */\n      swap1\n      pop\n        /* \"#utility.yul\":1024:1390   */\n      swap2\n      swap1\n      pop\n      jump\t// out\n        /* \"#utility.yul\":1396:1815   */\n    tag_22:\n        /* \"#utility.yul\":1562:1566   */\n      0x00\n        /* \"#utility.yul\":1600:1602   */\n      0x20\n        /* \"#utility.yul\":1589:1598   */\n      dup3\n        /* \"#utility.yul\":1585:1603   */\n      add\n        /* \"#utility.yul\":1577:1603   */\n      swap1\n      pop\n        /* \"#utility.yul\":1649:1658   */\n      dup2\n        /* \"#utility.yul\":1643:1647   */\n      dup2\n        /* \"#utility.yul\":1639:1659   */\n      sub\n        /* \"#utility.yul\":1635:1636   */\n      0x00\n        /* \"#utility.yul\":1624:1633   */\n      dup4\n        /* \"#utility.yul\":1620:1637   */\n      add\n        /* \"#utility.yul\":1613:1660   */\n      mstore\n        /* \"#utility.yul\":1677:1808   */\n      tag_296\n        /* \"#utility.yul\":1803:1807   */\n      dup2\n        /* \"#utility.yul\":1677:1808   */\n      tag_245\n      jump\t// in\n    tag_296:\n        /* \"#utility.yul\":1669:1808   */\n      swap1\n      pop\n        /* \"#utility.yul\":1396:1815   */\n      swap2\n      swap1\n      pop\n      jump\t// out\n        /* \"#utility.yul\":1821:1911   */\n    tag_246:\n        /* \"#utility.yul\":1855:1862   */\n      0x00\n        /* \"#utility.yul\":1898:1903   */\n      dup2\n        /* \"#utility.yul\":1891:1904   */\n      iszero\n        /* \"#utility.yul\":1884:1905   */\n      iszero\n        /* \"#utility.yul\":1873:1905   */\n      swap1\n      pop\n        /* \"#utility.yul\":1821:1911   */\n      swap2\n      swap1\n      pop\n      jump\t// out\n        /* \"#utility.yul\":1917:2026   */\n    tag_247:\n        /* \"#utility.yul\":1998:2019   */\n      tag_299\n        /* \"#utility.yul\":2013:2018   */\n      dup2\n        /* \"#utility.yul\":1998:2019   */\n      tag_246\n      jump\t// in\n    tag_299:\n        /* \"#utility.yul\":1993:1996   */\n      dup3\n        /* \"#utility.yul\":1986:2020   */\n      mstore\n        /* \"#utility.yul\":1917:2026   */\n      pop\n      pop\n      jump\t// out\n        /* \"#utility.yul\":2032:2242   */\n    tag_27:\n        /* \"#utility.yul\":2119:2123   */\n      0x00\n        /* \"#utility.yul\":2157:2159   */\n      0x20\n        /* \"#utility.yul\":2146:2155   */\n      dup3\n        /* \"#utility.yul\":2142:2160   */\n      add\n        /* \"#utility.yul\":2134:2160   */\n      swap1\n      pop\n        /* \"#utility.yul\":2170:2235   */\n      tag_301\n        /* \"#utility.yul\":2232:2233   */\n      0x00\n        /* \"#utility.yul\":2221:2230   */\n      dup4\n        /* \"#utility.yul\":2217:2234   */\n      add\n        /* \"#utility.yul\":2208:2214   */\n      dup5\n        /* \"#utility.yul\":2170:2235   */\n      tag_247\n      jump\t// in\n    tag_301:\n        /* \"#utility.yul\":2032:2242   */\n      swap3\n      swap2\n      pop\n      pop\n      jump\t// out\n        /* \"#utility.yul\":2248:2323   */\n    tag_248:\n        /* \"#utility.yul\":2281:2287   */\n      0x00\n        /* \"#utility.yul\":2314:2316   */\n      0x40\n        /* \"#utility.yul\":2308:2317   */\n      mload\n        /* \"#utility.yul\":2298:2317   */\n      swap1\n      pop\n        /* \"#utility.yul\":2248:2323   */\n      swap1\n      jump\t// out\n        /* \"#utility.yul\":2329:2446   */\n    tag_249:\n        /* \"#utility.yul\":2438:2439   */\n      0x00\n        /* \"#utility.yul\":2435:2436   */\n      dup1\n        /* \"#utility.yul\":2428:2440   */\n      revert\n        /* \"#utility.yul\":2575:2697   */\n    tag_251:\n        /* \"#utility.yul\":2648:2672   */\n      tag_306\n        /* \"#utility.yul\":2666:2671   */\n      dup2\n        /* \"#utility.yul\":2648:2672   */\n      tag_241\n      jump\t// in\n    tag_306:\n        /* \"#utility.yul\":2641:2646   */\n      dup2\n        /* \"#utility.yul\":2638:2673   */\n      eq\n        /* \"#utility.yul\":2628:2691   */\n      tag_307\n      jumpi\n        /* \"#utility.yul\":2687:2688   */\n      0x00\n        /* \"#utility.yul\":2684:2685   */\n      dup1\n        /* \"#utility.yul\":2677:2689   */\n      revert\n        /* \"#utility.yul\":2628:2691   */\n    tag_307:\n        /* \"#utility.yul\":2575:2697   */\n      pop\n      jump\t// out\n        /* \"#utility.yul\":2703:2842   */\n    tag_252:\n        /* \"#utility.yul\":2749:2754   */\n      0x00\n        /* \"#utility.yul\":2787:2793   */\n      dup2\n        /* \"#utility.yul\":2774:2794   */\n      calldataload\n        /* \"#utility.yul\":2765:2794   */\n      swap1\n      pop\n        /* \"#utility.yul\":2803:2836   */\n      tag_309\n        /* \"#utility.yul\":2830:2835   */\n      dup2\n        /* \"#utility.yul\":2803:2836   */\n      tag_251\n      jump\t// in\n    tag_309:\n        /* \"#utility.yul\":2703:2842   */\n      swap3\n      swap2\n      pop\n      pop\n      jump\t// out\n        /* \"#utility.yul\":2848:3177   */\n    tag_31:\n        /* \"#utility.yul\":2907:2913   */\n      0x00\n        /* \"#utility.yul\":2956:2958   */\n      0x20\n        /* \"#utility.yul\":2944:2953   */\n      dup3\n        /* \"#utility.yul\":2935:2942   */\n      dup5\n        /* \"#utility.yul\":2931:2954   */\n      sub\n        /* \"#utility.yul\":2927:2959   */\n      slt\n        /* \"#utility.yul\":2924:3043   */\n      iszero\n      tag_311\n      jumpi\n        /* \"#utility.yul\":2962:3041   */\n      tag_312\n      tag_249\n      jump\t// in\n    tag_312:\n        /* \"#utility.yul\":2924:3043   */\n    tag_311:\n        /* \"#utility.yul\":3082:3083   */\n      0x00\n        /* \"#utility.yul\":3107:3160   */\n      tag_313\n        /* \"#utility.yul\":3152:3159   */\n      dup5\n        /* \"#utility.yul\":3143:3149   */\n      dup3\n        /* \"#utility.yul\":3132:3141   */\n      dup6\n        /* \"#utility.yul\":3128:3150   */\n      add\n        /* \"#utility.yul\":3107:3160   */\n      tag_252\n      jump\t// in\n    tag_313:\n        /* \"#utility.yul\":3097:3160   */\n      swap2\n      pop\n        /* \"#utility.yul\":3053:3170   */\n      pop\n        /* \"#utility.yul\":2848:3177   */\n      swap3\n      swap2\n      pop\n      pop\n      jump\t// out\n        /* \"#utility.yul\":3183:3301   */\n    tag_253:\n        /* \"#utility.yul\":3270:3294   */\n      tag_315\n        /* \"#utility.yul\":3288:3293   */\n      dup2\n        /* \"#utility.yul\":3270:3294   */\n      tag_241\n      jump\t// in\n    tag_315:\n        /* \"#utility.yul\":3265:3268   */\n      dup3\n        /* \"#utility.yul\":3258:3295   */\n      mstore\n        /* \"#utility.yul\":3183:3301   */\n      pop\n      pop\n      jump\t// out\n        /* \"#utility.yul\":3307:3529   */\n    tag_34:\n        /* \"#utility.yul\":3400:3404   */\n      0x00\n        /* \"#utility.yul\":3438:3440   */\n      0x20\n        /* \"#utility.yul\":3427:3436   */\n      dup3\n        /* \"#utility.yul\":3423:3441   */\n      add\n        /* \"#utility.yul\":3415:3441   */\n      swap1\n      pop\n        /* \"#utility.yul\":3451:3522   */\n      tag_317\n        /* \"#utility.yul\":3519:3520   */\n      0x00\n        /* \"#utility.yul\":3508:3517   */\n      dup4\n        /* \"#utility.yul\":3504:3521   */\n      add\n        /* \"#utility.yul\":3495:3501   */\n      dup5\n        /* \"#utility.yul\":3451:3522   */\n      tag_253\n      jump\t// in\n    tag_317:\n        /* \"#utility.yul\":3307:3529   */\n      swap3\n      swap2\n      pop\n      pop\n      jump\t// out\n        /* \"#utility.yul\":3535:3661   */\n    tag_254:\n        /* \"#utility.yul\":3572:3579   */\n      0x00\n        /* \"#utility.yul\":3612:3654   */\n      0xffffffffffffffffffffffffffffffffffffffff\n        /* \"#utility.yul\":3605:3610   */\n      dup3\n        /* \"#utility.yul\":3601:3655   */\n      and\n        /* \"#utility.yul\":3590:3655   */\n      swap1\n      pop\n        /* \"#utility.yul\":3535:3661   */\n      swap2\n      swap1\n      pop\n      jump\t// out\n        /* \"#utility.yul\":3667:3763   */\n    tag_255:\n        /* \"#utility.yul\":3704:3711   */\n      0x00\n        /* \"#utility.yul\":3733:3757   */\n      tag_320\n        /* \"#utility.yul\":3751:3756   */\n      dup3\n        /* \"#utility.yul\":3733:3757   */\n      tag_254\n      jump\t// in\n    tag_320:\n        /* \"#utility.yul\":3722:3757   */\n      swap1\n      pop\n        /* \"#utility.yul\":3667:3763   */\n      swap2\n      swap1\n      pop\n      jump\t// out\n        /* \"#utility.yul\":3769:3891   */\n    tag_256:\n        /* \"#utility.yul\":3842:3866   */\n      tag_322\n        /* \"#utility.yul\":3860:3865   */\n      dup2\n        /* \"#utility.yul\":3842:3866   */\n      tag_255\n      jump\t// in\n    tag_322:\n        /* \"#utility.yul\":3835:3840   */\n      dup2\n        /* \"#utility.yul\":3832:3867   */\n      eq\n        /* \"#utility.yul\":3822:3885   */\n      tag_323\n      jumpi\n        /* \"#utility.yul\":3881:3882   */\n      0x00\n        /* \"#utility.yul\":3878:3879   */\n      dup1\n        /* \"#utility.yul\":3871:3883   */\n      revert\n        /* \"#utility.yul\":3822:3885   */\n    tag_323:\n        /* \"#utility.yul\":3769:3891   */\n      pop\n      jump\t// out\n        /* \"#utility.yul\":3897:4036   */\n    tag_257:\n        /* \"#utility.yul\":3943:3948   */\n      0x00\n        /* \"#utility.yul\":3981:3987   */\n      dup2\n        /* \"#utility.yul\":3968:3988   */\n      calldataload\n        /* \"#utility.yul\":3959:3988   */\n      swap1\n      pop\n        /* \"#utility.yul\":3997:4030   */\n      tag_325\n        /* \"#utility.yul\":4024:4029   */\n      dup2\n        /* \"#utility.yul\":3997:4030   */\n      tag_256\n      jump\t// in\n    tag_325:\n        /* \"#utility.yul\":3897:4036   */\n      swap3\n      swap2\n      pop\n      pop\n      jump\t// out\n        /* \"#utility.yul\":4042:4371   */\n    tag_38:\n        /* \"#utility.yul\":4101:4107   */\n      0x00\n        /* \"#utility.yul\":4150:4152   */\n      0x20\n        /* \"#utility.yul\":4138:4147   */\n      dup3\n        /* \"#utility.yul\":4129:4136   */\n      dup5\n        /* \"#utility.yul\":4125:4148   */\n      sub\n        /* \"#utility.yul\":4121:4153   */\n      slt\n        /* \"#utility.yul\":4118:4237   */\n      iszero\n      tag_327\n      jumpi\n        /* \"#utility.yul\":4156:4235   */\n      tag_328\n      tag_249\n      jump\t// in\n    tag_328:\n        /* \"#utility.yul\":4118:4237   */\n    tag_327:\n        /* \"#utility.yul\":4276:4277   */\n      0x00\n        /* \"#utility.yul\":4301:4354   */\n      tag_329\n        /* \"#utility.yul\":4346:4353   */\n      dup5\n        /* \"#utility.yul\":4337:4343   */\n      dup3\n        /* \"#utility.yul\":4326:4335   */\n      dup6\n        /* \"#utility.yul\":4322:4344   */\n      add\n        /* \"#utility.yul\":4301:4354   */\n      tag_257\n      jump\t// in\n    tag_329:\n        /* \"#utility.yul\":4291:4354   */\n      swap2\n      pop\n        /* \"#utility.yul\":4247:4364   */\n      pop\n        /* \"#utility.yul\":4042:4371   */\n      swap3\n      swap2\n      pop\n      pop\n      jump\t// out\n        /* \"#utility.yul\":4377:4481   */\n    tag_258:\n        /* \"#utility.yul\":4422:4429   */\n      0x00\n        /* \"#utility.yul\":4451:4475   */\n      tag_331\n        /* \"#utility.yul\":4469:4474   */\n      dup3\n        /* \"#utility.yul\":4451:4475   */\n      tag_254\n      jump\t// in\n    tag_331:\n        /* \"#utility.yul\":4440:4475   */\n      swap1\n      pop\n        /* \"#utility.yul\":4377:4481   */\n      swap2\n      swap1\n      pop\n      jump\t// out\n        /* \"#utility.yul\":4487:4629   */\n    tag_259:\n        /* \"#utility.yul\":4590:4622   */\n      tag_333\n        /* \"#utility.yul\":4616:4621   */\n      dup2\n        /* \"#utility.yul\":4590:4622   */\n      tag_258\n      jump\t// in\n    tag_333:\n        /* \"#utility.yul\":4585:4588   */\n      dup3\n        /* \"#utility.yul\":4578:4623   */\n      mstore\n        /* \"#utility.yul\":4487:4629   */\n      pop\n      pop\n      jump\t// out\n        /* \"#utility.yul\":4635:4889   */\n    tag_45:\n        /* \"#utility.yul\":4744:4748   */\n      0x00\n        /* \"#utility.yul\":4782:4784   */\n      0x20\n        /* \"#utility.yul\":4771:4780   */\n      dup3\n        /* \"#utility.yul\":4767:4785   */\n      add\n        /* \"#utility.yul\":4759:4785   */\n      swap1\n      pop\n        /* \"#utility.yul\":4795:4882   */\n      tag_335\n        /* \"#utility.yul\":4879:4880   */\n      0x00\n        /* \"#utility.yul\":4868:4877   */\n      dup4\n        /* \"#utility.yul\":4864:4881   */\n      add\n        /* \"#utility.yul\":4855:4861   */\n      dup5\n        /* \"#utility.yul\":4795:4882   */\n      tag_259\n      jump\t// in\n    tag_335:\n        /* \"#utility.yul\":4635:4889   */\n      swap3\n      swap2\n      pop\n      pop\n      jump\t// out\n        /* \"#utility.yul\":4895:5012   */\n    tag_260:\n        /* \"#utility.yul\":5004:5005   */\n      0x00\n        /* \"#utility.yul\":5001:5002   */\n      dup1\n        /* \"#utility.yul\":4994:5006   */\n      revert\n        /* \"#utility.yul\":5018:5120   */\n    tag_261:\n        /* \"#utility.yul\":5059:5065   */\n      0x00\n        /* \"#utility.yul\":5110:5112   */\n      0x1f\n        /* \"#utility.yul\":5106:5113   */\n      not\n        /* \"#utility.yul\":5101:5103   */\n      0x1f\n        /* \"#utility.yul\":5094:5099   */\n      dup4\n        /* \"#utility.yul\":5090:5104   */\n      add\n        /* \"#utility.yul\":5086:5114   */\n      and\n        /* \"#utility.yul\":5076:5114   */\n      swap1\n      pop\n        /* \"#utility.yul\":5018:5120   */\n      swap2\n      swap1\n      pop\n      jump\t// out\n        /* \"#utility.yul\":5126:5306   */\n    tag_262:\n        /* \"#utility.yul\":5174:5251   */\n      0x4e487b7100000000000000000000000000000000000000000000000000000000\n        /* \"#utility.yul\":5171:5172   */\n      0x00\n        /* \"#utility.yul\":5164:5252   */\n      mstore\n        /* \"#utility.yul\":5271:5275   */\n      0x41\n        /* \"#utility.yul\":5268:5269   */\n      0x04\n        /* \"#utility.yul\":5261:5276   */\n      mstore\n        /* \"#utility.yul\":5295:5299   */\n      0x24\n        /* \"#utility.yul\":5292:5293   */\n      0x00\n        /* \"#utility.yul\":5285:5300   */\n      revert\n        /* \"#utility.yul\":5312:5593   */\n    tag_263:\n        /* \"#utility.yul\":5395:5422   */\n      tag_340\n        /* \"#utility.yul\":5417:5421   */\n      dup3\n        /* \"#utility.yul\":5395:5422   */\n      tag_261\n      jump\t// in\n    tag_340:\n        /* \"#utility.yul\":5387:5393   */\n      dup2\n        /* \"#utility.yul\":5383:5423   */\n      add\n        /* \"#utility.yul\":5525:5531   */\n      dup2\n        /* \"#utility.yul\":5513:5523   */\n      dup2\n        /* \"#utility.yul\":5510:5532   */\n      lt\n        /* \"#utility.yul\":5489:5507   */\n      0xffffffffffffffff\n        /* \"#utility.yul\":5477:5487   */\n      dup3\n        /* \"#utility.yul\":5474:5508   */\n      gt\n        /* \"#utility.yul\":5471:5533   */\n      or\n        /* \"#utility.yul\":5468:5556   */\n      iszero\n      tag_341\n      jumpi\n        /* \"#utility.yul\":5536:5554   */\n      tag_342\n      tag_262\n      jump\t// in\n    tag_342:\n        /* \"#utility.yul\":5468:5556   */\n    tag_341:\n        /* \"#utility.yul\":5576:5586   */\n      dup1\n        /* \"#utility.yul\":5572:5574   */\n      0x40\n        /* \"#utility.yul\":5565:5587   */\n      mstore\n        /* \"#utility.yul\":5355:5593   */\n      pop\n        /* \"#utility.yul\":5312:5593   */\n      pop\n      pop\n      jump\t// out\n        /* \"#utility.yul\":5599:5728   */\n    tag_264:\n        /* \"#utility.yul\":5633:5639   */\n      0x00\n        /* \"#utility.yul\":5660:5680   */\n      tag_344\n      tag_248\n      jump\t// in\n    tag_344:\n        /* \"#utility.yul\":5650:5680   */\n      swap1\n      pop\n        /* \"#utility.yul\":5689:5722   */\n      tag_345\n        /* \"#utility.yul\":5717:5721   */\n      dup3\n        /* \"#utility.yul\":5709:5715   */\n      dup3\n        /* \"#utility.yul\":5689:5722   */\n      tag_263\n      jump\t// in\n    tag_345:\n        /* \"#utility.yul\":5599:5728   */\n      swap2\n      swap1\n      pop\n      jump\t// out\n        /* \"#utility.yul\":5734:5983   */\n    tag_265:\n        /* \"#utility.yul\":5809:5813   */\n      0x00\n        /* \"#utility.yul\":5899:5917   */\n      0xffffffffffffffff\n        /* \"#utility.yul\":5891:5897   */\n      dup3\n        /* \"#utility.yul\":5888:5918   */\n      gt\n        /* \"#utility.yul\":5885:5941   */\n      iszero\n      tag_347\n      jumpi\n        /* \"#utility.yul\":5921:5939   */\n      tag_348\n      tag_262\n      jump\t// in\n    tag_348:\n        /* \"#utility.yul\":5885:5941   */\n    tag_347:\n        /* \"#utility.yul\":5971:5975   */\n      0x20\n        /* \"#utility.yul\":5963:5969   */\n      dup3\n        /* \"#utility.yul\":5959:5976   */\n      mul\n        /* \"#utility.yul\":5951:5976   */\n      swap1\n      pop\n        /* \"#utility.yul\":5734:5983   */\n      swap2\n      swap1\n      pop\n      jump\t// out\n        /* \"#utility.yul\":5989:6106   */\n    tag_266:\n        /* \"#utility.yul\":6098:6099   */\n      0x00\n        /* \"#utility.yul\":6095:6096   */\n      dup1\n        /* \"#utility.yul\":6088:6100   */\n      revert\n        /* \"#utility.yul\":6130:6773   */\n    tag_267:\n        /* \"#utility.yul\":6224:6229   */\n      0x00\n        /* \"#utility.yul\":6249:6328   */\n      tag_351\n        /* \"#utility.yul\":6265:6327   */\n      tag_352\n        /* \"#utility.yul\":6320:6326   */\n      dup5\n        /* \"#utility.yul\":6265:6327   */\n      tag_265\n      jump\t// in\n    tag_352:\n        /* \"#utility.yul\":6249:6328   */\n      tag_264\n      jump\t// in\n    tag_351:\n        /* \"#utility.yul\":6240:6328   */\n      swap1\n      pop\n        /* \"#utility.yul\":6348:6353   */\n      dup1\n        /* \"#utility.yul\":6401:6405   */\n      0x20\n        /* \"#utility.yul\":6393:6399   */\n      dup5\n        /* \"#utility.yul\":6389:6406   */\n      mul\n        /* \"#utility.yul\":6381:6387   */\n      dup4\n        /* \"#utility.yul\":6377:6407   */\n      add\n        /* \"#utility.yul\":6430:6433   */\n      dup6\n        /* \"#utility.yul\":6422:6428   */\n      dup2\n        /* \"#utility.yul\":6419:6434   */\n      gt\n        /* \"#utility.yul\":6416:6538   */\n      iszero\n      tag_353\n      jumpi\n        /* \"#utility.yul\":6449:6528   */\n      tag_354\n      tag_266\n      jump\t// in\n    tag_354:\n        /* \"#utility.yul\":6416:6538   */\n    tag_353:\n        /* \"#utility.yul\":6564:6570   */\n      dup4\n        /* \"#utility.yul\":6547:6767   */\n    tag_355:\n        /* \"#utility.yul\":6581:6587   */\n      dup2\n        /* \"#utility.yul\":6576:6579   */\n      dup2\n        /* \"#utility.yul\":6573:6588   */\n      lt\n        /* \"#utility.yul\":6547:6767   */\n      iszero\n      tag_357\n      jumpi\n        /* \"#utility.yul\":6656:6659   */\n      dup1\n        /* \"#utility.yul\":6685:6722   */\n      tag_358\n        /* \"#utility.yul\":6718:6721   */\n      dup9\n        /* \"#utility.yul\":6706:6716   */\n      dup3\n        /* \"#utility.yul\":6685:6722   */\n      tag_252\n      jump\t// in\n    tag_358:\n        /* \"#utility.yul\":6680:6683   */\n      dup5\n        /* \"#utility.yul\":6673:6723   */\n      mstore\n        /* \"#utility.yul\":6752:6756   */\n      0x20\n        /* \"#utility.yul\":6747:6750   */\n      dup5\n        /* \"#utility.yul\":6743:6757   */\n      add\n        /* \"#utility.yul\":6736:6757   */\n      swap4\n      pop\n        /* \"#utility.yul\":6623:6767   */\n      pop\n        /* \"#utility.yul\":6607:6611   */\n      0x20\n        /* \"#utility.yul\":6602:6605   */\n      dup2\n        /* \"#utility.yul\":6598:6612   */\n      add\n        /* \"#utility.yul\":6591:6612   */\n      swap1\n      pop\n        /* \"#utility.yul\":6547:6767   */\n      jump(tag_355)\n    tag_357:\n        /* \"#utility.yul\":6551:6572   */\n      pop\n        /* \"#utility.yul\":6230:6773   */\n      pop\n      pop\n        /* \"#utility.yul\":6130:6773   */\n      swap4\n      swap3\n      pop\n      pop\n      pop\n      jump\t// out\n        /* \"#utility.yul\":6797:7136   */\n    tag_268:\n        /* \"#utility.yul\":6866:6871   */\n      0x00\n        /* \"#utility.yul\":6915:6918   */\n      dup3\n        /* \"#utility.yul\":6908:6912   */\n      0x1f\n        /* \"#utility.yul\":6900:6906   */\n      dup4\n        /* \"#utility.yul\":6896:6913   */\n      add\n        /* \"#utility.yul\":6892:6919   */\n      slt\n        /* \"#utility.yul\":6882:7004   */\n      tag_360\n      jumpi\n        /* \"#utility.yul\":6923:7002   */\n      tag_361\n      tag_260\n      jump\t// in\n    tag_361:\n        /* \"#utility.yul\":6882:7004   */\n    tag_360:\n        /* \"#utility.yul\":7027:7031   */\n      0x09\n        /* \"#utility.yul\":7049:7130   */\n      tag_362\n        /* \"#utility.yul\":7126:7129   */\n      dup5\n        /* \"#utility.yul\":7118:7124   */\n      dup3\n        /* \"#utility.yul\":7110:7116   */\n      dup6\n        /* \"#utility.yul\":7049:7130   */\n      tag_267\n      jump\t// in\n    tag_362:\n        /* \"#utility.yul\":7040:7130   */\n      swap2\n      pop\n        /* \"#utility.yul\":6872:7136   */\n      pop\n        /* \"#utility.yul\":6797:7136   */\n      swap3\n      swap2\n      pop\n      pop\n      jump\t// out\n        /* \"#utility.yul\":7142:7518   */\n    tag_57:\n        /* \"#utility.yul\":7224:7230   */\n      0x00\n        /* \"#utility.yul\":7273:7276   */\n      0x0120\n        /* \"#utility.yul\":7261:7270   */\n      dup3\n        /* \"#utility.yul\":7252:7259   */\n      dup5\n        /* \"#utility.yul\":7248:7271   */\n      sub\n        /* \"#utility.yul\":7244:7277   */\n      slt\n        /* \"#utility.yul\":7241:7361   */\n      iszero\n      tag_364\n      jumpi\n        /* \"#utility.yul\":7280:7359   */\n      tag_365\n      tag_249\n      jump\t// in\n    tag_365:\n        /* \"#utility.yul\":7241:7361   */\n    tag_364:\n        /* \"#utility.yul\":7400:7401   */\n      0x00\n        /* \"#utility.yul\":7425:7501   */\n      tag_366\n        /* \"#utility.yul\":7493:7500   */\n      dup5\n        /* \"#utility.yul\":7484:7490   */\n      dup3\n        /* \"#utility.yul\":7473:7482   */\n      dup6\n        /* \"#utility.yul\":7469:7491   */\n      add\n        /* \"#utility.yul\":7425:7501   */\n      tag_268\n      jump\t// in\n    tag_366:\n        /* \"#utility.yul\":7415:7501   */\n      swap2\n      pop\n        /* \"#utility.yul\":7371:7511   */\n      pop\n        /* \"#utility.yul\":7142:7518   */\n      swap3\n      swap2\n      pop\n      pop\n      jump\t// out\n        /* \"#utility.yul\":7524:7688   */\n    tag_269:\n        /* \"#utility.yul\":7664:7680   */\n      0x67616d652068617320656e646564000000000000000000000000000000000000\n        /* \"#utility.yul\":7660:7661   */\n      0x00\n        /* \"#utility.yul\":7652:7658   */\n      dup3\n        /* \"#utility.yul\":7648:7662   */\n      add\n        /* \"#utility.yul\":7641:7681   */\n      mstore\n        /* \"#utility.yul\":7524:7688   */\n      pop\n      jump\t// out\n        /* \"#utility.yul\":7694:8060   */\n    tag_270:\n        /* \"#utility.yul\":7836:7839   */\n      0x00\n        /* \"#utility.yul\":7857:7924   */\n      tag_369\n        /* \"#utility.yul\":7921:7923   */\n      0x0e\n        /* \"#utility.yul\":7916:7919   */\n      dup4\n        /* \"#utility.yul\":7857:7924   */\n      tag_243\n      jump\t// in\n    tag_369:\n        /* \"#utility.yul\":7850:7924   */\n      swap2\n      pop\n        /* \"#utility.yul\":7933:8026   */\n      tag_370\n        /* \"#utility.yul\":8022:8025   */\n      dup3\n        /* \"#utility.yul\":7933:8026   */\n      tag_269\n      jump\t// in\n    tag_370:\n        /* \"#utility.yul\":8051:8053   */\n      0x20\n        /* \"#utility.yul\":8046:8049   */\n      dup3\n        /* \"#utility.yul\":8042:8054   */\n      add\n        /* \"#utility.yul\":8035:8054   */\n      swap1\n      pop\n        /* \"#utility.yul\":7694:8060   */\n      swap2\n      swap1\n      pop\n      jump\t// out\n        /* \"#utility.yul\":8066:8485   */\n    tag_68:\n        /* \"#utility.yul\":8232:8236   */\n      0x00\n        /* \"#utility.yul\":8270:8272   */\n      0x20\n        /* \"#utility.yul\":8259:8268   */\n      dup3\n        /* \"#utility.yul\":8255:8273   */\n      add\n        /* \"#utility.yul\":8247:8273   */\n      swap1\n      pop\n        /* \"#utility.yul\":8319:8328   */\n      dup2\n        /* \"#utility.yul\":8313:8317   */\n      dup2\n        /* \"#utility.yul\":8309:8329   */\n      sub\n        /* \"#utility.yul\":8305:8306   */\n      0x00\n        /* \"#utility.yul\":8294:8303   */\n      dup4\n        /* \"#utility.yul\":8290:8307   */\n      add\n        /* \"#utility.yul\":8283:8330   */\n      mstore\n        /* \"#utility.yul\":8347:8478   */\n      tag_372\n        /* \"#utility.yul\":8473:8477   */\n      dup2\n        /* \"#utility.yul\":8347:8478   */\n      tag_270\n      jump\t// in\n    tag_372:\n        /* \"#utility.yul\":8339:8478   */\n      swap1\n      pop\n        /* \"#utility.yul\":8066:8485   */\n      swap2\n      swap1\n      pop\n      jump\t// out\n        /* \"#utility.yul\":8491:8651   */\n    tag_271:\n        /* \"#utility.yul\":8631:8643   */\n      0x6e6f206465706f73697400000000000000000000000000000000000000000000\n        /* \"#utility.yul\":8627:8628   */\n      0x00\n        /* \"#utility.yul\":8619:8625   */\n      dup3\n        /* \"#utility.yul\":8615:8629   */\n      add\n        /* \"#utility.yul\":8608:8644   */\n      mstore\n        /* \"#utility.yul\":8491:8651   */\n      pop\n      jump\t// out\n        /* \"#utility.yul\":8657:9023   */\n    tag_272:\n        /* \"#utility.yul\":8799:8802   */\n      0x00\n        /* \"#utility.yul\":8820:8887   */\n      tag_375\n        /* \"#utility.yul\":8884:8886   */\n      0x0a\n        /* \"#utility.yul\":8879:8882   */\n      dup4\n        /* \"#utility.yul\":8820:8887   */\n      tag_243\n      jump\t// in\n    tag_375:\n        /* \"#utility.yul\":8813:8887   */\n      swap2\n      pop\n        /* \"#utility.yul\":8896:8989   */\n      tag_376\n        /* \"#utility.yul\":8985:8988   */\n      dup3\n        /* \"#utility.yul\":8896:8989   */\n      tag_271\n      jump\t// in\n    tag_376:\n        /* \"#utility.yul\":9014:9016   */\n      0x20\n        /* \"#utility.yul\":9009:9012   */\n      dup3\n        /* \"#utility.yul\":9005:9017   */\n      add\n        /* \"#utility.yul\":8998:9017   */\n      swap1\n      pop\n        /* \"#utility.yul\":8657:9023   */\n      swap2\n      swap1\n      pop\n      jump\t// out\n        /* \"#utility.yul\":9029:9448   */\n    tag_72:\n        /* \"#utility.yul\":9195:9199   */\n      0x00\n        /* \"#utility.yul\":9233:9235   */\n      0x20\n        /* \"#utility.yul\":9222:9231   */\n      dup3\n        /* \"#utility.yul\":9218:9236   */\n      add\n        /* \"#utility.yul\":9210:9236   */\n      swap1\n      pop\n        /* \"#utility.yul\":9282:9291   */\n      dup2\n        /* \"#utility.yul\":9276:9280   */\n      dup2\n        /* \"#utility.yul\":9272:9292   */\n      sub\n        /* \"#utility.yul\":9268:9269   */\n      0x00\n        /* \"#utility.yul\":9257:9266   */\n      dup4\n        /* \"#utility.yul\":9253:9270   */\n      add\n        /* \"#utility.yul\":9246:9293   */\n      mstore\n        /* \"#utility.yul\":9310:9441   */\n      tag_378\n        /* \"#utility.yul\":9436:9440   */\n      dup2\n        /* \"#utility.yul\":9310:9441   */\n      tag_272\n      jump\t// in\n    tag_378:\n        /* \"#utility.yul\":9302:9441   */\n      swap1\n      pop\n        /* \"#utility.yul\":9029:9448   */\n      swap2\n      swap1\n      pop\n      jump\t// out\n        /* \"#utility.yul\":9454:9617   */\n    tag_273:\n        /* \"#utility.yul\":9594:9609   */\n      0x6e6f7420796f7572207475726e00000000000000000000000000000000000000\n        /* \"#utility.yul\":9590:9591   */\n      0x00\n        /* \"#utility.yul\":9582:9588   */\n      dup3\n        /* \"#utility.yul\":9578:9592   */\n      add\n        /* \"#utility.yul\":9571:9610   */\n      mstore\n        /* \"#utility.yul\":9454:9617   */\n      pop\n      jump\t// out\n        /* \"#utility.yul\":9623:9989   */\n    tag_274:\n        /* \"#utility.yul\":9765:9768   */\n      0x00\n        /* \"#utility.yul\":9786:9853   */\n      tag_381\n        /* \"#utility.yul\":9850:9852   */\n      0x0d\n        /* \"#utility.yul\":9845:9848   */\n      dup4\n        /* \"#utility.yul\":9786:9853   */\n      tag_243\n      jump\t// in\n    tag_381:\n        /* \"#utility.yul\":9779:9853   */\n      swap2\n      pop\n        /* \"#utility.yul\":9862:9955   */\n      tag_382\n        /* \"#utility.yul\":9951:9954   */\n      dup3\n        /* \"#utility.yul\":9862:9955   */\n      tag_273\n      jump\t// in\n    tag_382:\n        /* \"#utility.yul\":9980:9982   */\n      0x20\n        /* \"#utility.yul\":9975:9978   */\n      dup3\n        /* \"#utility.yul\":9971:9983   */\n      add\n        /* \"#utility.yul\":9964:9983   */\n      swap1\n      pop\n        /* \"#utility.yul\":9623:9989   */\n      swap2\n      swap1\n      pop\n      jump\t// out\n        /* \"#utility.yul\":9995:10414   */\n    tag_75:\n        /* \"#utility.yul\":10161:10165   */\n      0x00\n        /* \"#utility.yul\":10199:10201   */\n      0x20\n        /* \"#utility.yul\":10188:10197   */\n      dup3\n        /* \"#utility.yul\":10184:10202   */\n      add\n        /* \"#utility.yul\":10176:10202   */\n      swap1\n      pop\n        /* \"#utility.yul\":10248:10257   */\n      dup2\n        /* \"#utility.yul\":10242:10246   */\n      dup2\n        /* \"#utility.yul\":10238:10258   */\n      sub\n        /* \"#utility.yul\":10234:10235   */\n      0x00\n        /* \"#utility.yul\":10223:10232   */\n      dup4\n        /* \"#utility.yul\":10219:10236   */\n      add\n        /* \"#utility.yul\":10212:10259   */\n      mstore\n        /* \"#utility.yul\":10276:10407   */\n      tag_384\n        /* \"#utility.yul\":10402:10406   */\n      dup2\n        /* \"#utility.yul\":10276:10407   */\n      tag_274\n      jump\t// in\n    tag_384:\n        /* \"#utility.yul\":10268:10407   */\n      swap1\n      pop\n        /* \"#utility.yul\":9995:10414   */\n      swap2\n      swap1\n      pop\n      jump\t// out\n        /* \"#utility.yul\":10420:10600   */\n    tag_81:\n        /* \"#utility.yul\":10468:10545   */\n      0x4e487b7100000000000000000000000000000000000000000000000000000000\n        /* \"#utility.yul\":10465:10466   */\n      0x00\n        /* \"#utility.yul\":10458:10546   */\n      mstore\n        /* \"#utility.yul\":10565:10569   */\n      0x32\n        /* \"#utility.yul\":10562:10563   */\n      0x04\n        /* \"#utility.yul\":10555:10570   */\n      mstore\n        /* \"#utility.yul\":10589:10593   */\n      0x24\n        /* \"#utility.yul\":10586:10587   */\n      0x00\n        /* \"#utility.yul\":10579:10594   */\n      revert\n        /* \"#utility.yul\":10606:10781   */\n    tag_275:\n        /* \"#utility.yul\":10746:10773   */\n      0x746869732074696c6520697320616c7265616479207573656400000000000000\n        /* \"#utility.yul\":10742:10743   */\n      0x00\n        /* \"#utility.yul\":10734:10740   */\n      dup3\n        /* \"#utility.yul\":10730:10744   */\n      add\n        /* \"#utility.yul\":10723:10774   */\n      mstore\n        /* \"#utility.yul\":10606:10781   */\n      pop\n      jump\t// out\n        /* \"#utility.yul\":10787:11153   */\n    tag_276:\n        /* \"#utility.yul\":10929:10932   */\n      0x00\n        /* \"#utility.yul\":10950:11017   */\n      tag_388\n        /* \"#utility.yul\":11014:11016   */\n      0x19\n        /* \"#utility.yul\":11009:11012   */\n      dup4\n        /* \"#utility.yul\":10950:11017   */\n      tag_243\n      jump\t// in\n    tag_388:\n        /* \"#utility.yul\":10943:11017   */\n      swap2\n      pop\n        /* \"#utility.yul\":11026:11119   */\n      tag_389\n        /* \"#utility.yul\":11115:11118   */\n      dup3\n        /* \"#utility.yul\":11026:11119   */\n      tag_275\n      jump\t// in\n    tag_389:\n        /* \"#utility.yul\":11144:11146   */\n      0x20\n        /* \"#utility.yul\":11139:11142   */\n      dup3\n        /* \"#utility.yul\":11135:11147   */\n      add\n        /* \"#utility.yul\":11128:11147   */\n      swap1\n      pop\n        /* \"#utility.yul\":10787:11153   */\n      swap2\n      swap1\n      pop\n      jump\t// out\n        /* \"#utility.yul\":11159:11578   */\n    tag_88:\n        /* \"#utility.yul\":11325:11329   */\n      0x00\n        /* \"#utility.yul\":11363:11365   */\n      0x20\n        /* \"#utility.yul\":11352:11361   */\n      dup3\n        /* \"#utility.yul\":11348:11366   */\n      add\n        /* \"#utility.yul\":11340:11366   */\n      swap1\n      pop\n        /* \"#utility.yul\":11412:11421   */\n      dup2\n        /* \"#utility.yul\":11406:11410   */\n      dup2\n        /* \"#utility.yul\":11402:11422   */\n      sub\n        /* \"#utility.yul\":11398:11399   */\n      0x00\n        /* \"#utility.yul\":11387:11396   */\n      dup4\n        /* \"#utility.yul\":11383:11400   */\n      add\n        /* \"#utility.yul\":11376:11423   */\n      mstore\n        /* \"#utility.yul\":11440:11571   */\n      tag_391\n        /* \"#utility.yul\":11566:11570   */\n      dup2\n        /* \"#utility.yul\":11440:11571   */\n      tag_276\n      jump\t// in\n    tag_391:\n        /* \"#utility.yul\":11432:11571   */\n      swap1\n      pop\n        /* \"#utility.yul\":11159:11578   */\n      swap2\n      swap1\n      pop\n      jump\t// out\n\n    auxdata: 0xa26469706673582212207da0ab4530b467b0f1ad175f1c1da843726e7906837acb624050ea23b195df9d64736f6c634300081a0033\n}\n",
				"bytecode": {
					"linkReferences": {},
					"object": "60806040526706f05b59d3b2000060025534801561001b575f80fd5b5060405161182b38038061182b833981810160405281019061003d919061022b565b815f806101000a81548173ffffffffffffffffffffffffffffffffffffffff021916908373ffffffffffffffffffffffffffffffffffffffff1602179055508060015f6101000a81548173ffffffffffffffffffffffffffffffffffffffff021916908373ffffffffffffffffffffffffffffffffffffffff1602179055505f60045f6101000a81548160ff0219169083151502179055506040518061012001604052805f60ff1681526020015f60ff1681526020015f60ff1681526020015f60ff1681526020015f60ff1681526020015f60ff1681526020015f60ff1681526020015f60ff1681526020015f60ff168152506003906009610140929190610162565b505f600460016101000a81548160ff0219169083151502179055505050610269565b828054828255905f5260205f209081019282156101a1579160200282015b828111156101a0578251829060ff16905591602001919060010190610180565b5b5090506101ae91906101b2565b5090565b5b808211156101c9575f815f9055506001016101b3565b5090565b5f80fd5b5f73ffffffffffffffffffffffffffffffffffffffff82169050919050565b5f6101fa826101d1565b9050919050565b61020a816101f0565b8114610214575f80fd5b50565b5f8151905061022581610201565b92915050565b5f8060408385031215610241576102406101cd565b5b5f61024e85828601610217565b925050602061025f85828601610217565b9150509250929050565b6115b5806102765f395ff3fe60806040526004361061007e575f3560e01c8063855a0fe31161004d578063855a0fe31461030d5780638b29990314610337578063ad86287a14610361578063c2a2747b146103895761023d565b80632f6fe396146102415780634e0e1a3e1461026b57806370a08231146102a757806381d01ed3146102e35761023d565b3661023d573460055f3373ffffffffffffffffffffffffffffffffffffffff1673ffffffffffffffffffffffffffffffffffffffff1681526020019081526020015f205f8282546100cf9190610fef565b925050819055506706f05b59d3b2000060055f3373ffffffffffffffffffffffffffffffffffffffff1673ffffffffffffffffffffffffffffffffffffffff1681526020019081526020015f2054111561023b575f6706f05b59d3b2000060055f3373ffffffffffffffffffffffffffffffffffffffff1673ffffffffffffffffffffffffffffffffffffffff1681526020019081526020015f20546101759190611022565b90506706f05b59d3b2000060055f3373ffffffffffffffffffffffffffffffffffffffff1673ffffffffffffffffffffffffffffffffffffffff1681526020019081526020015f20819055505f3373ffffffffffffffffffffffffffffffffffffffff166108fc8390811502906040515f60405180830381858888f19350505050905080610238576040517f08c379a000000000000000000000000000000000000000000000000000000000815260040161022f906110af565b60405180910390fd5b50505b005b5f80fd5b34801561024c575f80fd5b506102556103b3565b60405161026291906110e7565b60405180910390f35b348015610276575f80fd5b50610291600480360381019061028c9190611137565b6103c6565b60405161029e9190611171565b60405180910390f35b3480156102b2575f80fd5b506102cd60048036038101906102c891906111e4565b6103e6565b6040516102da9190611171565b60405180910390f35b3480156102ee575f80fd5b506102f76103fb565b604051610304919061122f565b60405180910390f35b348015610318575f80fd5b50610321610420565b60405161032e9190611171565b60405180910390f35b348015610342575f80fd5b5061034b610426565b60405161035891906110e7565b60405180910390f35b34801561036c575f80fd5b5061038760048036038101906103829190611386565b610438565b005b348015610394575f80fd5b5061039d610947565b6040516103aa919061122f565b60405180910390f35b600460019054906101000a900460ff1681565b600381815481106103d5575f80fd5b905f5260205f20015f915090505481565b6005602052805f5260405f205f915090505481565b60015f9054906101000a900473ffffffffffffffffffffffffffffffffffffffff1681565b60025481565b60045f9054906101000a900460ff1681565b600460019054906101000a900460ff1615610488576040517f08c379a000000000000000000000000000000000000000000000000000000000815260040161047f906113fc565b60405180910390fd5b5f8054906101000a900473ffffffffffffffffffffffffffffffffffffffff1673ffffffffffffffffffffffffffffffffffffffff163373ffffffffffffffffffffffffffffffffffffffff16036106e4576706f05b59d3b2000060055f805f9054906101000a900473ffffffffffffffffffffffffffffffffffffffff1673ffffffffffffffffffffffffffffffffffffffff1673ffffffffffffffffffffffffffffffffffffffff1681526020019081526020015f205414610581576040517f08c379a000000000000000000000000000000000000000000000000000000000815260040161057890611464565b60405180910390fd5b60045f9054906101000a900460ff16156105d0576040517f08c379a00000000000000000000000000000000000000000000000000000000081526004016105c7906114cc565b60405180910390fd5b5f805b600981101561060f575f8382600981106105f0576105ef6114ea565b5b6020020151146106025780915061060f565b80806001019150506105d3565b505f60038281548110610625576106246114ea565b5b905f5260205f2001541461066e576040517f08c379a000000000000000000000000000000000000000000000000000000000815260040161066590611561565b60405180910390fd5b600160038281548110610684576106836114ea565b5b905f5260205f20018190555060045f9054906101000a900460ff161560045f6101000a81548160ff0219169083151502179055506106e25f8054906101000a900473ffffffffffffffffffffffffffffffffffffffff16600161096a565b505b60015f9054906101000a900473ffffffffffffffffffffffffffffffffffffffff1673ffffffffffffffffffffffffffffffffffffffff163373ffffffffffffffffffffffffffffffffffffffff1603610944576706f05b59d3b2000060055f60015f9054906101000a900473ffffffffffffffffffffffffffffffffffffffff1673ffffffffffffffffffffffffffffffffffffffff1673ffffffffffffffffffffffffffffffffffffffff1681526020019081526020015f2054146107e0576040517f08c379a00000000000000000000000000000000000000000000000000000000081526004016107d790611464565b60405180910390fd5b60045f9054906101000a900460ff1661082e576040517f08c379a0000000000000000000000000000000000000000000000000000000008152600401610825906114cc565b60405180910390fd5b5f805b600981101561086d575f83826009811061084e5761084d6114ea565b5b6020020151146108605780915061086d565b8080600101915050610831565b505f60038281548110610883576108826114ea565b5b905f5260205f200154146108cc576040517f08c379a00000000000000000000000000000000000000000000000000000000081526004016108c390611561565b60405180910390fd5b6002600382815481106108e2576108e16114ea565b5b905f5260205f20018190555060045f9054906101000a900460ff161560045f6101000a81548160ff02191690831515021790555061094260015f9054906101000a900473ffffffffffffffffffffffffffffffffffffffff16600261096a565b505b50565b5f8054906101000a900473ffffffffffffffffffffffffffffffffffffffff1681565b8060035f8154811061097f5761097e6114ea565b5b905f5260205f2001541480156109b157508060036001815481106109a6576109a56114ea565b5b905f5260205f200154145b80156109d957508060036002815481106109ce576109cd6114ea565b5b905f5260205f200154145b156109e8576109e782610dbd565b5b8060036004815481106109fe576109fd6114ea565b5b905f5260205f200154148015610a305750806003600581548110610a2557610a246114ea565b5b905f5260205f200154145b8015610a585750806003600681548110610a4d57610a4c6114ea565b5b905f5260205f200154145b15610a6757610a6682610dbd565b5b806003600781548110610a7d57610a7c6114ea565b5b905f5260205f200154148015610aaf5750806003600881548110610aa457610aa36114ea565b5b905f5260205f200154145b8015610ad75750806003600981548110610acc57610acb6114ea565b5b905f5260205f200154145b15610ae657610ae582610dbd565b5b8060035f81548110610afb57610afa6114ea565b5b905f5260205f200154148015610b2c57508060038081548110610b2157610b206114ea565b5b905f5260205f200154145b8015610b545750806003600681548110610b4957610b486114ea565b5b905f5260205f200154145b15610b6357610b6282610dbd565b5b806003600181548110610b7957610b786114ea565b5b905f5260205f200154148015610bab5750806003600481548110610ba057610b9f6114ea565b5b905f5260205f200154145b8015610bd35750806003600781548110610bc857610bc76114ea565b5b905f5260205f200154145b15610be257610be182610dbd565b5b806003600281548110610bf857610bf76114ea565b5b905f5260205f200154148015610c2a5750806003600581548110610c1f57610c1e6114ea565b5b905f5260205f200154145b8015610c525750806003600881548110610c4757610c466114ea565b5b905f5260205f200154145b15610c6157610c6082610dbd565b5b8060035f81548110610c7657610c756114ea565b5b905f5260205f200154148015610ca85750806003600481548110610c9d57610c9c6114ea565b5b905f5260205f200154145b8015610cd05750806003600881548110610cc557610cc46114ea565b5b905f5260205f200154145b15610cdf57610cde82610dbd565b5b806003600281548110610cf557610cf46114ea565b5b905f5260205f200154148015610d275750806003600481548110610d1c57610d1b6114ea565b5b905f5260205f200154145b8015610d4f5750806003600681548110610d4457610d436114ea565b5b905f5260205f200154145b15610d5e57610d5d82610dbd565b5b5f606490505f5b6009811015610da6575f60038281548110610d8357610d826114ea565b5b905f5260205f20015403610d9957809150610da6565b8080600101915050610d65565b5060648103610db857610db7610e5b565b5b505050565b6001600460016101000a81548160ff0219169083151502179055505f8173ffffffffffffffffffffffffffffffffffffffff166108fc670de0b6b3a764000090811502906040515f60405180830381858888f19350505050905080610e57576040517f08c379a0000000000000000000000000000000000000000000000000000000008152600401610e4e906110af565b60405180910390fd5b5050565b6001600460016101000a81548160ff0219169083151502179055505f805f9054906101000a900473ffffffffffffffffffffffffffffffffffffffff1673ffffffffffffffffffffffffffffffffffffffff166108fc6706f05b59d3b2000090811502906040515f60405180830381858888f19350505050905080610f15576040517f08c379a0000000000000000000000000000000000000000000000000000000008152600401610f0c906110af565b60405180910390fd5b5f60015f9054906101000a900473ffffffffffffffffffffffffffffffffffffffff1673ffffffffffffffffffffffffffffffffffffffff166108fc6706f05b59d3b2000090811502906040515f60405180830381858888f19350505050905080610fb5576040517f08c379a0000000000000000000000000000000000000000000000000000000008152600401610fac906110af565b60405180910390fd5b5050565b5f819050919050565b7f4e487b71000000000000000000000000000000000000000000000000000000005f52601160045260245ffd5b5f610ff982610fb9565b915061100483610fb9565b925082820190508082111561101c5761101b610fc2565b5b92915050565b5f61102c82610fb9565b915061103783610fb9565b925082820390508181111561104f5761104e610fc2565b5b92915050565b5f82825260208201905092915050565b7f4661696c656420746f2073656e642045746865720000000000000000000000005f82015250565b5f611099601483611055565b91506110a482611065565b602082019050919050565b5f6020820190508181035f8301526110c68161108d565b9050919050565b5f8115159050919050565b6110e1816110cd565b82525050565b5f6020820190506110fa5f8301846110d8565b92915050565b5f604051905090565b5f80fd5b61111681610fb9565b8114611120575f80fd5b50565b5f813590506111318161110d565b92915050565b5f6020828403121561114c5761114b611109565b5b5f61115984828501611123565b91505092915050565b61116b81610fb9565b82525050565b5f6020820190506111845f830184611162565b92915050565b5f73ffffffffffffffffffffffffffffffffffffffff82169050919050565b5f6111b38261118a565b9050919050565b6111c3816111a9565b81146111cd575f80fd5b50565b5f813590506111de816111ba565b92915050565b5f602082840312156111f9576111f8611109565b5b5f611206848285016111d0565b91505092915050565b5f6112198261118a565b9050919050565b6112298161120f565b82525050565b5f6020820190506112425f830184611220565b92915050565b5f80fd5b5f601f19601f8301169050919050565b7f4e487b71000000000000000000000000000000000000000000000000000000005f52604160045260245ffd5b6112928261124c565b810181811067ffffffffffffffff821117156112b1576112b061125c565b5b80604052505050565b5f6112c3611100565b90506112cf8282611289565b919050565b5f67ffffffffffffffff8211156112ee576112ed61125c565b5b602082029050919050565b5f80fd5b5f61130f61130a846112d4565b6112ba565b90508060208402830185811115611329576113286112f9565b5b835b81811015611352578061133e8882611123565b84526020840193505060208101905061132b565b5050509392505050565b5f82601f8301126113705761136f611248565b5b600961137d8482856112fd565b91505092915050565b5f610120828403121561139c5761139b611109565b5b5f6113a98482850161135c565b91505092915050565b7f67616d652068617320656e6465640000000000000000000000000000000000005f82015250565b5f6113e6600e83611055565b91506113f1826113b2565b602082019050919050565b5f6020820190508181035f830152611413816113da565b9050919050565b7f6e6f206465706f736974000000000000000000000000000000000000000000005f82015250565b5f61144e600a83611055565b91506114598261141a565b602082019050919050565b5f6020820190508181035f83015261147b81611442565b9050919050565b7f6e6f7420796f7572207475726e000000000000000000000000000000000000005f82015250565b5f6114b6600d83611055565b91506114c182611482565b602082019050919050565b5f6020820190508181035f8301526114e3816114aa565b9050919050565b7f4e487b71000000000000000000000000000000000000000000000000000000005f52603260045260245ffd5b7f746869732074696c6520697320616c72656164792075736564000000000000005f82015250565b5f61154b601983611055565b915061155682611517565b602082019050919050565b5f6020820190508181035f8301526115788161153f565b905091905056fea26469706673582212207da0ab4530b467b0f1ad175f1c1da843726e7906837acb624050ea23b195df9d64736f6c634300081a0033",
					"opcodes": "PUSH1 0x80 PUSH1 0x40 MSTORE PUSH8 0x6F05B59D3B20000 PUSH1 0x2 SSTORE CALLVALUE DUP1 ISZERO PUSH2 0x1B JUMPI PUSH0 DUP1 REVERT JUMPDEST POP PUSH1 0x40 MLOAD PUSH2 0x182B CODESIZE SUB DUP1 PUSH2 0x182B DUP4 CODECOPY DUP2 DUP2 ADD PUSH1 0x40 MSTORE DUP2 ADD SWAP1 PUSH2 0x3D SWAP2 SWAP1 PUSH2 0x22B JUMP JUMPDEST DUP2 PUSH0 DUP1 PUSH2 0x100 EXP DUP2 SLOAD DUP2 PUSH20 0xFFFFFFFFFFFFFFFFFFFFFFFFFFFFFFFFFFFFFFFF MUL NOT AND SWAP1 DUP4 PUSH20 0xFFFFFFFFFFFFFFFFFFFFFFFFFFFFFFFFFFFFFFFF AND MUL OR SWAP1 SSTORE POP DUP1 PUSH1 0x1 PUSH0 PUSH2 0x100 EXP DUP2 SLOAD DUP2 PUSH20 0xFFFFFFFFFFFFFFFFFFFFFFFFFFFFFFFFFFFFFFFF MUL NOT AND SWAP1 DUP4 PUSH20 0xFFFFFFFFFFFFFFFFFFFFFFFFFFFFFFFFFFFFFFFF AND MUL OR SWAP1 SSTORE POP PUSH0 PUSH1 0x4 PUSH0 PUSH2 0x100 EXP DUP2 SLOAD DUP2 PUSH1 0xFF MUL NOT AND SWAP1 DUP4 ISZERO ISZERO MUL OR SWAP1 SSTORE POP PUSH1 0x40 MLOAD DUP1 PUSH2 0x120 ADD PUSH1 0x40 MSTORE DUP1 PUSH0 PUSH1 0xFF AND DUP2 MSTORE PUSH1 0x20 ADD PUSH0 PUSH1 0xFF AND DUP2 MSTORE PUSH1 0x20 ADD PUSH0 PUSH1 0xFF AND DUP2 MSTORE PUSH1 0x20 ADD PUSH0 PUSH1 0xFF AND DUP2 MSTORE PUSH1 0x20 ADD PUSH0 PUSH1 0xFF AND DUP2 MSTORE PUSH1 0x20 ADD PUSH0 PUSH1 0xFF AND DUP2 MSTORE PUSH1 0x20 ADD PUSH0 PUSH1 0xFF AND DUP2 MSTORE PUSH1 0x20 ADD PUSH0 PUSH1 0xFF AND DUP2 MSTORE PUSH1 0x20 ADD PUSH0 PUSH1 0xFF AND DUP2 MSTORE POP PUSH1 0x3 SWAP1 PUSH1 0x9 PUSH2 0x140 SWAP3 SWAP2 SWAP1 PUSH2 0x162 JUMP JUMPDEST POP PUSH0 PUSH1 0x4 PUSH1 0x1 PUSH2 0x100 EXP DUP2 SLOAD DUP2 PUSH1 0xFF MUL NOT AND SWAP1 DUP4 ISZERO ISZERO MUL OR SWAP1 SSTORE POP POP POP PUSH2 0x269 JUMP JUMPDEST DUP3 DUP1 SLOAD DUP3 DUP3 SSTORE SWAP1 PUSH0 MSTORE PUSH1 0x20 PUSH0 KECCAK256 SWAP1 DUP2 ADD SWAP3 DUP3 ISZERO PUSH2 0x1A1 JUMPI SWAP2 PUSH1 0x20 MUL DUP3 ADD JUMPDEST DUP3 DUP2 GT ISZERO PUSH2 0x1A0 JUMPI DUP3 MLOAD DUP3 SWAP1 PUSH1 0xFF AND SWAP1 SSTORE SWAP2 PUSH1 0x20 ADD SWAP2 SWAP1 PUSH1 0x1 ADD SWAP1 PUSH2 0x180 JUMP JUMPDEST JUMPDEST POP SWAP1 POP PUSH2 0x1AE SWAP2 SWAP1 PUSH2 0x1B2 JUMP JUMPDEST POP SWAP1 JUMP JUMPDEST JUMPDEST DUP1 DUP3 GT ISZERO PUSH2 0x1C9 JUMPI PUSH0 DUP2 PUSH0 SWAP1 SSTORE POP PUSH1 0x1 ADD PUSH2 0x1B3 JUMP JUMPDEST POP SWAP1 JUMP JUMPDEST PUSH0 DUP1 REVERT JUMPDEST PUSH0 PUSH20 0xFFFFFFFFFFFFFFFFFFFFFFFFFFFFFFFFFFFFFFFF DUP3 AND SWAP1 POP SWAP2 SWAP1 POP JUMP JUMPDEST PUSH0 PUSH2 0x1FA DUP3 PUSH2 0x1D1 JUMP JUMPDEST SWAP1 POP SWAP2 SWAP1 POP JUMP JUMPDEST PUSH2 0x20A DUP2 PUSH2 0x1F0 JUMP JUMPDEST DUP2 EQ PUSH2 0x214 JUMPI PUSH0 DUP1 REVERT JUMPDEST POP JUMP JUMPDEST PUSH0 DUP2 MLOAD SWAP1 POP PUSH2 0x225 DUP2 PUSH2 0x201 JUMP JUMPDEST SWAP3 SWAP2 POP POP JUMP JUMPDEST PUSH0 DUP1 PUSH1 0x40 DUP4 DUP6 SUB SLT ISZERO PUSH2 0x241 JUMPI PUSH2 0x240 PUSH2 0x1CD JUMP JUMPDEST JUMPDEST PUSH0 PUSH2 0x24E DUP6 DUP3 DUP7 ADD PUSH2 0x217 JUMP JUMPDEST SWAP3 POP POP PUSH1 0x20 PUSH2 0x25F DUP6 DUP3 DUP7 ADD PUSH2 0x217 JUMP JUMPDEST SWAP2 POP POP SWAP3 POP SWAP3 SWAP1 POP JUMP JUMPDEST PUSH2 0x15B5 DUP1 PUSH2 0x276 PUSH0 CODECOPY PUSH0 RETURN INVALID PUSH1 0x80 PUSH1 0x40 MSTORE PUSH1 0x4 CALLDATASIZE LT PUSH2 0x7E JUMPI PUSH0 CALLDATALOAD PUSH1 0xE0 SHR DUP1 PUSH4 0x855A0FE3 GT PUSH2 0x4D JUMPI DUP1 PUSH4 0x855A0FE3 EQ PUSH2 0x30D JUMPI DUP1 PUSH4 0x8B299903 EQ PUSH2 0x337 JUMPI DUP1 PUSH4 0xAD86287A EQ PUSH2 0x361 JUMPI DUP1 PUSH4 0xC2A2747B EQ PUSH2 0x389 JUMPI PUSH2 0x23D JUMP JUMPDEST DUP1 PUSH4 0x2F6FE396 EQ PUSH2 0x241 JUMPI DUP1 PUSH4 0x4E0E1A3E EQ PUSH2 0x26B JUMPI DUP1 PUSH4 0x70A08231 EQ PUSH2 0x2A7 JUMPI DUP1 PUSH4 0x81D01ED3 EQ PUSH2 0x2E3 JUMPI PUSH2 0x23D JUMP JUMPDEST CALLDATASIZE PUSH2 0x23D JUMPI CALLVALUE PUSH1 0x5 PUSH0 CALLER PUSH20 0xFFFFFFFFFFFFFFFFFFFFFFFFFFFFFFFFFFFFFFFF AND PUSH20 0xFFFFFFFFFFFFFFFFFFFFFFFFFFFFFFFFFFFFFFFF AND DUP2 MSTORE PUSH1 0x20 ADD SWAP1 DUP2 MSTORE PUSH1 0x20 ADD PUSH0 KECCAK256 PUSH0 DUP3 DUP3 SLOAD PUSH2 0xCF SWAP2 SWAP1 PUSH2 0xFEF JUMP JUMPDEST SWAP3 POP POP DUP2 SWAP1 SSTORE POP PUSH8 0x6F05B59D3B20000 PUSH1 0x5 PUSH0 CALLER PUSH20 0xFFFFFFFFFFFFFFFFFFFFFFFFFFFFFFFFFFFFFFFF AND PUSH20 0xFFFFFFFFFFFFFFFFFFFFFFFFFFFFFFFFFFFFFFFF AND DUP2 MSTORE PUSH1 0x20 ADD SWAP1 DUP2 MSTORE PUSH1 0x20 ADD PUSH0 KECCAK256 SLOAD GT ISZERO PUSH2 0x23B JUMPI PUSH0 PUSH8 0x6F05B59D3B20000 PUSH1 0x5 PUSH0 CALLER PUSH20 0xFFFFFFFFFFFFFFFFFFFFFFFFFFFFFFFFFFFFFFFF AND PUSH20 0xFFFFFFFFFFFFFFFFFFFFFFFFFFFFFFFFFFFFFFFF AND DUP2 MSTORE PUSH1 0x20 ADD SWAP1 DUP2 MSTORE PUSH1 0x20 ADD PUSH0 KECCAK256 SLOAD PUSH2 0x175 SWAP2 SWAP1 PUSH2 0x1022 JUMP JUMPDEST SWAP1 POP PUSH8 0x6F05B59D3B20000 PUSH1 0x5 PUSH0 CALLER PUSH20 0xFFFFFFFFFFFFFFFFFFFFFFFFFFFFFFFFFFFFFFFF AND PUSH20 0xFFFFFFFFFFFFFFFFFFFFFFFFFFFFFFFFFFFFFFFF AND DUP2 MSTORE PUSH1 0x20 ADD SWAP1 DUP2 MSTORE PUSH1 0x20 ADD PUSH0 KECCAK256 DUP2 SWAP1 SSTORE POP PUSH0 CALLER PUSH20 0xFFFFFFFFFFFFFFFFFFFFFFFFFFFFFFFFFFFFFFFF AND PUSH2 0x8FC DUP4 SWAP1 DUP2 ISZERO MUL SWAP1 PUSH1 0x40 MLOAD PUSH0 PUSH1 0x40 MLOAD DUP1 DUP4 SUB DUP2 DUP6 DUP9 DUP9 CALL SWAP4 POP POP POP POP SWAP1 POP DUP1 PUSH2 0x238 JUMPI PUSH1 0x40 MLOAD PUSH32 0x8C379A000000000000000000000000000000000000000000000000000000000 DUP2 MSTORE PUSH1 0x4 ADD PUSH2 0x22F SWAP1 PUSH2 0x10AF JUMP JUMPDEST PUSH1 0x40 MLOAD DUP1 SWAP2 SUB SWAP1 REVERT JUMPDEST POP POP JUMPDEST STOP JUMPDEST PUSH0 DUP1 REVERT JUMPDEST CALLVALUE DUP1 ISZERO PUSH2 0x24C JUMPI PUSH0 DUP1 REVERT JUMPDEST POP PUSH2 0x255 PUSH2 0x3B3 JUMP JUMPDEST PUSH1 0x40 MLOAD PUSH2 0x262 SWAP2 SWAP1 PUSH2 0x10E7 JUMP JUMPDEST PUSH1 0x40 MLOAD DUP1 SWAP2 SUB SWAP1 RETURN JUMPDEST CALLVALUE DUP1 ISZERO PUSH2 0x276 JUMPI PUSH0 DUP1 REVERT JUMPDEST POP PUSH2 0x291 PUSH1 0x4 DUP1 CALLDATASIZE SUB DUP2 ADD SWAP1 PUSH2 0x28C SWAP2 SWAP1 PUSH2 0x1137 JUMP JUMPDEST PUSH2 0x3C6 JUMP JUMPDEST PUSH1 0x40 MLOAD PUSH2 0x29E SWAP2 SWAP1 PUSH2 0x1171 JUMP JUMPDEST PUSH1 0x40 MLOAD DUP1 SWAP2 SUB SWAP1 RETURN JUMPDEST CALLVALUE DUP1 ISZERO PUSH2 0x2B2 JUMPI PUSH0 DUP1 REVERT JUMPDEST POP PUSH2 0x2CD PUSH1 0x4 DUP1 CALLDATASIZE SUB DUP2 ADD SWAP1 PUSH2 0x2C8 SWAP2 SWAP1 PUSH2 0x11E4 JUMP JUMPDEST PUSH2 0x3E6 JUMP JUMPDEST PUSH1 0x40 MLOAD PUSH2 0x2DA SWAP2 SWAP1 PUSH2 0x1171 JUMP JUMPDEST PUSH1 0x40 MLOAD DUP1 SWAP2 SUB SWAP1 RETURN JUMPDEST CALLVALUE DUP1 ISZERO PUSH2 0x2EE JUMPI PUSH0 DUP1 REVERT JUMPDEST POP PUSH2 0x2F7 PUSH2 0x3FB JUMP JUMPDEST PUSH1 0x40 MLOAD PUSH2 0x304 SWAP2 SWAP1 PUSH2 0x122F JUMP JUMPDEST PUSH1 0x40 MLOAD DUP1 SWAP2 SUB SWAP1 RETURN JUMPDEST CALLVALUE DUP1 ISZERO PUSH2 0x318 JUMPI PUSH0 DUP1 REVERT JUMPDEST POP PUSH2 0x321 PUSH2 0x420 JUMP JUMPDEST PUSH1 0x40 MLOAD PUSH2 0x32E SWAP2 SWAP1 PUSH2 0x1171 JUMP JUMPDEST PUSH1 0x40 MLOAD DUP1 SWAP2 SUB SWAP1 RETURN JUMPDEST CALLVALUE DUP1 ISZERO PUSH2 0x342 JUMPI PUSH0 DUP1 REVERT JUMPDEST POP PUSH2 0x34B PUSH2 0x426 JUMP JUMPDEST PUSH1 0x40 MLOAD PUSH2 0x358 SWAP2 SWAP1 PUSH2 0x10E7 JUMP JUMPDEST PUSH1 0x40 MLOAD DUP1 SWAP2 SUB SWAP1 RETURN JUMPDEST CALLVALUE DUP1 ISZERO PUSH2 0x36C JUMPI PUSH0 DUP1 REVERT JUMPDEST POP PUSH2 0x387 PUSH1 0x4 DUP1 CALLDATASIZE SUB DUP2 ADD SWAP1 PUSH2 0x382 SWAP2 SWAP1 PUSH2 0x1386 JUMP JUMPDEST PUSH2 0x438 JUMP JUMPDEST STOP JUMPDEST CALLVALUE DUP1 ISZERO PUSH2 0x394 JUMPI PUSH0 DUP1 REVERT JUMPDEST POP PUSH2 0x39D PUSH2 0x947 JUMP JUMPDEST PUSH1 0x40 MLOAD PUSH2 0x3AA SWAP2 SWAP1 PUSH2 0x122F JUMP JUMPDEST PUSH1 0x40 MLOAD DUP1 SWAP2 SUB SWAP1 RETURN JUMPDEST PUSH1 0x4 PUSH1 0x1 SWAP1 SLOAD SWAP1 PUSH2 0x100 EXP SWAP1 DIV PUSH1 0xFF AND DUP2 JUMP JUMPDEST PUSH1 0x3 DUP2 DUP2 SLOAD DUP2 LT PUSH2 0x3D5 JUMPI PUSH0 DUP1 REVERT JUMPDEST SWAP1 PUSH0 MSTORE PUSH1 0x20 PUSH0 KECCAK256 ADD PUSH0 SWAP2 POP SWAP1 POP SLOAD DUP2 JUMP JUMPDEST PUSH1 0x5 PUSH1 0x20 MSTORE DUP1 PUSH0 MSTORE PUSH1 0x40 PUSH0 KECCAK256 PUSH0 SWAP2 POP SWAP1 POP SLOAD DUP2 JUMP JUMPDEST PUSH1 0x1 PUSH0 SWAP1 SLOAD SWAP1 PUSH2 0x100 EXP SWAP1 DIV PUSH20 0xFFFFFFFFFFFFFFFFFFFFFFFFFFFFFFFFFFFFFFFF AND DUP2 JUMP JUMPDEST PUSH1 0x2 SLOAD DUP2 JUMP JUMPDEST PUSH1 0x4 PUSH0 SWAP1 SLOAD SWAP1 PUSH2 0x100 EXP SWAP1 DIV PUSH1 0xFF AND DUP2 JUMP JUMPDEST PUSH1 0x4 PUSH1 0x1 SWAP1 SLOAD SWAP1 PUSH2 0x100 EXP SWAP1 DIV PUSH1 0xFF AND ISZERO PUSH2 0x488 JUMPI PUSH1 0x40 MLOAD PUSH32 0x8C379A000000000000000000000000000000000000000000000000000000000 DUP2 MSTORE PUSH1 0x4 ADD PUSH2 0x47F SWAP1 PUSH2 0x13FC JUMP JUMPDEST PUSH1 0x40 MLOAD DUP1 SWAP2 SUB SWAP1 REVERT JUMPDEST PUSH0 DUP1 SLOAD SWAP1 PUSH2 0x100 EXP SWAP1 DIV PUSH20 0xFFFFFFFFFFFFFFFFFFFFFFFFFFFFFFFFFFFFFFFF AND PUSH20 0xFFFFFFFFFFFFFFFFFFFFFFFFFFFFFFFFFFFFFFFF AND CALLER PUSH20 0xFFFFFFFFFFFFFFFFFFFFFFFFFFFFFFFFFFFFFFFF AND SUB PUSH2 0x6E4 JUMPI PUSH8 0x6F05B59D3B20000 PUSH1 0x5 PUSH0 DUP1 PUSH0 SWAP1 SLOAD SWAP1 PUSH2 0x100 EXP SWAP1 DIV PUSH20 0xFFFFFFFFFFFFFFFFFFFFFFFFFFFFFFFFFFFFFFFF AND PUSH20 0xFFFFFFFFFFFFFFFFFFFFFFFFFFFFFFFFFFFFFFFF AND PUSH20 0xFFFFFFFFFFFFFFFFFFFFFFFFFFFFFFFFFFFFFFFF AND DUP2 MSTORE PUSH1 0x20 ADD SWAP1 DUP2 MSTORE PUSH1 0x20 ADD PUSH0 KECCAK256 SLOAD EQ PUSH2 0x581 JUMPI PUSH1 0x40 MLOAD PUSH32 0x8C379A000000000000000000000000000000000000000000000000000000000 DUP2 MSTORE PUSH1 0x4 ADD PUSH2 0x578 SWAP1 PUSH2 0x1464 JUMP JUMPDEST PUSH1 0x40 MLOAD DUP1 SWAP2 SUB SWAP1 REVERT JUMPDEST PUSH1 0x4 PUSH0 SWAP1 SLOAD SWAP1 PUSH2 0x100 EXP SWAP1 DIV PUSH1 0xFF AND ISZERO PUSH2 0x5D0 JUMPI PUSH1 0x40 MLOAD PUSH32 0x8C379A000000000000000000000000000000000000000000000000000000000 DUP2 MSTORE PUSH1 0x4 ADD PUSH2 0x5C7 SWAP1 PUSH2 0x14CC JUMP JUMPDEST PUSH1 0x40 MLOAD DUP1 SWAP2 SUB SWAP1 REVERT JUMPDEST PUSH0 DUP1 JUMPDEST PUSH1 0x9 DUP2 LT ISZERO PUSH2 0x60F JUMPI PUSH0 DUP4 DUP3 PUSH1 0x9 DUP2 LT PUSH2 0x5F0 JUMPI PUSH2 0x5EF PUSH2 0x14EA JUMP JUMPDEST JUMPDEST PUSH1 0x20 MUL ADD MLOAD EQ PUSH2 0x602 JUMPI DUP1 SWAP2 POP PUSH2 0x60F JUMP JUMPDEST DUP1 DUP1 PUSH1 0x1 ADD SWAP2 POP POP PUSH2 0x5D3 JUMP JUMPDEST POP PUSH0 PUSH1 0x3 DUP3 DUP2 SLOAD DUP2 LT PUSH2 0x625 JUMPI PUSH2 0x624 PUSH2 0x14EA JUMP JUMPDEST JUMPDEST SWAP1 PUSH0 MSTORE PUSH1 0x20 PUSH0 KECCAK256 ADD SLOAD EQ PUSH2 0x66E JUMPI PUSH1 0x40 MLOAD PUSH32 0x8C379A000000000000000000000000000000000000000000000000000000000 DUP2 MSTORE PUSH1 0x4 ADD PUSH2 0x665 SWAP1 PUSH2 0x1561 JUMP JUMPDEST PUSH1 0x40 MLOAD DUP1 SWAP2 SUB SWAP1 REVERT JUMPDEST PUSH1 0x1 PUSH1 0x3 DUP3 DUP2 SLOAD DUP2 LT PUSH2 0x684 JUMPI PUSH2 0x683 PUSH2 0x14EA JUMP JUMPDEST JUMPDEST SWAP1 PUSH0 MSTORE PUSH1 0x20 PUSH0 KECCAK256 ADD DUP2 SWAP1 SSTORE POP PUSH1 0x4 PUSH0 SWAP1 SLOAD SWAP1 PUSH2 0x100 EXP SWAP1 DIV PUSH1 0xFF AND ISZERO PUSH1 0x4 PUSH0 PUSH2 0x100 EXP DUP2 SLOAD DUP2 PUSH1 0xFF MUL NOT AND SWAP1 DUP4 ISZERO ISZERO MUL OR SWAP1 SSTORE POP PUSH2 0x6E2 PUSH0 DUP1 SLOAD SWAP1 PUSH2 0x100 EXP SWAP1 DIV PUSH20 0xFFFFFFFFFFFFFFFFFFFFFFFFFFFFFFFFFFFFFFFF AND PUSH1 0x1 PUSH2 0x96A JUMP JUMPDEST POP JUMPDEST PUSH1 0x1 PUSH0 SWAP1 SLOAD SWAP1 PUSH2 0x100 EXP SWAP1 DIV PUSH20 0xFFFFFFFFFFFFFFFFFFFFFFFFFFFFFFFFFFFFFFFF AND PUSH20 0xFFFFFFFFFFFFFFFFFFFFFFFFFFFFFFFFFFFFFFFF AND CALLER PUSH20 0xFFFFFFFFFFFFFFFFFFFFFFFFFFFFFFFFFFFFFFFF AND SUB PUSH2 0x944 JUMPI PUSH8 0x6F05B59D3B20000 PUSH1 0x5 PUSH0 PUSH1 0x1 PUSH0 SWAP1 SLOAD SWAP1 PUSH2 0x100 EXP SWAP1 DIV PUSH20 0xFFFFFFFFFFFFFFFFFFFFFFFFFFFFFFFFFFFFFFFF AND PUSH20 0xFFFFFFFFFFFFFFFFFFFFFFFFFFFFFFFFFFFFFFFF AND PUSH20 0xFFFFFFFFFFFFFFFFFFFFFFFFFFFFFFFFFFFFFFFF AND DUP2 MSTORE PUSH1 0x20 ADD SWAP1 DUP2 MSTORE PUSH1 0x20 ADD PUSH0 KECCAK256 SLOAD EQ PUSH2 0x7E0 JUMPI PUSH1 0x40 MLOAD PUSH32 0x8C379A000000000000000000000000000000000000000000000000000000000 DUP2 MSTORE PUSH1 0x4 ADD PUSH2 0x7D7 SWAP1 PUSH2 0x1464 JUMP JUMPDEST PUSH1 0x40 MLOAD DUP1 SWAP2 SUB SWAP1 REVERT JUMPDEST PUSH1 0x4 PUSH0 SWAP1 SLOAD SWAP1 PUSH2 0x100 EXP SWAP1 DIV PUSH1 0xFF AND PUSH2 0x82E JUMPI PUSH1 0x40 MLOAD PUSH32 0x8C379A000000000000000000000000000000000000000000000000000000000 DUP2 MSTORE PUSH1 0x4 ADD PUSH2 0x825 SWAP1 PUSH2 0x14CC JUMP JUMPDEST PUSH1 0x40 MLOAD DUP1 SWAP2 SUB SWAP1 REVERT JUMPDEST PUSH0 DUP1 JUMPDEST PUSH1 0x9 DUP2 LT ISZERO PUSH2 0x86D JUMPI PUSH0 DUP4 DUP3 PUSH1 0x9 DUP2 LT PUSH2 0x84E JUMPI PUSH2 0x84D PUSH2 0x14EA JUMP JUMPDEST JUMPDEST PUSH1 0x20 MUL ADD MLOAD EQ PUSH2 0x860 JUMPI DUP1 SWAP2 POP PUSH2 0x86D JUMP JUMPDEST DUP1 DUP1 PUSH1 0x1 ADD SWAP2 POP POP PUSH2 0x831 JUMP JUMPDEST POP PUSH0 PUSH1 0x3 DUP3 DUP2 SLOAD DUP2 LT PUSH2 0x883 JUMPI PUSH2 0x882 PUSH2 0x14EA JUMP JUMPDEST JUMPDEST SWAP1 PUSH0 MSTORE PUSH1 0x20 PUSH0 KECCAK256 ADD SLOAD EQ PUSH2 0x8CC JUMPI PUSH1 0x40 MLOAD PUSH32 0x8C379A000000000000000000000000000000000000000000000000000000000 DUP2 MSTORE PUSH1 0x4 ADD PUSH2 0x8C3 SWAP1 PUSH2 0x1561 JUMP JUMPDEST PUSH1 0x40 MLOAD DUP1 SWAP2 SUB SWAP1 REVERT JUMPDEST PUSH1 0x2 PUSH1 0x3 DUP3 DUP2 SLOAD DUP2 LT PUSH2 0x8E2 JUMPI PUSH2 0x8E1 PUSH2 0x14EA JUMP JUMPDEST JUMPDEST SWAP1 PUSH0 MSTORE PUSH1 0x20 PUSH0 KECCAK256 ADD DUP2 SWAP1 SSTORE POP PUSH1 0x4 PUSH0 SWAP1 SLOAD SWAP1 PUSH2 0x100 EXP SWAP1 DIV PUSH1 0xFF AND ISZERO PUSH1 0x4 PUSH0 PUSH2 0x100 EXP DUP2 SLOAD DUP2 PUSH1 0xFF MUL NOT AND SWAP1 DUP4 ISZERO ISZERO MUL OR SWAP1 SSTORE POP PUSH2 0x942 PUSH1 0x1 PUSH0 SWAP1 SLOAD SWAP1 PUSH2 0x100 EXP SWAP1 DIV PUSH20 0xFFFFFFFFFFFFFFFFFFFFFFFFFFFFFFFFFFFFFFFF AND PUSH1 0x2 PUSH2 0x96A JUMP JUMPDEST POP JUMPDEST POP JUMP JUMPDEST PUSH0 DUP1 SLOAD SWAP1 PUSH2 0x100 EXP SWAP1 DIV PUSH20 0xFFFFFFFFFFFFFFFFFFFFFFFFFFFFFFFFFFFFFFFF AND DUP2 JUMP JUMPDEST DUP1 PUSH1 0x3 PUSH0 DUP2 SLOAD DUP2 LT PUSH2 0x97F JUMPI PUSH2 0x97E PUSH2 0x14EA JUMP JUMPDEST JUMPDEST SWAP1 PUSH0 MSTORE PUSH1 0x20 PUSH0 KECCAK256 ADD SLOAD EQ DUP1 ISZERO PUSH2 0x9B1 JUMPI POP DUP1 PUSH1 0x3 PUSH1 0x1 DUP2 SLOAD DUP2 LT PUSH2 0x9A6 JUMPI PUSH2 0x9A5 PUSH2 0x14EA JUMP JUMPDEST JUMPDEST SWAP1 PUSH0 MSTORE PUSH1 0x20 PUSH0 KECCAK256 ADD SLOAD EQ JUMPDEST DUP1 ISZERO PUSH2 0x9D9 JUMPI POP DUP1 PUSH1 0x3 PUSH1 0x2 DUP2 SLOAD DUP2 LT PUSH2 0x9CE JUMPI PUSH2 0x9CD PUSH2 0x14EA JUMP JUMPDEST JUMPDEST SWAP1 PUSH0 MSTORE PUSH1 0x20 PUSH0 KECCAK256 ADD SLOAD EQ JUMPDEST ISZERO PUSH2 0x9E8 JUMPI PUSH2 0x9E7 DUP3 PUSH2 0xDBD JUMP JUMPDEST JUMPDEST DUP1 PUSH1 0x3 PUSH1 0x4 DUP2 SLOAD DUP2 LT PUSH2 0x9FE JUMPI PUSH2 0x9FD PUSH2 0x14EA JUMP JUMPDEST JUMPDEST SWAP1 PUSH0 MSTORE PUSH1 0x20 PUSH0 KECCAK256 ADD SLOAD EQ DUP1 ISZERO PUSH2 0xA30 JUMPI POP DUP1 PUSH1 0x3 PUSH1 0x5 DUP2 SLOAD DUP2 LT PUSH2 0xA25 JUMPI PUSH2 0xA24 PUSH2 0x14EA JUMP JUMPDEST JUMPDEST SWAP1 PUSH0 MSTORE PUSH1 0x20 PUSH0 KECCAK256 ADD SLOAD EQ JUMPDEST DUP1 ISZERO PUSH2 0xA58 JUMPI POP DUP1 PUSH1 0x3 PUSH1 0x6 DUP2 SLOAD DUP2 LT PUSH2 0xA4D JUMPI PUSH2 0xA4C PUSH2 0x14EA JUMP JUMPDEST JUMPDEST SWAP1 PUSH0 MSTORE PUSH1 0x20 PUSH0 KECCAK256 ADD SLOAD EQ JUMPDEST ISZERO PUSH2 0xA67 JUMPI PUSH2 0xA66 DUP3 PUSH2 0xDBD JUMP JUMPDEST JUMPDEST DUP1 PUSH1 0x3 PUSH1 0x7 DUP2 SLOAD DUP2 LT PUSH2 0xA7D JUMPI PUSH2 0xA7C PUSH2 0x14EA JUMP JUMPDEST JUMPDEST SWAP1 PUSH0 MSTORE PUSH1 0x20 PUSH0 KECCAK256 ADD SLOAD EQ DUP1 ISZERO PUSH2 0xAAF JUMPI POP DUP1 PUSH1 0x3 PUSH1 0x8 DUP2 SLOAD DUP2 LT PUSH2 0xAA4 JUMPI PUSH2 0xAA3 PUSH2 0x14EA JUMP JUMPDEST JUMPDEST SWAP1 PUSH0 MSTORE PUSH1 0x20 PUSH0 KECCAK256 ADD SLOAD EQ JUMPDEST DUP1 ISZERO PUSH2 0xAD7 JUMPI POP DUP1 PUSH1 0x3 PUSH1 0x9 DUP2 SLOAD DUP2 LT PUSH2 0xACC JUMPI PUSH2 0xACB PUSH2 0x14EA JUMP JUMPDEST JUMPDEST SWAP1 PUSH0 MSTORE PUSH1 0x20 PUSH0 KECCAK256 ADD SLOAD EQ JUMPDEST ISZERO PUSH2 0xAE6 JUMPI PUSH2 0xAE5 DUP3 PUSH2 0xDBD JUMP JUMPDEST JUMPDEST DUP1 PUSH1 0x3 PUSH0 DUP2 SLOAD DUP2 LT PUSH2 0xAFB JUMPI PUSH2 0xAFA PUSH2 0x14EA JUMP JUMPDEST JUMPDEST SWAP1 PUSH0 MSTORE PUSH1 0x20 PUSH0 KECCAK256 ADD SLOAD EQ DUP1 ISZERO PUSH2 0xB2C JUMPI POP DUP1 PUSH1 0x3 DUP1 DUP2 SLOAD DUP2 LT PUSH2 0xB21 JUMPI PUSH2 0xB20 PUSH2 0x14EA JUMP JUMPDEST JUMPDEST SWAP1 PUSH0 MSTORE PUSH1 0x20 PUSH0 KECCAK256 ADD SLOAD EQ JUMPDEST DUP1 ISZERO PUSH2 0xB54 JUMPI POP DUP1 PUSH1 0x3 PUSH1 0x6 DUP2 SLOAD DUP2 LT PUSH2 0xB49 JUMPI PUSH2 0xB48 PUSH2 0x14EA JUMP JUMPDEST JUMPDEST SWAP1 PUSH0 MSTORE PUSH1 0x20 PUSH0 KECCAK256 ADD SLOAD EQ JUMPDEST ISZERO PUSH2 0xB63 JUMPI PUSH2 0xB62 DUP3 PUSH2 0xDBD JUMP JUMPDEST JUMPDEST DUP1 PUSH1 0x3 PUSH1 0x1 DUP2 SLOAD DUP2 LT PUSH2 0xB79 JUMPI PUSH2 0xB78 PUSH2 0x14EA JUMP JUMPDEST JUMPDEST SWAP1 PUSH0 MSTORE PUSH1 0x20 PUSH0 KECCAK256 ADD SLOAD EQ DUP1 ISZERO PUSH2 0xBAB JUMPI POP DUP1 PUSH1 0x3 PUSH1 0x4 DUP2 SLOAD DUP2 LT PUSH2 0xBA0 JUMPI PUSH2 0xB9F PUSH2 0x14EA JUMP JUMPDEST JUMPDEST SWAP1 PUSH0 MSTORE PUSH1 0x20 PUSH0 KECCAK256 ADD SLOAD EQ JUMPDEST DUP1 ISZERO PUSH2 0xBD3 JUMPI POP DUP1 PUSH1 0x3 PUSH1 0x7 DUP2 SLOAD DUP2 LT PUSH2 0xBC8 JUMPI PUSH2 0xBC7 PUSH2 0x14EA JUMP JUMPDEST JUMPDEST SWAP1 PUSH0 MSTORE PUSH1 0x20 PUSH0 KECCAK256 ADD SLOAD EQ JUMPDEST ISZERO PUSH2 0xBE2 JUMPI PUSH2 0xBE1 DUP3 PUSH2 0xDBD JUMP JUMPDEST JUMPDEST DUP1 PUSH1 0x3 PUSH1 0x2 DUP2 SLOAD DUP2 LT PUSH2 0xBF8 JUMPI PUSH2 0xBF7 PUSH2 0x14EA JUMP JUMPDEST JUMPDEST SWAP1 PUSH0 MSTORE PUSH1 0x20 PUSH0 KECCAK256 ADD SLOAD EQ DUP1 ISZERO PUSH2 0xC2A JUMPI POP DUP1 PUSH1 0x3 PUSH1 0x5 DUP2 SLOAD DUP2 LT PUSH2 0xC1F JUMPI PUSH2 0xC1E PUSH2 0x14EA JUMP JUMPDEST JUMPDEST SWAP1 PUSH0 MSTORE PUSH1 0x20 PUSH0 KECCAK256 ADD SLOAD EQ JUMPDEST DUP1 ISZERO PUSH2 0xC52 JUMPI POP DUP1 PUSH1 0x3 PUSH1 0x8 DUP2 SLOAD DUP2 LT PUSH2 0xC47 JUMPI PUSH2 0xC46 PUSH2 0x14EA JUMP JUMPDEST JUMPDEST SWAP1 PUSH0 MSTORE PUSH1 0x20 PUSH0 KECCAK256 ADD SLOAD EQ JUMPDEST ISZERO PUSH2 0xC61 JUMPI PUSH2 0xC60 DUP3 PUSH2 0xDBD JUMP JUMPDEST JUMPDEST DUP1 PUSH1 0x3 PUSH0 DUP2 SLOAD DUP2 LT PUSH2 0xC76 JUMPI PUSH2 0xC75 PUSH2 0x14EA JUMP JUMPDEST JUMPDEST SWAP1 PUSH0 MSTORE PUSH1 0x20 PUSH0 KECCAK256 ADD SLOAD EQ DUP1 ISZERO PUSH2 0xCA8 JUMPI POP DUP1 PUSH1 0x3 PUSH1 0x4 DUP2 SLOAD DUP2 LT PUSH2 0xC9D JUMPI PUSH2 0xC9C PUSH2 0x14EA JUMP JUMPDEST JUMPDEST SWAP1 PUSH0 MSTORE PUSH1 0x20 PUSH0 KECCAK256 ADD SLOAD EQ JUMPDEST DUP1 ISZERO PUSH2 0xCD0 JUMPI POP DUP1 PUSH1 0x3 PUSH1 0x8 DUP2 SLOAD DUP2 LT PUSH2 0xCC5 JUMPI PUSH2 0xCC4 PUSH2 0x14EA JUMP JUMPDEST JUMPDEST SWAP1 PUSH0 MSTORE PUSH1 0x20 PUSH0 KECCAK256 ADD SLOAD EQ JUMPDEST ISZERO PUSH2 0xCDF JUMPI PUSH2 0xCDE DUP3 PUSH2 0xDBD JUMP JUMPDEST JUMPDEST DUP1 PUSH1 0x3 PUSH1 0x2 DUP2 SLOAD DUP2 LT PUSH2 0xCF5 JUMPI PUSH2 0xCF4 PUSH2 0x14EA JUMP JUMPDEST JUMPDEST SWAP1 PUSH0 MSTORE PUSH1 0x20 PUSH0 KECCAK256 ADD SLOAD EQ DUP1 ISZERO PUSH2 0xD27 JUMPI POP DUP1 PUSH1 0x3 PUSH1 0x4 DUP2 SLOAD DUP2 LT PUSH2 0xD1C JUMPI PUSH2 0xD1B PUSH2 0x14EA JUMP JUMPDEST JUMPDEST SWAP1 PUSH0 MSTORE PUSH1 0x20 PUSH0 KECCAK256 ADD SLOAD EQ JUMPDEST DUP1 ISZERO PUSH2 0xD4F JUMPI POP DUP1 PUSH1 0x3 PUSH1 0x6 DUP2 SLOAD DUP2 LT PUSH2 0xD44 JUMPI PUSH2 0xD43 PUSH2 0x14EA JUMP JUMPDEST JUMPDEST SWAP1 PUSH0 MSTORE PUSH1 0x20 PUSH0 KECCAK256 ADD SLOAD EQ JUMPDEST ISZERO PUSH2 0xD5E JUMPI PUSH2 0xD5D DUP3 PUSH2 0xDBD JUMP JUMPDEST JUMPDEST PUSH0 PUSH1 0x64 SWAP1 POP PUSH0 JUMPDEST PUSH1 0x9 DUP2 LT ISZERO PUSH2 0xDA6 JUMPI PUSH0 PUSH1 0x3 DUP3 DUP2 SLOAD DUP2 LT PUSH2 0xD83 JUMPI PUSH2 0xD82 PUSH2 0x14EA JUMP JUMPDEST JUMPDEST SWAP1 PUSH0 MSTORE PUSH1 0x20 PUSH0 KECCAK256 ADD SLOAD SUB PUSH2 0xD99 JUMPI DUP1 SWAP2 POP PUSH2 0xDA6 JUMP JUMPDEST DUP1 DUP1 PUSH1 0x1 ADD SWAP2 POP POP PUSH2 0xD65 JUMP JUMPDEST POP PUSH1 0x64 DUP2 SUB PUSH2 0xDB8 JUMPI PUSH2 0xDB7 PUSH2 0xE5B JUMP JUMPDEST JUMPDEST POP POP POP JUMP JUMPDEST PUSH1 0x1 PUSH1 0x4 PUSH1 0x1 PUSH2 0x100 EXP DUP2 SLOAD DUP2 PUSH1 0xFF MUL NOT AND SWAP1 DUP4 ISZERO ISZERO MUL OR SWAP1 SSTORE POP PUSH0 DUP2 PUSH20 0xFFFFFFFFFFFFFFFFFFFFFFFFFFFFFFFFFFFFFFFF AND PUSH2 0x8FC PUSH8 0xDE0B6B3A7640000 SWAP1 DUP2 ISZERO MUL SWAP1 PUSH1 0x40 MLOAD PUSH0 PUSH1 0x40 MLOAD DUP1 DUP4 SUB DUP2 DUP6 DUP9 DUP9 CALL SWAP4 POP POP POP POP SWAP1 POP DUP1 PUSH2 0xE57 JUMPI PUSH1 0x40 MLOAD PUSH32 0x8C379A000000000000000000000000000000000000000000000000000000000 DUP2 MSTORE PUSH1 0x4 ADD PUSH2 0xE4E SWAP1 PUSH2 0x10AF JUMP JUMPDEST PUSH1 0x40 MLOAD DUP1 SWAP2 SUB SWAP1 REVERT JUMPDEST POP POP JUMP JUMPDEST PUSH1 0x1 PUSH1 0x4 PUSH1 0x1 PUSH2 0x100 EXP DUP2 SLOAD DUP2 PUSH1 0xFF MUL NOT AND SWAP1 DUP4 ISZERO ISZERO MUL OR SWAP1 SSTORE POP PUSH0 DUP1 PUSH0 SWAP1 SLOAD SWAP1 PUSH2 0x100 EXP SWAP1 DIV PUSH20 0xFFFFFFFFFFFFFFFFFFFFFFFFFFFFFFFFFFFFFFFF AND PUSH20 0xFFFFFFFFFFFFFFFFFFFFFFFFFFFFFFFFFFFFFFFF AND PUSH2 0x8FC PUSH8 0x6F05B59D3B20000 SWAP1 DUP2 ISZERO MUL SWAP1 PUSH1 0x40 MLOAD PUSH0 PUSH1 0x40 MLOAD DUP1 DUP4 SUB DUP2 DUP6 DUP9 DUP9 CALL SWAP4 POP POP POP POP SWAP1 POP DUP1 PUSH2 0xF15 JUMPI PUSH1 0x40 MLOAD PUSH32 0x8C379A000000000000000000000000000000000000000000000000000000000 DUP2 MSTORE PUSH1 0x4 ADD PUSH2 0xF0C SWAP1 PUSH2 0x10AF JUMP JUMPDEST PUSH1 0x40 MLOAD DUP1 SWAP2 SUB SWAP1 REVERT JUMPDEST PUSH0 PUSH1 0x1 PUSH0 SWAP1 SLOAD SWAP1 PUSH2 0x100 EXP SWAP1 DIV PUSH20 0xFFFFFFFFFFFFFFFFFFFFFFFFFFFFFFFFFFFFFFFF AND PUSH20 0xFFFFFFFFFFFFFFFFFFFFFFFFFFFFFFFFFFFFFFFF AND PUSH2 0x8FC PUSH8 0x6F05B59D3B20000 SWAP1 DUP2 ISZERO MUL SWAP1 PUSH1 0x40 MLOAD PUSH0 PUSH1 0x40 MLOAD DUP1 DUP4 SUB DUP2 DUP6 DUP9 DUP9 CALL SWAP4 POP POP POP POP SWAP1 POP DUP1 PUSH2 0xFB5 JUMPI PUSH1 0x40 MLOAD PUSH32 0x8C379A000000000000000000000000000000000000000000000000000000000 DUP2 MSTORE PUSH1 0x4 ADD PUSH2 0xFAC SWAP1 PUSH2 0x10AF JUMP JUMPDEST PUSH1 0x40 MLOAD DUP1 SWAP2 SUB SWAP1 REVERT JUMPDEST POP POP JUMP JUMPDEST PUSH0 DUP2 SWAP1 POP SWAP2 SWAP1 POP JUMP JUMPDEST PUSH32 0x4E487B7100000000000000000000000000000000000000000000000000000000 PUSH0 MSTORE PUSH1 0x11 PUSH1 0x4 MSTORE PUSH1 0x24 PUSH0 REVERT JUMPDEST PUSH0 PUSH2 0xFF9 DUP3 PUSH2 0xFB9 JUMP JUMPDEST SWAP2 POP PUSH2 0x1004 DUP4 PUSH2 0xFB9 JUMP JUMPDEST SWAP3 POP DUP3 DUP3 ADD SWAP1 POP DUP1 DUP3 GT ISZERO PUSH2 0x101C JUMPI PUSH2 0x101B PUSH2 0xFC2 JUMP JUMPDEST JUMPDEST SWAP3 SWAP2 POP POP JUMP JUMPDEST PUSH0 PUSH2 0x102C DUP3 PUSH2 0xFB9 JUMP JUMPDEST SWAP2 POP PUSH2 0x1037 DUP4 PUSH2 0xFB9 JUMP JUMPDEST SWAP3 POP DUP3 DUP3 SUB SWAP1 POP DUP2 DUP2 GT ISZERO PUSH2 0x104F JUMPI PUSH2 0x104E PUSH2 0xFC2 JUMP JUMPDEST JUMPDEST SWAP3 SWAP2 POP POP JUMP JUMPDEST PUSH0 DUP3 DUP3 MSTORE PUSH1 0x20 DUP3 ADD SWAP1 POP SWAP3 SWAP2 POP POP JUMP JUMPDEST PUSH32 0x4661696C656420746F2073656E64204574686572000000000000000000000000 PUSH0 DUP3 ADD MSTORE POP JUMP JUMPDEST PUSH0 PUSH2 0x1099 PUSH1 0x14 DUP4 PUSH2 0x1055 JUMP JUMPDEST SWAP2 POP PUSH2 0x10A4 DUP3 PUSH2 0x1065 JUMP JUMPDEST PUSH1 0x20 DUP3 ADD SWAP1 POP SWAP2 SWAP1 POP JUMP JUMPDEST PUSH0 PUSH1 0x20 DUP3 ADD SWAP1 POP DUP2 DUP2 SUB PUSH0 DUP4 ADD MSTORE PUSH2 0x10C6 DUP2 PUSH2 0x108D JUMP JUMPDEST SWAP1 POP SWAP2 SWAP1 POP JUMP JUMPDEST PUSH0 DUP2 ISZERO ISZERO SWAP1 POP SWAP2 SWAP1 POP JUMP JUMPDEST PUSH2 0x10E1 DUP2 PUSH2 0x10CD JUMP JUMPDEST DUP3 MSTORE POP POP JUMP JUMPDEST PUSH0 PUSH1 0x20 DUP3 ADD SWAP1 POP PUSH2 0x10FA PUSH0 DUP4 ADD DUP5 PUSH2 0x10D8 JUMP JUMPDEST SWAP3 SWAP2 POP POP JUMP JUMPDEST PUSH0 PUSH1 0x40 MLOAD SWAP1 POP SWAP1 JUMP JUMPDEST PUSH0 DUP1 REVERT JUMPDEST PUSH2 0x1116 DUP2 PUSH2 0xFB9 JUMP JUMPDEST DUP2 EQ PUSH2 0x1120 JUMPI PUSH0 DUP1 REVERT JUMPDEST POP JUMP JUMPDEST PUSH0 DUP2 CALLDATALOAD SWAP1 POP PUSH2 0x1131 DUP2 PUSH2 0x110D JUMP JUMPDEST SWAP3 SWAP2 POP POP JUMP JUMPDEST PUSH0 PUSH1 0x20 DUP3 DUP5 SUB SLT ISZERO PUSH2 0x114C JUMPI PUSH2 0x114B PUSH2 0x1109 JUMP JUMPDEST JUMPDEST PUSH0 PUSH2 0x1159 DUP5 DUP3 DUP6 ADD PUSH2 0x1123 JUMP JUMPDEST SWAP2 POP POP SWAP3 SWAP2 POP POP JUMP JUMPDEST PUSH2 0x116B DUP2 PUSH2 0xFB9 JUMP JUMPDEST DUP3 MSTORE POP POP JUMP JUMPDEST PUSH0 PUSH1 0x20 DUP3 ADD SWAP1 POP PUSH2 0x1184 PUSH0 DUP4 ADD DUP5 PUSH2 0x1162 JUMP JUMPDEST SWAP3 SWAP2 POP POP JUMP JUMPDEST PUSH0 PUSH20 0xFFFFFFFFFFFFFFFFFFFFFFFFFFFFFFFFFFFFFFFF DUP3 AND SWAP1 POP SWAP2 SWAP1 POP JUMP JUMPDEST PUSH0 PUSH2 0x11B3 DUP3 PUSH2 0x118A JUMP JUMPDEST SWAP1 POP SWAP2 SWAP1 POP JUMP JUMPDEST PUSH2 0x11C3 DUP2 PUSH2 0x11A9 JUMP JUMPDEST DUP2 EQ PUSH2 0x11CD JUMPI PUSH0 DUP1 REVERT JUMPDEST POP JUMP JUMPDEST PUSH0 DUP2 CALLDATALOAD SWAP1 POP PUSH2 0x11DE DUP2 PUSH2 0x11BA JUMP JUMPDEST SWAP3 SWAP2 POP POP JUMP JUMPDEST PUSH0 PUSH1 0x20 DUP3 DUP5 SUB SLT ISZERO PUSH2 0x11F9 JUMPI PUSH2 0x11F8 PUSH2 0x1109 JUMP JUMPDEST JUMPDEST PUSH0 PUSH2 0x1206 DUP5 DUP3 DUP6 ADD PUSH2 0x11D0 JUMP JUMPDEST SWAP2 POP POP SWAP3 SWAP2 POP POP JUMP JUMPDEST PUSH0 PUSH2 0x1219 DUP3 PUSH2 0x118A JUMP JUMPDEST SWAP1 POP SWAP2 SWAP1 POP JUMP JUMPDEST PUSH2 0x1229 DUP2 PUSH2 0x120F JUMP JUMPDEST DUP3 MSTORE POP POP JUMP JUMPDEST PUSH0 PUSH1 0x20 DUP3 ADD SWAP1 POP PUSH2 0x1242 PUSH0 DUP4 ADD DUP5 PUSH2 0x1220 JUMP JUMPDEST SWAP3 SWAP2 POP POP JUMP JUMPDEST PUSH0 DUP1 REVERT JUMPDEST PUSH0 PUSH1 0x1F NOT PUSH1 0x1F DUP4 ADD AND SWAP1 POP SWAP2 SWAP1 POP JUMP JUMPDEST PUSH32 0x4E487B7100000000000000000000000000000000000000000000000000000000 PUSH0 MSTORE PUSH1 0x41 PUSH1 0x4 MSTORE PUSH1 0x24 PUSH0 REVERT JUMPDEST PUSH2 0x1292 DUP3 PUSH2 0x124C JUMP JUMPDEST DUP2 ADD DUP2 DUP2 LT PUSH8 0xFFFFFFFFFFFFFFFF DUP3 GT OR ISZERO PUSH2 0x12B1 JUMPI PUSH2 0x12B0 PUSH2 0x125C JUMP JUMPDEST JUMPDEST DUP1 PUSH1 0x40 MSTORE POP POP POP JUMP JUMPDEST PUSH0 PUSH2 0x12C3 PUSH2 0x1100 JUMP JUMPDEST SWAP1 POP PUSH2 0x12CF DUP3 DUP3 PUSH2 0x1289 JUMP JUMPDEST SWAP2 SWAP1 POP JUMP JUMPDEST PUSH0 PUSH8 0xFFFFFFFFFFFFFFFF DUP3 GT ISZERO PUSH2 0x12EE JUMPI PUSH2 0x12ED PUSH2 0x125C JUMP JUMPDEST JUMPDEST PUSH1 0x20 DUP3 MUL SWAP1 POP SWAP2 SWAP1 POP JUMP JUMPDEST PUSH0 DUP1 REVERT JUMPDEST PUSH0 PUSH2 0x130F PUSH2 0x130A DUP5 PUSH2 0x12D4 JUMP JUMPDEST PUSH2 0x12BA JUMP JUMPDEST SWAP1 POP DUP1 PUSH1 0x20 DUP5 MUL DUP4 ADD DUP6 DUP2 GT ISZERO PUSH2 0x1329 JUMPI PUSH2 0x1328 PUSH2 0x12F9 JUMP JUMPDEST JUMPDEST DUP4 JUMPDEST DUP2 DUP2 LT ISZERO PUSH2 0x1352 JUMPI DUP1 PUSH2 0x133E DUP9 DUP3 PUSH2 0x1123 JUMP JUMPDEST DUP5 MSTORE PUSH1 0x20 DUP5 ADD SWAP4 POP POP PUSH1 0x20 DUP2 ADD SWAP1 POP PUSH2 0x132B JUMP JUMPDEST POP POP POP SWAP4 SWAP3 POP POP POP JUMP JUMPDEST PUSH0 DUP3 PUSH1 0x1F DUP4 ADD SLT PUSH2 0x1370 JUMPI PUSH2 0x136F PUSH2 0x1248 JUMP JUMPDEST JUMPDEST PUSH1 0x9 PUSH2 0x137D DUP5 DUP3 DUP6 PUSH2 0x12FD JUMP JUMPDEST SWAP2 POP POP SWAP3 SWAP2 POP POP JUMP JUMPDEST PUSH0 PUSH2 0x120 DUP3 DUP5 SUB SLT ISZERO PUSH2 0x139C JUMPI PUSH2 0x139B PUSH2 0x1109 JUMP JUMPDEST JUMPDEST PUSH0 PUSH2 0x13A9 DUP5 DUP3 DUP6 ADD PUSH2 0x135C JUMP JUMPDEST SWAP2 POP POP SWAP3 SWAP2 POP POP JUMP JUMPDEST PUSH32 0x67616D652068617320656E646564000000000000000000000000000000000000 PUSH0 DUP3 ADD MSTORE POP JUMP JUMPDEST PUSH0 PUSH2 0x13E6 PUSH1 0xE DUP4 PUSH2 0x1055 JUMP JUMPDEST SWAP2 POP PUSH2 0x13F1 DUP3 PUSH2 0x13B2 JUMP JUMPDEST PUSH1 0x20 DUP3 ADD SWAP1 POP SWAP2 SWAP1 POP JUMP JUMPDEST PUSH0 PUSH1 0x20 DUP3 ADD SWAP1 POP DUP2 DUP2 SUB PUSH0 DUP4 ADD MSTORE PUSH2 0x1413 DUP2 PUSH2 0x13DA JUMP JUMPDEST SWAP1 POP SWAP2 SWAP1 POP JUMP JUMPDEST PUSH32 0x6E6F206465706F73697400000000000000000000000000000000000000000000 PUSH0 DUP3 ADD MSTORE POP JUMP JUMPDEST PUSH0 PUSH2 0x144E PUSH1 0xA DUP4 PUSH2 0x1055 JUMP JUMPDEST SWAP2 POP PUSH2 0x1459 DUP3 PUSH2 0x141A JUMP JUMPDEST PUSH1 0x20 DUP3 ADD SWAP1 POP SWAP2 SWAP1 POP JUMP JUMPDEST PUSH0 PUSH1 0x20 DUP3 ADD SWAP1 POP DUP2 DUP2 SUB PUSH0 DUP4 ADD MSTORE PUSH2 0x147B DUP2 PUSH2 0x1442 JUMP JUMPDEST SWAP1 POP SWAP2 SWAP1 POP JUMP JUMPDEST PUSH32 0x6E6F7420796F7572207475726E00000000000000000000000000000000000000 PUSH0 DUP3 ADD MSTORE POP JUMP JUMPDEST PUSH0 PUSH2 0x14B6 PUSH1 0xD DUP4 PUSH2 0x1055 JUMP JUMPDEST SWAP2 POP PUSH2 0x14C1 DUP3 PUSH2 0x1482 JUMP JUMPDEST PUSH1 0x20 DUP3 ADD SWAP1 POP SWAP2 SWAP1 POP JUMP JUMPDEST PUSH0 PUSH1 0x20 DUP3 ADD SWAP1 POP DUP2 DUP2 SUB PUSH0 DUP4 ADD MSTORE PUSH2 0x14E3 DUP2 PUSH2 0x14AA JUMP JUMPDEST SWAP1 POP SWAP2 SWAP1 POP JUMP JUMPDEST PUSH32 0x4E487B7100000000000000000000000000000000000000000000000000000000 PUSH0 MSTORE PUSH1 0x32 PUSH1 0x4 MSTORE PUSH1 0x24 PUSH0 REVERT JUMPDEST PUSH32 0x746869732074696C6520697320616C7265616479207573656400000000000000 PUSH0 DUP3 ADD MSTORE POP JUMP JUMPDEST PUSH0 PUSH2 0x154B PUSH1 0x19 DUP4 PUSH2 0x1055 JUMP JUMPDEST SWAP2 POP PUSH2 0x1556 DUP3 PUSH2 0x1517 JUMP JUMPDEST PUSH1 0x20 DUP3 ADD SWAP1 POP SWAP2 SWAP1 POP JUMP JUMPDEST PUSH0 PUSH1 0x20 DUP3 ADD SWAP1 POP DUP2 DUP2 SUB PUSH0 DUP4 ADD MSTORE PUSH2 0x1578 DUP2 PUSH2 0x153F JUMP JUMPDEST SWAP1 POP SWAP2 SWAP1 POP JUMP INVALID LOG2 PUSH5 0x6970667358 0x22 SLT KECCAK256 PUSH30 0xA0AB4530B467B0F1AD175F1C1DA843726E7906837ACB624050EA23B195DF SWAP14 PUSH5 0x736F6C6343 STOP ADDMOD BYTE STOP CALLER "
				},
				"gasEstimates": {
					"creation": {
						"codeDepositCost": "1111400",
						"executionCost": "infinite",
						"totalCost": "infinite"
					},
					"external": {
						"balanceOf(address)": "2847",
						"dep()": "2425",
						"gameEnded()": "2518",
						"gameState(uint256)": "infinite",
						"makeTurn(uint256[9])": "infinite",
						"p1()": "2571",
						"p2()": "2575",
						"turn()": "2488"
					},
					"internal": {
						"_checkWin(address,uint256)": "infinite",
						"_endGame(address)": "infinite",
						"_endGameDraw()": "infinite"
					}
				},
				"methodIdentifiers": {
					"balanceOf(address)": "70a08231",
					"dep()": "855a0fe3",
					"gameEnded()": "2f6fe396",
					"gameState(uint256)": "4e0e1a3e",
					"makeTurn(uint256[9])": "ad86287a",
					"p1()": "c2a2747b",
					"p2()": "81d01ed3",
					"turn()": "8b299903"
				}
			},
			"storageLayout": {
				"storage": [
					{
						"astId": 3,
						"contract": "Project.sol:TTTGame",
						"label": "p1",
						"offset": 0,
						"slot": "0",
						"type": "t_address_payable"
					},
					{
						"astId": 5,
						"contract": "Project.sol:TTTGame",
						"label": "p2",
						"offset": 0,
						"slot": "1",
						"type": "t_address_payable"
					},
					{
						"astId": 8,
						"contract": "Project.sol:TTTGame",
						"label": "dep",
						"offset": 0,
						"slot": "2",
						"type": "t_uint256"
					},
					{
						"astId": 11,
						"contract": "Project.sol:TTTGame",
						"label": "gameState",
						"offset": 0,
						"slot": "3",
						"type": "t_array(t_uint256)dyn_storage"
					},
					{
						"astId": 13,
						"contract": "Project.sol:TTTGame",
						"label": "turn",
						"offset": 0,
						"slot": "4",
						"type": "t_bool"
					},
					{
						"astId": 15,
						"contract": "Project.sol:TTTGame",
						"label": "gameEnded",
						"offset": 1,
						"slot": "4",
						"type": "t_bool"
					},
					{
						"astId": 19,
						"contract": "Project.sol:TTTGame",
						"label": "balanceOf",
						"offset": 0,
						"slot": "5",
						"type": "t_mapping(t_address,t_uint256)"
					}
				],
				"types": {
					"t_address": {
						"encoding": "inplace",
						"label": "address",
						"numberOfBytes": "20"
					},
					"t_address_payable": {
						"encoding": "inplace",
						"label": "address payable",
						"numberOfBytes": "20"
					},
					"t_array(t_uint256)dyn_storage": {
						"base": "t_uint256",
						"encoding": "dynamic_array",
						"label": "uint256[]",
						"numberOfBytes": "32"
					},
					"t_bool": {
						"encoding": "inplace",
						"label": "bool",
						"numberOfBytes": "1"
					},
					"t_mapping(t_address,t_uint256)": {
						"encoding": "mapping",
						"key": "t_address",
						"label": "mapping(address => uint256)",
						"numberOfBytes": "32",
						"value": "t_uint256"
					},
					"t_uint256": {
						"encoding": "inplace",
						"label": "uint256",
						"numberOfBytes": "32"
					}
				}
			},
			"userdoc": {
				"kind": "user",
				"methods": {},
				"version": 1
			}
		}
	}
}