{
	"HW2.sol": {
		"Crowdsale": {
			"abi": [
				{
					"inputs": [
						{
							"internalType": "address",
							"name": "_token",
							"type": "address"
						},
						{
							"internalType": "address",
							"name": "_teamAddress",
							"type": "address"
						}
					],
					"stateMutability": "nonpayable",
					"type": "constructor"
				},
				{
					"inputs": [
						{
							"internalType": "address",
							"name": "owner",
							"type": "address"
						}
					],
					"name": "OwnableInvalidOwner",
					"type": "error"
				},
				{
					"inputs": [
						{
							"internalType": "address",
							"name": "account",
							"type": "address"
						}
					],
					"name": "OwnableUnauthorizedAccount",
					"type": "error"
				},
				{
					"anonymous": false,
					"inputs": [
						{
							"indexed": true,
							"internalType": "address",
							"name": "previousOwner",
							"type": "address"
						},
						{
							"indexed": true,
							"internalType": "address",
							"name": "newOwner",
							"type": "address"
						}
					],
					"name": "OwnershipTransferred",
					"type": "event"
				},
				{
					"inputs": [],
					"name": "_owner",
					"outputs": [
						{
							"internalType": "address payable",
							"name": "",
							"type": "address"
						}
					],
					"stateMutability": "view",
					"type": "function"
				},
				{
					"inputs": [
						{
							"internalType": "address",
							"name": "",
							"type": "address"
						}
					],
					"name": "balanceOf",
					"outputs": [
						{
							"internalType": "uint256",
							"name": "",
							"type": "uint256"
						}
					],
					"stateMutability": "view",
					"type": "function"
				},
				{
					"inputs": [
						{
							"internalType": "uint256",
							"name": "_newExrate",
							"type": "uint256"
						}
					],
					"name": "changeCourse",
					"outputs": [],
					"stateMutability": "nonpayable",
					"type": "function"
				},
				{
					"inputs": [],
					"name": "exrate",
					"outputs": [
						{
							"internalType": "uint256",
							"name": "",
							"type": "uint256"
						}
					],
					"stateMutability": "view",
					"type": "function"
				},
				{
					"inputs": [],
					"name": "finalize",
					"outputs": [],
					"stateMutability": "nonpayable",
					"type": "function"
				},
				{
					"inputs": [],
					"name": "hardCap",
					"outputs": [
						{
							"internalType": "uint256",
							"name": "",
							"type": "uint256"
						}
					],
					"stateMutability": "view",
					"type": "function"
				},
				{
					"inputs": [],
					"name": "owner",
					"outputs": [
						{
							"internalType": "address",
							"name": "",
							"type": "address"
						}
					],
					"stateMutability": "view",
					"type": "function"
				},
				{
					"inputs": [],
					"name": "renounceOwnership",
					"outputs": [],
					"stateMutability": "nonpayable",
					"type": "function"
				},
				{
					"inputs": [],
					"name": "teamAddress",
					"outputs": [
						{
							"internalType": "address payable",
							"name": "",
							"type": "address"
						}
					],
					"stateMutability": "view",
					"type": "function"
				},
				{
					"inputs": [],
					"name": "token",
					"outputs": [
						{
							"internalType": "contract IERC20",
							"name": "",
							"type": "address"
						}
					],
					"stateMutability": "view",
					"type": "function"
				},
				{
					"inputs": [],
					"name": "totalSold",
					"outputs": [
						{
							"internalType": "uint256",
							"name": "",
							"type": "uint256"
						}
					],
					"stateMutability": "view",
					"type": "function"
				},
				{
					"inputs": [
						{
							"internalType": "address",
							"name": "newOwner",
							"type": "address"
						}
					],
					"name": "transferOwnership",
					"outputs": [],
					"stateMutability": "nonpayable",
					"type": "function"
				},
				{
					"stateMutability": "payable",
					"type": "receive"
				}
			],
			"devdoc": {
				"errors": {
					"OwnableInvalidOwner(address)": [
						{
							"details": "The owner is not a valid owner account. (eg. `address(0)`)"
						}
					],
					"OwnableUnauthorizedAccount(address)": [
						{
							"details": "The caller account is not authorized to perform an operation."
						}
					]
				},
				"kind": "dev",
				"methods": {
					"owner()": {
						"details": "Returns the address of the current owner."
					},
					"renounceOwnership()": {
						"details": "Leaves the contract without owner. It will not be possible to call `onlyOwner` functions. Can only be called by the current owner. NOTE: Renouncing ownership will leave the contract without an owner, thereby disabling any functionality that is only available to the owner."
					},
					"transferOwnership(address)": {
						"details": "Transfers ownership of the contract to a new account (`newOwner`). Can only be called by the current owner."
					}
				},
				"version": 1
			},
			"evm": {
				"assembly": "    /* \"HW2.sol\":175:1853  contract Crowdsale is Ownable {... */\n  mstore(0x40, 0x80)\n    /* \"HW2.sol\":276:281  10000 */\n  0x2710\n    /* \"HW2.sol\":252:281  uint256 public exrate = 10000 */\n  0x03\n  sstore\n    /* \"HW2.sol\":314:323  0.1 ether */\n  0x016345785d8a0000\n    /* \"HW2.sol\":289:323  uint256 public hardCap = 0.1 ether */\n  0x04\n  sstore\n    /* \"HW2.sol\":550:857  constructor(address _token, address _teamAddress) Ownable(msg.sender) {... */\n  callvalue\n  dup1\n  iszero\n  tag_1\n  jumpi\n  0x00\n  dup1\n  revert\ntag_1:\n  pop\n  mload(0x40)\n  sub(codesize, bytecodeSize)\n  dup1\n  bytecodeSize\n  dup4\n  codecopy\n  dup2\n  dup2\n  add\n  0x40\n  mstore\n  dup2\n  add\n  swap1\n  tag_2\n  swap2\n  swap1\n  tag_3\n  jump\t// in\ntag_2:\n    /* \"HW2.sol\":608:618  msg.sender */\n  caller\n    /* \"@openzeppelin/contracts/access/Ownable.sol\":1297:1298  0 */\n  0x00\n    /* \"@openzeppelin/contracts/access/Ownable.sol\":1273:1299  initialOwner == address(0) */\n  0xffffffffffffffffffffffffffffffffffffffff\n  and\n    /* \"@openzeppelin/contracts/access/Ownable.sol\":1273:1285  initialOwner */\n  dup2\n    /* \"@openzeppelin/contracts/access/Ownable.sol\":1273:1299  initialOwner == address(0) */\n  0xffffffffffffffffffffffffffffffffffffffff\n  and\n  sub\n    /* \"@openzeppelin/contracts/access/Ownable.sol\":1269:1364  if (initialOwner == address(0)) {... */\n  tag_7\n  jumpi\n    /* \"@openzeppelin/contracts/access/Ownable.sol\":1350:1351  0 */\n  0x00\n    /* \"@openzeppelin/contracts/access/Ownable.sol\":1322:1353  OwnableInvalidOwner(address(0)) */\n  mload(0x40)\n  0x1e4fbdf700000000000000000000000000000000000000000000000000000000\n  dup2\n  mstore\n  0x04\n  add\n  tag_8\n  swap2\n  swap1\n  tag_9\n  jump\t// in\ntag_8:\n  mload(0x40)\n  dup1\n  swap2\n  sub\n  swap1\n  revert\n    /* \"@openzeppelin/contracts/access/Ownable.sol\":1269:1364  if (initialOwner == address(0)) {... */\ntag_7:\n    /* \"@openzeppelin/contracts/access/Ownable.sol\":1373:1405  _transferOwnership(initialOwner) */\n  tag_10\n    /* \"@openzeppelin/contracts/access/Ownable.sol\":1392:1404  initialOwner */\n  dup2\n    /* \"@openzeppelin/contracts/access/Ownable.sol\":1373:1391  _transferOwnership */\n  shl(0x20, tag_11)\n    /* \"@openzeppelin/contracts/access/Ownable.sol\":1373:1405  _transferOwnership(initialOwner) */\n  0x20\n  shr\n  jump\t// in\ntag_10:\n    /* \"@openzeppelin/contracts/access/Ownable.sol\":1225:1412  constructor(address initialOwner) {... */\n  pop\n    /* \"HW2.sol\":648:658  msg.sender */\n  caller\n    /* \"HW2.sol\":631:637  _owner */\n  0x06\n  0x00\n    /* \"HW2.sol\":631:659  _owner = payable(msg.sender) */\n  0x0100\n  exp\n  dup2\n  sload\n  dup2\n  0xffffffffffffffffffffffffffffffffffffffff\n  mul\n  not\n  and\n  swap1\n  dup4\n  0xffffffffffffffffffffffffffffffffffffffff\n  and\n  mul\n  or\n  swap1\n  sstore\n  pop\n    /* \"HW2.sol\":692:704  _teamAddress */\n  dup1\n    /* \"HW2.sol\":670:681  teamAddress */\n  0x07\n  0x00\n    /* \"HW2.sol\":670:705  teamAddress = payable(_teamAddress) */\n  0x0100\n  exp\n  dup2\n  sload\n  dup2\n  0xffffffffffffffffffffffffffffffffffffffff\n  mul\n  not\n  and\n  swap1\n  dup4\n  0xffffffffffffffffffffffffffffffffffffffff\n  and\n  mul\n  or\n  swap1\n  sstore\n  pop\n    /* \"HW2.sol\":740:746  _token */\n  dup2\n    /* \"HW2.sol\":725:730  token */\n  0x08\n  0x00\n    /* \"HW2.sol\":725:747  token = IERC20(_token) */\n  0x0100\n  exp\n  dup2\n  sload\n  dup2\n  0xffffffffffffffffffffffffffffffffffffffff\n  mul\n  not\n  and\n  swap1\n  dup4\n  0xffffffffffffffffffffffffffffffffffffffff\n  and\n  mul\n  or\n  swap1\n  sstore\n  pop\n    /* \"HW2.sol\":770:785  block.timestamp */\n  timestamp\n    /* \"HW2.sol\":758:767  startTime */\n  0x01\n    /* \"HW2.sol\":758:785  startTime = block.timestamp */\n  dup2\n  swap1\n  sstore\n  pop\n    /* \"HW2.sol\":818:825  28 days */\n  0x24ea00\n    /* \"HW2.sol\":806:815  startTime */\n  sload(0x01)\n    /* \"HW2.sol\":806:825  startTime + 28 days */\n  tag_13\n  swap2\n  swap1\n  tag_14\n  jump\t// in\ntag_13:\n    /* \"HW2.sol\":796:803  endTime */\n  0x02\n    /* \"HW2.sol\":796:825  endTime = startTime + 28 days */\n  dup2\n  swap1\n  sstore\n  pop\n    /* \"HW2.sol\":848:849  0 */\n  0x00\n    /* \"HW2.sol\":836:845  totalSold */\n  0x05\n    /* \"HW2.sol\":836:849  totalSold = 0 */\n  dup2\n  swap1\n  sstore\n  pop\n    /* \"HW2.sol\":550:857  constructor(address _token, address _teamAddress) Ownable(msg.sender) {... */\n  pop\n  pop\n    /* \"HW2.sol\":175:1853  contract Crowdsale is Ownable {... */\n  jump(tag_15)\n    /* \"@openzeppelin/contracts/access/Ownable.sol\":2912:3099  function _transferOwnership(address newOwner) internal virtual {... */\ntag_11:\n    /* \"@openzeppelin/contracts/access/Ownable.sol\":2985:3001  address oldOwner */\n  0x00\n    /* \"@openzeppelin/contracts/access/Ownable.sol\":3004:3010  _owner */\n  dup1\n  0x00\n  swap1\n  sload\n  swap1\n  0x0100\n  exp\n  swap1\n  div\n  0xffffffffffffffffffffffffffffffffffffffff\n  and\n    /* \"@openzeppelin/contracts/access/Ownable.sol\":2985:3010  address oldOwner = _owner */\n  swap1\n  pop\n    /* \"@openzeppelin/contracts/access/Ownable.sol\":3029:3037  newOwner */\n  dup2\n    /* \"@openzeppelin/contracts/access/Ownable.sol\":3020:3026  _owner */\n  0x00\n  dup1\n    /* \"@openzeppelin/contracts/access/Ownable.sol\":3020:3037  _owner = newOwner */\n  0x0100\n  exp\n  dup2\n  sload\n  dup2\n  0xffffffffffffffffffffffffffffffffffffffff\n  mul\n  not\n  and\n  swap1\n  dup4\n  0xffffffffffffffffffffffffffffffffffffffff\n  and\n  mul\n  or\n  swap1\n  sstore\n  pop\n    /* \"@openzeppelin/contracts/access/Ownable.sol\":3083:3091  newOwner */\n  dup2\n    /* \"@openzeppelin/contracts/access/Ownable.sol\":3052:3092  OwnershipTransferred(oldOwner, newOwner) */\n  0xffffffffffffffffffffffffffffffffffffffff\n  and\n    /* \"@openzeppelin/contracts/access/Ownable.sol\":3073:3081  oldOwner */\n  dup2\n    /* \"@openzeppelin/contracts/access/Ownable.sol\":3052:3092  OwnershipTransferred(oldOwner, newOwner) */\n  0xffffffffffffffffffffffffffffffffffffffff\n  and\n  0x8be0079c531659141344cd1fd0a4f28419497f9722a3daafe3b4186f6b6457e0\n  mload(0x40)\n  mload(0x40)\n  dup1\n  swap2\n  sub\n  swap1\n  log3\n    /* \"@openzeppelin/contracts/access/Ownable.sol\":2975:3099  {... */\n  pop\n    /* \"@openzeppelin/contracts/access/Ownable.sol\":2912:3099  function _transferOwnership(address newOwner) internal virtual {... */\n  pop\n  jump\t// out\n    /* \"#utility.yul\":88:205   */\ntag_18:\n    /* \"#utility.yul\":197:198   */\n  0x00\n    /* \"#utility.yul\":194:195   */\n  dup1\n    /* \"#utility.yul\":187:199   */\n  revert\n    /* \"#utility.yul\":334:460   */\ntag_20:\n    /* \"#utility.yul\":371:378   */\n  0x00\n    /* \"#utility.yul\":411:453   */\n  0xffffffffffffffffffffffffffffffffffffffff\n    /* \"#utility.yul\":404:409   */\n  dup3\n    /* \"#utility.yul\":400:454   */\n  and\n    /* \"#utility.yul\":389:454   */\n  swap1\n  pop\n    /* \"#utility.yul\":334:460   */\n  swap2\n  swap1\n  pop\n  jump\t// out\n    /* \"#utility.yul\":466:562   */\ntag_21:\n    /* \"#utility.yul\":503:510   */\n  0x00\n    /* \"#utility.yul\":532:556   */\n  tag_33\n    /* \"#utility.yul\":550:555   */\n  dup3\n    /* \"#utility.yul\":532:556   */\n  tag_20\n  jump\t// in\ntag_33:\n    /* \"#utility.yul\":521:556   */\n  swap1\n  pop\n    /* \"#utility.yul\":466:562   */\n  swap2\n  swap1\n  pop\n  jump\t// out\n    /* \"#utility.yul\":568:690   */\ntag_22:\n    /* \"#utility.yul\":641:665   */\n  tag_35\n    /* \"#utility.yul\":659:664   */\n  dup2\n    /* \"#utility.yul\":641:665   */\n  tag_21\n  jump\t// in\ntag_35:\n    /* \"#utility.yul\":634:639   */\n  dup2\n    /* \"#utility.yul\":631:666   */\n  eq\n    /* \"#utility.yul\":621:684   */\n  tag_36\n  jumpi\n    /* \"#utility.yul\":680:681   */\n  0x00\n    /* \"#utility.yul\":677:678   */\n  dup1\n    /* \"#utility.yul\":670:682   */\n  revert\n    /* \"#utility.yul\":621:684   */\ntag_36:\n    /* \"#utility.yul\":568:690   */\n  pop\n  jump\t// out\n    /* \"#utility.yul\":696:839   */\ntag_23:\n    /* \"#utility.yul\":753:758   */\n  0x00\n    /* \"#utility.yul\":784:790   */\n  dup2\n    /* \"#utility.yul\":778:791   */\n  mload\n    /* \"#utility.yul\":769:791   */\n  swap1\n  pop\n    /* \"#utility.yul\":800:833   */\n  tag_38\n    /* \"#utility.yul\":827:832   */\n  dup2\n    /* \"#utility.yul\":800:833   */\n  tag_22\n  jump\t// in\ntag_38:\n    /* \"#utility.yul\":696:839   */\n  swap3\n  swap2\n  pop\n  pop\n  jump\t// out\n    /* \"#utility.yul\":845:1352   */\ntag_3:\n    /* \"#utility.yul\":924:930   */\n  0x00\n    /* \"#utility.yul\":932:938   */\n  dup1\n    /* \"#utility.yul\":981:983   */\n  0x40\n    /* \"#utility.yul\":969:978   */\n  dup4\n    /* \"#utility.yul\":960:967   */\n  dup6\n    /* \"#utility.yul\":956:979   */\n  sub\n    /* \"#utility.yul\":952:984   */\n  slt\n    /* \"#utility.yul\":949:1068   */\n  iszero\n  tag_40\n  jumpi\n    /* \"#utility.yul\":987:1066   */\n  tag_41\n  tag_18\n  jump\t// in\ntag_41:\n    /* \"#utility.yul\":949:1068   */\ntag_40:\n    /* \"#utility.yul\":1107:1108   */\n  0x00\n    /* \"#utility.yul\":1132:1196   */\n  tag_42\n    /* \"#utility.yul\":1188:1195   */\n  dup6\n    /* \"#utility.yul\":1179:1185   */\n  dup3\n    /* \"#utility.yul\":1168:1177   */\n  dup7\n    /* \"#utility.yul\":1164:1186   */\n  add\n    /* \"#utility.yul\":1132:1196   */\n  tag_23\n  jump\t// in\ntag_42:\n    /* \"#utility.yul\":1122:1196   */\n  swap3\n  pop\n    /* \"#utility.yul\":1078:1206   */\n  pop\n    /* \"#utility.yul\":1245:1247   */\n  0x20\n    /* \"#utility.yul\":1271:1335   */\n  tag_43\n    /* \"#utility.yul\":1327:1334   */\n  dup6\n    /* \"#utility.yul\":1318:1324   */\n  dup3\n    /* \"#utility.yul\":1307:1316   */\n  dup7\n    /* \"#utility.yul\":1303:1325   */\n  add\n    /* \"#utility.yul\":1271:1335   */\n  tag_23\n  jump\t// in\ntag_43:\n    /* \"#utility.yul\":1261:1335   */\n  swap2\n  pop\n    /* \"#utility.yul\":1216:1345   */\n  pop\n    /* \"#utility.yul\":845:1352   */\n  swap3\n  pop\n  swap3\n  swap1\n  pop\n  jump\t// out\n    /* \"#utility.yul\":1358:1476   */\ntag_24:\n    /* \"#utility.yul\":1445:1469   */\n  tag_45\n    /* \"#utility.yul\":1463:1468   */\n  dup2\n    /* \"#utility.yul\":1445:1469   */\n  tag_21\n  jump\t// in\ntag_45:\n    /* \"#utility.yul\":1440:1443   */\n  dup3\n    /* \"#utility.yul\":1433:1470   */\n  mstore\n    /* \"#utility.yul\":1358:1476   */\n  pop\n  pop\n  jump\t// out\n    /* \"#utility.yul\":1482:1704   */\ntag_9:\n    /* \"#utility.yul\":1575:1579   */\n  0x00\n    /* \"#utility.yul\":1613:1615   */\n  0x20\n    /* \"#utility.yul\":1602:1611   */\n  dup3\n    /* \"#utility.yul\":1598:1616   */\n  add\n    /* \"#utility.yul\":1590:1616   */\n  swap1\n  pop\n    /* \"#utility.yul\":1626:1697   */\n  tag_47\n    /* \"#utility.yul\":1694:1695   */\n  0x00\n    /* \"#utility.yul\":1683:1692   */\n  dup4\n    /* \"#utility.yul\":1679:1696   */\n  add\n    /* \"#utility.yul\":1670:1676   */\n  dup5\n    /* \"#utility.yul\":1626:1697   */\n  tag_24\n  jump\t// in\ntag_47:\n    /* \"#utility.yul\":1482:1704   */\n  swap3\n  swap2\n  pop\n  pop\n  jump\t// out\n    /* \"#utility.yul\":1710:1787   */\ntag_25:\n    /* \"#utility.yul\":1747:1754   */\n  0x00\n    /* \"#utility.yul\":1776:1781   */\n  dup2\n    /* \"#utility.yul\":1765:1781   */\n  swap1\n  pop\n    /* \"#utility.yul\":1710:1787   */\n  swap2\n  swap1\n  pop\n  jump\t// out\n    /* \"#utility.yul\":1793:1973   */\ntag_26:\n    /* \"#utility.yul\":1841:1918   */\n  0x4e487b7100000000000000000000000000000000000000000000000000000000\n    /* \"#utility.yul\":1838:1839   */\n  0x00\n    /* \"#utility.yul\":1831:1919   */\n  mstore\n    /* \"#utility.yul\":1938:1942   */\n  0x11\n    /* \"#utility.yul\":1935:1936   */\n  0x04\n    /* \"#utility.yul\":1928:1943   */\n  mstore\n    /* \"#utility.yul\":1962:1966   */\n  0x24\n    /* \"#utility.yul\":1959:1960   */\n  0x00\n    /* \"#utility.yul\":1952:1967   */\n  revert\n    /* \"#utility.yul\":1979:2170   */\ntag_14:\n    /* \"#utility.yul\":2019:2022   */\n  0x00\n    /* \"#utility.yul\":2038:2058   */\n  tag_51\n    /* \"#utility.yul\":2056:2057   */\n  dup3\n    /* \"#utility.yul\":2038:2058   */\n  tag_25\n  jump\t// in\ntag_51:\n    /* \"#utility.yul\":2033:2058   */\n  swap2\n  pop\n    /* \"#utility.yul\":2072:2092   */\n  tag_52\n    /* \"#utility.yul\":2090:2091   */\n  dup4\n    /* \"#utility.yul\":2072:2092   */\n  tag_25\n  jump\t// in\ntag_52:\n    /* \"#utility.yul\":2067:2092   */\n  swap3\n  pop\n    /* \"#utility.yul\":2115:2116   */\n  dup3\n    /* \"#utility.yul\":2112:2113   */\n  dup3\n    /* \"#utility.yul\":2108:2117   */\n  add\n    /* \"#utility.yul\":2101:2117   */\n  swap1\n  pop\n    /* \"#utility.yul\":2136:2139   */\n  dup1\n    /* \"#utility.yul\":2133:2134   */\n  dup3\n    /* \"#utility.yul\":2130:2140   */\n  gt\n    /* \"#utility.yul\":2127:2163   */\n  iszero\n  tag_53\n  jumpi\n    /* \"#utility.yul\":2143:2161   */\n  tag_54\n  tag_26\n  jump\t// in\ntag_54:\n    /* \"#utility.yul\":2127:2163   */\ntag_53:\n    /* \"#utility.yul\":1979:2170   */\n  swap3\n  swap2\n  pop\n  pop\n  jump\t// out\n    /* \"HW2.sol\":175:1853  contract Crowdsale is Ownable {... */\ntag_15:\n  dataSize(sub_0)\n  dup1\n  dataOffset(sub_0)\n  0x00\n  codecopy\n  0x00\n  return\nstop\n\nsub_0: assembly {\n        /* \"HW2.sol\":175:1853  contract Crowdsale is Ownable {... */\n      mstore(0x40, 0x80)\n      jumpi(tag_1, lt(calldatasize, 0x04))\n      shr(0xe0, calldataload(0x00))\n      dup1\n      0x9106d7ba\n      gt\n      tag_15\n      jumpi\n      dup1\n      0x9106d7ba\n      eq\n      tag_9\n      jumpi\n      dup1\n      0xa3dc8a7a\n      eq\n      tag_10\n      jumpi\n      dup1\n      0xb2bdfa7b\n      eq\n      tag_11\n      jumpi\n      dup1\n      0xf2fde38b\n      eq\n      tag_12\n      jumpi\n      dup1\n      0xfb86a404\n      eq\n      tag_13\n      jumpi\n      dup1\n      0xfc0c546a\n      eq\n      tag_14\n      jumpi\n      jump(tag_2)\n    tag_15:\n      dup1\n      0x011b29e3\n      eq\n      tag_3\n      jumpi\n      dup1\n      0x1c75f085\n      eq\n      tag_4\n      jumpi\n      dup1\n      0x4bb278f3\n      eq\n      tag_5\n      jumpi\n      dup1\n      0x70a08231\n      eq\n      tag_6\n      jumpi\n      dup1\n      0x715018a6\n      eq\n      tag_7\n      jumpi\n      dup1\n      0x8da5cb5b\n      eq\n      tag_8\n      jumpi\n      jump(tag_2)\n    tag_1:\n      jumpi(tag_2, calldatasize)\n        /* \"HW2.sol\":930:939  startTime */\n      sload(0x01)\n        /* \"HW2.sol\":911:926  block.timestamp */\n      timestamp\n        /* \"HW2.sol\":911:939  block.timestamp >= startTime */\n      lt\n      iszero\n        /* \"HW2.sol\":911:969  block.timestamp >= startTime && block.timestamp <= endTime */\n      dup1\n      iszero\n      tag_18\n      jumpi\n      pop\n        /* \"HW2.sol\":962:969  endTime */\n      sload(0x02)\n        /* \"HW2.sol\":943:958  block.timestamp */\n      timestamp\n        /* \"HW2.sol\":943:969  block.timestamp <= endTime */\n      gt\n      iszero\n        /* \"HW2.sol\":911:969  block.timestamp >= startTime && block.timestamp <= endTime */\n    tag_18:\n        /* \"HW2.sol\":903:970  require(block.timestamp >= startTime && block.timestamp <= endTime) */\n      tag_19\n      jumpi\n      0x00\n      dup1\n      revert\n    tag_19:\n        /* \"HW2.sol\":1002:1009  hardCap */\n      sload(0x04)\n        /* \"HW2.sol\":989:998  msg.value */\n      callvalue\n        /* \"HW2.sol\":989:1009  msg.value <= hardCap */\n      gt\n      iszero\n        /* \"HW2.sol\":981:1010  require(msg.value <= hardCap) */\n      tag_20\n      jumpi\n      0x00\n      dup1\n      revert\n    tag_20:\n        /* \"HW2.sol\":1030:1041  uint amount */\n      0x00\n        /* \"HW2.sol\":1056:1062  exrate */\n      sload(0x03)\n        /* \"HW2.sol\":1044:1053  msg.value */\n      callvalue\n        /* \"HW2.sol\":1044:1062  msg.value * exrate */\n      tag_21\n      swap2\n      swap1\n      tag_22\n      jump\t// in\n    tag_21:\n        /* \"HW2.sol\":1030:1062  uint amount = msg.value * exrate */\n      swap1\n      pop\n        /* \"HW2.sol\":1116:1122  amount */\n      dup1\n        /* \"HW2.sol\":1082:1087  token */\n      0x08\n      0x00\n      swap1\n      sload\n      swap1\n      0x0100\n      exp\n      swap1\n      div\n      0xffffffffffffffffffffffffffffffffffffffff\n      and\n        /* \"HW2.sol\":1082:1097  token.balanceOf */\n      0xffffffffffffffffffffffffffffffffffffffff\n      and\n      0x70a08231\n        /* \"HW2.sol\":1106:1110  this */\n      address\n        /* \"HW2.sol\":1082:1112  token.balanceOf(address(this)) */\n      mload(0x40)\n      dup3\n      0xffffffff\n      and\n      0xe0\n      shl\n      dup2\n      mstore\n      0x04\n      add\n      tag_23\n      swap2\n      swap1\n      tag_24\n      jump\t// in\n    tag_23:\n      0x20\n      mload(0x40)\n      dup1\n      dup4\n      sub\n      dup2\n      dup7\n      gas\n      staticcall\n      iszero\n      dup1\n      iszero\n      tag_26\n      jumpi\n      returndatasize\n      0x00\n      dup1\n      returndatacopy\n      revert(0x00, returndatasize)\n    tag_26:\n      pop\n      pop\n      pop\n      pop\n      mload(0x40)\n      returndatasize\n      not(0x1f)\n      0x1f\n      dup3\n      add\n      and\n      dup3\n      add\n      dup1\n      0x40\n      mstore\n      pop\n      dup2\n      add\n      swap1\n      tag_27\n      swap2\n      swap1\n      tag_28\n      jump\t// in\n    tag_27:\n        /* \"HW2.sol\":1082:1122  token.balanceOf(address(this)) >= amount */\n      lt\n      iszero\n        /* \"HW2.sol\":1074:1123  require(token.balanceOf(address(this)) >= amount) */\n      tag_29\n      jumpi\n      0x00\n      dup1\n      revert\n    tag_29:\n        /* \"HW2.sol\":1134:1139  token */\n      0x08\n      0x00\n      swap1\n      sload\n      swap1\n      0x0100\n      exp\n      swap1\n      div\n      0xffffffffffffffffffffffffffffffffffffffff\n      and\n        /* \"HW2.sol\":1134:1148  token.transfer */\n      0xffffffffffffffffffffffffffffffffffffffff\n      and\n      0xa9059cbb\n        /* \"HW2.sol\":1149:1159  msg.sender */\n      caller\n        /* \"HW2.sol\":1161:1167  amount */\n      dup4\n        /* \"HW2.sol\":1134:1168  token.transfer(msg.sender, amount) */\n      mload(0x40)\n      dup4\n      0xffffffff\n      and\n      0xe0\n      shl\n      dup2\n      mstore\n      0x04\n      add\n      tag_30\n      swap3\n      swap2\n      swap1\n      tag_31\n      jump\t// in\n    tag_30:\n      0x20\n      mload(0x40)\n      dup1\n      dup4\n      sub\n      dup2\n      0x00\n      dup8\n      gas\n      call\n      iszero\n      dup1\n      iszero\n      tag_33\n      jumpi\n      returndatasize\n      0x00\n      dup1\n      returndatacopy\n      revert(0x00, returndatasize)\n    tag_33:\n      pop\n      pop\n      pop\n      pop\n      mload(0x40)\n      returndatasize\n      not(0x1f)\n      0x1f\n      dup3\n      add\n      and\n      dup3\n      add\n      dup1\n      0x40\n      mstore\n      pop\n      dup2\n      add\n      swap1\n      tag_34\n      swap2\n      swap1\n      tag_35\n      jump\t// in\n    tag_34:\n      pop\n        /* \"HW2.sol\":1179:1185  _owner */\n      0x06\n      0x00\n      swap1\n      sload\n      swap1\n      0x0100\n      exp\n      swap1\n      div\n      0xffffffffffffffffffffffffffffffffffffffff\n      and\n        /* \"HW2.sol\":1179:1194  _owner.transfer */\n      0xffffffffffffffffffffffffffffffffffffffff\n      and\n        /* \"HW2.sol\":1179:1205  _owner.transfer(msg.value) */\n      0x08fc\n        /* \"HW2.sol\":1195:1204  msg.value */\n      callvalue\n        /* \"HW2.sol\":1179:1205  _owner.transfer(msg.value) */\n      swap1\n      dup2\n      iszero\n      mul\n      swap1\n      mload(0x40)\n      0x00\n      mload(0x40)\n      dup1\n      dup4\n      sub\n      dup2\n      dup6\n      dup9\n      dup9\n      call\n      swap4\n      pop\n      pop\n      pop\n      pop\n      iszero\n      dup1\n      iszero\n      tag_37\n      jumpi\n      returndatasize\n      0x00\n      dup1\n      returndatacopy\n      revert(0x00, returndatasize)\n    tag_37:\n      pop\n        /* \"HW2.sol\":1229:1235  amount */\n      dup1\n        /* \"HW2.sol\":1216:1225  totalSold */\n      0x05\n      0x00\n        /* \"HW2.sol\":1216:1235  totalSold += amount */\n      dup3\n      dup3\n      sload\n      tag_38\n      swap2\n      swap1\n      tag_39\n      jump\t// in\n    tag_38:\n      swap3\n      pop\n      pop\n      dup2\n      swap1\n      sstore\n      pop\n        /* \"HW2.sol\":1280:1286  amount */\n      dup1\n        /* \"HW2.sol\":1255:1264  balanceOf */\n      0x09\n        /* \"HW2.sol\":1255:1276  balanceOf[msg.sender] */\n      0x00\n        /* \"HW2.sol\":1265:1275  msg.sender */\n      caller\n        /* \"HW2.sol\":1255:1276  balanceOf[msg.sender] */\n      0xffffffffffffffffffffffffffffffffffffffff\n      and\n      0xffffffffffffffffffffffffffffffffffffffff\n      and\n      dup2\n      mstore\n      0x20\n      add\n      swap1\n      dup2\n      mstore\n      0x20\n      add\n      0x00\n      keccak256\n      0x00\n        /* \"HW2.sol\":1255:1286  balanceOf[msg.sender] += amount */\n      dup3\n      dup3\n      sload\n      tag_40\n      swap2\n      swap1\n      tag_39\n      jump\t// in\n    tag_40:\n      swap3\n      pop\n      pop\n      dup2\n      swap1\n      sstore\n      stop\n        /* \"HW2.sol\":175:1853  contract Crowdsale is Ownable {... */\n    tag_2:\n      0x00\n      dup1\n      revert\n        /* \"HW2.sol\":1302:1401  function changeCourse(uint256 _newExrate) external onlyOwner {... */\n    tag_3:\n      callvalue\n      dup1\n      iszero\n      tag_41\n      jumpi\n      0x00\n      dup1\n      revert\n    tag_41:\n      pop\n      tag_42\n      0x04\n      dup1\n      calldatasize\n      sub\n      dup2\n      add\n      swap1\n      tag_43\n      swap2\n      swap1\n      tag_44\n      jump\t// in\n    tag_43:\n      tag_45\n      jump\t// in\n    tag_42:\n      stop\n        /* \"HW2.sol\":417:451  address payable public teamAddress */\n    tag_4:\n      callvalue\n      dup1\n      iszero\n      tag_46\n      jumpi\n      0x00\n      dup1\n      revert\n    tag_46:\n      pop\n      tag_47\n      tag_48\n      jump\t// in\n    tag_47:\n      mload(0x40)\n      tag_49\n      swap2\n      swap1\n      tag_50\n      jump\t// in\n    tag_49:\n      mload(0x40)\n      dup1\n      swap2\n      sub\n      swap1\n      return\n        /* \"HW2.sol\":1409:1850  function finalize() external onlyOwner {... */\n    tag_5:\n      callvalue\n      dup1\n      iszero\n      tag_51\n      jumpi\n      0x00\n      dup1\n      revert\n    tag_51:\n      pop\n      tag_52\n      tag_53\n      jump\t// in\n    tag_52:\n      stop\n        /* \"HW2.sol\":497:541  mapping(address => uint256) public balanceOf */\n    tag_6:\n      callvalue\n      dup1\n      iszero\n      tag_54\n      jumpi\n      0x00\n      dup1\n      revert\n    tag_54:\n      pop\n      tag_55\n      0x04\n      dup1\n      calldatasize\n      sub\n      dup2\n      add\n      swap1\n      tag_56\n      swap2\n      swap1\n      tag_57\n      jump\t// in\n    tag_56:\n      tag_58\n      jump\t// in\n    tag_55:\n      mload(0x40)\n      tag_59\n      swap2\n      swap1\n      tag_60\n      jump\t// in\n    tag_59:\n      mload(0x40)\n      dup1\n      swap2\n      sub\n      swap1\n      return\n        /* \"@openzeppelin/contracts/access/Ownable.sol\":2293:2394  function renounceOwnership() public virtual onlyOwner {... */\n    tag_7:\n      callvalue\n      dup1\n      iszero\n      tag_61\n      jumpi\n      0x00\n      dup1\n      revert\n    tag_61:\n      pop\n      tag_62\n      tag_63\n      jump\t// in\n    tag_62:\n      stop\n        /* \"@openzeppelin/contracts/access/Ownable.sol\":1638:1723  function owner() public view virtual returns (address) {... */\n    tag_8:\n      callvalue\n      dup1\n      iszero\n      tag_64\n      jumpi\n      0x00\n      dup1\n      revert\n    tag_64:\n      pop\n      tag_65\n      tag_66\n      jump\t// in\n    tag_65:\n      mload(0x40)\n      tag_67\n      swap2\n      swap1\n      tag_24\n      jump\t// in\n    tag_67:\n      mload(0x40)\n      dup1\n      swap2\n      sub\n      swap1\n      return\n        /* \"HW2.sol\":339:363  uint256 public totalSold */\n    tag_9:\n      callvalue\n      dup1\n      iszero\n      tag_68\n      jumpi\n      0x00\n      dup1\n      revert\n    tag_68:\n      pop\n      tag_69\n      tag_70\n      jump\t// in\n    tag_69:\n      mload(0x40)\n      tag_71\n      swap2\n      swap1\n      tag_60\n      jump\t// in\n    tag_71:\n      mload(0x40)\n      dup1\n      swap2\n      sub\n      swap1\n      return\n        /* \"HW2.sol\":252:281  uint256 public exrate = 10000 */\n    tag_10:\n      callvalue\n      dup1\n      iszero\n      tag_72\n      jumpi\n      0x00\n      dup1\n      revert\n    tag_72:\n      pop\n      tag_73\n      tag_74\n      jump\t// in\n    tag_73:\n      mload(0x40)\n      tag_75\n      swap2\n      swap1\n      tag_60\n      jump\t// in\n    tag_75:\n      mload(0x40)\n      dup1\n      swap2\n      sub\n      swap1\n      return\n        /* \"HW2.sol\":381:410  address payable public _owner */\n    tag_11:\n      callvalue\n      dup1\n      iszero\n      tag_76\n      jumpi\n      0x00\n      dup1\n      revert\n    tag_76:\n      pop\n      tag_77\n      tag_78\n      jump\t// in\n    tag_77:\n      mload(0x40)\n      tag_79\n      swap2\n      swap1\n      tag_50\n      jump\t// in\n    tag_79:\n      mload(0x40)\n      dup1\n      swap2\n      sub\n      swap1\n      return\n        /* \"@openzeppelin/contracts/access/Ownable.sol\":2543:2758  function transferOwnership(address newOwner) public virtual onlyOwner {... */\n    tag_12:\n      callvalue\n      dup1\n      iszero\n      tag_80\n      jumpi\n      0x00\n      dup1\n      revert\n    tag_80:\n      pop\n      tag_81\n      0x04\n      dup1\n      calldatasize\n      sub\n      dup2\n      add\n      swap1\n      tag_82\n      swap2\n      swap1\n      tag_57\n      jump\t// in\n    tag_82:\n      tag_83\n      jump\t// in\n    tag_81:\n      stop\n        /* \"HW2.sol\":289:323  uint256 public hardCap = 0.1 ether */\n    tag_13:\n      callvalue\n      dup1\n      iszero\n      tag_84\n      jumpi\n      0x00\n      dup1\n      revert\n    tag_84:\n      pop\n      tag_85\n      tag_86\n      jump\t// in\n    tag_85:\n      mload(0x40)\n      tag_87\n      swap2\n      swap1\n      tag_60\n      jump\t// in\n    tag_87:\n      mload(0x40)\n      dup1\n      swap2\n      sub\n      swap1\n      return\n        /* \"HW2.sol\":469:488  IERC20 public token */\n    tag_14:\n      callvalue\n      dup1\n      iszero\n      tag_88\n      jumpi\n      0x00\n      dup1\n      revert\n    tag_88:\n      pop\n      tag_89\n      tag_90\n      jump\t// in\n    tag_89:\n      mload(0x40)\n      tag_91\n      swap2\n      swap1\n      tag_92\n      jump\t// in\n    tag_91:\n      mload(0x40)\n      dup1\n      swap2\n      sub\n      swap1\n      return\n        /* \"HW2.sol\":1302:1401  function changeCourse(uint256 _newExrate) external onlyOwner {... */\n    tag_45:\n        /* \"@openzeppelin/contracts/access/Ownable.sol\":1531:1544  _checkOwner() */\n      tag_94\n        /* \"@openzeppelin/contracts/access/Ownable.sol\":1531:1542  _checkOwner */\n      tag_95\n        /* \"@openzeppelin/contracts/access/Ownable.sol\":1531:1544  _checkOwner() */\n      jump\t// in\n    tag_94:\n        /* \"HW2.sol\":1383:1393  _newExrate */\n      dup1\n        /* \"HW2.sol\":1374:1380  exrate */\n      0x03\n        /* \"HW2.sol\":1374:1393  exrate = _newExrate */\n      dup2\n      swap1\n      sstore\n      pop\n        /* \"HW2.sol\":1302:1401  function changeCourse(uint256 _newExrate) external onlyOwner {... */\n      pop\n      jump\t// out\n        /* \"HW2.sol\":417:451  address payable public teamAddress */\n    tag_48:\n      0x07\n      0x00\n      swap1\n      sload\n      swap1\n      0x0100\n      exp\n      swap1\n      div\n      0xffffffffffffffffffffffffffffffffffffffff\n      and\n      dup2\n      jump\t// out\n        /* \"HW2.sol\":1409:1850  function finalize() external onlyOwner {... */\n    tag_53:\n        /* \"@openzeppelin/contracts/access/Ownable.sol\":1531:1544  _checkOwner() */\n      tag_98\n        /* \"@openzeppelin/contracts/access/Ownable.sol\":1531:1542  _checkOwner */\n      tag_95\n        /* \"@openzeppelin/contracts/access/Ownable.sol\":1531:1544  _checkOwner() */\n      jump\t// in\n    tag_98:\n        /* \"HW2.sol\":1485:1492  endTime */\n      sload(0x02)\n        /* \"HW2.sol\":1467:1482  block.timestamp */\n      timestamp\n        /* \"HW2.sol\":1467:1492  block.timestamp > endTime */\n      gt\n        /* \"HW2.sol\":1459:1493  require(block.timestamp > endTime) */\n      tag_100\n      jumpi\n      0x00\n      dup1\n      revert\n    tag_100:\n        /* \"HW2.sol\":1504:1517  uint256 teamT */\n      0x00\n        /* \"HW2.sol\":1539:1542  100 */\n      0x64\n        /* \"HW2.sol\":1533:1535  10 */\n      0x0a\n        /* \"HW2.sol\":1521:1530  totalSold */\n      sload(0x05)\n        /* \"HW2.sol\":1521:1535  totalSold * 10 */\n      tag_101\n      swap2\n      swap1\n      tag_22\n      jump\t// in\n    tag_101:\n        /* \"HW2.sol\":1520:1542  (totalSold * 10) / 100 */\n      tag_102\n      swap2\n      swap1\n      tag_103\n      jump\t// in\n    tag_102:\n        /* \"HW2.sol\":1504:1542  uint256 teamT = (totalSold * 10) / 100 */\n      swap1\n      pop\n        /* \"HW2.sol\":1605:1610  teamT */\n      dup1\n        /* \"HW2.sol\":1571:1576  token */\n      0x08\n      0x00\n      swap1\n      sload\n      swap1\n      0x0100\n      exp\n      swap1\n      div\n      0xffffffffffffffffffffffffffffffffffffffff\n      and\n        /* \"HW2.sol\":1571:1586  token.balanceOf */\n      0xffffffffffffffffffffffffffffffffffffffff\n      and\n      0x70a08231\n        /* \"HW2.sol\":1595:1599  this */\n      address\n        /* \"HW2.sol\":1571:1601  token.balanceOf(address(this)) */\n      mload(0x40)\n      dup3\n      0xffffffff\n      and\n      0xe0\n      shl\n      dup2\n      mstore\n      0x04\n      add\n      tag_104\n      swap2\n      swap1\n      tag_24\n      jump\t// in\n    tag_104:\n      0x20\n      mload(0x40)\n      dup1\n      dup4\n      sub\n      dup2\n      dup7\n      gas\n      staticcall\n      iszero\n      dup1\n      iszero\n      tag_106\n      jumpi\n      returndatasize\n      0x00\n      dup1\n      returndatacopy\n      revert(0x00, returndatasize)\n    tag_106:\n      pop\n      pop\n      pop\n      pop\n      mload(0x40)\n      returndatasize\n      not(0x1f)\n      0x1f\n      dup3\n      add\n      and\n      dup3\n      add\n      dup1\n      0x40\n      mstore\n      pop\n      dup2\n      add\n      swap1\n      tag_107\n      swap2\n      swap1\n      tag_28\n      jump\t// in\n    tag_107:\n        /* \"HW2.sol\":1571:1610  token.balanceOf(address(this)) >= teamT */\n      lt\n      iszero\n        /* \"HW2.sol\":1563:1611  require(token.balanceOf(address(this)) >= teamT) */\n      tag_108\n      jumpi\n      0x00\n      dup1\n      revert\n    tag_108:\n        /* \"HW2.sol\":1631:1636  token */\n      0x08\n      0x00\n      swap1\n      sload\n      swap1\n      0x0100\n      exp\n      swap1\n      div\n      0xffffffffffffffffffffffffffffffffffffffff\n      and\n        /* \"HW2.sol\":1631:1645  token.transfer */\n      0xffffffffffffffffffffffffffffffffffffffff\n      and\n      0xa9059cbb\n        /* \"HW2.sol\":1646:1657  teamAddress */\n      0x07\n      0x00\n      swap1\n      sload\n      swap1\n      0x0100\n      exp\n      swap1\n      div\n      0xffffffffffffffffffffffffffffffffffffffff\n      and\n        /* \"HW2.sol\":1659:1664  teamT */\n      dup4\n        /* \"HW2.sol\":1631:1665  token.transfer(teamAddress, teamT) */\n      mload(0x40)\n      dup4\n      0xffffffff\n      and\n      0xe0\n      shl\n      dup2\n      mstore\n      0x04\n      add\n      tag_109\n      swap3\n      swap2\n      swap1\n      tag_110\n      jump\t// in\n    tag_109:\n      0x20\n      mload(0x40)\n      dup1\n      dup4\n      sub\n      dup2\n      0x00\n      dup8\n      gas\n      call\n      iszero\n      dup1\n      iszero\n      tag_112\n      jumpi\n      returndatasize\n      0x00\n      dup1\n      returndatacopy\n      revert(0x00, returndatasize)\n    tag_112:\n      pop\n      pop\n      pop\n      pop\n      mload(0x40)\n      returndatasize\n      not(0x1f)\n      0x1f\n      dup3\n      add\n      and\n      dup3\n      add\n      dup1\n      0x40\n      mstore\n      pop\n      dup2\n      add\n      swap1\n      tag_113\n      swap2\n      swap1\n      tag_35\n      jump\t// in\n    tag_113:\n      pop\n        /* \"HW2.sol\":1685:1708  uint256 remainingTokens */\n      0x00\n        /* \"HW2.sol\":1711:1716  token */\n      0x08\n      0x00\n      swap1\n      sload\n      swap1\n      0x0100\n      exp\n      swap1\n      div\n      0xffffffffffffffffffffffffffffffffffffffff\n      and\n        /* \"HW2.sol\":1711:1726  token.balanceOf */\n      0xffffffffffffffffffffffffffffffffffffffff\n      and\n      0x70a08231\n        /* \"HW2.sol\":1735:1739  this */\n      address\n        /* \"HW2.sol\":1711:1741  token.balanceOf(address(this)) */\n      mload(0x40)\n      dup3\n      0xffffffff\n      and\n      0xe0\n      shl\n      dup2\n      mstore\n      0x04\n      add\n      tag_114\n      swap2\n      swap1\n      tag_24\n      jump\t// in\n    tag_114:\n      0x20\n      mload(0x40)\n      dup1\n      dup4\n      sub\n      dup2\n      dup7\n      gas\n      staticcall\n      iszero\n      dup1\n      iszero\n      tag_116\n      jumpi\n      returndatasize\n      0x00\n      dup1\n      returndatacopy\n      revert(0x00, returndatasize)\n    tag_116:\n      pop\n      pop\n      pop\n      pop\n      mload(0x40)\n      returndatasize\n      not(0x1f)\n      0x1f\n      dup3\n      add\n      and\n      dup3\n      add\n      dup1\n      0x40\n      mstore\n      pop\n      dup2\n      add\n      swap1\n      tag_117\n      swap2\n      swap1\n      tag_28\n      jump\t// in\n    tag_117:\n        /* \"HW2.sol\":1685:1741  uint256 remainingTokens = token.balanceOf(address(this)) */\n      swap1\n      pop\n        /* \"HW2.sol\":1774:1775  0 */\n      0x00\n        /* \"HW2.sol\":1756:1771  remainingTokens */\n      dup2\n        /* \"HW2.sol\":1756:1775  remainingTokens > 0 */\n      gt\n        /* \"HW2.sol\":1752:1843  if (remainingTokens > 0) {... */\n      iszero\n      tag_118\n      jumpi\n        /* \"HW2.sol\":1792:1797  token */\n      0x08\n      0x00\n      swap1\n      sload\n      swap1\n      0x0100\n      exp\n      swap1\n      div\n      0xffffffffffffffffffffffffffffffffffffffff\n      and\n        /* \"HW2.sol\":1792:1806  token.transfer */\n      0xffffffffffffffffffffffffffffffffffffffff\n      and\n      0xa9059cbb\n        /* \"HW2.sol\":1807:1813  _owner */\n      0x06\n      0x00\n      swap1\n      sload\n      swap1\n      0x0100\n      exp\n      swap1\n      div\n      0xffffffffffffffffffffffffffffffffffffffff\n      and\n        /* \"HW2.sol\":1815:1830  remainingTokens */\n      dup4\n        /* \"HW2.sol\":1792:1831  token.transfer(_owner, remainingTokens) */\n      mload(0x40)\n      dup4\n      0xffffffff\n      and\n      0xe0\n      shl\n      dup2\n      mstore\n      0x04\n      add\n      tag_119\n      swap3\n      swap2\n      swap1\n      tag_110\n      jump\t// in\n    tag_119:\n      0x20\n      mload(0x40)\n      dup1\n      dup4\n      sub\n      dup2\n      0x00\n      dup8\n      gas\n      call\n      iszero\n      dup1\n      iszero\n      tag_121\n      jumpi\n      returndatasize\n      0x00\n      dup1\n      returndatacopy\n      revert(0x00, returndatasize)\n    tag_121:\n      pop\n      pop\n      pop\n      pop\n      mload(0x40)\n      returndatasize\n      not(0x1f)\n      0x1f\n      dup3\n      add\n      and\n      dup3\n      add\n      dup1\n      0x40\n      mstore\n      pop\n      dup2\n      add\n      swap1\n      tag_122\n      swap2\n      swap1\n      tag_35\n      jump\t// in\n    tag_122:\n      pop\n        /* \"HW2.sol\":1752:1843  if (remainingTokens > 0) {... */\n    tag_118:\n        /* \"HW2.sol\":1448:1850  {... */\n      pop\n      pop\n        /* \"HW2.sol\":1409:1850  function finalize() external onlyOwner {... */\n      jump\t// out\n        /* \"HW2.sol\":497:541  mapping(address => uint256) public balanceOf */\n    tag_58:\n      mstore(0x20, 0x09)\n      dup1\n      0x00\n      mstore\n      keccak256(0x00, 0x40)\n      0x00\n      swap2\n      pop\n      swap1\n      pop\n      sload\n      dup2\n      jump\t// out\n        /* \"@openzeppelin/contracts/access/Ownable.sol\":2293:2394  function renounceOwnership() public virtual onlyOwner {... */\n    tag_63:\n        /* \"@openzeppelin/contracts/access/Ownable.sol\":1531:1544  _checkOwner() */\n      tag_124\n        /* \"@openzeppelin/contracts/access/Ownable.sol\":1531:1542  _checkOwner */\n      tag_95\n        /* \"@openzeppelin/contracts/access/Ownable.sol\":1531:1544  _checkOwner() */\n      jump\t// in\n    tag_124:\n        /* \"@openzeppelin/contracts/access/Ownable.sol\":2357:2387  _transferOwnership(address(0)) */\n      tag_126\n        /* \"@openzeppelin/contracts/access/Ownable.sol\":2384:2385  0 */\n      0x00\n        /* \"@openzeppelin/contracts/access/Ownable.sol\":2357:2375  _transferOwnership */\n      tag_127\n        /* \"@openzeppelin/contracts/access/Ownable.sol\":2357:2387  _transferOwnership(address(0)) */\n      jump\t// in\n    tag_126:\n        /* \"@openzeppelin/contracts/access/Ownable.sol\":2293:2394  function renounceOwnership() public virtual onlyOwner {... */\n      jump\t// out\n        /* \"@openzeppelin/contracts/access/Ownable.sol\":1638:1723  function owner() public view virtual returns (address) {... */\n    tag_66:\n        /* \"@openzeppelin/contracts/access/Ownable.sol\":1684:1691  address */\n      0x00\n        /* \"@openzeppelin/contracts/access/Ownable.sol\":1710:1716  _owner */\n      dup1\n      0x00\n      swap1\n      sload\n      swap1\n      0x0100\n      exp\n      swap1\n      div\n      0xffffffffffffffffffffffffffffffffffffffff\n      and\n        /* \"@openzeppelin/contracts/access/Ownable.sol\":1703:1716  return _owner */\n      swap1\n      pop\n        /* \"@openzeppelin/contracts/access/Ownable.sol\":1638:1723  function owner() public view virtual returns (address) {... */\n      swap1\n      jump\t// out\n        /* \"HW2.sol\":339:363  uint256 public totalSold */\n    tag_70:\n      sload(0x05)\n      dup2\n      jump\t// out\n        /* \"HW2.sol\":252:281  uint256 public exrate = 10000 */\n    tag_74:\n      sload(0x03)\n      dup2\n      jump\t// out\n        /* \"HW2.sol\":381:410  address payable public _owner */\n    tag_78:\n      0x06\n      0x00\n      swap1\n      sload\n      swap1\n      0x0100\n      exp\n      swap1\n      div\n      0xffffffffffffffffffffffffffffffffffffffff\n      and\n      dup2\n      jump\t// out\n        /* \"@openzeppelin/contracts/access/Ownable.sol\":2543:2758  function transferOwnership(address newOwner) public virtual onlyOwner {... */\n    tag_83:\n        /* \"@openzeppelin/contracts/access/Ownable.sol\":1531:1544  _checkOwner() */\n      tag_130\n        /* \"@openzeppelin/contracts/access/Ownable.sol\":1531:1542  _checkOwner */\n      tag_95\n        /* \"@openzeppelin/contracts/access/Ownable.sol\":1531:1544  _checkOwner() */\n      jump\t// in\n    tag_130:\n        /* \"@openzeppelin/contracts/access/Ownable.sol\":2647:2648  0 */\n      0x00\n        /* \"@openzeppelin/contracts/access/Ownable.sol\":2627:2649  newOwner == address(0) */\n      0xffffffffffffffffffffffffffffffffffffffff\n      and\n        /* \"@openzeppelin/contracts/access/Ownable.sol\":2627:2635  newOwner */\n      dup2\n        /* \"@openzeppelin/contracts/access/Ownable.sol\":2627:2649  newOwner == address(0) */\n      0xffffffffffffffffffffffffffffffffffffffff\n      and\n      sub\n        /* \"@openzeppelin/contracts/access/Ownable.sol\":2623:2714  if (newOwner == address(0)) {... */\n      tag_132\n      jumpi\n        /* \"@openzeppelin/contracts/access/Ownable.sol\":2700:2701  0 */\n      0x00\n        /* \"@openzeppelin/contracts/access/Ownable.sol\":2672:2703  OwnableInvalidOwner(address(0)) */\n      mload(0x40)\n      0x1e4fbdf700000000000000000000000000000000000000000000000000000000\n      dup2\n      mstore\n      0x04\n      add\n      tag_133\n      swap2\n      swap1\n      tag_24\n      jump\t// in\n    tag_133:\n      mload(0x40)\n      dup1\n      swap2\n      sub\n      swap1\n      revert\n        /* \"@openzeppelin/contracts/access/Ownable.sol\":2623:2714  if (newOwner == address(0)) {... */\n    tag_132:\n        /* \"@openzeppelin/contracts/access/Ownable.sol\":2723:2751  _transferOwnership(newOwner) */\n      tag_134\n        /* \"@openzeppelin/contracts/access/Ownable.sol\":2742:2750  newOwner */\n      dup2\n        /* \"@openzeppelin/contracts/access/Ownable.sol\":2723:2741  _transferOwnership */\n      tag_127\n        /* \"@openzeppelin/contracts/access/Ownable.sol\":2723:2751  _transferOwnership(newOwner) */\n      jump\t// in\n    tag_134:\n        /* \"@openzeppelin/contracts/access/Ownable.sol\":2543:2758  function transferOwnership(address newOwner) public virtual onlyOwner {... */\n      pop\n      jump\t// out\n        /* \"HW2.sol\":289:323  uint256 public hardCap = 0.1 ether */\n    tag_86:\n      sload(0x04)\n      dup2\n      jump\t// out\n        /* \"HW2.sol\":469:488  IERC20 public token */\n    tag_90:\n      0x08\n      0x00\n      swap1\n      sload\n      swap1\n      0x0100\n      exp\n      swap1\n      div\n      0xffffffffffffffffffffffffffffffffffffffff\n      and\n      dup2\n      jump\t// out\n        /* \"@openzeppelin/contracts/access/Ownable.sol\":1796:1958  function _checkOwner() internal view virtual {... */\n    tag_95:\n        /* \"@openzeppelin/contracts/access/Ownable.sol\":1866:1878  _msgSender() */\n      tag_136\n        /* \"@openzeppelin/contracts/access/Ownable.sol\":1866:1876  _msgSender */\n      tag_137\n        /* \"@openzeppelin/contracts/access/Ownable.sol\":1866:1878  _msgSender() */\n      jump\t// in\n    tag_136:\n        /* \"@openzeppelin/contracts/access/Ownable.sol\":1855:1878  owner() != _msgSender() */\n      0xffffffffffffffffffffffffffffffffffffffff\n      and\n        /* \"@openzeppelin/contracts/access/Ownable.sol\":1855:1862  owner() */\n      tag_138\n        /* \"@openzeppelin/contracts/access/Ownable.sol\":1855:1860  owner */\n      tag_66\n        /* \"@openzeppelin/contracts/access/Ownable.sol\":1855:1862  owner() */\n      jump\t// in\n    tag_138:\n        /* \"@openzeppelin/contracts/access/Ownable.sol\":1855:1878  owner() != _msgSender() */\n      0xffffffffffffffffffffffffffffffffffffffff\n      and\n      eq\n        /* \"@openzeppelin/contracts/access/Ownable.sol\":1851:1952  if (owner() != _msgSender()) {... */\n      tag_139\n      jumpi\n        /* \"@openzeppelin/contracts/access/Ownable.sol\":1928:1940  _msgSender() */\n      tag_140\n        /* \"@openzeppelin/contracts/access/Ownable.sol\":1928:1938  _msgSender */\n      tag_137\n        /* \"@openzeppelin/contracts/access/Ownable.sol\":1928:1940  _msgSender() */\n      jump\t// in\n    tag_140:\n        /* \"@openzeppelin/contracts/access/Ownable.sol\":1901:1941  OwnableUnauthorizedAccount(_msgSender()) */\n      mload(0x40)\n      0x118cdaa700000000000000000000000000000000000000000000000000000000\n      dup2\n      mstore\n      0x04\n      add\n      tag_141\n      swap2\n      swap1\n      tag_24\n      jump\t// in\n    tag_141:\n      mload(0x40)\n      dup1\n      swap2\n      sub\n      swap1\n      revert\n        /* \"@openzeppelin/contracts/access/Ownable.sol\":1851:1952  if (owner() != _msgSender()) {... */\n    tag_139:\n        /* \"@openzeppelin/contracts/access/Ownable.sol\":1796:1958  function _checkOwner() internal view virtual {... */\n      jump\t// out\n        /* \"@openzeppelin/contracts/access/Ownable.sol\":2912:3099  function _transferOwnership(address newOwner) internal virtual {... */\n    tag_127:\n        /* \"@openzeppelin/contracts/access/Ownable.sol\":2985:3001  address oldOwner */\n      0x00\n        /* \"@openzeppelin/contracts/access/Ownable.sol\":3004:3010  _owner */\n      dup1\n      0x00\n      swap1\n      sload\n      swap1\n      0x0100\n      exp\n      swap1\n      div\n      0xffffffffffffffffffffffffffffffffffffffff\n      and\n        /* \"@openzeppelin/contracts/access/Ownable.sol\":2985:3010  address oldOwner = _owner */\n      swap1\n      pop\n        /* \"@openzeppelin/contracts/access/Ownable.sol\":3029:3037  newOwner */\n      dup2\n        /* \"@openzeppelin/contracts/access/Ownable.sol\":3020:3026  _owner */\n      0x00\n      dup1\n        /* \"@openzeppelin/contracts/access/Ownable.sol\":3020:3037  _owner = newOwner */\n      0x0100\n      exp\n      dup2\n      sload\n      dup2\n      0xffffffffffffffffffffffffffffffffffffffff\n      mul\n      not\n      and\n      swap1\n      dup4\n      0xffffffffffffffffffffffffffffffffffffffff\n      and\n      mul\n      or\n      swap1\n      sstore\n      pop\n        /* \"@openzeppelin/contracts/access/Ownable.sol\":3083:3091  newOwner */\n      dup2\n        /* \"@openzeppelin/contracts/access/Ownable.sol\":3052:3092  OwnershipTransferred(oldOwner, newOwner) */\n      0xffffffffffffffffffffffffffffffffffffffff\n      and\n        /* \"@openzeppelin/contracts/access/Ownable.sol\":3073:3081  oldOwner */\n      dup2\n        /* \"@openzeppelin/contracts/access/Ownable.sol\":3052:3092  OwnershipTransferred(oldOwner, newOwner) */\n      0xffffffffffffffffffffffffffffffffffffffff\n      and\n      0x8be0079c531659141344cd1fd0a4f28419497f9722a3daafe3b4186f6b6457e0\n      mload(0x40)\n      mload(0x40)\n      dup1\n      swap2\n      sub\n      swap1\n      log3\n        /* \"@openzeppelin/contracts/access/Ownable.sol\":2975:3099  {... */\n      pop\n        /* \"@openzeppelin/contracts/access/Ownable.sol\":2912:3099  function _transferOwnership(address newOwner) internal virtual {... */\n      pop\n      jump\t// out\n        /* \"@openzeppelin/contracts/utils/Context.sol\":656:752  function _msgSender() internal view virtual returns (address) {... */\n    tag_137:\n        /* \"@openzeppelin/contracts/utils/Context.sol\":709:716  address */\n      0x00\n        /* \"@openzeppelin/contracts/utils/Context.sol\":735:745  msg.sender */\n      caller\n        /* \"@openzeppelin/contracts/utils/Context.sol\":728:745  return msg.sender */\n      swap1\n      pop\n        /* \"@openzeppelin/contracts/utils/Context.sol\":656:752  function _msgSender() internal view virtual returns (address) {... */\n      swap1\n      jump\t// out\n        /* \"#utility.yul\":7:84   */\n    tag_144:\n        /* \"#utility.yul\":44:51   */\n      0x00\n        /* \"#utility.yul\":73:78   */\n      dup2\n        /* \"#utility.yul\":62:78   */\n      swap1\n      pop\n        /* \"#utility.yul\":7:84   */\n      swap2\n      swap1\n      pop\n      jump\t// out\n        /* \"#utility.yul\":90:270   */\n    tag_145:\n        /* \"#utility.yul\":138:215   */\n      0x4e487b7100000000000000000000000000000000000000000000000000000000\n        /* \"#utility.yul\":135:136   */\n      0x00\n        /* \"#utility.yul\":128:216   */\n      mstore\n        /* \"#utility.yul\":235:239   */\n      0x11\n        /* \"#utility.yul\":232:233   */\n      0x04\n        /* \"#utility.yul\":225:240   */\n      mstore\n        /* \"#utility.yul\":259:263   */\n      0x24\n        /* \"#utility.yul\":256:257   */\n      0x00\n        /* \"#utility.yul\":249:264   */\n      revert\n        /* \"#utility.yul\":276:686   */\n    tag_22:\n        /* \"#utility.yul\":316:323   */\n      0x00\n        /* \"#utility.yul\":339:359   */\n      tag_175\n        /* \"#utility.yul\":357:358   */\n      dup3\n        /* \"#utility.yul\":339:359   */\n      tag_144\n      jump\t// in\n    tag_175:\n        /* \"#utility.yul\":334:359   */\n      swap2\n      pop\n        /* \"#utility.yul\":373:393   */\n      tag_176\n        /* \"#utility.yul\":391:392   */\n      dup4\n        /* \"#utility.yul\":373:393   */\n      tag_144\n      jump\t// in\n    tag_176:\n        /* \"#utility.yul\":368:393   */\n      swap3\n      pop\n        /* \"#utility.yul\":428:429   */\n      dup3\n        /* \"#utility.yul\":425:426   */\n      dup3\n        /* \"#utility.yul\":421:430   */\n      mul\n        /* \"#utility.yul\":450:480   */\n      tag_177\n        /* \"#utility.yul\":468:479   */\n      dup2\n        /* \"#utility.yul\":450:480   */\n      tag_144\n      jump\t// in\n    tag_177:\n        /* \"#utility.yul\":439:480   */\n      swap2\n      pop\n        /* \"#utility.yul\":629:630   */\n      dup3\n        /* \"#utility.yul\":620:627   */\n      dup3\n        /* \"#utility.yul\":616:631   */\n      div\n        /* \"#utility.yul\":613:614   */\n      dup5\n        /* \"#utility.yul\":610:632   */\n      eq\n        /* \"#utility.yul\":590:591   */\n      dup4\n        /* \"#utility.yul\":583:592   */\n      iszero\n        /* \"#utility.yul\":563:646   */\n      or\n        /* \"#utility.yul\":540:679   */\n      tag_178\n      jumpi\n        /* \"#utility.yul\":659:677   */\n      tag_179\n      tag_145\n      jump\t// in\n    tag_179:\n        /* \"#utility.yul\":540:679   */\n    tag_178:\n        /* \"#utility.yul\":324:686   */\n      pop\n        /* \"#utility.yul\":276:686   */\n      swap3\n      swap2\n      pop\n      pop\n      jump\t// out\n        /* \"#utility.yul\":692:818   */\n    tag_146:\n        /* \"#utility.yul\":729:736   */\n      0x00\n        /* \"#utility.yul\":769:811   */\n      0xffffffffffffffffffffffffffffffffffffffff\n        /* \"#utility.yul\":762:767   */\n      dup3\n        /* \"#utility.yul\":758:812   */\n      and\n        /* \"#utility.yul\":747:812   */\n      swap1\n      pop\n        /* \"#utility.yul\":692:818   */\n      swap2\n      swap1\n      pop\n      jump\t// out\n        /* \"#utility.yul\":824:920   */\n    tag_147:\n        /* \"#utility.yul\":861:868   */\n      0x00\n        /* \"#utility.yul\":890:914   */\n      tag_182\n        /* \"#utility.yul\":908:913   */\n      dup3\n        /* \"#utility.yul\":890:914   */\n      tag_146\n      jump\t// in\n    tag_182:\n        /* \"#utility.yul\":879:914   */\n      swap1\n      pop\n        /* \"#utility.yul\":824:920   */\n      swap2\n      swap1\n      pop\n      jump\t// out\n        /* \"#utility.yul\":926:1044   */\n    tag_148:\n        /* \"#utility.yul\":1013:1037   */\n      tag_184\n        /* \"#utility.yul\":1031:1036   */\n      dup2\n        /* \"#utility.yul\":1013:1037   */\n      tag_147\n      jump\t// in\n    tag_184:\n        /* \"#utility.yul\":1008:1011   */\n      dup3\n        /* \"#utility.yul\":1001:1038   */\n      mstore\n        /* \"#utility.yul\":926:1044   */\n      pop\n      pop\n      jump\t// out\n        /* \"#utility.yul\":1050:1272   */\n    tag_24:\n        /* \"#utility.yul\":1143:1147   */\n      0x00\n        /* \"#utility.yul\":1181:1183   */\n      0x20\n        /* \"#utility.yul\":1170:1179   */\n      dup3\n        /* \"#utility.yul\":1166:1184   */\n      add\n        /* \"#utility.yul\":1158:1184   */\n      swap1\n      pop\n        /* \"#utility.yul\":1194:1265   */\n      tag_186\n        /* \"#utility.yul\":1262:1263   */\n      0x00\n        /* \"#utility.yul\":1251:1260   */\n      dup4\n        /* \"#utility.yul\":1247:1264   */\n      add\n        /* \"#utility.yul\":1238:1244   */\n      dup5\n        /* \"#utility.yul\":1194:1265   */\n      tag_148\n      jump\t// in\n    tag_186:\n        /* \"#utility.yul\":1050:1272   */\n      swap3\n      swap2\n      pop\n      pop\n      jump\t// out\n        /* \"#utility.yul\":1359:1476   */\n    tag_150:\n        /* \"#utility.yul\":1468:1469   */\n      0x00\n        /* \"#utility.yul\":1465:1466   */\n      dup1\n        /* \"#utility.yul\":1458:1470   */\n      revert\n        /* \"#utility.yul\":1605:1727   */\n    tag_152:\n        /* \"#utility.yul\":1678:1702   */\n      tag_191\n        /* \"#utility.yul\":1696:1701   */\n      dup2\n        /* \"#utility.yul\":1678:1702   */\n      tag_144\n      jump\t// in\n    tag_191:\n        /* \"#utility.yul\":1671:1676   */\n      dup2\n        /* \"#utility.yul\":1668:1703   */\n      eq\n        /* \"#utility.yul\":1658:1721   */\n      tag_192\n      jumpi\n        /* \"#utility.yul\":1717:1718   */\n      0x00\n        /* \"#utility.yul\":1714:1715   */\n      dup1\n        /* \"#utility.yul\":1707:1719   */\n      revert\n        /* \"#utility.yul\":1658:1721   */\n    tag_192:\n        /* \"#utility.yul\":1605:1727   */\n      pop\n      jump\t// out\n        /* \"#utility.yul\":1733:1876   */\n    tag_153:\n        /* \"#utility.yul\":1790:1795   */\n      0x00\n        /* \"#utility.yul\":1821:1827   */\n      dup2\n        /* \"#utility.yul\":1815:1828   */\n      mload\n        /* \"#utility.yul\":1806:1828   */\n      swap1\n      pop\n        /* \"#utility.yul\":1837:1870   */\n      tag_194\n        /* \"#utility.yul\":1864:1869   */\n      dup2\n        /* \"#utility.yul\":1837:1870   */\n      tag_152\n      jump\t// in\n    tag_194:\n        /* \"#utility.yul\":1733:1876   */\n      swap3\n      swap2\n      pop\n      pop\n      jump\t// out\n        /* \"#utility.yul\":1882:2233   */\n    tag_28:\n        /* \"#utility.yul\":1952:1958   */\n      0x00\n        /* \"#utility.yul\":2001:2003   */\n      0x20\n        /* \"#utility.yul\":1989:1998   */\n      dup3\n        /* \"#utility.yul\":1980:1987   */\n      dup5\n        /* \"#utility.yul\":1976:1999   */\n      sub\n        /* \"#utility.yul\":1972:2004   */\n      slt\n        /* \"#utility.yul\":1969:2088   */\n      iszero\n      tag_196\n      jumpi\n        /* \"#utility.yul\":2007:2086   */\n      tag_197\n      tag_150\n      jump\t// in\n    tag_197:\n        /* \"#utility.yul\":1969:2088   */\n    tag_196:\n        /* \"#utility.yul\":2127:2128   */\n      0x00\n        /* \"#utility.yul\":2152:2216   */\n      tag_198\n        /* \"#utility.yul\":2208:2215   */\n      dup5\n        /* \"#utility.yul\":2199:2205   */\n      dup3\n        /* \"#utility.yul\":2188:2197   */\n      dup6\n        /* \"#utility.yul\":2184:2206   */\n      add\n        /* \"#utility.yul\":2152:2216   */\n      tag_153\n      jump\t// in\n    tag_198:\n        /* \"#utility.yul\":2142:2216   */\n      swap2\n      pop\n        /* \"#utility.yul\":2098:2226   */\n      pop\n        /* \"#utility.yul\":1882:2233   */\n      swap3\n      swap2\n      pop\n      pop\n      jump\t// out\n        /* \"#utility.yul\":2239:2357   */\n    tag_154:\n        /* \"#utility.yul\":2326:2350   */\n      tag_200\n        /* \"#utility.yul\":2344:2349   */\n      dup2\n        /* \"#utility.yul\":2326:2350   */\n      tag_144\n      jump\t// in\n    tag_200:\n        /* \"#utility.yul\":2321:2324   */\n      dup3\n        /* \"#utility.yul\":2314:2351   */\n      mstore\n        /* \"#utility.yul\":2239:2357   */\n      pop\n      pop\n      jump\t// out\n        /* \"#utility.yul\":2363:2695   */\n    tag_31:\n        /* \"#utility.yul\":2484:2488   */\n      0x00\n        /* \"#utility.yul\":2522:2524   */\n      0x40\n        /* \"#utility.yul\":2511:2520   */\n      dup3\n        /* \"#utility.yul\":2507:2525   */\n      add\n        /* \"#utility.yul\":2499:2525   */\n      swap1\n      pop\n        /* \"#utility.yul\":2535:2606   */\n      tag_202\n        /* \"#utility.yul\":2603:2604   */\n      0x00\n        /* \"#utility.yul\":2592:2601   */\n      dup4\n        /* \"#utility.yul\":2588:2605   */\n      add\n        /* \"#utility.yul\":2579:2585   */\n      dup6\n        /* \"#utility.yul\":2535:2606   */\n      tag_148\n      jump\t// in\n    tag_202:\n        /* \"#utility.yul\":2616:2688   */\n      tag_203\n        /* \"#utility.yul\":2684:2686   */\n      0x20\n        /* \"#utility.yul\":2673:2682   */\n      dup4\n        /* \"#utility.yul\":2669:2687   */\n      add\n        /* \"#utility.yul\":2660:2666   */\n      dup5\n        /* \"#utility.yul\":2616:2688   */\n      tag_154\n      jump\t// in\n    tag_203:\n        /* \"#utility.yul\":2363:2695   */\n      swap4\n      swap3\n      pop\n      pop\n      pop\n      jump\t// out\n        /* \"#utility.yul\":2701:2791   */\n    tag_155:\n        /* \"#utility.yul\":2735:2742   */\n      0x00\n        /* \"#utility.yul\":2778:2783   */\n      dup2\n        /* \"#utility.yul\":2771:2784   */\n      iszero\n        /* \"#utility.yul\":2764:2785   */\n      iszero\n        /* \"#utility.yul\":2753:2785   */\n      swap1\n      pop\n        /* \"#utility.yul\":2701:2791   */\n      swap2\n      swap1\n      pop\n      jump\t// out\n        /* \"#utility.yul\":2797:2913   */\n    tag_156:\n        /* \"#utility.yul\":2867:2888   */\n      tag_206\n        /* \"#utility.yul\":2882:2887   */\n      dup2\n        /* \"#utility.yul\":2867:2888   */\n      tag_155\n      jump\t// in\n    tag_206:\n        /* \"#utility.yul\":2860:2865   */\n      dup2\n        /* \"#utility.yul\":2857:2889   */\n      eq\n        /* \"#utility.yul\":2847:2907   */\n      tag_207\n      jumpi\n        /* \"#utility.yul\":2903:2904   */\n      0x00\n        /* \"#utility.yul\":2900:2901   */\n      dup1\n        /* \"#utility.yul\":2893:2905   */\n      revert\n        /* \"#utility.yul\":2847:2907   */\n    tag_207:\n        /* \"#utility.yul\":2797:2913   */\n      pop\n      jump\t// out\n        /* \"#utility.yul\":2919:3056   */\n    tag_157:\n        /* \"#utility.yul\":2973:2978   */\n      0x00\n        /* \"#utility.yul\":3004:3010   */\n      dup2\n        /* \"#utility.yul\":2998:3011   */\n      mload\n        /* \"#utility.yul\":2989:3011   */\n      swap1\n      pop\n        /* \"#utility.yul\":3020:3050   */\n      tag_209\n        /* \"#utility.yul\":3044:3049   */\n      dup2\n        /* \"#utility.yul\":3020:3050   */\n      tag_156\n      jump\t// in\n    tag_209:\n        /* \"#utility.yul\":2919:3056   */\n      swap3\n      swap2\n      pop\n      pop\n      jump\t// out\n        /* \"#utility.yul\":3062:3407   */\n    tag_35:\n        /* \"#utility.yul\":3129:3135   */\n      0x00\n        /* \"#utility.yul\":3178:3180   */\n      0x20\n        /* \"#utility.yul\":3166:3175   */\n      dup3\n        /* \"#utility.yul\":3157:3164   */\n      dup5\n        /* \"#utility.yul\":3153:3176   */\n      sub\n        /* \"#utility.yul\":3149:3181   */\n      slt\n        /* \"#utility.yul\":3146:3265   */\n      iszero\n      tag_211\n      jumpi\n        /* \"#utility.yul\":3184:3263   */\n      tag_212\n      tag_150\n      jump\t// in\n    tag_212:\n        /* \"#utility.yul\":3146:3265   */\n    tag_211:\n        /* \"#utility.yul\":3304:3305   */\n      0x00\n        /* \"#utility.yul\":3329:3390   */\n      tag_213\n        /* \"#utility.yul\":3382:3389   */\n      dup5\n        /* \"#utility.yul\":3373:3379   */\n      dup3\n        /* \"#utility.yul\":3362:3371   */\n      dup6\n        /* \"#utility.yul\":3358:3380   */\n      add\n        /* \"#utility.yul\":3329:3390   */\n      tag_157\n      jump\t// in\n    tag_213:\n        /* \"#utility.yul\":3319:3390   */\n      swap2\n      pop\n        /* \"#utility.yul\":3275:3400   */\n      pop\n        /* \"#utility.yul\":3062:3407   */\n      swap3\n      swap2\n      pop\n      pop\n      jump\t// out\n        /* \"#utility.yul\":3413:3604   */\n    tag_39:\n        /* \"#utility.yul\":3453:3456   */\n      0x00\n        /* \"#utility.yul\":3472:3492   */\n      tag_215\n        /* \"#utility.yul\":3490:3491   */\n      dup3\n        /* \"#utility.yul\":3472:3492   */\n      tag_144\n      jump\t// in\n    tag_215:\n        /* \"#utility.yul\":3467:3492   */\n      swap2\n      pop\n        /* \"#utility.yul\":3506:3526   */\n      tag_216\n        /* \"#utility.yul\":3524:3525   */\n      dup4\n        /* \"#utility.yul\":3506:3526   */\n      tag_144\n      jump\t// in\n    tag_216:\n        /* \"#utility.yul\":3501:3526   */\n      swap3\n      pop\n        /* \"#utility.yul\":3549:3550   */\n      dup3\n        /* \"#utility.yul\":3546:3547   */\n      dup3\n        /* \"#utility.yul\":3542:3551   */\n      add\n        /* \"#utility.yul\":3535:3551   */\n      swap1\n      pop\n        /* \"#utility.yul\":3570:3573   */\n      dup1\n        /* \"#utility.yul\":3567:3568   */\n      dup3\n        /* \"#utility.yul\":3564:3574   */\n      gt\n        /* \"#utility.yul\":3561:3597   */\n      iszero\n      tag_217\n      jumpi\n        /* \"#utility.yul\":3577:3595   */\n      tag_218\n      tag_145\n      jump\t// in\n    tag_218:\n        /* \"#utility.yul\":3561:3597   */\n    tag_217:\n        /* \"#utility.yul\":3413:3604   */\n      swap3\n      swap2\n      pop\n      pop\n      jump\t// out\n        /* \"#utility.yul\":3610:3749   */\n    tag_158:\n        /* \"#utility.yul\":3656:3661   */\n      0x00\n        /* \"#utility.yul\":3694:3700   */\n      dup2\n        /* \"#utility.yul\":3681:3701   */\n      calldataload\n        /* \"#utility.yul\":3672:3701   */\n      swap1\n      pop\n        /* \"#utility.yul\":3710:3743   */\n      tag_220\n        /* \"#utility.yul\":3737:3742   */\n      dup2\n        /* \"#utility.yul\":3710:3743   */\n      tag_152\n      jump\t// in\n    tag_220:\n        /* \"#utility.yul\":3610:3749   */\n      swap3\n      swap2\n      pop\n      pop\n      jump\t// out\n        /* \"#utility.yul\":3755:4084   */\n    tag_44:\n        /* \"#utility.yul\":3814:3820   */\n      0x00\n        /* \"#utility.yul\":3863:3865   */\n      0x20\n        /* \"#utility.yul\":3851:3860   */\n      dup3\n        /* \"#utility.yul\":3842:3849   */\n      dup5\n        /* \"#utility.yul\":3838:3861   */\n      sub\n        /* \"#utility.yul\":3834:3866   */\n      slt\n        /* \"#utility.yul\":3831:3950   */\n      iszero\n      tag_222\n      jumpi\n        /* \"#utility.yul\":3869:3948   */\n      tag_223\n      tag_150\n      jump\t// in\n    tag_223:\n        /* \"#utility.yul\":3831:3950   */\n    tag_222:\n        /* \"#utility.yul\":3989:3990   */\n      0x00\n        /* \"#utility.yul\":4014:4067   */\n      tag_224\n        /* \"#utility.yul\":4059:4066   */\n      dup5\n        /* \"#utility.yul\":4050:4056   */\n      dup3\n        /* \"#utility.yul\":4039:4048   */\n      dup6\n        /* \"#utility.yul\":4035:4057   */\n      add\n        /* \"#utility.yul\":4014:4067   */\n      tag_158\n      jump\t// in\n    tag_224:\n        /* \"#utility.yul\":4004:4067   */\n      swap2\n      pop\n        /* \"#utility.yul\":3960:4077   */\n      pop\n        /* \"#utility.yul\":3755:4084   */\n      swap3\n      swap2\n      pop\n      pop\n      jump\t// out\n        /* \"#utility.yul\":4090:4194   */\n    tag_159:\n        /* \"#utility.yul\":4135:4142   */\n      0x00\n        /* \"#utility.yul\":4164:4188   */\n      tag_226\n        /* \"#utility.yul\":4182:4187   */\n      dup3\n        /* \"#utility.yul\":4164:4188   */\n      tag_146\n      jump\t// in\n    tag_226:\n        /* \"#utility.yul\":4153:4188   */\n      swap1\n      pop\n        /* \"#utility.yul\":4090:4194   */\n      swap2\n      swap1\n      pop\n      jump\t// out\n        /* \"#utility.yul\":4200:4342   */\n    tag_160:\n        /* \"#utility.yul\":4303:4335   */\n      tag_228\n        /* \"#utility.yul\":4329:4334   */\n      dup2\n        /* \"#utility.yul\":4303:4335   */\n      tag_159\n      jump\t// in\n    tag_228:\n        /* \"#utility.yul\":4298:4301   */\n      dup3\n        /* \"#utility.yul\":4291:4336   */\n      mstore\n        /* \"#utility.yul\":4200:4342   */\n      pop\n      pop\n      jump\t// out\n        /* \"#utility.yul\":4348:4602   */\n    tag_50:\n        /* \"#utility.yul\":4457:4461   */\n      0x00\n        /* \"#utility.yul\":4495:4497   */\n      0x20\n        /* \"#utility.yul\":4484:4493   */\n      dup3\n        /* \"#utility.yul\":4480:4498   */\n      add\n        /* \"#utility.yul\":4472:4498   */\n      swap1\n      pop\n        /* \"#utility.yul\":4508:4595   */\n      tag_230\n        /* \"#utility.yul\":4592:4593   */\n      0x00\n        /* \"#utility.yul\":4581:4590   */\n      dup4\n        /* \"#utility.yul\":4577:4594   */\n      add\n        /* \"#utility.yul\":4568:4574   */\n      dup5\n        /* \"#utility.yul\":4508:4595   */\n      tag_160\n      jump\t// in\n    tag_230:\n        /* \"#utility.yul\":4348:4602   */\n      swap3\n      swap2\n      pop\n      pop\n      jump\t// out\n        /* \"#utility.yul\":4608:4730   */\n    tag_161:\n        /* \"#utility.yul\":4681:4705   */\n      tag_232\n        /* \"#utility.yul\":4699:4704   */\n      dup2\n        /* \"#utility.yul\":4681:4705   */\n      tag_147\n      jump\t// in\n    tag_232:\n        /* \"#utility.yul\":4674:4679   */\n      dup2\n        /* \"#utility.yul\":4671:4706   */\n      eq\n        /* \"#utility.yul\":4661:4724   */\n      tag_233\n      jumpi\n        /* \"#utility.yul\":4720:4721   */\n      0x00\n        /* \"#utility.yul\":4717:4718   */\n      dup1\n        /* \"#utility.yul\":4710:4722   */\n      revert\n        /* \"#utility.yul\":4661:4724   */\n    tag_233:\n        /* \"#utility.yul\":4608:4730   */\n      pop\n      jump\t// out\n        /* \"#utility.yul\":4736:4875   */\n    tag_162:\n        /* \"#utility.yul\":4782:4787   */\n      0x00\n        /* \"#utility.yul\":4820:4826   */\n      dup2\n        /* \"#utility.yul\":4807:4827   */\n      calldataload\n        /* \"#utility.yul\":4798:4827   */\n      swap1\n      pop\n        /* \"#utility.yul\":4836:4869   */\n      tag_235\n        /* \"#utility.yul\":4863:4868   */\n      dup2\n        /* \"#utility.yul\":4836:4869   */\n      tag_161\n      jump\t// in\n    tag_235:\n        /* \"#utility.yul\":4736:4875   */\n      swap3\n      swap2\n      pop\n      pop\n      jump\t// out\n        /* \"#utility.yul\":4881:5210   */\n    tag_57:\n        /* \"#utility.yul\":4940:4946   */\n      0x00\n        /* \"#utility.yul\":4989:4991   */\n      0x20\n        /* \"#utility.yul\":4977:4986   */\n      dup3\n        /* \"#utility.yul\":4968:4975   */\n      dup5\n        /* \"#utility.yul\":4964:4987   */\n      sub\n        /* \"#utility.yul\":4960:4992   */\n      slt\n        /* \"#utility.yul\":4957:5076   */\n      iszero\n      tag_237\n      jumpi\n        /* \"#utility.yul\":4995:5074   */\n      tag_238\n      tag_150\n      jump\t// in\n    tag_238:\n        /* \"#utility.yul\":4957:5076   */\n    tag_237:\n        /* \"#utility.yul\":5115:5116   */\n      0x00\n        /* \"#utility.yul\":5140:5193   */\n      tag_239\n        /* \"#utility.yul\":5185:5192   */\n      dup5\n        /* \"#utility.yul\":5176:5182   */\n      dup3\n        /* \"#utility.yul\":5165:5174   */\n      dup6\n        /* \"#utility.yul\":5161:5183   */\n      add\n        /* \"#utility.yul\":5140:5193   */\n      tag_162\n      jump\t// in\n    tag_239:\n        /* \"#utility.yul\":5130:5193   */\n      swap2\n      pop\n        /* \"#utility.yul\":5086:5203   */\n      pop\n        /* \"#utility.yul\":4881:5210   */\n      swap3\n      swap2\n      pop\n      pop\n      jump\t// out\n        /* \"#utility.yul\":5216:5438   */\n    tag_60:\n        /* \"#utility.yul\":5309:5313   */\n      0x00\n        /* \"#utility.yul\":5347:5349   */\n      0x20\n        /* \"#utility.yul\":5336:5345   */\n      dup3\n        /* \"#utility.yul\":5332:5350   */\n      add\n        /* \"#utility.yul\":5324:5350   */\n      swap1\n      pop\n        /* \"#utility.yul\":5360:5431   */\n      tag_241\n        /* \"#utility.yul\":5428:5429   */\n      0x00\n        /* \"#utility.yul\":5417:5426   */\n      dup4\n        /* \"#utility.yul\":5413:5430   */\n      add\n        /* \"#utility.yul\":5404:5410   */\n      dup5\n        /* \"#utility.yul\":5360:5431   */\n      tag_154\n      jump\t// in\n    tag_241:\n        /* \"#utility.yul\":5216:5438   */\n      swap3\n      swap2\n      pop\n      pop\n      jump\t// out\n        /* \"#utility.yul\":5444:5504   */\n    tag_163:\n        /* \"#utility.yul\":5472:5475   */\n      0x00\n        /* \"#utility.yul\":5493:5498   */\n      dup2\n        /* \"#utility.yul\":5486:5498   */\n      swap1\n      pop\n        /* \"#utility.yul\":5444:5504   */\n      swap2\n      swap1\n      pop\n      jump\t// out\n        /* \"#utility.yul\":5510:5652   */\n    tag_164:\n        /* \"#utility.yul\":5560:5569   */\n      0x00\n        /* \"#utility.yul\":5593:5646   */\n      tag_244\n        /* \"#utility.yul\":5611:5645   */\n      tag_245\n        /* \"#utility.yul\":5620:5644   */\n      tag_246\n        /* \"#utility.yul\":5638:5643   */\n      dup5\n        /* \"#utility.yul\":5620:5644   */\n      tag_146\n      jump\t// in\n    tag_246:\n        /* \"#utility.yul\":5611:5645   */\n      tag_163\n      jump\t// in\n    tag_245:\n        /* \"#utility.yul\":5593:5646   */\n      tag_146\n      jump\t// in\n    tag_244:\n        /* \"#utility.yul\":5580:5646   */\n      swap1\n      pop\n        /* \"#utility.yul\":5510:5652   */\n      swap2\n      swap1\n      pop\n      jump\t// out\n        /* \"#utility.yul\":5658:5784   */\n    tag_165:\n        /* \"#utility.yul\":5708:5717   */\n      0x00\n        /* \"#utility.yul\":5741:5778   */\n      tag_248\n        /* \"#utility.yul\":5772:5777   */\n      dup3\n        /* \"#utility.yul\":5741:5778   */\n      tag_164\n      jump\t// in\n    tag_248:\n        /* \"#utility.yul\":5728:5778   */\n      swap1\n      pop\n        /* \"#utility.yul\":5658:5784   */\n      swap2\n      swap1\n      pop\n      jump\t// out\n        /* \"#utility.yul\":5790:5930   */\n    tag_166:\n        /* \"#utility.yul\":5854:5863   */\n      0x00\n        /* \"#utility.yul\":5887:5924   */\n      tag_250\n        /* \"#utility.yul\":5918:5923   */\n      dup3\n        /* \"#utility.yul\":5887:5924   */\n      tag_165\n      jump\t// in\n    tag_250:\n        /* \"#utility.yul\":5874:5924   */\n      swap1\n      pop\n        /* \"#utility.yul\":5790:5930   */\n      swap2\n      swap1\n      pop\n      jump\t// out\n        /* \"#utility.yul\":5936:6095   */\n    tag_167:\n        /* \"#utility.yul\":6037:6088   */\n      tag_252\n        /* \"#utility.yul\":6082:6087   */\n      dup2\n        /* \"#utility.yul\":6037:6088   */\n      tag_166\n      jump\t// in\n    tag_252:\n        /* \"#utility.yul\":6032:6035   */\n      dup3\n        /* \"#utility.yul\":6025:6089   */\n      mstore\n        /* \"#utility.yul\":5936:6095   */\n      pop\n      pop\n      jump\t// out\n        /* \"#utility.yul\":6101:6351   */\n    tag_92:\n        /* \"#utility.yul\":6208:6212   */\n      0x00\n        /* \"#utility.yul\":6246:6248   */\n      0x20\n        /* \"#utility.yul\":6235:6244   */\n      dup3\n        /* \"#utility.yul\":6231:6249   */\n      add\n        /* \"#utility.yul\":6223:6249   */\n      swap1\n      pop\n        /* \"#utility.yul\":6259:6344   */\n      tag_254\n        /* \"#utility.yul\":6341:6342   */\n      0x00\n        /* \"#utility.yul\":6330:6339   */\n      dup4\n        /* \"#utility.yul\":6326:6343   */\n      add\n        /* \"#utility.yul\":6317:6323   */\n      dup5\n        /* \"#utility.yul\":6259:6344   */\n      tag_167\n      jump\t// in\n    tag_254:\n        /* \"#utility.yul\":6101:6351   */\n      swap3\n      swap2\n      pop\n      pop\n      jump\t// out\n        /* \"#utility.yul\":6357:6537   */\n    tag_168:\n        /* \"#utility.yul\":6405:6482   */\n      0x4e487b7100000000000000000000000000000000000000000000000000000000\n        /* \"#utility.yul\":6402:6403   */\n      0x00\n        /* \"#utility.yul\":6395:6483   */\n      mstore\n        /* \"#utility.yul\":6502:6506   */\n      0x12\n        /* \"#utility.yul\":6499:6500   */\n      0x04\n        /* \"#utility.yul\":6492:6507   */\n      mstore\n        /* \"#utility.yul\":6526:6530   */\n      0x24\n        /* \"#utility.yul\":6523:6524   */\n      0x00\n        /* \"#utility.yul\":6516:6531   */\n      revert\n        /* \"#utility.yul\":6543:6728   */\n    tag_103:\n        /* \"#utility.yul\":6583:6584   */\n      0x00\n        /* \"#utility.yul\":6600:6620   */\n      tag_257\n        /* \"#utility.yul\":6618:6619   */\n      dup3\n        /* \"#utility.yul\":6600:6620   */\n      tag_144\n      jump\t// in\n    tag_257:\n        /* \"#utility.yul\":6595:6620   */\n      swap2\n      pop\n        /* \"#utility.yul\":6634:6654   */\n      tag_258\n        /* \"#utility.yul\":6652:6653   */\n      dup4\n        /* \"#utility.yul\":6634:6654   */\n      tag_144\n      jump\t// in\n    tag_258:\n        /* \"#utility.yul\":6629:6654   */\n      swap3\n      pop\n        /* \"#utility.yul\":6673:6674   */\n      dup3\n        /* \"#utility.yul\":6663:6698   */\n      tag_259\n      jumpi\n        /* \"#utility.yul\":6678:6696   */\n      tag_260\n      tag_168\n      jump\t// in\n    tag_260:\n        /* \"#utility.yul\":6663:6698   */\n    tag_259:\n        /* \"#utility.yul\":6720:6721   */\n      dup3\n        /* \"#utility.yul\":6717:6718   */\n      dup3\n        /* \"#utility.yul\":6713:6722   */\n      div\n        /* \"#utility.yul\":6708:6722   */\n      swap1\n      pop\n        /* \"#utility.yul\":6543:6728   */\n      swap3\n      swap2\n      pop\n      pop\n      jump\t// out\n        /* \"#utility.yul\":6734:6868   */\n    tag_169:\n        /* \"#utility.yul\":6792:6801   */\n      0x00\n        /* \"#utility.yul\":6825:6862   */\n      tag_262\n        /* \"#utility.yul\":6856:6861   */\n      dup3\n        /* \"#utility.yul\":6825:6862   */\n      tag_165\n      jump\t// in\n    tag_262:\n        /* \"#utility.yul\":6812:6862   */\n      swap1\n      pop\n        /* \"#utility.yul\":6734:6868   */\n      swap2\n      swap1\n      pop\n      jump\t// out\n        /* \"#utility.yul\":6874:7021   */\n    tag_170:\n        /* \"#utility.yul\":6969:7014   */\n      tag_264\n        /* \"#utility.yul\":7008:7013   */\n      dup2\n        /* \"#utility.yul\":6969:7014   */\n      tag_169\n      jump\t// in\n    tag_264:\n        /* \"#utility.yul\":6964:6967   */\n      dup3\n        /* \"#utility.yul\":6957:7015   */\n      mstore\n        /* \"#utility.yul\":6874:7021   */\n      pop\n      pop\n      jump\t// out\n        /* \"#utility.yul\":7027:7375   */\n    tag_110:\n        /* \"#utility.yul\":7156:7160   */\n      0x00\n        /* \"#utility.yul\":7194:7196   */\n      0x40\n        /* \"#utility.yul\":7183:7192   */\n      dup3\n        /* \"#utility.yul\":7179:7197   */\n      add\n        /* \"#utility.yul\":7171:7197   */\n      swap1\n      pop\n        /* \"#utility.yul\":7207:7286   */\n      tag_266\n        /* \"#utility.yul\":7283:7284   */\n      0x00\n        /* \"#utility.yul\":7272:7281   */\n      dup4\n        /* \"#utility.yul\":7268:7285   */\n      add\n        /* \"#utility.yul\":7259:7265   */\n      dup6\n        /* \"#utility.yul\":7207:7286   */\n      tag_170\n      jump\t// in\n    tag_266:\n        /* \"#utility.yul\":7296:7368   */\n      tag_267\n        /* \"#utility.yul\":7364:7366   */\n      0x20\n        /* \"#utility.yul\":7353:7362   */\n      dup4\n        /* \"#utility.yul\":7349:7367   */\n      add\n        /* \"#utility.yul\":7340:7346   */\n      dup5\n        /* \"#utility.yul\":7296:7368   */\n      tag_154\n      jump\t// in\n    tag_267:\n        /* \"#utility.yul\":7027:7375   */\n      swap4\n      swap3\n      pop\n      pop\n      pop\n      jump\t// out\n\n    auxdata: 0xa2646970667358221220515183a8e98c1cd9ce66dc9cb225efcc294cd6631e71ab29513b20d9b484848c64736f6c634300081a0033\n}\n",
				"bytecode": {
					"linkReferences": {},
					"object": "608060405261271060035567016345785d8a0000600455348015610021575f80fd5b5060405161125f38038061125f833981810160405281019061004391906102cf565b335f73ffffffffffffffffffffffffffffffffffffffff168173ffffffffffffffffffffffffffffffffffffffff16036100b4575f6040517f1e4fbdf70000000000000000000000000000000000000000000000000000000081526004016100ab919061031c565b60405180910390fd5b6100c3816101b060201b60201c565b503360065f6101000a81548173ffffffffffffffffffffffffffffffffffffffff021916908373ffffffffffffffffffffffffffffffffffffffff1602179055508060075f6101000a81548173ffffffffffffffffffffffffffffffffffffffff021916908373ffffffffffffffffffffffffffffffffffffffff1602179055508160085f6101000a81548173ffffffffffffffffffffffffffffffffffffffff021916908373ffffffffffffffffffffffffffffffffffffffff160217905550426001819055506224ea0060015461019c919061036b565b6002819055505f600581905550505061039e565b5f805f9054906101000a900473ffffffffffffffffffffffffffffffffffffffff169050815f806101000a81548173ffffffffffffffffffffffffffffffffffffffff021916908373ffffffffffffffffffffffffffffffffffffffff1602179055508173ffffffffffffffffffffffffffffffffffffffff168173ffffffffffffffffffffffffffffffffffffffff167f8be0079c531659141344cd1fd0a4f28419497f9722a3daafe3b4186f6b6457e060405160405180910390a35050565b5f80fd5b5f73ffffffffffffffffffffffffffffffffffffffff82169050919050565b5f61029e82610275565b9050919050565b6102ae81610294565b81146102b8575f80fd5b50565b5f815190506102c9816102a5565b92915050565b5f80604083850312156102e5576102e4610271565b5b5f6102f2858286016102bb565b9250506020610303858286016102bb565b9150509250929050565b61031681610294565b82525050565b5f60208201905061032f5f83018461030d565b92915050565b5f819050919050565b7f4e487b71000000000000000000000000000000000000000000000000000000005f52601160045260245ffd5b5f61037582610335565b915061038083610335565b92508282019050808211156103985761039761033e565b5b92915050565b610eb4806103ab5f395ff3fe6080604052600436106100aa575f3560e01c80639106d7ba116100635780639106d7ba146103e4578063a3dc8a7a1461040e578063b2bdfa7b14610438578063f2fde38b14610462578063fb86a4041461048a578063fc0c546a146104b4576102fc565b8063011b29e3146103005780631c75f085146103285780634bb278f31461035257806370a0823114610368578063715018a6146103a45780638da5cb5b146103ba576102fc565b366102fc5760015442101580156100c357506002544211155b6100cb575f80fd5b6004543411156100d9575f80fd5b5f600354346100e89190610ac5565b90508060085f9054906101000a900473ffffffffffffffffffffffffffffffffffffffff1673ffffffffffffffffffffffffffffffffffffffff166370a08231306040518263ffffffff1660e01b81526004016101459190610b45565b602060405180830381865afa158015610160573d5f803e3d5ffd5b505050506040513d601f19601f820116820180604052508101906101849190610b8c565b101561018e575f80fd5b60085f9054906101000a900473ffffffffffffffffffffffffffffffffffffffff1673ffffffffffffffffffffffffffffffffffffffff1663a9059cbb33836040518363ffffffff1660e01b81526004016101ea929190610bc6565b6020604051808303815f875af1158015610206573d5f803e3d5ffd5b505050506040513d601f19601f8201168201806040525081019061022a9190610c22565b5060065f9054906101000a900473ffffffffffffffffffffffffffffffffffffffff1673ffffffffffffffffffffffffffffffffffffffff166108fc3490811502906040515f60405180830381858888f1935050505015801561028f573d5f803e3d5ffd5b508060055f8282546102a19190610c4d565b925050819055508060095f3373ffffffffffffffffffffffffffffffffffffffff1673ffffffffffffffffffffffffffffffffffffffff1681526020019081526020015f205f8282546102f49190610c4d565b925050819055005b5f80fd5b34801561030b575f80fd5b5061032660048036038101906103219190610c94565b6104de565b005b348015610333575f80fd5b5061033c6104f0565b6040516103499190610cdf565b60405180910390f35b34801561035d575f80fd5b50610366610515565b005b348015610373575f80fd5b5061038e60048036038101906103899190610d22565b610811565b60405161039b9190610d4d565b60405180910390f35b3480156103af575f80fd5b506103b8610826565b005b3480156103c5575f80fd5b506103ce610839565b6040516103db9190610b45565b60405180910390f35b3480156103ef575f80fd5b506103f8610860565b6040516104059190610d4d565b60405180910390f35b348015610419575f80fd5b50610422610866565b60405161042f9190610d4d565b60405180910390f35b348015610443575f80fd5b5061044c61086c565b6040516104599190610cdf565b60405180910390f35b34801561046d575f80fd5b5061048860048036038101906104839190610d22565b610891565b005b348015610495575f80fd5b5061049e610915565b6040516104ab9190610d4d565b60405180910390f35b3480156104bf575f80fd5b506104c861091b565b6040516104d59190610dc1565b60405180910390f35b6104e6610940565b8060038190555050565b60075f9054906101000a900473ffffffffffffffffffffffffffffffffffffffff1681565b61051d610940565b600254421161052a575f80fd5b5f6064600a60055461053c9190610ac5565b6105469190610e07565b90508060085f9054906101000a900473ffffffffffffffffffffffffffffffffffffffff1673ffffffffffffffffffffffffffffffffffffffff166370a08231306040518263ffffffff1660e01b81526004016105a39190610b45565b602060405180830381865afa1580156105be573d5f803e3d5ffd5b505050506040513d601f19601f820116820180604052508101906105e29190610b8c565b10156105ec575f80fd5b60085f9054906101000a900473ffffffffffffffffffffffffffffffffffffffff1673ffffffffffffffffffffffffffffffffffffffff1663a9059cbb60075f9054906101000a900473ffffffffffffffffffffffffffffffffffffffff16836040518363ffffffff1660e01b8152600401610669929190610e57565b6020604051808303815f875af1158015610685573d5f803e3d5ffd5b505050506040513d601f19601f820116820180604052508101906106a99190610c22565b505f60085f9054906101000a900473ffffffffffffffffffffffffffffffffffffffff1673ffffffffffffffffffffffffffffffffffffffff166370a08231306040518263ffffffff1660e01b81526004016107059190610b45565b602060405180830381865afa158015610720573d5f803e3d5ffd5b505050506040513d601f19601f820116820180604052508101906107449190610b8c565b90505f81111561080d5760085f9054906101000a900473ffffffffffffffffffffffffffffffffffffffff1673ffffffffffffffffffffffffffffffffffffffff1663a9059cbb60065f9054906101000a900473ffffffffffffffffffffffffffffffffffffffff16836040518363ffffffff1660e01b81526004016107cb929190610e57565b6020604051808303815f875af11580156107e7573d5f803e3d5ffd5b505050506040513d601f19601f8201168201806040525081019061080b9190610c22565b505b5050565b6009602052805f5260405f205f915090505481565b61082e610940565b6108375f6109c7565b565b5f805f9054906101000a900473ffffffffffffffffffffffffffffffffffffffff16905090565b60055481565b60035481565b60065f9054906101000a900473ffffffffffffffffffffffffffffffffffffffff1681565b610899610940565b5f73ffffffffffffffffffffffffffffffffffffffff168173ffffffffffffffffffffffffffffffffffffffff1603610909575f6040517f1e4fbdf70000000000000000000000000000000000000000000000000000000081526004016109009190610b45565b60405180910390fd5b610912816109c7565b50565b60045481565b60085f9054906101000a900473ffffffffffffffffffffffffffffffffffffffff1681565b610948610a88565b73ffffffffffffffffffffffffffffffffffffffff16610966610839565b73ffffffffffffffffffffffffffffffffffffffff16146109c557610989610a88565b6040517f118cdaa70000000000000000000000000000000000000000000000000000000081526004016109bc9190610b45565b60405180910390fd5b565b5f805f9054906101000a900473ffffffffffffffffffffffffffffffffffffffff169050815f806101000a81548173ffffffffffffffffffffffffffffffffffffffff021916908373ffffffffffffffffffffffffffffffffffffffff1602179055508173ffffffffffffffffffffffffffffffffffffffff168173ffffffffffffffffffffffffffffffffffffffff167f8be0079c531659141344cd1fd0a4f28419497f9722a3daafe3b4186f6b6457e060405160405180910390a35050565b5f33905090565b5f819050919050565b7f4e487b71000000000000000000000000000000000000000000000000000000005f52601160045260245ffd5b5f610acf82610a8f565b9150610ada83610a8f565b9250828202610ae881610a8f565b91508282048414831517610aff57610afe610a98565b5b5092915050565b5f73ffffffffffffffffffffffffffffffffffffffff82169050919050565b5f610b2f82610b06565b9050919050565b610b3f81610b25565b82525050565b5f602082019050610b585f830184610b36565b92915050565b5f80fd5b610b6b81610a8f565b8114610b75575f80fd5b50565b5f81519050610b8681610b62565b92915050565b5f60208284031215610ba157610ba0610b5e565b5b5f610bae84828501610b78565b91505092915050565b610bc081610a8f565b82525050565b5f604082019050610bd95f830185610b36565b610be66020830184610bb7565b9392505050565b5f8115159050919050565b610c0181610bed565b8114610c0b575f80fd5b50565b5f81519050610c1c81610bf8565b92915050565b5f60208284031215610c3757610c36610b5e565b5b5f610c4484828501610c0e565b91505092915050565b5f610c5782610a8f565b9150610c6283610a8f565b9250828201905080821115610c7a57610c79610a98565b5b92915050565b5f81359050610c8e81610b62565b92915050565b5f60208284031215610ca957610ca8610b5e565b5b5f610cb684828501610c80565b91505092915050565b5f610cc982610b06565b9050919050565b610cd981610cbf565b82525050565b5f602082019050610cf25f830184610cd0565b92915050565b610d0181610b25565b8114610d0b575f80fd5b50565b5f81359050610d1c81610cf8565b92915050565b5f60208284031215610d3757610d36610b5e565b5b5f610d4484828501610d0e565b91505092915050565b5f602082019050610d605f830184610bb7565b92915050565b5f819050919050565b5f610d89610d84610d7f84610b06565b610d66565b610b06565b9050919050565b5f610d9a82610d6f565b9050919050565b5f610dab82610d90565b9050919050565b610dbb81610da1565b82525050565b5f602082019050610dd45f830184610db2565b92915050565b7f4e487b71000000000000000000000000000000000000000000000000000000005f52601260045260245ffd5b5f610e1182610a8f565b9150610e1c83610a8f565b925082610e2c57610e2b610dda565b5b828204905092915050565b5f610e4182610d90565b9050919050565b610e5181610e37565b82525050565b5f604082019050610e6a5f830185610e48565b610e776020830184610bb7565b939250505056fea2646970667358221220515183a8e98c1cd9ce66dc9cb225efcc294cd6631e71ab29513b20d9b484848c64736f6c634300081a0033",
					"opcodes": "PUSH1 0x80 PUSH1 0x40 MSTORE PUSH2 0x2710 PUSH1 0x3 SSTORE PUSH8 0x16345785D8A0000 PUSH1 0x4 SSTORE CALLVALUE DUP1 ISZERO PUSH2 0x21 JUMPI PUSH0 DUP1 REVERT JUMPDEST POP PUSH1 0x40 MLOAD PUSH2 0x125F CODESIZE SUB DUP1 PUSH2 0x125F DUP4 CODECOPY DUP2 DUP2 ADD PUSH1 0x40 MSTORE DUP2 ADD SWAP1 PUSH2 0x43 SWAP2 SWAP1 PUSH2 0x2CF JUMP JUMPDEST CALLER PUSH0 PUSH20 0xFFFFFFFFFFFFFFFFFFFFFFFFFFFFFFFFFFFFFFFF AND DUP2 PUSH20 0xFFFFFFFFFFFFFFFFFFFFFFFFFFFFFFFFFFFFFFFF AND SUB PUSH2 0xB4 JUMPI PUSH0 PUSH1 0x40 MLOAD PUSH32 0x1E4FBDF700000000000000000000000000000000000000000000000000000000 DUP2 MSTORE PUSH1 0x4 ADD PUSH2 0xAB SWAP2 SWAP1 PUSH2 0x31C JUMP JUMPDEST PUSH1 0x40 MLOAD DUP1 SWAP2 SUB SWAP1 REVERT JUMPDEST PUSH2 0xC3 DUP2 PUSH2 0x1B0 PUSH1 0x20 SHL PUSH1 0x20 SHR JUMP JUMPDEST POP CALLER PUSH1 0x6 PUSH0 PUSH2 0x100 EXP DUP2 SLOAD DUP2 PUSH20 0xFFFFFFFFFFFFFFFFFFFFFFFFFFFFFFFFFFFFFFFF MUL NOT AND SWAP1 DUP4 PUSH20 0xFFFFFFFFFFFFFFFFFFFFFFFFFFFFFFFFFFFFFFFF AND MUL OR SWAP1 SSTORE POP DUP1 PUSH1 0x7 PUSH0 PUSH2 0x100 EXP DUP2 SLOAD DUP2 PUSH20 0xFFFFFFFFFFFFFFFFFFFFFFFFFFFFFFFFFFFFFFFF MUL NOT AND SWAP1 DUP4 PUSH20 0xFFFFFFFFFFFFFFFFFFFFFFFFFFFFFFFFFFFFFFFF AND MUL OR SWAP1 SSTORE POP DUP2 PUSH1 0x8 PUSH0 PUSH2 0x100 EXP DUP2 SLOAD DUP2 PUSH20 0xFFFFFFFFFFFFFFFFFFFFFFFFFFFFFFFFFFFFFFFF MUL NOT AND SWAP1 DUP4 PUSH20 0xFFFFFFFFFFFFFFFFFFFFFFFFFFFFFFFFFFFFFFFF AND MUL OR SWAP1 SSTORE POP TIMESTAMP PUSH1 0x1 DUP2 SWAP1 SSTORE POP PUSH3 0x24EA00 PUSH1 0x1 SLOAD PUSH2 0x19C SWAP2 SWAP1 PUSH2 0x36B JUMP JUMPDEST PUSH1 0x2 DUP2 SWAP1 SSTORE POP PUSH0 PUSH1 0x5 DUP2 SWAP1 SSTORE POP POP POP PUSH2 0x39E JUMP JUMPDEST PUSH0 DUP1 PUSH0 SWAP1 SLOAD SWAP1 PUSH2 0x100 EXP SWAP1 DIV PUSH20 0xFFFFFFFFFFFFFFFFFFFFFFFFFFFFFFFFFFFFFFFF AND SWAP1 POP DUP2 PUSH0 DUP1 PUSH2 0x100 EXP DUP2 SLOAD DUP2 PUSH20 0xFFFFFFFFFFFFFFFFFFFFFFFFFFFFFFFFFFFFFFFF MUL NOT AND SWAP1 DUP4 PUSH20 0xFFFFFFFFFFFFFFFFFFFFFFFFFFFFFFFFFFFFFFFF AND MUL OR SWAP1 SSTORE POP DUP2 PUSH20 0xFFFFFFFFFFFFFFFFFFFFFFFFFFFFFFFFFFFFFFFF AND DUP2 PUSH20 0xFFFFFFFFFFFFFFFFFFFFFFFFFFFFFFFFFFFFFFFF AND PUSH32 0x8BE0079C531659141344CD1FD0A4F28419497F9722A3DAAFE3B4186F6B6457E0 PUSH1 0x40 MLOAD PUSH1 0x40 MLOAD DUP1 SWAP2 SUB SWAP1 LOG3 POP POP JUMP JUMPDEST PUSH0 DUP1 REVERT JUMPDEST PUSH0 PUSH20 0xFFFFFFFFFFFFFFFFFFFFFFFFFFFFFFFFFFFFFFFF DUP3 AND SWAP1 POP SWAP2 SWAP1 POP JUMP JUMPDEST PUSH0 PUSH2 0x29E DUP3 PUSH2 0x275 JUMP JUMPDEST SWAP1 POP SWAP2 SWAP1 POP JUMP JUMPDEST PUSH2 0x2AE DUP2 PUSH2 0x294 JUMP JUMPDEST DUP2 EQ PUSH2 0x2B8 JUMPI PUSH0 DUP1 REVERT JUMPDEST POP JUMP JUMPDEST PUSH0 DUP2 MLOAD SWAP1 POP PUSH2 0x2C9 DUP2 PUSH2 0x2A5 JUMP JUMPDEST SWAP3 SWAP2 POP POP JUMP JUMPDEST PUSH0 DUP1 PUSH1 0x40 DUP4 DUP6 SUB SLT ISZERO PUSH2 0x2E5 JUMPI PUSH2 0x2E4 PUSH2 0x271 JUMP JUMPDEST JUMPDEST PUSH0 PUSH2 0x2F2 DUP6 DUP3 DUP7 ADD PUSH2 0x2BB JUMP JUMPDEST SWAP3 POP POP PUSH1 0x20 PUSH2 0x303 DUP6 DUP3 DUP7 ADD PUSH2 0x2BB JUMP JUMPDEST SWAP2 POP POP SWAP3 POP SWAP3 SWAP1 POP JUMP JUMPDEST PUSH2 0x316 DUP2 PUSH2 0x294 JUMP JUMPDEST DUP3 MSTORE POP POP JUMP JUMPDEST PUSH0 PUSH1 0x20 DUP3 ADD SWAP1 POP PUSH2 0x32F PUSH0 DUP4 ADD DUP5 PUSH2 0x30D JUMP JUMPDEST SWAP3 SWAP2 POP POP JUMP JUMPDEST PUSH0 DUP2 SWAP1 POP SWAP2 SWAP1 POP JUMP JUMPDEST PUSH32 0x4E487B7100000000000000000000000000000000000000000000000000000000 PUSH0 MSTORE PUSH1 0x11 PUSH1 0x4 MSTORE PUSH1 0x24 PUSH0 REVERT JUMPDEST PUSH0 PUSH2 0x375 DUP3 PUSH2 0x335 JUMP JUMPDEST SWAP2 POP PUSH2 0x380 DUP4 PUSH2 0x335 JUMP JUMPDEST SWAP3 POP DUP3 DUP3 ADD SWAP1 POP DUP1 DUP3 GT ISZERO PUSH2 0x398 JUMPI PUSH2 0x397 PUSH2 0x33E JUMP JUMPDEST JUMPDEST SWAP3 SWAP2 POP POP JUMP JUMPDEST PUSH2 0xEB4 DUP1 PUSH2 0x3AB PUSH0 CODECOPY PUSH0 RETURN INVALID PUSH1 0x80 PUSH1 0x40 MSTORE PUSH1 0x4 CALLDATASIZE LT PUSH2 0xAA JUMPI PUSH0 CALLDATALOAD PUSH1 0xE0 SHR DUP1 PUSH4 0x9106D7BA GT PUSH2 0x63 JUMPI DUP1 PUSH4 0x9106D7BA EQ PUSH2 0x3E4 JUMPI DUP1 PUSH4 0xA3DC8A7A EQ PUSH2 0x40E JUMPI DUP1 PUSH4 0xB2BDFA7B EQ PUSH2 0x438 JUMPI DUP1 PUSH4 0xF2FDE38B EQ PUSH2 0x462 JUMPI DUP1 PUSH4 0xFB86A404 EQ PUSH2 0x48A JUMPI DUP1 PUSH4 0xFC0C546A EQ PUSH2 0x4B4 JUMPI PUSH2 0x2FC JUMP JUMPDEST DUP1 PUSH4 0x11B29E3 EQ PUSH2 0x300 JUMPI DUP1 PUSH4 0x1C75F085 EQ PUSH2 0x328 JUMPI DUP1 PUSH4 0x4BB278F3 EQ PUSH2 0x352 JUMPI DUP1 PUSH4 0x70A08231 EQ PUSH2 0x368 JUMPI DUP1 PUSH4 0x715018A6 EQ PUSH2 0x3A4 JUMPI DUP1 PUSH4 0x8DA5CB5B EQ PUSH2 0x3BA JUMPI PUSH2 0x2FC JUMP JUMPDEST CALLDATASIZE PUSH2 0x2FC JUMPI PUSH1 0x1 SLOAD TIMESTAMP LT ISZERO DUP1 ISZERO PUSH2 0xC3 JUMPI POP PUSH1 0x2 SLOAD TIMESTAMP GT ISZERO JUMPDEST PUSH2 0xCB JUMPI PUSH0 DUP1 REVERT JUMPDEST PUSH1 0x4 SLOAD CALLVALUE GT ISZERO PUSH2 0xD9 JUMPI PUSH0 DUP1 REVERT JUMPDEST PUSH0 PUSH1 0x3 SLOAD CALLVALUE PUSH2 0xE8 SWAP2 SWAP1 PUSH2 0xAC5 JUMP JUMPDEST SWAP1 POP DUP1 PUSH1 0x8 PUSH0 SWAP1 SLOAD SWAP1 PUSH2 0x100 EXP SWAP1 DIV PUSH20 0xFFFFFFFFFFFFFFFFFFFFFFFFFFFFFFFFFFFFFFFF AND PUSH20 0xFFFFFFFFFFFFFFFFFFFFFFFFFFFFFFFFFFFFFFFF AND PUSH4 0x70A08231 ADDRESS PUSH1 0x40 MLOAD DUP3 PUSH4 0xFFFFFFFF AND PUSH1 0xE0 SHL DUP2 MSTORE PUSH1 0x4 ADD PUSH2 0x145 SWAP2 SWAP1 PUSH2 0xB45 JUMP JUMPDEST PUSH1 0x20 PUSH1 0x40 MLOAD DUP1 DUP4 SUB DUP2 DUP7 GAS STATICCALL ISZERO DUP1 ISZERO PUSH2 0x160 JUMPI RETURNDATASIZE PUSH0 DUP1 RETURNDATACOPY RETURNDATASIZE PUSH0 REVERT JUMPDEST POP POP POP POP PUSH1 0x40 MLOAD RETURNDATASIZE PUSH1 0x1F NOT PUSH1 0x1F DUP3 ADD AND DUP3 ADD DUP1 PUSH1 0x40 MSTORE POP DUP2 ADD SWAP1 PUSH2 0x184 SWAP2 SWAP1 PUSH2 0xB8C JUMP JUMPDEST LT ISZERO PUSH2 0x18E JUMPI PUSH0 DUP1 REVERT JUMPDEST PUSH1 0x8 PUSH0 SWAP1 SLOAD SWAP1 PUSH2 0x100 EXP SWAP1 DIV PUSH20 0xFFFFFFFFFFFFFFFFFFFFFFFFFFFFFFFFFFFFFFFF AND PUSH20 0xFFFFFFFFFFFFFFFFFFFFFFFFFFFFFFFFFFFFFFFF AND PUSH4 0xA9059CBB CALLER DUP4 PUSH1 0x40 MLOAD DUP4 PUSH4 0xFFFFFFFF AND PUSH1 0xE0 SHL DUP2 MSTORE PUSH1 0x4 ADD PUSH2 0x1EA SWAP3 SWAP2 SWAP1 PUSH2 0xBC6 JUMP JUMPDEST PUSH1 0x20 PUSH1 0x40 MLOAD DUP1 DUP4 SUB DUP2 PUSH0 DUP8 GAS CALL ISZERO DUP1 ISZERO PUSH2 0x206 JUMPI RETURNDATASIZE PUSH0 DUP1 RETURNDATACOPY RETURNDATASIZE PUSH0 REVERT JUMPDEST POP POP POP POP PUSH1 0x40 MLOAD RETURNDATASIZE PUSH1 0x1F NOT PUSH1 0x1F DUP3 ADD AND DUP3 ADD DUP1 PUSH1 0x40 MSTORE POP DUP2 ADD SWAP1 PUSH2 0x22A SWAP2 SWAP1 PUSH2 0xC22 JUMP JUMPDEST POP PUSH1 0x6 PUSH0 SWAP1 SLOAD SWAP1 PUSH2 0x100 EXP SWAP1 DIV PUSH20 0xFFFFFFFFFFFFFFFFFFFFFFFFFFFFFFFFFFFFFFFF AND PUSH20 0xFFFFFFFFFFFFFFFFFFFFFFFFFFFFFFFFFFFFFFFF AND PUSH2 0x8FC CALLVALUE SWAP1 DUP2 ISZERO MUL SWAP1 PUSH1 0x40 MLOAD PUSH0 PUSH1 0x40 MLOAD DUP1 DUP4 SUB DUP2 DUP6 DUP9 DUP9 CALL SWAP4 POP POP POP POP ISZERO DUP1 ISZERO PUSH2 0x28F JUMPI RETURNDATASIZE PUSH0 DUP1 RETURNDATACOPY RETURNDATASIZE PUSH0 REVERT JUMPDEST POP DUP1 PUSH1 0x5 PUSH0 DUP3 DUP3 SLOAD PUSH2 0x2A1 SWAP2 SWAP1 PUSH2 0xC4D JUMP JUMPDEST SWAP3 POP POP DUP2 SWAP1 SSTORE POP DUP1 PUSH1 0x9 PUSH0 CALLER PUSH20 0xFFFFFFFFFFFFFFFFFFFFFFFFFFFFFFFFFFFFFFFF AND PUSH20 0xFFFFFFFFFFFFFFFFFFFFFFFFFFFFFFFFFFFFFFFF AND DUP2 MSTORE PUSH1 0x20 ADD SWAP1 DUP2 MSTORE PUSH1 0x20 ADD PUSH0 KECCAK256 PUSH0 DUP3 DUP3 SLOAD PUSH2 0x2F4 SWAP2 SWAP1 PUSH2 0xC4D JUMP JUMPDEST SWAP3 POP POP DUP2 SWAP1 SSTORE STOP JUMPDEST PUSH0 DUP1 REVERT JUMPDEST CALLVALUE DUP1 ISZERO PUSH2 0x30B JUMPI PUSH0 DUP1 REVERT JUMPDEST POP PUSH2 0x326 PUSH1 0x4 DUP1 CALLDATASIZE SUB DUP2 ADD SWAP1 PUSH2 0x321 SWAP2 SWAP1 PUSH2 0xC94 JUMP JUMPDEST PUSH2 0x4DE JUMP JUMPDEST STOP JUMPDEST CALLVALUE DUP1 ISZERO PUSH2 0x333 JUMPI PUSH0 DUP1 REVERT JUMPDEST POP PUSH2 0x33C PUSH2 0x4F0 JUMP JUMPDEST PUSH1 0x40 MLOAD PUSH2 0x349 SWAP2 SWAP1 PUSH2 0xCDF JUMP JUMPDEST PUSH1 0x40 MLOAD DUP1 SWAP2 SUB SWAP1 RETURN JUMPDEST CALLVALUE DUP1 ISZERO PUSH2 0x35D JUMPI PUSH0 DUP1 REVERT JUMPDEST POP PUSH2 0x366 PUSH2 0x515 JUMP JUMPDEST STOP JUMPDEST CALLVALUE DUP1 ISZERO PUSH2 0x373 JUMPI PUSH0 DUP1 REVERT JUMPDEST POP PUSH2 0x38E PUSH1 0x4 DUP1 CALLDATASIZE SUB DUP2 ADD SWAP1 PUSH2 0x389 SWAP2 SWAP1 PUSH2 0xD22 JUMP JUMPDEST PUSH2 0x811 JUMP JUMPDEST PUSH1 0x40 MLOAD PUSH2 0x39B SWAP2 SWAP1 PUSH2 0xD4D JUMP JUMPDEST PUSH1 0x40 MLOAD DUP1 SWAP2 SUB SWAP1 RETURN JUMPDEST CALLVALUE DUP1 ISZERO PUSH2 0x3AF JUMPI PUSH0 DUP1 REVERT JUMPDEST POP PUSH2 0x3B8 PUSH2 0x826 JUMP JUMPDEST STOP JUMPDEST CALLVALUE DUP1 ISZERO PUSH2 0x3C5 JUMPI PUSH0 DUP1 REVERT JUMPDEST POP PUSH2 0x3CE PUSH2 0x839 JUMP JUMPDEST PUSH1 0x40 MLOAD PUSH2 0x3DB SWAP2 SWAP1 PUSH2 0xB45 JUMP JUMPDEST PUSH1 0x40 MLOAD DUP1 SWAP2 SUB SWAP1 RETURN JUMPDEST CALLVALUE DUP1 ISZERO PUSH2 0x3EF JUMPI PUSH0 DUP1 REVERT JUMPDEST POP PUSH2 0x3F8 PUSH2 0x860 JUMP JUMPDEST PUSH1 0x40 MLOAD PUSH2 0x405 SWAP2 SWAP1 PUSH2 0xD4D JUMP JUMPDEST PUSH1 0x40 MLOAD DUP1 SWAP2 SUB SWAP1 RETURN JUMPDEST CALLVALUE DUP1 ISZERO PUSH2 0x419 JUMPI PUSH0 DUP1 REVERT JUMPDEST POP PUSH2 0x422 PUSH2 0x866 JUMP JUMPDEST PUSH1 0x40 MLOAD PUSH2 0x42F SWAP2 SWAP1 PUSH2 0xD4D JUMP JUMPDEST PUSH1 0x40 MLOAD DUP1 SWAP2 SUB SWAP1 RETURN JUMPDEST CALLVALUE DUP1 ISZERO PUSH2 0x443 JUMPI PUSH0 DUP1 REVERT JUMPDEST POP PUSH2 0x44C PUSH2 0x86C JUMP JUMPDEST PUSH1 0x40 MLOAD PUSH2 0x459 SWAP2 SWAP1 PUSH2 0xCDF JUMP JUMPDEST PUSH1 0x40 MLOAD DUP1 SWAP2 SUB SWAP1 RETURN JUMPDEST CALLVALUE DUP1 ISZERO PUSH2 0x46D JUMPI PUSH0 DUP1 REVERT JUMPDEST POP PUSH2 0x488 PUSH1 0x4 DUP1 CALLDATASIZE SUB DUP2 ADD SWAP1 PUSH2 0x483 SWAP2 SWAP1 PUSH2 0xD22 JUMP JUMPDEST PUSH2 0x891 JUMP JUMPDEST STOP JUMPDEST CALLVALUE DUP1 ISZERO PUSH2 0x495 JUMPI PUSH0 DUP1 REVERT JUMPDEST POP PUSH2 0x49E PUSH2 0x915 JUMP JUMPDEST PUSH1 0x40 MLOAD PUSH2 0x4AB SWAP2 SWAP1 PUSH2 0xD4D JUMP JUMPDEST PUSH1 0x40 MLOAD DUP1 SWAP2 SUB SWAP1 RETURN JUMPDEST CALLVALUE DUP1 ISZERO PUSH2 0x4BF JUMPI PUSH0 DUP1 REVERT JUMPDEST POP PUSH2 0x4C8 PUSH2 0x91B JUMP JUMPDEST PUSH1 0x40 MLOAD PUSH2 0x4D5 SWAP2 SWAP1 PUSH2 0xDC1 JUMP JUMPDEST PUSH1 0x40 MLOAD DUP1 SWAP2 SUB SWAP1 RETURN JUMPDEST PUSH2 0x4E6 PUSH2 0x940 JUMP JUMPDEST DUP1 PUSH1 0x3 DUP2 SWAP1 SSTORE POP POP JUMP JUMPDEST PUSH1 0x7 PUSH0 SWAP1 SLOAD SWAP1 PUSH2 0x100 EXP SWAP1 DIV PUSH20 0xFFFFFFFFFFFFFFFFFFFFFFFFFFFFFFFFFFFFFFFF AND DUP2 JUMP JUMPDEST PUSH2 0x51D PUSH2 0x940 JUMP JUMPDEST PUSH1 0x2 SLOAD TIMESTAMP GT PUSH2 0x52A JUMPI PUSH0 DUP1 REVERT JUMPDEST PUSH0 PUSH1 0x64 PUSH1 0xA PUSH1 0x5 SLOAD PUSH2 0x53C SWAP2 SWAP1 PUSH2 0xAC5 JUMP JUMPDEST PUSH2 0x546 SWAP2 SWAP1 PUSH2 0xE07 JUMP JUMPDEST SWAP1 POP DUP1 PUSH1 0x8 PUSH0 SWAP1 SLOAD SWAP1 PUSH2 0x100 EXP SWAP1 DIV PUSH20 0xFFFFFFFFFFFFFFFFFFFFFFFFFFFFFFFFFFFFFFFF AND PUSH20 0xFFFFFFFFFFFFFFFFFFFFFFFFFFFFFFFFFFFFFFFF AND PUSH4 0x70A08231 ADDRESS PUSH1 0x40 MLOAD DUP3 PUSH4 0xFFFFFFFF AND PUSH1 0xE0 SHL DUP2 MSTORE PUSH1 0x4 ADD PUSH2 0x5A3 SWAP2 SWAP1 PUSH2 0xB45 JUMP JUMPDEST PUSH1 0x20 PUSH1 0x40 MLOAD DUP1 DUP4 SUB DUP2 DUP7 GAS STATICCALL ISZERO DUP1 ISZERO PUSH2 0x5BE JUMPI RETURNDATASIZE PUSH0 DUP1 RETURNDATACOPY RETURNDATASIZE PUSH0 REVERT JUMPDEST POP POP POP POP PUSH1 0x40 MLOAD RETURNDATASIZE PUSH1 0x1F NOT PUSH1 0x1F DUP3 ADD AND DUP3 ADD DUP1 PUSH1 0x40 MSTORE POP DUP2 ADD SWAP1 PUSH2 0x5E2 SWAP2 SWAP1 PUSH2 0xB8C JUMP JUMPDEST LT ISZERO PUSH2 0x5EC JUMPI PUSH0 DUP1 REVERT JUMPDEST PUSH1 0x8 PUSH0 SWAP1 SLOAD SWAP1 PUSH2 0x100 EXP SWAP1 DIV PUSH20 0xFFFFFFFFFFFFFFFFFFFFFFFFFFFFFFFFFFFFFFFF AND PUSH20 0xFFFFFFFFFFFFFFFFFFFFFFFFFFFFFFFFFFFFFFFF AND PUSH4 0xA9059CBB PUSH1 0x7 PUSH0 SWAP1 SLOAD SWAP1 PUSH2 0x100 EXP SWAP1 DIV PUSH20 0xFFFFFFFFFFFFFFFFFFFFFFFFFFFFFFFFFFFFFFFF AND DUP4 PUSH1 0x40 MLOAD DUP4 PUSH4 0xFFFFFFFF AND PUSH1 0xE0 SHL DUP2 MSTORE PUSH1 0x4 ADD PUSH2 0x669 SWAP3 SWAP2 SWAP1 PUSH2 0xE57 JUMP JUMPDEST PUSH1 0x20 PUSH1 0x40 MLOAD DUP1 DUP4 SUB DUP2 PUSH0 DUP8 GAS CALL ISZERO DUP1 ISZERO PUSH2 0x685 JUMPI RETURNDATASIZE PUSH0 DUP1 RETURNDATACOPY RETURNDATASIZE PUSH0 REVERT JUMPDEST POP POP POP POP PUSH1 0x40 MLOAD RETURNDATASIZE PUSH1 0x1F NOT PUSH1 0x1F DUP3 ADD AND DUP3 ADD DUP1 PUSH1 0x40 MSTORE POP DUP2 ADD SWAP1 PUSH2 0x6A9 SWAP2 SWAP1 PUSH2 0xC22 JUMP JUMPDEST POP PUSH0 PUSH1 0x8 PUSH0 SWAP1 SLOAD SWAP1 PUSH2 0x100 EXP SWAP1 DIV PUSH20 0xFFFFFFFFFFFFFFFFFFFFFFFFFFFFFFFFFFFFFFFF AND PUSH20 0xFFFFFFFFFFFFFFFFFFFFFFFFFFFFFFFFFFFFFFFF AND PUSH4 0x70A08231 ADDRESS PUSH1 0x40 MLOAD DUP3 PUSH4 0xFFFFFFFF AND PUSH1 0xE0 SHL DUP2 MSTORE PUSH1 0x4 ADD PUSH2 0x705 SWAP2 SWAP1 PUSH2 0xB45 JUMP JUMPDEST PUSH1 0x20 PUSH1 0x40 MLOAD DUP1 DUP4 SUB DUP2 DUP7 GAS STATICCALL ISZERO DUP1 ISZERO PUSH2 0x720 JUMPI RETURNDATASIZE PUSH0 DUP1 RETURNDATACOPY RETURNDATASIZE PUSH0 REVERT JUMPDEST POP POP POP POP PUSH1 0x40 MLOAD RETURNDATASIZE PUSH1 0x1F NOT PUSH1 0x1F DUP3 ADD AND DUP3 ADD DUP1 PUSH1 0x40 MSTORE POP DUP2 ADD SWAP1 PUSH2 0x744 SWAP2 SWAP1 PUSH2 0xB8C JUMP JUMPDEST SWAP1 POP PUSH0 DUP2 GT ISZERO PUSH2 0x80D JUMPI PUSH1 0x8 PUSH0 SWAP1 SLOAD SWAP1 PUSH2 0x100 EXP SWAP1 DIV PUSH20 0xFFFFFFFFFFFFFFFFFFFFFFFFFFFFFFFFFFFFFFFF AND PUSH20 0xFFFFFFFFFFFFFFFFFFFFFFFFFFFFFFFFFFFFFFFF AND PUSH4 0xA9059CBB PUSH1 0x6 PUSH0 SWAP1 SLOAD SWAP1 PUSH2 0x100 EXP SWAP1 DIV PUSH20 0xFFFFFFFFFFFFFFFFFFFFFFFFFFFFFFFFFFFFFFFF AND DUP4 PUSH1 0x40 MLOAD DUP4 PUSH4 0xFFFFFFFF AND PUSH1 0xE0 SHL DUP2 MSTORE PUSH1 0x4 ADD PUSH2 0x7CB SWAP3 SWAP2 SWAP1 PUSH2 0xE57 JUMP JUMPDEST PUSH1 0x20 PUSH1 0x40 MLOAD DUP1 DUP4 SUB DUP2 PUSH0 DUP8 GAS CALL ISZERO DUP1 ISZERO PUSH2 0x7E7 JUMPI RETURNDATASIZE PUSH0 DUP1 RETURNDATACOPY RETURNDATASIZE PUSH0 REVERT JUMPDEST POP POP POP POP PUSH1 0x40 MLOAD RETURNDATASIZE PUSH1 0x1F NOT PUSH1 0x1F DUP3 ADD AND DUP3 ADD DUP1 PUSH1 0x40 MSTORE POP DUP2 ADD SWAP1 PUSH2 0x80B SWAP2 SWAP1 PUSH2 0xC22 JUMP JUMPDEST POP JUMPDEST POP POP JUMP JUMPDEST PUSH1 0x9 PUSH1 0x20 MSTORE DUP1 PUSH0 MSTORE PUSH1 0x40 PUSH0 KECCAK256 PUSH0 SWAP2 POP SWAP1 POP SLOAD DUP2 JUMP JUMPDEST PUSH2 0x82E PUSH2 0x940 JUMP JUMPDEST PUSH2 0x837 PUSH0 PUSH2 0x9C7 JUMP JUMPDEST JUMP JUMPDEST PUSH0 DUP1 PUSH0 SWAP1 SLOAD SWAP1 PUSH2 0x100 EXP SWAP1 DIV PUSH20 0xFFFFFFFFFFFFFFFFFFFFFFFFFFFFFFFFFFFFFFFF AND SWAP1 POP SWAP1 JUMP JUMPDEST PUSH1 0x5 SLOAD DUP2 JUMP JUMPDEST PUSH1 0x3 SLOAD DUP2 JUMP JUMPDEST PUSH1 0x6 PUSH0 SWAP1 SLOAD SWAP1 PUSH2 0x100 EXP SWAP1 DIV PUSH20 0xFFFFFFFFFFFFFFFFFFFFFFFFFFFFFFFFFFFFFFFF AND DUP2 JUMP JUMPDEST PUSH2 0x899 PUSH2 0x940 JUMP JUMPDEST PUSH0 PUSH20 0xFFFFFFFFFFFFFFFFFFFFFFFFFFFFFFFFFFFFFFFF AND DUP2 PUSH20 0xFFFFFFFFFFFFFFFFFFFFFFFFFFFFFFFFFFFFFFFF AND SUB PUSH2 0x909 JUMPI PUSH0 PUSH1 0x40 MLOAD PUSH32 0x1E4FBDF700000000000000000000000000000000000000000000000000000000 DUP2 MSTORE PUSH1 0x4 ADD PUSH2 0x900 SWAP2 SWAP1 PUSH2 0xB45 JUMP JUMPDEST PUSH1 0x40 MLOAD DUP1 SWAP2 SUB SWAP1 REVERT JUMPDEST PUSH2 0x912 DUP2 PUSH2 0x9C7 JUMP JUMPDEST POP JUMP JUMPDEST PUSH1 0x4 SLOAD DUP2 JUMP JUMPDEST PUSH1 0x8 PUSH0 SWAP1 SLOAD SWAP1 PUSH2 0x100 EXP SWAP1 DIV PUSH20 0xFFFFFFFFFFFFFFFFFFFFFFFFFFFFFFFFFFFFFFFF AND DUP2 JUMP JUMPDEST PUSH2 0x948 PUSH2 0xA88 JUMP JUMPDEST PUSH20 0xFFFFFFFFFFFFFFFFFFFFFFFFFFFFFFFFFFFFFFFF AND PUSH2 0x966 PUSH2 0x839 JUMP JUMPDEST PUSH20 0xFFFFFFFFFFFFFFFFFFFFFFFFFFFFFFFFFFFFFFFF AND EQ PUSH2 0x9C5 JUMPI PUSH2 0x989 PUSH2 0xA88 JUMP JUMPDEST PUSH1 0x40 MLOAD PUSH32 0x118CDAA700000000000000000000000000000000000000000000000000000000 DUP2 MSTORE PUSH1 0x4 ADD PUSH2 0x9BC SWAP2 SWAP1 PUSH2 0xB45 JUMP JUMPDEST PUSH1 0x40 MLOAD DUP1 SWAP2 SUB SWAP1 REVERT JUMPDEST JUMP JUMPDEST PUSH0 DUP1 PUSH0 SWAP1 SLOAD SWAP1 PUSH2 0x100 EXP SWAP1 DIV PUSH20 0xFFFFFFFFFFFFFFFFFFFFFFFFFFFFFFFFFFFFFFFF AND SWAP1 POP DUP2 PUSH0 DUP1 PUSH2 0x100 EXP DUP2 SLOAD DUP2 PUSH20 0xFFFFFFFFFFFFFFFFFFFFFFFFFFFFFFFFFFFFFFFF MUL NOT AND SWAP1 DUP4 PUSH20 0xFFFFFFFFFFFFFFFFFFFFFFFFFFFFFFFFFFFFFFFF AND MUL OR SWAP1 SSTORE POP DUP2 PUSH20 0xFFFFFFFFFFFFFFFFFFFFFFFFFFFFFFFFFFFFFFFF AND DUP2 PUSH20 0xFFFFFFFFFFFFFFFFFFFFFFFFFFFFFFFFFFFFFFFF AND PUSH32 0x8BE0079C531659141344CD1FD0A4F28419497F9722A3DAAFE3B4186F6B6457E0 PUSH1 0x40 MLOAD PUSH1 0x40 MLOAD DUP1 SWAP2 SUB SWAP1 LOG3 POP POP JUMP JUMPDEST PUSH0 CALLER SWAP1 POP SWAP1 JUMP JUMPDEST PUSH0 DUP2 SWAP1 POP SWAP2 SWAP1 POP JUMP JUMPDEST PUSH32 0x4E487B7100000000000000000000000000000000000000000000000000000000 PUSH0 MSTORE PUSH1 0x11 PUSH1 0x4 MSTORE PUSH1 0x24 PUSH0 REVERT JUMPDEST PUSH0 PUSH2 0xACF DUP3 PUSH2 0xA8F JUMP JUMPDEST SWAP2 POP PUSH2 0xADA DUP4 PUSH2 0xA8F JUMP JUMPDEST SWAP3 POP DUP3 DUP3 MUL PUSH2 0xAE8 DUP2 PUSH2 0xA8F JUMP JUMPDEST SWAP2 POP DUP3 DUP3 DIV DUP5 EQ DUP4 ISZERO OR PUSH2 0xAFF JUMPI PUSH2 0xAFE PUSH2 0xA98 JUMP JUMPDEST JUMPDEST POP SWAP3 SWAP2 POP POP JUMP JUMPDEST PUSH0 PUSH20 0xFFFFFFFFFFFFFFFFFFFFFFFFFFFFFFFFFFFFFFFF DUP3 AND SWAP1 POP SWAP2 SWAP1 POP JUMP JUMPDEST PUSH0 PUSH2 0xB2F DUP3 PUSH2 0xB06 JUMP JUMPDEST SWAP1 POP SWAP2 SWAP1 POP JUMP JUMPDEST PUSH2 0xB3F DUP2 PUSH2 0xB25 JUMP JUMPDEST DUP3 MSTORE POP POP JUMP JUMPDEST PUSH0 PUSH1 0x20 DUP3 ADD SWAP1 POP PUSH2 0xB58 PUSH0 DUP4 ADD DUP5 PUSH2 0xB36 JUMP JUMPDEST SWAP3 SWAP2 POP POP JUMP JUMPDEST PUSH0 DUP1 REVERT JUMPDEST PUSH2 0xB6B DUP2 PUSH2 0xA8F JUMP JUMPDEST DUP2 EQ PUSH2 0xB75 JUMPI PUSH0 DUP1 REVERT JUMPDEST POP JUMP JUMPDEST PUSH0 DUP2 MLOAD SWAP1 POP PUSH2 0xB86 DUP2 PUSH2 0xB62 JUMP JUMPDEST SWAP3 SWAP2 POP POP JUMP JUMPDEST PUSH0 PUSH1 0x20 DUP3 DUP5 SUB SLT ISZERO PUSH2 0xBA1 JUMPI PUSH2 0xBA0 PUSH2 0xB5E JUMP JUMPDEST JUMPDEST PUSH0 PUSH2 0xBAE DUP5 DUP3 DUP6 ADD PUSH2 0xB78 JUMP JUMPDEST SWAP2 POP POP SWAP3 SWAP2 POP POP JUMP JUMPDEST PUSH2 0xBC0 DUP2 PUSH2 0xA8F JUMP JUMPDEST DUP3 MSTORE POP POP JUMP JUMPDEST PUSH0 PUSH1 0x40 DUP3 ADD SWAP1 POP PUSH2 0xBD9 PUSH0 DUP4 ADD DUP6 PUSH2 0xB36 JUMP JUMPDEST PUSH2 0xBE6 PUSH1 0x20 DUP4 ADD DUP5 PUSH2 0xBB7 JUMP JUMPDEST SWAP4 SWAP3 POP POP POP JUMP JUMPDEST PUSH0 DUP2 ISZERO ISZERO SWAP1 POP SWAP2 SWAP1 POP JUMP JUMPDEST PUSH2 0xC01 DUP2 PUSH2 0xBED JUMP JUMPDEST DUP2 EQ PUSH2 0xC0B JUMPI PUSH0 DUP1 REVERT JUMPDEST POP JUMP JUMPDEST PUSH0 DUP2 MLOAD SWAP1 POP PUSH2 0xC1C DUP2 PUSH2 0xBF8 JUMP JUMPDEST SWAP3 SWAP2 POP POP JUMP JUMPDEST PUSH0 PUSH1 0x20 DUP3 DUP5 SUB SLT ISZERO PUSH2 0xC37 JUMPI PUSH2 0xC36 PUSH2 0xB5E JUMP JUMPDEST JUMPDEST PUSH0 PUSH2 0xC44 DUP5 DUP3 DUP6 ADD PUSH2 0xC0E JUMP JUMPDEST SWAP2 POP POP SWAP3 SWAP2 POP POP JUMP JUMPDEST PUSH0 PUSH2 0xC57 DUP3 PUSH2 0xA8F JUMP JUMPDEST SWAP2 POP PUSH2 0xC62 DUP4 PUSH2 0xA8F JUMP JUMPDEST SWAP3 POP DUP3 DUP3 ADD SWAP1 POP DUP1 DUP3 GT ISZERO PUSH2 0xC7A JUMPI PUSH2 0xC79 PUSH2 0xA98 JUMP JUMPDEST JUMPDEST SWAP3 SWAP2 POP POP JUMP JUMPDEST PUSH0 DUP2 CALLDATALOAD SWAP1 POP PUSH2 0xC8E DUP2 PUSH2 0xB62 JUMP JUMPDEST SWAP3 SWAP2 POP POP JUMP JUMPDEST PUSH0 PUSH1 0x20 DUP3 DUP5 SUB SLT ISZERO PUSH2 0xCA9 JUMPI PUSH2 0xCA8 PUSH2 0xB5E JUMP JUMPDEST JUMPDEST PUSH0 PUSH2 0xCB6 DUP5 DUP3 DUP6 ADD PUSH2 0xC80 JUMP JUMPDEST SWAP2 POP POP SWAP3 SWAP2 POP POP JUMP JUMPDEST PUSH0 PUSH2 0xCC9 DUP3 PUSH2 0xB06 JUMP JUMPDEST SWAP1 POP SWAP2 SWAP1 POP JUMP JUMPDEST PUSH2 0xCD9 DUP2 PUSH2 0xCBF JUMP JUMPDEST DUP3 MSTORE POP POP JUMP JUMPDEST PUSH0 PUSH1 0x20 DUP3 ADD SWAP1 POP PUSH2 0xCF2 PUSH0 DUP4 ADD DUP5 PUSH2 0xCD0 JUMP JUMPDEST SWAP3 SWAP2 POP POP JUMP JUMPDEST PUSH2 0xD01 DUP2 PUSH2 0xB25 JUMP JUMPDEST DUP2 EQ PUSH2 0xD0B JUMPI PUSH0 DUP1 REVERT JUMPDEST POP JUMP JUMPDEST PUSH0 DUP2 CALLDATALOAD SWAP1 POP PUSH2 0xD1C DUP2 PUSH2 0xCF8 JUMP JUMPDEST SWAP3 SWAP2 POP POP JUMP JUMPDEST PUSH0 PUSH1 0x20 DUP3 DUP5 SUB SLT ISZERO PUSH2 0xD37 JUMPI PUSH2 0xD36 PUSH2 0xB5E JUMP JUMPDEST JUMPDEST PUSH0 PUSH2 0xD44 DUP5 DUP3 DUP6 ADD PUSH2 0xD0E JUMP JUMPDEST SWAP2 POP POP SWAP3 SWAP2 POP POP JUMP JUMPDEST PUSH0 PUSH1 0x20 DUP3 ADD SWAP1 POP PUSH2 0xD60 PUSH0 DUP4 ADD DUP5 PUSH2 0xBB7 JUMP JUMPDEST SWAP3 SWAP2 POP POP JUMP JUMPDEST PUSH0 DUP2 SWAP1 POP SWAP2 SWAP1 POP JUMP JUMPDEST PUSH0 PUSH2 0xD89 PUSH2 0xD84 PUSH2 0xD7F DUP5 PUSH2 0xB06 JUMP JUMPDEST PUSH2 0xD66 JUMP JUMPDEST PUSH2 0xB06 JUMP JUMPDEST SWAP1 POP SWAP2 SWAP1 POP JUMP JUMPDEST PUSH0 PUSH2 0xD9A DUP3 PUSH2 0xD6F JUMP JUMPDEST SWAP1 POP SWAP2 SWAP1 POP JUMP JUMPDEST PUSH0 PUSH2 0xDAB DUP3 PUSH2 0xD90 JUMP JUMPDEST SWAP1 POP SWAP2 SWAP1 POP JUMP JUMPDEST PUSH2 0xDBB DUP2 PUSH2 0xDA1 JUMP JUMPDEST DUP3 MSTORE POP POP JUMP JUMPDEST PUSH0 PUSH1 0x20 DUP3 ADD SWAP1 POP PUSH2 0xDD4 PUSH0 DUP4 ADD DUP5 PUSH2 0xDB2 JUMP JUMPDEST SWAP3 SWAP2 POP POP JUMP JUMPDEST PUSH32 0x4E487B7100000000000000000000000000000000000000000000000000000000 PUSH0 MSTORE PUSH1 0x12 PUSH1 0x4 MSTORE PUSH1 0x24 PUSH0 REVERT JUMPDEST PUSH0 PUSH2 0xE11 DUP3 PUSH2 0xA8F JUMP JUMPDEST SWAP2 POP PUSH2 0xE1C DUP4 PUSH2 0xA8F JUMP JUMPDEST SWAP3 POP DUP3 PUSH2 0xE2C JUMPI PUSH2 0xE2B PUSH2 0xDDA JUMP JUMPDEST JUMPDEST DUP3 DUP3 DIV SWAP1 POP SWAP3 SWAP2 POP POP JUMP JUMPDEST PUSH0 PUSH2 0xE41 DUP3 PUSH2 0xD90 JUMP JUMPDEST SWAP1 POP SWAP2 SWAP1 POP JUMP JUMPDEST PUSH2 0xE51 DUP2 PUSH2 0xE37 JUMP JUMPDEST DUP3 MSTORE POP POP JUMP JUMPDEST PUSH0 PUSH1 0x40 DUP3 ADD SWAP1 POP PUSH2 0xE6A PUSH0 DUP4 ADD DUP6 PUSH2 0xE48 JUMP JUMPDEST PUSH2 0xE77 PUSH1 0x20 DUP4 ADD DUP5 PUSH2 0xBB7 JUMP JUMPDEST SWAP4 SWAP3 POP POP POP JUMP INVALID LOG2 PUSH5 0x6970667358 0x22 SLT KECCAK256 MLOAD MLOAD DUP4 0xA8 0xE9 DUP13 SHR 0xD9 0xCE PUSH7 0xDC9CB225EFCC29 0x4C 0xD6 PUSH4 0x1E71AB29 MLOAD EXTCODESIZE KECCAK256 0xD9 0xB4 DUP5 DUP5 DUP13 PUSH5 0x736F6C6343 STOP ADDMOD BYTE STOP CALLER "
				},
				"gasEstimates": {
					"creation": {
						"codeDepositCost": "752800",
						"executionCost": "infinite",
						"totalCost": "infinite"
					},
					"external": {
						"_owner()": "2552",
						"balanceOf(address)": "2869",
						"changeCourse(uint256)": "infinite",
						"exrate()": "2447",
						"finalize()": "infinite",
						"hardCap()": "2513",
						"owner()": "2626",
						"renounceOwnership()": "infinite",
						"teamAddress()": "2531",
						"token()": "infinite",
						"totalSold()": "2425",
						"transferOwnership(address)": "infinite"
					}
				},
				"methodIdentifiers": {
					"_owner()": "b2bdfa7b",
					"balanceOf(address)": "70a08231",
					"changeCourse(uint256)": "011b29e3",
					"exrate()": "a3dc8a7a",
					"finalize()": "4bb278f3",
					"hardCap()": "fb86a404",
					"owner()": "8da5cb5b",
					"renounceOwnership()": "715018a6",
					"teamAddress()": "1c75f085",
					"token()": "fc0c546a",
					"totalSold()": "9106d7ba",
					"transferOwnership(address)": "f2fde38b"
				}
			},
			"storageLayout": {
				"storage": [
					{
						"astId": 8,
						"contract": "HW2.sol:Crowdsale",
						"label": "_owner",
						"offset": 0,
						"slot": "0",
						"type": "t_address"
					},
					{
						"astId": 263,
						"contract": "HW2.sol:Crowdsale",
						"label": "startTime",
						"offset": 0,
						"slot": "1",
						"type": "t_uint256"
					},
					{
						"astId": 265,
						"contract": "HW2.sol:Crowdsale",
						"label": "endTime",
						"offset": 0,
						"slot": "2",
						"type": "t_uint256"
					},
					{
						"astId": 268,
						"contract": "HW2.sol:Crowdsale",
						"label": "exrate",
						"offset": 0,
						"slot": "3",
						"type": "t_uint256"
					},
					{
						"astId": 271,
						"contract": "HW2.sol:Crowdsale",
						"label": "hardCap",
						"offset": 0,
						"slot": "4",
						"type": "t_uint256"
					},
					{
						"astId": 273,
						"contract": "HW2.sol:Crowdsale",
						"label": "totalSold",
						"offset": 0,
						"slot": "5",
						"type": "t_uint256"
					},
					{
						"astId": 275,
						"contract": "HW2.sol:Crowdsale",
						"label": "_owner",
						"offset": 0,
						"slot": "6",
						"type": "t_address_payable"
					},
					{
						"astId": 277,
						"contract": "HW2.sol:Crowdsale",
						"label": "teamAddress",
						"offset": 0,
						"slot": "7",
						"type": "t_address_payable"
					},
					{
						"astId": 280,
						"contract": "HW2.sol:Crowdsale",
						"label": "token",
						"offset": 0,
						"slot": "8",
						"type": "t_contract(IERC20)225"
					},
					{
						"astId": 284,
						"contract": "HW2.sol:Crowdsale",
						"label": "balanceOf",
						"offset": 0,
						"slot": "9",
						"type": "t_mapping(t_address,t_uint256)"
					}
				],
				"types": {
					"t_address": {
						"encoding": "inplace",
						"label": "address",
						"numberOfBytes": "20"
					},
					"t_address_payable": {
						"encoding": "inplace",
						"label": "address payable",
						"numberOfBytes": "20"
					},
					"t_contract(IERC20)225": {
						"encoding": "inplace",
						"label": "contract IERC20",
						"numberOfBytes": "20"
					},
					"t_mapping(t_address,t_uint256)": {
						"encoding": "mapping",
						"key": "t_address",
						"label": "mapping(address => uint256)",
						"numberOfBytes": "32",
						"value": "t_uint256"
					},
					"t_uint256": {
						"encoding": "inplace",
						"label": "uint256",
						"numberOfBytes": "32"
					}
				}
			},
			"userdoc": {
				"kind": "user",
				"methods": {},
				"version": 1
			}
		}
	}
}