{
	"Project.sol": {
		"TTTGame": {
			"abi": [
				{
					"inputs": [
						{
							"internalType": "address",
							"name": "_p1",
							"type": "address"
						},
						{
							"internalType": "address",
							"name": "_p2",
							"type": "address"
						}
					],
					"stateMutability": "nonpayable",
					"type": "constructor"
				},
				{
					"inputs": [
						{
							"internalType": "address",
							"name": "",
							"type": "address"
						}
					],
					"name": "balanceOf",
					"outputs": [
						{
							"internalType": "uint256",
							"name": "",
							"type": "uint256"
						}
					],
					"stateMutability": "view",
					"type": "function"
				},
				{
					"inputs": [],
					"name": "dep",
					"outputs": [
						{
							"internalType": "uint256",
							"name": "",
							"type": "uint256"
						}
					],
					"stateMutability": "view",
					"type": "function"
				},
				{
					"inputs": [],
					"name": "gameEnded",
					"outputs": [
						{
							"internalType": "bool",
							"name": "",
							"type": "bool"
						}
					],
					"stateMutability": "view",
					"type": "function"
				},
				{
					"inputs": [
						{
							"internalType": "uint256",
							"name": "",
							"type": "uint256"
						}
					],
					"name": "gameState",
					"outputs": [
						{
							"internalType": "uint256",
							"name": "",
							"type": "uint256"
						}
					],
					"stateMutability": "view",
					"type": "function"
				},
				{
					"inputs": [
						{
							"internalType": "uint256[9]",
							"name": "_turn",
							"type": "uint256[9]"
						}
					],
					"name": "makeTurn",
					"outputs": [],
					"stateMutability": "nonpayable",
					"type": "function"
				},
				{
					"inputs": [],
					"name": "p1",
					"outputs": [
						{
							"internalType": "address payable",
							"name": "",
							"type": "address"
						}
					],
					"stateMutability": "view",
					"type": "function"
				},
				{
					"inputs": [],
					"name": "p2",
					"outputs": [
						{
							"internalType": "address payable",
							"name": "",
							"type": "address"
						}
					],
					"stateMutability": "view",
					"type": "function"
				},
				{
					"inputs": [],
					"name": "turn",
					"outputs": [
						{
							"internalType": "bool",
							"name": "",
							"type": "bool"
						}
					],
					"stateMutability": "view",
					"type": "function"
				},
				{
					"stateMutability": "payable",
					"type": "receive"
				}
			],
			"devdoc": {
				"kind": "dev",
				"methods": {},
				"version": 1
			},
			"evm": {
				"assembly": "    /* \"Project.sol\":61:3919  contract TTTGame {... */\n  mstore(0x40, 0x80)\n    /* \"Project.sol\":170:183  0.00005 ether */\n  0x2d79883d2000\n    /* \"Project.sol\":149:183  uint256 public dep = 0.00005 ether */\n  0x02\n  sstore\n    /* \"Project.sol\":346:569  constructor(address _p1, address _p2) {... */\n  callvalue\n  dup1\n  iszero\n  tag_1\n  jumpi\n  0x00\n  dup1\n  revert\ntag_1:\n  pop\n  mload(0x40)\n  sub(codesize, bytecodeSize)\n  dup1\n  bytecodeSize\n  dup4\n  codecopy\n  dup2\n  dup2\n  add\n  0x40\n  mstore\n  dup2\n  add\n  swap1\n  tag_2\n  swap2\n  swap1\n  tag_3\n  jump\t// in\ntag_2:\n    /* \"Project.sol\":408:411  _p1 */\n  dup2\n    /* \"Project.sol\":395:397  p1 */\n  0x00\n  dup1\n    /* \"Project.sol\":395:412  p1 = payable(_p1) */\n  0x0100\n  exp\n  dup2\n  sload\n  dup2\n  0xffffffffffffffffffffffffffffffffffffffff\n  mul\n  not\n  and\n  swap1\n  dup4\n  0xffffffffffffffffffffffffffffffffffffffff\n  and\n  mul\n  or\n  swap1\n  sstore\n  pop\n    /* \"Project.sol\":436:439  _p2 */\n  dup1\n    /* \"Project.sol\":423:425  p2 */\n  0x01\n  0x00\n    /* \"Project.sol\":423:440  p2 = payable(_p2) */\n  0x0100\n  exp\n  dup2\n  sload\n  dup2\n  0xffffffffffffffffffffffffffffffffffffffff\n  mul\n  not\n  and\n  swap1\n  dup4\n  0xffffffffffffffffffffffffffffffffffffffff\n  and\n  mul\n  or\n  swap1\n  sstore\n  pop\n    /* \"Project.sol\":458:463  false */\n  0x00\n    /* \"Project.sol\":451:455  turn */\n  0x04\n  0x00\n    /* \"Project.sol\":451:463  turn = false */\n  0x0100\n  exp\n  dup2\n  sload\n  dup2\n  0xff\n  mul\n  not\n  and\n  swap1\n  dup4\n  iszero\n  iszero\n  mul\n  or\n  swap1\n  sstore\n  pop\n    /* \"Project.sol\":474:505  gameState = [0,0,0,0,0,0,0,0,0] */\n  mload(0x40)\n  dup1\n  0x0120\n  add\n  0x40\n  mstore\n  dup1\n    /* \"Project.sol\":487:488  0 */\n  0x00\n    /* \"Project.sol\":474:505  gameState = [0,0,0,0,0,0,0,0,0] */\n  0xff\n  and\n  dup2\n  mstore\n  0x20\n  add\n    /* \"Project.sol\":489:490  0 */\n  0x00\n    /* \"Project.sol\":474:505  gameState = [0,0,0,0,0,0,0,0,0] */\n  0xff\n  and\n  dup2\n  mstore\n  0x20\n  add\n    /* \"Project.sol\":491:492  0 */\n  0x00\n    /* \"Project.sol\":474:505  gameState = [0,0,0,0,0,0,0,0,0] */\n  0xff\n  and\n  dup2\n  mstore\n  0x20\n  add\n    /* \"Project.sol\":493:494  0 */\n  0x00\n    /* \"Project.sol\":474:505  gameState = [0,0,0,0,0,0,0,0,0] */\n  0xff\n  and\n  dup2\n  mstore\n  0x20\n  add\n    /* \"Project.sol\":495:496  0 */\n  0x00\n    /* \"Project.sol\":474:505  gameState = [0,0,0,0,0,0,0,0,0] */\n  0xff\n  and\n  dup2\n  mstore\n  0x20\n  add\n    /* \"Project.sol\":497:498  0 */\n  0x00\n    /* \"Project.sol\":474:505  gameState = [0,0,0,0,0,0,0,0,0] */\n  0xff\n  and\n  dup2\n  mstore\n  0x20\n  add\n    /* \"Project.sol\":499:500  0 */\n  0x00\n    /* \"Project.sol\":474:505  gameState = [0,0,0,0,0,0,0,0,0] */\n  0xff\n  and\n  dup2\n  mstore\n  0x20\n  add\n    /* \"Project.sol\":501:502  0 */\n  0x00\n    /* \"Project.sol\":474:505  gameState = [0,0,0,0,0,0,0,0,0] */\n  0xff\n  and\n  dup2\n  mstore\n  0x20\n  add\n    /* \"Project.sol\":503:504  0 */\n  0x00\n    /* \"Project.sol\":474:505  gameState = [0,0,0,0,0,0,0,0,0] */\n  0xff\n  and\n  dup2\n  mstore\n  pop\n    /* \"Project.sol\":474:483  gameState */\n  0x03\n    /* \"Project.sol\":474:505  gameState = [0,0,0,0,0,0,0,0,0] */\n  swap1\n  0x09\n  tag_6\n  swap3\n  swap2\n  swap1\n  tag_7\n  jump\t// in\ntag_6:\n  pop\n    /* \"Project.sol\":556:561  false */\n  0x00\n    /* \"Project.sol\":544:553  gameEnded */\n  0x04\n  0x01\n    /* \"Project.sol\":544:561  gameEnded = false */\n  0x0100\n  exp\n  dup2\n  sload\n  dup2\n  0xff\n  mul\n  not\n  and\n  swap1\n  dup4\n  iszero\n  iszero\n  mul\n  or\n  swap1\n  sstore\n  pop\n    /* \"Project.sol\":346:569  constructor(address _p1, address _p2) {... */\n  pop\n  pop\n    /* \"Project.sol\":61:3919  contract TTTGame {... */\n  jump(tag_8)\ntag_7:\n  dup3\n  dup1\n  sload\n  dup3\n  dup3\n  sstore\n  swap1\n  0x00\n  mstore\n  keccak256(0x00, 0x20)\n  swap1\n  dup2\n  add\n  swap3\n  dup3\n  iszero\n  tag_9\n  jumpi\n  swap2\n  0x20\n  mul\n  dup3\n  add\ntag_10:\n  dup3\n  dup2\n  gt\n  iszero\n  tag_11\n  jumpi\n  dup3\n  mload\n  dup3\n  swap1\n  0xff\n  and\n  swap1\n  sstore\n  swap2\n  0x20\n  add\n  swap2\n  swap1\n  0x01\n  add\n  swap1\n  jump(tag_10)\ntag_11:\ntag_9:\n  pop\n  swap1\n  pop\n  tag_12\n  swap2\n  swap1\n  tag_13\n  jump\t// in\ntag_12:\n  pop\n  swap1\n  jump\t// out\ntag_13:\ntag_14:\n  dup1\n  dup3\n  gt\n  iszero\n  tag_15\n  jumpi\n  0x00\n  dup2\n  0x00\n  swap1\n  sstore\n  pop\n  0x01\n  add\n  jump(tag_14)\ntag_15:\n  pop\n  swap1\n  jump\t// out\n    /* \"#utility.yul\":88:205   */\ntag_17:\n    /* \"#utility.yul\":197:198   */\n  0x00\n    /* \"#utility.yul\":194:195   */\n  dup1\n    /* \"#utility.yul\":187:199   */\n  revert\n    /* \"#utility.yul\":334:460   */\ntag_19:\n    /* \"#utility.yul\":371:378   */\n  0x00\n    /* \"#utility.yul\":411:453   */\n  0xffffffffffffffffffffffffffffffffffffffff\n    /* \"#utility.yul\":404:409   */\n  dup3\n    /* \"#utility.yul\":400:454   */\n  and\n    /* \"#utility.yul\":389:454   */\n  swap1\n  pop\n    /* \"#utility.yul\":334:460   */\n  swap2\n  swap1\n  pop\n  jump\t// out\n    /* \"#utility.yul\":466:562   */\ntag_20:\n    /* \"#utility.yul\":503:510   */\n  0x00\n    /* \"#utility.yul\":532:556   */\n  tag_29\n    /* \"#utility.yul\":550:555   */\n  dup3\n    /* \"#utility.yul\":532:556   */\n  tag_19\n  jump\t// in\ntag_29:\n    /* \"#utility.yul\":521:556   */\n  swap1\n  pop\n    /* \"#utility.yul\":466:562   */\n  swap2\n  swap1\n  pop\n  jump\t// out\n    /* \"#utility.yul\":568:690   */\ntag_21:\n    /* \"#utility.yul\":641:665   */\n  tag_31\n    /* \"#utility.yul\":659:664   */\n  dup2\n    /* \"#utility.yul\":641:665   */\n  tag_20\n  jump\t// in\ntag_31:\n    /* \"#utility.yul\":634:639   */\n  dup2\n    /* \"#utility.yul\":631:666   */\n  eq\n    /* \"#utility.yul\":621:684   */\n  tag_32\n  jumpi\n    /* \"#utility.yul\":680:681   */\n  0x00\n    /* \"#utility.yul\":677:678   */\n  dup1\n    /* \"#utility.yul\":670:682   */\n  revert\n    /* \"#utility.yul\":621:684   */\ntag_32:\n    /* \"#utility.yul\":568:690   */\n  pop\n  jump\t// out\n    /* \"#utility.yul\":696:839   */\ntag_22:\n    /* \"#utility.yul\":753:758   */\n  0x00\n    /* \"#utility.yul\":784:790   */\n  dup2\n    /* \"#utility.yul\":778:791   */\n  mload\n    /* \"#utility.yul\":769:791   */\n  swap1\n  pop\n    /* \"#utility.yul\":800:833   */\n  tag_34\n    /* \"#utility.yul\":827:832   */\n  dup2\n    /* \"#utility.yul\":800:833   */\n  tag_21\n  jump\t// in\ntag_34:\n    /* \"#utility.yul\":696:839   */\n  swap3\n  swap2\n  pop\n  pop\n  jump\t// out\n    /* \"#utility.yul\":845:1352   */\ntag_3:\n    /* \"#utility.yul\":924:930   */\n  0x00\n    /* \"#utility.yul\":932:938   */\n  dup1\n    /* \"#utility.yul\":981:983   */\n  0x40\n    /* \"#utility.yul\":969:978   */\n  dup4\n    /* \"#utility.yul\":960:967   */\n  dup6\n    /* \"#utility.yul\":956:979   */\n  sub\n    /* \"#utility.yul\":952:984   */\n  slt\n    /* \"#utility.yul\":949:1068   */\n  iszero\n  tag_36\n  jumpi\n    /* \"#utility.yul\":987:1066   */\n  tag_37\n  tag_17\n  jump\t// in\ntag_37:\n    /* \"#utility.yul\":949:1068   */\ntag_36:\n    /* \"#utility.yul\":1107:1108   */\n  0x00\n    /* \"#utility.yul\":1132:1196   */\n  tag_38\n    /* \"#utility.yul\":1188:1195   */\n  dup6\n    /* \"#utility.yul\":1179:1185   */\n  dup3\n    /* \"#utility.yul\":1168:1177   */\n  dup7\n    /* \"#utility.yul\":1164:1186   */\n  add\n    /* \"#utility.yul\":1132:1196   */\n  tag_22\n  jump\t// in\ntag_38:\n    /* \"#utility.yul\":1122:1196   */\n  swap3\n  pop\n    /* \"#utility.yul\":1078:1206   */\n  pop\n    /* \"#utility.yul\":1245:1247   */\n  0x20\n    /* \"#utility.yul\":1271:1335   */\n  tag_39\n    /* \"#utility.yul\":1327:1334   */\n  dup6\n    /* \"#utility.yul\":1318:1324   */\n  dup3\n    /* \"#utility.yul\":1307:1316   */\n  dup7\n    /* \"#utility.yul\":1303:1325   */\n  add\n    /* \"#utility.yul\":1271:1335   */\n  tag_22\n  jump\t// in\ntag_39:\n    /* \"#utility.yul\":1261:1335   */\n  swap2\n  pop\n    /* \"#utility.yul\":1216:1345   */\n  pop\n    /* \"#utility.yul\":845:1352   */\n  swap3\n  pop\n  swap3\n  swap1\n  pop\n  jump\t// out\n    /* \"Project.sol\":61:3919  contract TTTGame {... */\ntag_8:\n  dataSize(sub_0)\n  dup1\n  dataOffset(sub_0)\n  0x00\n  codecopy\n  0x00\n  return\nstop\n\nsub_0: assembly {\n        /* \"Project.sol\":61:3919  contract TTTGame {... */\n      mstore(0x40, 0x80)\n      jumpi(tag_1, lt(calldatasize, 0x04))\n      shr(0xe0, calldataload(0x00))\n      dup1\n      0x855a0fe3\n      gt\n      tag_11\n      jumpi\n      dup1\n      0x855a0fe3\n      eq\n      tag_7\n      jumpi\n      dup1\n      0x8b299903\n      eq\n      tag_8\n      jumpi\n      dup1\n      0xad86287a\n      eq\n      tag_9\n      jumpi\n      dup1\n      0xc2a2747b\n      eq\n      tag_10\n      jumpi\n      jump(tag_2)\n    tag_11:\n      dup1\n      0x2f6fe396\n      eq\n      tag_3\n      jumpi\n      dup1\n      0x4e0e1a3e\n      eq\n      tag_4\n      jumpi\n      dup1\n      0x70a08231\n      eq\n      tag_5\n      jumpi\n      dup1\n      0x81d01ed3\n      eq\n      tag_6\n      jumpi\n      jump(tag_2)\n    tag_1:\n      jumpi(tag_2, calldatasize)\n        /* \"Project.sol\":3633:3642  msg.value */\n      callvalue\n        /* \"Project.sol\":3608:3617  balanceOf */\n      0x05\n        /* \"Project.sol\":3608:3629  balanceOf[msg.sender] */\n      0x00\n        /* \"Project.sol\":3618:3628  msg.sender */\n      caller\n        /* \"Project.sol\":3608:3629  balanceOf[msg.sender] */\n      0xffffffffffffffffffffffffffffffffffffffff\n      and\n      0xffffffffffffffffffffffffffffffffffffffff\n      and\n      dup2\n      mstore\n      0x20\n      add\n      swap1\n      dup2\n      mstore\n      0x20\n      add\n      0x00\n      keccak256\n      0x00\n        /* \"Project.sol\":3608:3642  balanceOf[msg.sender] += msg.value */\n      dup3\n      dup3\n      sload\n      tag_14\n      swap2\n      swap1\n      tag_15\n      jump\t// in\n    tag_14:\n      swap3\n      pop\n      pop\n      dup2\n      swap1\n      sstore\n      pop\n        /* \"Project.sol\":3681:3684  dep */\n      sload(0x02)\n        /* \"Project.sol\":3657:3666  balanceOf */\n      0x05\n        /* \"Project.sol\":3657:3678  balanceOf[msg.sender] */\n      0x00\n        /* \"Project.sol\":3667:3677  msg.sender */\n      caller\n        /* \"Project.sol\":3657:3678  balanceOf[msg.sender] */\n      0xffffffffffffffffffffffffffffffffffffffff\n      and\n      0xffffffffffffffffffffffffffffffffffffffff\n      and\n      dup2\n      mstore\n      0x20\n      add\n      swap1\n      dup2\n      mstore\n      0x20\n      add\n      0x00\n      keccak256\n      sload\n        /* \"Project.sol\":3657:3684  balanceOf[msg.sender] > dep */\n      gt\n        /* \"Project.sol\":3653:3909  if (balanceOf[msg.sender] > dep){... */\n      iszero\n      tag_16\n      jumpi\n        /* \"Project.sol\":3700:3714  uint256 amount */\n      0x00\n        /* \"Project.sol\":3741:3744  dep */\n      sload(0x02)\n        /* \"Project.sol\":3717:3726  balanceOf */\n      0x05\n        /* \"Project.sol\":3717:3738  balanceOf[msg.sender] */\n      0x00\n        /* \"Project.sol\":3727:3737  msg.sender */\n      caller\n        /* \"Project.sol\":3717:3738  balanceOf[msg.sender] */\n      0xffffffffffffffffffffffffffffffffffffffff\n      and\n      0xffffffffffffffffffffffffffffffffffffffff\n      and\n      dup2\n      mstore\n      0x20\n      add\n      swap1\n      dup2\n      mstore\n      0x20\n      add\n      0x00\n      keccak256\n      sload\n        /* \"Project.sol\":3717:3744  balanceOf[msg.sender] - dep */\n      tag_17\n      swap2\n      swap1\n      tag_18\n      jump\t// in\n    tag_17:\n        /* \"Project.sol\":3700:3744  uint256 amount = balanceOf[msg.sender] - dep */\n      swap1\n      pop\n        /* \"Project.sol\":3783:3786  dep */\n      sload(0x02)\n        /* \"Project.sol\":3759:3768  balanceOf */\n      0x05\n        /* \"Project.sol\":3759:3780  balanceOf[msg.sender] */\n      0x00\n        /* \"Project.sol\":3769:3779  msg.sender */\n      caller\n        /* \"Project.sol\":3759:3780  balanceOf[msg.sender] */\n      0xffffffffffffffffffffffffffffffffffffffff\n      and\n      0xffffffffffffffffffffffffffffffffffffffff\n      and\n      dup2\n      mstore\n      0x20\n      add\n      swap1\n      dup2\n      mstore\n      0x20\n      add\n      0x00\n      keccak256\n        /* \"Project.sol\":3759:3786  balanceOf[msg.sender] = dep */\n      dup2\n      swap1\n      sstore\n      pop\n        /* \"Project.sol\":3801:3810  bool sent */\n      0x00\n        /* \"Project.sol\":3821:3831  msg.sender */\n      caller\n        /* \"Project.sol\":3813:3837  payable(msg.sender).send */\n      0xffffffffffffffffffffffffffffffffffffffff\n      and\n        /* \"Project.sol\":3813:3845  payable(msg.sender).send(amount) */\n      0x08fc\n        /* \"Project.sol\":3838:3844  amount */\n      dup4\n        /* \"Project.sol\":3813:3845  payable(msg.sender).send(amount) */\n      swap1\n      dup2\n      iszero\n      mul\n      swap1\n      mload(0x40)\n      0x00\n      mload(0x40)\n      dup1\n      dup4\n      sub\n      dup2\n      dup6\n      dup9\n      dup9\n      call\n      swap4\n      pop\n      pop\n      pop\n      pop\n        /* \"Project.sol\":3801:3845  bool sent = payable(msg.sender).send(amount) */\n      swap1\n      pop\n        /* \"Project.sol\":3868:3872  sent */\n      dup1\n        /* \"Project.sol\":3860:3897  require(sent, \"Failed to send Ether\") */\n      tag_20\n      jumpi\n      mload(0x40)\n      0x08c379a000000000000000000000000000000000000000000000000000000000\n      dup2\n      mstore\n      0x04\n      add\n      tag_21\n      swap1\n      tag_22\n      jump\t// in\n    tag_21:\n      mload(0x40)\n      dup1\n      swap2\n      sub\n      swap1\n      revert\n    tag_20:\n        /* \"Project.sol\":3685:3909  {... */\n      pop\n      pop\n        /* \"Project.sol\":3653:3909  if (balanceOf[msg.sender] > dep){... */\n    tag_16:\n        /* \"Project.sol\":61:3919  contract TTTGame {... */\n      stop\n    tag_2:\n      0x00\n      dup1\n      revert\n        /* \"Project.sol\":263:284  bool public gameEnded */\n    tag_3:\n      callvalue\n      dup1\n      iszero\n      tag_23\n      jumpi\n      0x00\n      dup1\n      revert\n    tag_23:\n      pop\n      tag_24\n      tag_25\n      jump\t// in\n    tag_24:\n      mload(0x40)\n      tag_26\n      swap2\n      swap1\n      tag_27\n      jump\t// in\n    tag_26:\n      mload(0x40)\n      dup1\n      swap2\n      sub\n      swap1\n      return\n        /* \"Project.sol\":190:213  uint[] public gameState */\n    tag_4:\n      callvalue\n      dup1\n      iszero\n      tag_28\n      jumpi\n      0x00\n      dup1\n      revert\n    tag_28:\n      pop\n      tag_29\n      0x04\n      dup1\n      calldatasize\n      sub\n      dup2\n      add\n      swap1\n      tag_30\n      swap2\n      swap1\n      tag_31\n      jump\t// in\n    tag_30:\n      tag_32\n      jump\t// in\n    tag_29:\n      mload(0x40)\n      tag_33\n      swap2\n      swap1\n      tag_34\n      jump\t// in\n    tag_33:\n      mload(0x40)\n      dup1\n      swap2\n      sub\n      swap1\n      return\n        /* \"Project.sol\":293:337  mapping(address => uint256) public balanceOf */\n    tag_5:\n      callvalue\n      dup1\n      iszero\n      tag_35\n      jumpi\n      0x00\n      dup1\n      revert\n    tag_35:\n      pop\n      tag_36\n      0x04\n      dup1\n      calldatasize\n      sub\n      dup2\n      add\n      swap1\n      tag_37\n      swap2\n      swap1\n      tag_38\n      jump\t// in\n    tag_37:\n      tag_39\n      jump\t// in\n    tag_36:\n      mload(0x40)\n      tag_40\n      swap2\n      swap1\n      tag_34\n      jump\t// in\n    tag_40:\n      mload(0x40)\n      dup1\n      swap2\n      sub\n      swap1\n      return\n        /* \"Project.sol\":117:142  address payable public p2 */\n    tag_6:\n      callvalue\n      dup1\n      iszero\n      tag_41\n      jumpi\n      0x00\n      dup1\n      revert\n    tag_41:\n      pop\n      tag_42\n      tag_43\n      jump\t// in\n    tag_42:\n      mload(0x40)\n      tag_44\n      swap2\n      swap1\n      tag_45\n      jump\t// in\n    tag_44:\n      mload(0x40)\n      dup1\n      swap2\n      sub\n      swap1\n      return\n        /* \"Project.sol\":149:183  uint256 public dep = 0.00005 ether */\n    tag_7:\n      callvalue\n      dup1\n      iszero\n      tag_46\n      jumpi\n      0x00\n      dup1\n      revert\n    tag_46:\n      pop\n      tag_47\n      tag_48\n      jump\t// in\n    tag_47:\n      mload(0x40)\n      tag_49\n      swap2\n      swap1\n      tag_34\n      jump\t// in\n    tag_49:\n      mload(0x40)\n      dup1\n      swap2\n      sub\n      swap1\n      return\n        /* \"Project.sol\":220:236  bool public turn */\n    tag_8:\n      callvalue\n      dup1\n      iszero\n      tag_50\n      jumpi\n      0x00\n      dup1\n      revert\n    tag_50:\n      pop\n      tag_51\n      tag_52\n      jump\t// in\n    tag_51:\n      mload(0x40)\n      tag_53\n      swap2\n      swap1\n      tag_27\n      jump\t// in\n    tag_53:\n      mload(0x40)\n      dup1\n      swap2\n      sub\n      swap1\n      return\n        /* \"Project.sol\":577:1717  function makeTurn(uint[9] memory _turn) external {... */\n    tag_9:\n      callvalue\n      dup1\n      iszero\n      tag_54\n      jumpi\n      0x00\n      dup1\n      revert\n    tag_54:\n      pop\n      tag_55\n      0x04\n      dup1\n      calldatasize\n      sub\n      dup2\n      add\n      swap1\n      tag_56\n      swap2\n      swap1\n      tag_57\n      jump\t// in\n    tag_56:\n      tag_58\n      jump\t// in\n    tag_55:\n      stop\n        /* \"Project.sol\":85:110  address payable public p1 */\n    tag_10:\n      callvalue\n      dup1\n      iszero\n      tag_59\n      jumpi\n      0x00\n      dup1\n      revert\n    tag_59:\n      pop\n      tag_60\n      tag_61\n      jump\t// in\n    tag_60:\n      mload(0x40)\n      tag_62\n      swap2\n      swap1\n      tag_45\n      jump\t// in\n    tag_62:\n      mload(0x40)\n      dup1\n      swap2\n      sub\n      swap1\n      return\n        /* \"Project.sol\":263:284  bool public gameEnded */\n    tag_25:\n      0x04\n      0x01\n      swap1\n      sload\n      swap1\n      0x0100\n      exp\n      swap1\n      div\n      0xff\n      and\n      dup2\n      jump\t// out\n        /* \"Project.sol\":190:213  uint[] public gameState */\n    tag_32:\n      0x03\n      dup2\n      dup2\n      sload\n      dup2\n      lt\n      tag_63\n      jumpi\n      0x00\n      dup1\n      revert\n    tag_63:\n      swap1\n      0x00\n      mstore\n      keccak256(0x00, 0x20)\n      add\n      0x00\n      swap2\n      pop\n      swap1\n      pop\n      sload\n      dup2\n      jump\t// out\n        /* \"Project.sol\":293:337  mapping(address => uint256) public balanceOf */\n    tag_39:\n      mstore(0x20, 0x05)\n      dup1\n      0x00\n      mstore\n      keccak256(0x00, 0x40)\n      0x00\n      swap2\n      pop\n      swap1\n      pop\n      sload\n      dup2\n      jump\t// out\n        /* \"Project.sol\":117:142  address payable public p2 */\n    tag_43:\n      0x01\n      0x00\n      swap1\n      sload\n      swap1\n      0x0100\n      exp\n      swap1\n      div\n      0xffffffffffffffffffffffffffffffffffffffff\n      and\n      dup2\n      jump\t// out\n        /* \"Project.sol\":149:183  uint256 public dep = 0.00005 ether */\n    tag_48:\n      sload(0x02)\n      dup2\n      jump\t// out\n        /* \"Project.sol\":220:236  bool public turn */\n    tag_52:\n      0x04\n      0x00\n      swap1\n      sload\n      swap1\n      0x0100\n      exp\n      swap1\n      div\n      0xff\n      and\n      dup2\n      jump\t// out\n        /* \"Project.sol\":577:1717  function makeTurn(uint[9] memory _turn) external {... */\n    tag_58:\n        /* \"Project.sol\":646:655  gameEnded */\n      0x04\n      0x01\n      swap1\n      sload\n      swap1\n      0x0100\n      exp\n      swap1\n      div\n      0xff\n      and\n        /* \"Project.sol\":645:655  !gameEnded */\n      iszero\n        /* \"Project.sol\":637:674  require(!gameEnded, \"game has ended\") */\n      tag_66\n      jumpi\n      mload(0x40)\n      0x08c379a000000000000000000000000000000000000000000000000000000000\n      dup2\n      mstore\n      0x04\n      add\n      tag_67\n      swap1\n      tag_68\n      jump\t// in\n    tag_67:\n      mload(0x40)\n      dup1\n      swap2\n      sub\n      swap1\n      revert\n    tag_66:\n        /* \"Project.sol\":702:704  p1 */\n      0x00\n      dup1\n      sload\n      swap1\n      0x0100\n      exp\n      swap1\n      div\n      0xffffffffffffffffffffffffffffffffffffffff\n      and\n        /* \"Project.sol\":688:704  msg.sender == p1 */\n      0xffffffffffffffffffffffffffffffffffffffff\n      and\n        /* \"Project.sol\":688:698  msg.sender */\n      caller\n        /* \"Project.sol\":688:704  msg.sender == p1 */\n      0xffffffffffffffffffffffffffffffffffffffff\n      and\n      sub\n        /* \"Project.sol\":685:1193  if(msg.sender == p1) {... */\n      tag_69\n      jumpi\n        /* \"Project.sol\":746:749  dep */\n      sload(0x02)\n        /* \"Project.sol\":729:738  balanceOf */\n      0x05\n        /* \"Project.sol\":729:742  balanceOf[p1] */\n      0x00\n        /* \"Project.sol\":739:741  p1 */\n      dup1\n      0x00\n      swap1\n      sload\n      swap1\n      0x0100\n      exp\n      swap1\n      div\n      0xffffffffffffffffffffffffffffffffffffffff\n      and\n        /* \"Project.sol\":729:742  balanceOf[p1] */\n      0xffffffffffffffffffffffffffffffffffffffff\n      and\n      0xffffffffffffffffffffffffffffffffffffffff\n      and\n      dup2\n      mstore\n      0x20\n      add\n      swap1\n      dup2\n      mstore\n      0x20\n      add\n      0x00\n      keccak256\n      sload\n        /* \"Project.sol\":729:749  balanceOf[p1] == dep */\n      eq\n        /* \"Project.sol\":721:764  require(balanceOf[p1] == dep, \"no deposit\") */\n      tag_70\n      jumpi\n      mload(0x40)\n      0x08c379a000000000000000000000000000000000000000000000000000000000\n      dup2\n      mstore\n      0x04\n      add\n      tag_71\n      swap1\n      tag_72\n      jump\t// in\n    tag_71:\n      mload(0x40)\n      dup1\n      swap2\n      sub\n      swap1\n      revert\n    tag_70:\n        /* \"Project.sol\":788:792  turn */\n      0x04\n      0x00\n      swap1\n      sload\n      swap1\n      0x0100\n      exp\n      swap1\n      div\n      0xff\n      and\n        /* \"Project.sol\":787:792  !turn */\n      iszero\n        /* \"Project.sol\":779:810  require(!turn, \"not your turn\") */\n      tag_73\n      jumpi\n      mload(0x40)\n      0x08c379a000000000000000000000000000000000000000000000000000000000\n      dup2\n      mstore\n      0x04\n      add\n      tag_74\n      swap1\n      tag_75\n      jump\t// in\n    tag_74:\n      mload(0x40)\n      dup1\n      swap2\n      sub\n      swap1\n      revert\n    tag_73:\n        /* \"Project.sol\":825:835  uint place */\n      0x00\n        /* \"Project.sol\":859:865  uint i */\n      dup1\n        /* \"Project.sol\":855:1015  for(uint i = 0; i < 9; i++){... */\n    tag_76:\n        /* \"Project.sol\":875:876  9 */\n      0x09\n        /* \"Project.sol\":871:872  i */\n      dup2\n        /* \"Project.sol\":871:876  i < 9 */\n      lt\n        /* \"Project.sol\":855:1015  for(uint i = 0; i < 9; i++){... */\n      iszero\n      tag_77\n      jumpi\n        /* \"Project.sol\":917:918  0 */\n      0x00\n        /* \"Project.sol\":905:910  _turn */\n      dup4\n        /* \"Project.sol\":911:912  i */\n      dup3\n        /* \"Project.sol\":905:913  _turn[i] */\n      0x09\n      dup2\n      lt\n      tag_79\n      jumpi\n      tag_80\n      tag_81\n      jump\t// in\n    tag_80:\n    tag_79:\n      0x20\n      mul\n      add\n      mload\n        /* \"Project.sol\":905:918  _turn[i] != 0 */\n      eq\n        /* \"Project.sol\":901:1000  if (_turn[i] != 0) {... */\n      tag_82\n      jumpi\n        /* \"Project.sol\":951:952  i */\n      dup1\n        /* \"Project.sol\":943:952  place = i */\n      swap2\n      pop\n        /* \"Project.sol\":975:980  break */\n      jump(tag_77)\n        /* \"Project.sol\":901:1000  if (_turn[i] != 0) {... */\n    tag_82:\n        /* \"Project.sol\":878:881  i++ */\n      dup1\n      dup1\n      0x01\n      add\n      swap2\n      pop\n      pop\n        /* \"Project.sol\":855:1015  for(uint i = 0; i < 9; i++){... */\n      jump(tag_76)\n    tag_77:\n      pop\n        /* \"Project.sol\":1057:1058  0 */\n      0x00\n        /* \"Project.sol\":1037:1046  gameState */\n      0x03\n        /* \"Project.sol\":1047:1052  place */\n      dup3\n        /* \"Project.sol\":1037:1053  gameState[place] */\n      dup2\n      sload\n      dup2\n      lt\n      tag_83\n      jumpi\n      tag_84\n      tag_81\n      jump\t// in\n    tag_84:\n    tag_83:\n      swap1\n      0x00\n      mstore\n      keccak256(0x00, 0x20)\n      add\n      sload\n        /* \"Project.sol\":1037:1058  gameState[place] == 0 */\n      eq\n        /* \"Project.sol\":1029:1088  require(gameState[place] == 0, \"this tile is already used\") */\n      tag_86\n      jumpi\n      mload(0x40)\n      0x08c379a000000000000000000000000000000000000000000000000000000000\n      dup2\n      mstore\n      0x04\n      add\n      tag_87\n      swap1\n      tag_88\n      jump\t// in\n    tag_87:\n      mload(0x40)\n      dup1\n      swap2\n      sub\n      swap1\n      revert\n    tag_86:\n        /* \"Project.sol\":1122:1123  1 */\n      0x01\n        /* \"Project.sol\":1103:1112  gameState */\n      0x03\n        /* \"Project.sol\":1113:1118  place */\n      dup3\n        /* \"Project.sol\":1103:1119  gameState[place] */\n      dup2\n      sload\n      dup2\n      lt\n      tag_89\n      jumpi\n      tag_90\n      tag_81\n      jump\t// in\n    tag_90:\n    tag_89:\n      swap1\n      0x00\n      mstore\n      keccak256(0x00, 0x20)\n      add\n        /* \"Project.sol\":1103:1123  gameState[place] = 1 */\n      dup2\n      swap1\n      sstore\n      pop\n        /* \"Project.sol\":1146:1150  turn */\n      0x04\n      0x00\n      swap1\n      sload\n      swap1\n      0x0100\n      exp\n      swap1\n      div\n      0xff\n      and\n        /* \"Project.sol\":1145:1150  !turn */\n      iszero\n        /* \"Project.sol\":1138:1142  turn */\n      0x04\n      0x00\n        /* \"Project.sol\":1138:1150  turn = !turn */\n      0x0100\n      exp\n      dup2\n      sload\n      dup2\n      0xff\n      mul\n      not\n      and\n      swap1\n      dup4\n      iszero\n      iszero\n      mul\n      or\n      swap1\n      sstore\n      pop\n        /* \"Project.sol\":1165:1181  _checkWin(p1, 1) */\n      tag_92\n        /* \"Project.sol\":1175:1177  p1 */\n      0x00\n      dup1\n      sload\n      swap1\n      0x0100\n      exp\n      swap1\n      div\n      0xffffffffffffffffffffffffffffffffffffffff\n      and\n        /* \"Project.sol\":1179:1180  1 */\n      0x01\n        /* \"Project.sol\":1165:1174  _checkWin */\n      tag_93\n        /* \"Project.sol\":1165:1181  _checkWin(p1, 1) */\n      jump\t// in\n    tag_92:\n        /* \"Project.sol\":706:1193  {... */\n      pop\n        /* \"Project.sol\":685:1193  if(msg.sender == p1) {... */\n    tag_69:\n        /* \"Project.sol\":1220:1222  p2 */\n      0x01\n      0x00\n      swap1\n      sload\n      swap1\n      0x0100\n      exp\n      swap1\n      div\n      0xffffffffffffffffffffffffffffffffffffffff\n      and\n        /* \"Project.sol\":1206:1222  msg.sender == p2 */\n      0xffffffffffffffffffffffffffffffffffffffff\n      and\n        /* \"Project.sol\":1206:1216  msg.sender */\n      caller\n        /* \"Project.sol\":1206:1222  msg.sender == p2 */\n      0xffffffffffffffffffffffffffffffffffffffff\n      and\n      sub\n        /* \"Project.sol\":1203:1710  if(msg.sender == p2) {... */\n      tag_94\n      jumpi\n        /* \"Project.sol\":1264:1267  dep */\n      sload(0x02)\n        /* \"Project.sol\":1247:1256  balanceOf */\n      0x05\n        /* \"Project.sol\":1247:1260  balanceOf[p2] */\n      0x00\n        /* \"Project.sol\":1257:1259  p2 */\n      0x01\n      0x00\n      swap1\n      sload\n      swap1\n      0x0100\n      exp\n      swap1\n      div\n      0xffffffffffffffffffffffffffffffffffffffff\n      and\n        /* \"Project.sol\":1247:1260  balanceOf[p2] */\n      0xffffffffffffffffffffffffffffffffffffffff\n      and\n      0xffffffffffffffffffffffffffffffffffffffff\n      and\n      dup2\n      mstore\n      0x20\n      add\n      swap1\n      dup2\n      mstore\n      0x20\n      add\n      0x00\n      keccak256\n      sload\n        /* \"Project.sol\":1247:1267  balanceOf[p2] == dep */\n      eq\n        /* \"Project.sol\":1239:1282  require(balanceOf[p2] == dep, \"no deposit\") */\n      tag_95\n      jumpi\n      mload(0x40)\n      0x08c379a000000000000000000000000000000000000000000000000000000000\n      dup2\n      mstore\n      0x04\n      add\n      tag_96\n      swap1\n      tag_72\n      jump\t// in\n    tag_96:\n      mload(0x40)\n      dup1\n      swap2\n      sub\n      swap1\n      revert\n    tag_95:\n        /* \"Project.sol\":1305:1309  turn */\n      0x04\n      0x00\n      swap1\n      sload\n      swap1\n      0x0100\n      exp\n      swap1\n      div\n      0xff\n      and\n        /* \"Project.sol\":1297:1327  require(turn, \"not your turn\") */\n      tag_97\n      jumpi\n      mload(0x40)\n      0x08c379a000000000000000000000000000000000000000000000000000000000\n      dup2\n      mstore\n      0x04\n      add\n      tag_98\n      swap1\n      tag_75\n      jump\t// in\n    tag_98:\n      mload(0x40)\n      dup1\n      swap2\n      sub\n      swap1\n      revert\n    tag_97:\n        /* \"Project.sol\":1342:1352  uint place */\n      0x00\n        /* \"Project.sol\":1376:1382  uint i */\n      dup1\n        /* \"Project.sol\":1372:1532  for(uint i = 0; i < 9; i++){... */\n    tag_99:\n        /* \"Project.sol\":1392:1393  9 */\n      0x09\n        /* \"Project.sol\":1388:1389  i */\n      dup2\n        /* \"Project.sol\":1388:1393  i < 9 */\n      lt\n        /* \"Project.sol\":1372:1532  for(uint i = 0; i < 9; i++){... */\n      iszero\n      tag_100\n      jumpi\n        /* \"Project.sol\":1434:1435  0 */\n      0x00\n        /* \"Project.sol\":1422:1427  _turn */\n      dup4\n        /* \"Project.sol\":1428:1429  i */\n      dup3\n        /* \"Project.sol\":1422:1430  _turn[i] */\n      0x09\n      dup2\n      lt\n      tag_102\n      jumpi\n      tag_103\n      tag_81\n      jump\t// in\n    tag_103:\n    tag_102:\n      0x20\n      mul\n      add\n      mload\n        /* \"Project.sol\":1422:1435  _turn[i] != 0 */\n      eq\n        /* \"Project.sol\":1418:1517  if (_turn[i] != 0) {... */\n      tag_104\n      jumpi\n        /* \"Project.sol\":1468:1469  i */\n      dup1\n        /* \"Project.sol\":1460:1469  place = i */\n      swap2\n      pop\n        /* \"Project.sol\":1492:1497  break */\n      jump(tag_100)\n        /* \"Project.sol\":1418:1517  if (_turn[i] != 0) {... */\n    tag_104:\n        /* \"Project.sol\":1395:1398  i++ */\n      dup1\n      dup1\n      0x01\n      add\n      swap2\n      pop\n      pop\n        /* \"Project.sol\":1372:1532  for(uint i = 0; i < 9; i++){... */\n      jump(tag_99)\n    tag_100:\n      pop\n        /* \"Project.sol\":1574:1575  0 */\n      0x00\n        /* \"Project.sol\":1554:1563  gameState */\n      0x03\n        /* \"Project.sol\":1564:1569  place */\n      dup3\n        /* \"Project.sol\":1554:1570  gameState[place] */\n      dup2\n      sload\n      dup2\n      lt\n      tag_105\n      jumpi\n      tag_106\n      tag_81\n      jump\t// in\n    tag_106:\n    tag_105:\n      swap1\n      0x00\n      mstore\n      keccak256(0x00, 0x20)\n      add\n      sload\n        /* \"Project.sol\":1554:1575  gameState[place] == 0 */\n      eq\n        /* \"Project.sol\":1546:1605  require(gameState[place] == 0, \"this tile is already used\") */\n      tag_108\n      jumpi\n      mload(0x40)\n      0x08c379a000000000000000000000000000000000000000000000000000000000\n      dup2\n      mstore\n      0x04\n      add\n      tag_109\n      swap1\n      tag_88\n      jump\t// in\n    tag_109:\n      mload(0x40)\n      dup1\n      swap2\n      sub\n      swap1\n      revert\n    tag_108:\n        /* \"Project.sol\":1639:1640  2 */\n      0x02\n        /* \"Project.sol\":1620:1629  gameState */\n      0x03\n        /* \"Project.sol\":1630:1635  place */\n      dup3\n        /* \"Project.sol\":1620:1636  gameState[place] */\n      dup2\n      sload\n      dup2\n      lt\n      tag_110\n      jumpi\n      tag_111\n      tag_81\n      jump\t// in\n    tag_111:\n    tag_110:\n      swap1\n      0x00\n      mstore\n      keccak256(0x00, 0x20)\n      add\n        /* \"Project.sol\":1620:1640  gameState[place] = 2 */\n      dup2\n      swap1\n      sstore\n      pop\n        /* \"Project.sol\":1663:1667  turn */\n      0x04\n      0x00\n      swap1\n      sload\n      swap1\n      0x0100\n      exp\n      swap1\n      div\n      0xff\n      and\n        /* \"Project.sol\":1662:1667  !turn */\n      iszero\n        /* \"Project.sol\":1655:1659  turn */\n      0x04\n      0x00\n        /* \"Project.sol\":1655:1667  turn = !turn */\n      0x0100\n      exp\n      dup2\n      sload\n      dup2\n      0xff\n      mul\n      not\n      and\n      swap1\n      dup4\n      iszero\n      iszero\n      mul\n      or\n      swap1\n      sstore\n      pop\n        /* \"Project.sol\":1682:1698  _checkWin(p2, 2) */\n      tag_113\n        /* \"Project.sol\":1692:1694  p2 */\n      0x01\n      0x00\n      swap1\n      sload\n      swap1\n      0x0100\n      exp\n      swap1\n      div\n      0xffffffffffffffffffffffffffffffffffffffff\n      and\n        /* \"Project.sol\":1696:1697  2 */\n      0x02\n        /* \"Project.sol\":1682:1691  _checkWin */\n      tag_93\n        /* \"Project.sol\":1682:1698  _checkWin(p2, 2) */\n      jump\t// in\n    tag_113:\n        /* \"Project.sol\":1224:1710  {... */\n      pop\n        /* \"Project.sol\":1203:1710  if(msg.sender == p2) {... */\n    tag_94:\n        /* \"Project.sol\":577:1717  function makeTurn(uint[9] memory _turn) external {... */\n      pop\n      jump\t// out\n        /* \"Project.sol\":85:110  address payable public p1 */\n    tag_61:\n      0x00\n      dup1\n      sload\n      swap1\n      0x0100\n      exp\n      swap1\n      div\n      0xffffffffffffffffffffffffffffffffffffffff\n      and\n      dup2\n      jump\t// out\n        /* \"Project.sol\":1725:3112  function _checkWin(address _win, uint val) internal {... */\n    tag_93:\n        /* \"Project.sol\":1832:1835  val */\n      dup1\n        /* \"Project.sol\":1816:1825  gameState */\n      0x03\n        /* \"Project.sol\":1826:1827  0 */\n      0x00\n        /* \"Project.sol\":1816:1828  gameState[0] */\n      dup2\n      sload\n      dup2\n      lt\n      tag_115\n      jumpi\n      tag_116\n      tag_81\n      jump\t// in\n    tag_116:\n    tag_115:\n      swap1\n      0x00\n      mstore\n      keccak256(0x00, 0x20)\n      add\n      sload\n        /* \"Project.sol\":1816:1835  gameState[0] == val */\n      eq\n        /* \"Project.sol\":1815:1861  (gameState[0] == val) && (gameState[1] == val) */\n      dup1\n      iszero\n      tag_118\n      jumpi\n      pop\n        /* \"Project.sol\":1857:1860  val */\n      dup1\n        /* \"Project.sol\":1841:1850  gameState */\n      0x03\n        /* \"Project.sol\":1851:1852  1 */\n      0x01\n        /* \"Project.sol\":1841:1853  gameState[1] */\n      dup2\n      sload\n      dup2\n      lt\n      tag_119\n      jumpi\n      tag_120\n      tag_81\n      jump\t// in\n    tag_120:\n    tag_119:\n      swap1\n      0x00\n      mstore\n      keccak256(0x00, 0x20)\n      add\n      sload\n        /* \"Project.sol\":1841:1860  gameState[1] == val */\n      eq\n        /* \"Project.sol\":1815:1861  (gameState[0] == val) && (gameState[1] == val) */\n    tag_118:\n        /* \"Project.sol\":1815:1886  (gameState[0] == val) && (gameState[1] == val) && (gameState[2] == val) */\n      dup1\n      iszero\n      tag_122\n      jumpi\n      pop\n        /* \"Project.sol\":1882:1885  val */\n      dup1\n        /* \"Project.sol\":1866:1875  gameState */\n      0x03\n        /* \"Project.sol\":1876:1877  2 */\n      0x02\n        /* \"Project.sol\":1866:1878  gameState[2] */\n      dup2\n      sload\n      dup2\n      lt\n      tag_123\n      jumpi\n      tag_124\n      tag_81\n      jump\t// in\n    tag_124:\n    tag_123:\n      swap1\n      0x00\n      mstore\n      keccak256(0x00, 0x20)\n      add\n      sload\n        /* \"Project.sol\":1866:1885  gameState[2] == val */\n      eq\n        /* \"Project.sol\":1815:1886  (gameState[0] == val) && (gameState[1] == val) && (gameState[2] == val) */\n    tag_122:\n        /* \"Project.sol\":1811:1928  if ((gameState[0] == val) && (gameState[1] == val) && (gameState[2] == val)){... */\n      iszero\n      tag_126\n      jumpi\n        /* \"Project.sol\":1902:1916  _endGame(_win) */\n      tag_127\n        /* \"Project.sol\":1911:1915  _win */\n      dup3\n        /* \"Project.sol\":1902:1910  _endGame */\n      tag_128\n        /* \"Project.sol\":1902:1916  _endGame(_win) */\n      jump\t// in\n    tag_127:\n        /* \"Project.sol\":1811:1928  if ((gameState[0] == val) && (gameState[1] == val) && (gameState[2] == val)){... */\n    tag_126:\n        /* \"Project.sol\":1959:1962  val */\n      dup1\n        /* \"Project.sol\":1943:1952  gameState */\n      0x03\n        /* \"Project.sol\":1953:1954  4 */\n      0x04\n        /* \"Project.sol\":1943:1955  gameState[4] */\n      dup2\n      sload\n      dup2\n      lt\n      tag_129\n      jumpi\n      tag_130\n      tag_81\n      jump\t// in\n    tag_130:\n    tag_129:\n      swap1\n      0x00\n      mstore\n      keccak256(0x00, 0x20)\n      add\n      sload\n        /* \"Project.sol\":1943:1962  gameState[4] == val */\n      eq\n        /* \"Project.sol\":1942:1988  (gameState[4] == val) && (gameState[5] == val) */\n      dup1\n      iszero\n      tag_132\n      jumpi\n      pop\n        /* \"Project.sol\":1984:1987  val */\n      dup1\n        /* \"Project.sol\":1968:1977  gameState */\n      0x03\n        /* \"Project.sol\":1978:1979  5 */\n      0x05\n        /* \"Project.sol\":1968:1980  gameState[5] */\n      dup2\n      sload\n      dup2\n      lt\n      tag_133\n      jumpi\n      tag_134\n      tag_81\n      jump\t// in\n    tag_134:\n    tag_133:\n      swap1\n      0x00\n      mstore\n      keccak256(0x00, 0x20)\n      add\n      sload\n        /* \"Project.sol\":1968:1987  gameState[5] == val */\n      eq\n        /* \"Project.sol\":1942:1988  (gameState[4] == val) && (gameState[5] == val) */\n    tag_132:\n        /* \"Project.sol\":1942:2013  (gameState[4] == val) && (gameState[5] == val) && (gameState[6] == val) */\n      dup1\n      iszero\n      tag_136\n      jumpi\n      pop\n        /* \"Project.sol\":2009:2012  val */\n      dup1\n        /* \"Project.sol\":1993:2002  gameState */\n      0x03\n        /* \"Project.sol\":2003:2004  6 */\n      0x06\n        /* \"Project.sol\":1993:2005  gameState[6] */\n      dup2\n      sload\n      dup2\n      lt\n      tag_137\n      jumpi\n      tag_138\n      tag_81\n      jump\t// in\n    tag_138:\n    tag_137:\n      swap1\n      0x00\n      mstore\n      keccak256(0x00, 0x20)\n      add\n      sload\n        /* \"Project.sol\":1993:2012  gameState[6] == val */\n      eq\n        /* \"Project.sol\":1942:2013  (gameState[4] == val) && (gameState[5] == val) && (gameState[6] == val) */\n    tag_136:\n        /* \"Project.sol\":1938:2055  if ((gameState[4] == val) && (gameState[5] == val) && (gameState[6] == val)){... */\n      iszero\n      tag_140\n      jumpi\n        /* \"Project.sol\":2029:2043  _endGame(_win) */\n      tag_141\n        /* \"Project.sol\":2038:2042  _win */\n      dup3\n        /* \"Project.sol\":2029:2037  _endGame */\n      tag_128\n        /* \"Project.sol\":2029:2043  _endGame(_win) */\n      jump\t// in\n    tag_141:\n        /* \"Project.sol\":1938:2055  if ((gameState[4] == val) && (gameState[5] == val) && (gameState[6] == val)){... */\n    tag_140:\n        /* \"Project.sol\":2086:2089  val */\n      dup1\n        /* \"Project.sol\":2070:2079  gameState */\n      0x03\n        /* \"Project.sol\":2080:2081  7 */\n      0x07\n        /* \"Project.sol\":2070:2082  gameState[7] */\n      dup2\n      sload\n      dup2\n      lt\n      tag_142\n      jumpi\n      tag_143\n      tag_81\n      jump\t// in\n    tag_143:\n    tag_142:\n      swap1\n      0x00\n      mstore\n      keccak256(0x00, 0x20)\n      add\n      sload\n        /* \"Project.sol\":2070:2089  gameState[7] == val */\n      eq\n        /* \"Project.sol\":2069:2115  (gameState[7] == val) && (gameState[8] == val) */\n      dup1\n      iszero\n      tag_145\n      jumpi\n      pop\n        /* \"Project.sol\":2111:2114  val */\n      dup1\n        /* \"Project.sol\":2095:2104  gameState */\n      0x03\n        /* \"Project.sol\":2105:2106  8 */\n      0x08\n        /* \"Project.sol\":2095:2107  gameState[8] */\n      dup2\n      sload\n      dup2\n      lt\n      tag_146\n      jumpi\n      tag_147\n      tag_81\n      jump\t// in\n    tag_147:\n    tag_146:\n      swap1\n      0x00\n      mstore\n      keccak256(0x00, 0x20)\n      add\n      sload\n        /* \"Project.sol\":2095:2114  gameState[8] == val */\n      eq\n        /* \"Project.sol\":2069:2115  (gameState[7] == val) && (gameState[8] == val) */\n    tag_145:\n        /* \"Project.sol\":2069:2140  (gameState[7] == val) && (gameState[8] == val) && (gameState[9] == val) */\n      dup1\n      iszero\n      tag_149\n      jumpi\n      pop\n        /* \"Project.sol\":2136:2139  val */\n      dup1\n        /* \"Project.sol\":2120:2129  gameState */\n      0x03\n        /* \"Project.sol\":2130:2131  9 */\n      0x09\n        /* \"Project.sol\":2120:2132  gameState[9] */\n      dup2\n      sload\n      dup2\n      lt\n      tag_150\n      jumpi\n      tag_151\n      tag_81\n      jump\t// in\n    tag_151:\n    tag_150:\n      swap1\n      0x00\n      mstore\n      keccak256(0x00, 0x20)\n      add\n      sload\n        /* \"Project.sol\":2120:2139  gameState[9] == val */\n      eq\n        /* \"Project.sol\":2069:2140  (gameState[7] == val) && (gameState[8] == val) && (gameState[9] == val) */\n    tag_149:\n        /* \"Project.sol\":2065:2182  if ((gameState[7] == val) && (gameState[8] == val) && (gameState[9] == val)){... */\n      iszero\n      tag_153\n      jumpi\n        /* \"Project.sol\":2156:2170  _endGame(_win) */\n      tag_154\n        /* \"Project.sol\":2165:2169  _win */\n      dup3\n        /* \"Project.sol\":2156:2164  _endGame */\n      tag_128\n        /* \"Project.sol\":2156:2170  _endGame(_win) */\n      jump\t// in\n    tag_154:\n        /* \"Project.sol\":2065:2182  if ((gameState[7] == val) && (gameState[8] == val) && (gameState[9] == val)){... */\n    tag_153:\n        /* \"Project.sol\":2234:2237  val */\n      dup1\n        /* \"Project.sol\":2218:2227  gameState */\n      0x03\n        /* \"Project.sol\":2228:2229  0 */\n      0x00\n        /* \"Project.sol\":2218:2230  gameState[0] */\n      dup2\n      sload\n      dup2\n      lt\n      tag_155\n      jumpi\n      tag_156\n      tag_81\n      jump\t// in\n    tag_156:\n    tag_155:\n      swap1\n      0x00\n      mstore\n      keccak256(0x00, 0x20)\n      add\n      sload\n        /* \"Project.sol\":2218:2237  gameState[0] == val */\n      eq\n        /* \"Project.sol\":2217:2263  (gameState[0] == val) && (gameState[3] == val) */\n      dup1\n      iszero\n      tag_158\n      jumpi\n      pop\n        /* \"Project.sol\":2259:2262  val */\n      dup1\n        /* \"Project.sol\":2243:2252  gameState */\n      0x03\n        /* \"Project.sol\":2253:2254  3 */\n      dup1\n        /* \"Project.sol\":2243:2255  gameState[3] */\n      dup2\n      sload\n      dup2\n      lt\n      tag_159\n      jumpi\n      tag_160\n      tag_81\n      jump\t// in\n    tag_160:\n    tag_159:\n      swap1\n      0x00\n      mstore\n      keccak256(0x00, 0x20)\n      add\n      sload\n        /* \"Project.sol\":2243:2262  gameState[3] == val */\n      eq\n        /* \"Project.sol\":2217:2263  (gameState[0] == val) && (gameState[3] == val) */\n    tag_158:\n        /* \"Project.sol\":2217:2288  (gameState[0] == val) && (gameState[3] == val) && (gameState[6] == val) */\n      dup1\n      iszero\n      tag_162\n      jumpi\n      pop\n        /* \"Project.sol\":2284:2287  val */\n      dup1\n        /* \"Project.sol\":2268:2277  gameState */\n      0x03\n        /* \"Project.sol\":2278:2279  6 */\n      0x06\n        /* \"Project.sol\":2268:2280  gameState[6] */\n      dup2\n      sload\n      dup2\n      lt\n      tag_163\n      jumpi\n      tag_164\n      tag_81\n      jump\t// in\n    tag_164:\n    tag_163:\n      swap1\n      0x00\n      mstore\n      keccak256(0x00, 0x20)\n      add\n      sload\n        /* \"Project.sol\":2268:2287  gameState[6] == val */\n      eq\n        /* \"Project.sol\":2217:2288  (gameState[0] == val) && (gameState[3] == val) && (gameState[6] == val) */\n    tag_162:\n        /* \"Project.sol\":2213:2330  if ((gameState[0] == val) && (gameState[3] == val) && (gameState[6] == val)){... */\n      iszero\n      tag_166\n      jumpi\n        /* \"Project.sol\":2304:2318  _endGame(_win) */\n      tag_167\n        /* \"Project.sol\":2313:2317  _win */\n      dup3\n        /* \"Project.sol\":2304:2312  _endGame */\n      tag_128\n        /* \"Project.sol\":2304:2318  _endGame(_win) */\n      jump\t// in\n    tag_167:\n        /* \"Project.sol\":2213:2330  if ((gameState[0] == val) && (gameState[3] == val) && (gameState[6] == val)){... */\n    tag_166:\n        /* \"Project.sol\":2361:2364  val */\n      dup1\n        /* \"Project.sol\":2345:2354  gameState */\n      0x03\n        /* \"Project.sol\":2355:2356  1 */\n      0x01\n        /* \"Project.sol\":2345:2357  gameState[1] */\n      dup2\n      sload\n      dup2\n      lt\n      tag_168\n      jumpi\n      tag_169\n      tag_81\n      jump\t// in\n    tag_169:\n    tag_168:\n      swap1\n      0x00\n      mstore\n      keccak256(0x00, 0x20)\n      add\n      sload\n        /* \"Project.sol\":2345:2364  gameState[1] == val */\n      eq\n        /* \"Project.sol\":2344:2390  (gameState[1] == val) && (gameState[4] == val) */\n      dup1\n      iszero\n      tag_171\n      jumpi\n      pop\n        /* \"Project.sol\":2386:2389  val */\n      dup1\n        /* \"Project.sol\":2370:2379  gameState */\n      0x03\n        /* \"Project.sol\":2380:2381  4 */\n      0x04\n        /* \"Project.sol\":2370:2382  gameState[4] */\n      dup2\n      sload\n      dup2\n      lt\n      tag_172\n      jumpi\n      tag_173\n      tag_81\n      jump\t// in\n    tag_173:\n    tag_172:\n      swap1\n      0x00\n      mstore\n      keccak256(0x00, 0x20)\n      add\n      sload\n        /* \"Project.sol\":2370:2389  gameState[4] == val */\n      eq\n        /* \"Project.sol\":2344:2390  (gameState[1] == val) && (gameState[4] == val) */\n    tag_171:\n        /* \"Project.sol\":2344:2415  (gameState[1] == val) && (gameState[4] == val) && (gameState[7] == val) */\n      dup1\n      iszero\n      tag_175\n      jumpi\n      pop\n        /* \"Project.sol\":2411:2414  val */\n      dup1\n        /* \"Project.sol\":2395:2404  gameState */\n      0x03\n        /* \"Project.sol\":2405:2406  7 */\n      0x07\n        /* \"Project.sol\":2395:2407  gameState[7] */\n      dup2\n      sload\n      dup2\n      lt\n      tag_176\n      jumpi\n      tag_177\n      tag_81\n      jump\t// in\n    tag_177:\n    tag_176:\n      swap1\n      0x00\n      mstore\n      keccak256(0x00, 0x20)\n      add\n      sload\n        /* \"Project.sol\":2395:2414  gameState[7] == val */\n      eq\n        /* \"Project.sol\":2344:2415  (gameState[1] == val) && (gameState[4] == val) && (gameState[7] == val) */\n    tag_175:\n        /* \"Project.sol\":2340:2457  if ((gameState[1] == val) && (gameState[4] == val) && (gameState[7] == val)){... */\n      iszero\n      tag_179\n      jumpi\n        /* \"Project.sol\":2431:2445  _endGame(_win) */\n      tag_180\n        /* \"Project.sol\":2440:2444  _win */\n      dup3\n        /* \"Project.sol\":2431:2439  _endGame */\n      tag_128\n        /* \"Project.sol\":2431:2445  _endGame(_win) */\n      jump\t// in\n    tag_180:\n        /* \"Project.sol\":2340:2457  if ((gameState[1] == val) && (gameState[4] == val) && (gameState[7] == val)){... */\n    tag_179:\n        /* \"Project.sol\":2488:2491  val */\n      dup1\n        /* \"Project.sol\":2472:2481  gameState */\n      0x03\n        /* \"Project.sol\":2482:2483  2 */\n      0x02\n        /* \"Project.sol\":2472:2484  gameState[2] */\n      dup2\n      sload\n      dup2\n      lt\n      tag_181\n      jumpi\n      tag_182\n      tag_81\n      jump\t// in\n    tag_182:\n    tag_181:\n      swap1\n      0x00\n      mstore\n      keccak256(0x00, 0x20)\n      add\n      sload\n        /* \"Project.sol\":2472:2491  gameState[2] == val */\n      eq\n        /* \"Project.sol\":2471:2517  (gameState[2] == val) && (gameState[5] == val) */\n      dup1\n      iszero\n      tag_184\n      jumpi\n      pop\n        /* \"Project.sol\":2513:2516  val */\n      dup1\n        /* \"Project.sol\":2497:2506  gameState */\n      0x03\n        /* \"Project.sol\":2507:2508  5 */\n      0x05\n        /* \"Project.sol\":2497:2509  gameState[5] */\n      dup2\n      sload\n      dup2\n      lt\n      tag_185\n      jumpi\n      tag_186\n      tag_81\n      jump\t// in\n    tag_186:\n    tag_185:\n      swap1\n      0x00\n      mstore\n      keccak256(0x00, 0x20)\n      add\n      sload\n        /* \"Project.sol\":2497:2516  gameState[5] == val */\n      eq\n        /* \"Project.sol\":2471:2517  (gameState[2] == val) && (gameState[5] == val) */\n    tag_184:\n        /* \"Project.sol\":2471:2542  (gameState[2] == val) && (gameState[5] == val) && (gameState[8] == val) */\n      dup1\n      iszero\n      tag_188\n      jumpi\n      pop\n        /* \"Project.sol\":2538:2541  val */\n      dup1\n        /* \"Project.sol\":2522:2531  gameState */\n      0x03\n        /* \"Project.sol\":2532:2533  8 */\n      0x08\n        /* \"Project.sol\":2522:2534  gameState[8] */\n      dup2\n      sload\n      dup2\n      lt\n      tag_189\n      jumpi\n      tag_190\n      tag_81\n      jump\t// in\n    tag_190:\n    tag_189:\n      swap1\n      0x00\n      mstore\n      keccak256(0x00, 0x20)\n      add\n      sload\n        /* \"Project.sol\":2522:2541  gameState[8] == val */\n      eq\n        /* \"Project.sol\":2471:2542  (gameState[2] == val) && (gameState[5] == val) && (gameState[8] == val) */\n    tag_188:\n        /* \"Project.sol\":2467:2584  if ((gameState[2] == val) && (gameState[5] == val) && (gameState[8] == val)){... */\n      iszero\n      tag_192\n      jumpi\n        /* \"Project.sol\":2558:2572  _endGame(_win) */\n      tag_193\n        /* \"Project.sol\":2567:2571  _win */\n      dup3\n        /* \"Project.sol\":2558:2566  _endGame */\n      tag_128\n        /* \"Project.sol\":2558:2572  _endGame(_win) */\n      jump\t// in\n    tag_193:\n        /* \"Project.sol\":2467:2584  if ((gameState[2] == val) && (gameState[5] == val) && (gameState[8] == val)){... */\n    tag_192:\n        /* \"Project.sol\":2631:2634  val */\n      dup1\n        /* \"Project.sol\":2615:2624  gameState */\n      0x03\n        /* \"Project.sol\":2625:2626  0 */\n      0x00\n        /* \"Project.sol\":2615:2627  gameState[0] */\n      dup2\n      sload\n      dup2\n      lt\n      tag_194\n      jumpi\n      tag_195\n      tag_81\n      jump\t// in\n    tag_195:\n    tag_194:\n      swap1\n      0x00\n      mstore\n      keccak256(0x00, 0x20)\n      add\n      sload\n        /* \"Project.sol\":2615:2634  gameState[0] == val */\n      eq\n        /* \"Project.sol\":2614:2660  (gameState[0] == val) && (gameState[4] == val) */\n      dup1\n      iszero\n      tag_197\n      jumpi\n      pop\n        /* \"Project.sol\":2656:2659  val */\n      dup1\n        /* \"Project.sol\":2640:2649  gameState */\n      0x03\n        /* \"Project.sol\":2650:2651  4 */\n      0x04\n        /* \"Project.sol\":2640:2652  gameState[4] */\n      dup2\n      sload\n      dup2\n      lt\n      tag_198\n      jumpi\n      tag_199\n      tag_81\n      jump\t// in\n    tag_199:\n    tag_198:\n      swap1\n      0x00\n      mstore\n      keccak256(0x00, 0x20)\n      add\n      sload\n        /* \"Project.sol\":2640:2659  gameState[4] == val */\n      eq\n        /* \"Project.sol\":2614:2660  (gameState[0] == val) && (gameState[4] == val) */\n    tag_197:\n        /* \"Project.sol\":2614:2685  (gameState[0] == val) && (gameState[4] == val) && (gameState[8] == val) */\n      dup1\n      iszero\n      tag_201\n      jumpi\n      pop\n        /* \"Project.sol\":2681:2684  val */\n      dup1\n        /* \"Project.sol\":2665:2674  gameState */\n      0x03\n        /* \"Project.sol\":2675:2676  8 */\n      0x08\n        /* \"Project.sol\":2665:2677  gameState[8] */\n      dup2\n      sload\n      dup2\n      lt\n      tag_202\n      jumpi\n      tag_203\n      tag_81\n      jump\t// in\n    tag_203:\n    tag_202:\n      swap1\n      0x00\n      mstore\n      keccak256(0x00, 0x20)\n      add\n      sload\n        /* \"Project.sol\":2665:2684  gameState[8] == val */\n      eq\n        /* \"Project.sol\":2614:2685  (gameState[0] == val) && (gameState[4] == val) && (gameState[8] == val) */\n    tag_201:\n        /* \"Project.sol\":2610:2727  if ((gameState[0] == val) && (gameState[4] == val) && (gameState[8] == val)){... */\n      iszero\n      tag_205\n      jumpi\n        /* \"Project.sol\":2701:2715  _endGame(_win) */\n      tag_206\n        /* \"Project.sol\":2710:2714  _win */\n      dup3\n        /* \"Project.sol\":2701:2709  _endGame */\n      tag_128\n        /* \"Project.sol\":2701:2715  _endGame(_win) */\n      jump\t// in\n    tag_206:\n        /* \"Project.sol\":2610:2727  if ((gameState[0] == val) && (gameState[4] == val) && (gameState[8] == val)){... */\n    tag_205:\n        /* \"Project.sol\":2758:2761  val */\n      dup1\n        /* \"Project.sol\":2742:2751  gameState */\n      0x03\n        /* \"Project.sol\":2752:2753  2 */\n      0x02\n        /* \"Project.sol\":2742:2754  gameState[2] */\n      dup2\n      sload\n      dup2\n      lt\n      tag_207\n      jumpi\n      tag_208\n      tag_81\n      jump\t// in\n    tag_208:\n    tag_207:\n      swap1\n      0x00\n      mstore\n      keccak256(0x00, 0x20)\n      add\n      sload\n        /* \"Project.sol\":2742:2761  gameState[2] == val */\n      eq\n        /* \"Project.sol\":2741:2787  (gameState[2] == val) && (gameState[4] == val) */\n      dup1\n      iszero\n      tag_210\n      jumpi\n      pop\n        /* \"Project.sol\":2783:2786  val */\n      dup1\n        /* \"Project.sol\":2767:2776  gameState */\n      0x03\n        /* \"Project.sol\":2777:2778  4 */\n      0x04\n        /* \"Project.sol\":2767:2779  gameState[4] */\n      dup2\n      sload\n      dup2\n      lt\n      tag_211\n      jumpi\n      tag_212\n      tag_81\n      jump\t// in\n    tag_212:\n    tag_211:\n      swap1\n      0x00\n      mstore\n      keccak256(0x00, 0x20)\n      add\n      sload\n        /* \"Project.sol\":2767:2786  gameState[4] == val */\n      eq\n        /* \"Project.sol\":2741:2787  (gameState[2] == val) && (gameState[4] == val) */\n    tag_210:\n        /* \"Project.sol\":2741:2812  (gameState[2] == val) && (gameState[4] == val) && (gameState[6] == val) */\n      dup1\n      iszero\n      tag_214\n      jumpi\n      pop\n        /* \"Project.sol\":2808:2811  val */\n      dup1\n        /* \"Project.sol\":2792:2801  gameState */\n      0x03\n        /* \"Project.sol\":2802:2803  6 */\n      0x06\n        /* \"Project.sol\":2792:2804  gameState[6] */\n      dup2\n      sload\n      dup2\n      lt\n      tag_215\n      jumpi\n      tag_216\n      tag_81\n      jump\t// in\n    tag_216:\n    tag_215:\n      swap1\n      0x00\n      mstore\n      keccak256(0x00, 0x20)\n      add\n      sload\n        /* \"Project.sol\":2792:2811  gameState[6] == val */\n      eq\n        /* \"Project.sol\":2741:2812  (gameState[2] == val) && (gameState[4] == val) && (gameState[6] == val) */\n    tag_214:\n        /* \"Project.sol\":2737:2854  if ((gameState[2] == val) && (gameState[4] == val) && (gameState[6] == val)){... */\n      iszero\n      tag_218\n      jumpi\n        /* \"Project.sol\":2828:2842  _endGame(_win) */\n      tag_219\n        /* \"Project.sol\":2837:2841  _win */\n      dup3\n        /* \"Project.sol\":2828:2836  _endGame */\n      tag_128\n        /* \"Project.sol\":2828:2842  _endGame(_win) */\n      jump\t// in\n    tag_219:\n        /* \"Project.sol\":2737:2854  if ((gameState[2] == val) && (gameState[4] == val) && (gameState[6] == val)){... */\n    tag_218:\n        /* \"Project.sol\":2864:2874  uint place */\n      0x00\n        /* \"Project.sol\":2877:2880  100 */\n      0x64\n        /* \"Project.sol\":2864:2880  uint place = 100 */\n      swap1\n      pop\n        /* \"Project.sol\":2896:2902  uint i */\n      0x00\n        /* \"Project.sol\":2892:3036  for(uint i = 0; i < 9; i++){... */\n    tag_220:\n        /* \"Project.sol\":2912:2913  9 */\n      0x09\n        /* \"Project.sol\":2908:2909  i */\n      dup2\n        /* \"Project.sol\":2908:2913  i < 9 */\n      lt\n        /* \"Project.sol\":2892:3036  for(uint i = 0; i < 9; i++){... */\n      iszero\n      tag_221\n      jumpi\n        /* \"Project.sol\":2954:2955  0 */\n      0x00\n        /* \"Project.sol\":2938:2947  gameState */\n      0x03\n        /* \"Project.sol\":2948:2949  i */\n      dup3\n        /* \"Project.sol\":2938:2950  gameState[i] */\n      dup2\n      sload\n      dup2\n      lt\n      tag_223\n      jumpi\n      tag_224\n      tag_81\n      jump\t// in\n    tag_224:\n    tag_223:\n      swap1\n      0x00\n      mstore\n      keccak256(0x00, 0x20)\n      add\n      sload\n        /* \"Project.sol\":2938:2955  gameState[i] == 0 */\n      sub\n        /* \"Project.sol\":2934:3025  if (gameState[i] == 0) {... */\n      tag_226\n      jumpi\n        /* \"Project.sol\":2984:2985  i */\n      dup1\n        /* \"Project.sol\":2976:2985  place = i */\n      swap2\n      pop\n        /* \"Project.sol\":3004:3009  break */\n      jump(tag_221)\n        /* \"Project.sol\":2934:3025  if (gameState[i] == 0) {... */\n    tag_226:\n        /* \"Project.sol\":2915:2918  i++ */\n      dup1\n      dup1\n      0x01\n      add\n      swap2\n      pop\n      pop\n        /* \"Project.sol\":2892:3036  for(uint i = 0; i < 9; i++){... */\n      jump(tag_220)\n    tag_221:\n      pop\n        /* \"Project.sol\":3059:3062  100 */\n      0x64\n        /* \"Project.sol\":3050:3055  place */\n      dup2\n        /* \"Project.sol\":3050:3062  place == 100 */\n      sub\n        /* \"Project.sol\":3046:3105  if (place == 100) {... */\n      tag_227\n      jumpi\n        /* \"Project.sol\":3079:3093  _endGameDraw() */\n      tag_228\n        /* \"Project.sol\":3079:3091  _endGameDraw */\n      tag_229\n        /* \"Project.sol\":3079:3093  _endGameDraw() */\n      jump\t// in\n    tag_228:\n        /* \"Project.sol\":3046:3105  if (place == 100) {... */\n    tag_227:\n        /* \"Project.sol\":1777:3112  {... */\n      pop\n        /* \"Project.sol\":1725:3112  function _checkWin(address _win, uint val) internal {... */\n      pop\n      pop\n      jump\t// out\n        /* \"Project.sol\":3120:3300  function _endGame(address _winner) internal {... */\n    tag_128:\n        /* \"Project.sol\":3187:3191  true */\n      0x01\n        /* \"Project.sol\":3175:3184  gameEnded */\n      0x04\n      0x01\n        /* \"Project.sol\":3175:3191  gameEnded = true */\n      0x0100\n      exp\n      dup2\n      sload\n      dup2\n      0xff\n      mul\n      not\n      and\n      swap1\n      dup4\n      iszero\n      iszero\n      mul\n      or\n      swap1\n      sstore\n      pop\n        /* \"Project.sol\":3202:3211  bool sent */\n      0x00\n        /* \"Project.sol\":3222:3229  _winner */\n      dup2\n        /* \"Project.sol\":3214:3235  payable(_winner).send */\n      0xffffffffffffffffffffffffffffffffffffffff\n      and\n        /* \"Project.sol\":3214:3244  payable(_winner).send(dep * 2) */\n      0x08fc\n        /* \"Project.sol\":3242:3243  2 */\n      0x02\n        /* \"Project.sol\":3236:3239  dep */\n      dup1\n      sload\n        /* \"Project.sol\":3236:3243  dep * 2 */\n      tag_231\n      swap2\n      swap1\n      tag_232\n      jump\t// in\n    tag_231:\n        /* \"Project.sol\":3214:3244  payable(_winner).send(dep * 2) */\n      swap1\n      dup2\n      iszero\n      mul\n      swap1\n      mload(0x40)\n      0x00\n      mload(0x40)\n      dup1\n      dup4\n      sub\n      dup2\n      dup6\n      dup9\n      dup9\n      call\n      swap4\n      pop\n      pop\n      pop\n      pop\n        /* \"Project.sol\":3202:3244  bool sent = payable(_winner).send(dep * 2) */\n      swap1\n      pop\n        /* \"Project.sol\":3263:3267  sent */\n      dup1\n        /* \"Project.sol\":3255:3292  require(sent, \"Failed to send Ether\") */\n      tag_234\n      jumpi\n      mload(0x40)\n      0x08c379a000000000000000000000000000000000000000000000000000000000\n      dup2\n      mstore\n      0x04\n      add\n      tag_235\n      swap1\n      tag_22\n      jump\t// in\n    tag_235:\n      mload(0x40)\n      dup1\n      swap2\n      sub\n      swap1\n      revert\n    tag_234:\n        /* \"Project.sol\":3164:3300  {... */\n      pop\n        /* \"Project.sol\":3120:3300  function _endGame(address _winner) internal {... */\n      pop\n      jump\t// out\n        /* \"Project.sol\":3308:3562  function _endGameDraw() internal {... */\n    tag_229:\n        /* \"Project.sol\":3364:3368  true */\n      0x01\n        /* \"Project.sol\":3352:3361  gameEnded */\n      0x04\n      0x01\n        /* \"Project.sol\":3352:3368  gameEnded = true */\n      0x0100\n      exp\n      dup2\n      sload\n      dup2\n      0xff\n      mul\n      not\n      and\n      swap1\n      dup4\n      iszero\n      iszero\n      mul\n      or\n      swap1\n      sstore\n      pop\n        /* \"Project.sol\":3379:3388  bool sent */\n      0x00\n        /* \"Project.sol\":3399:3401  p1 */\n      dup1\n      0x00\n      swap1\n      sload\n      swap1\n      0x0100\n      exp\n      swap1\n      div\n      0xffffffffffffffffffffffffffffffffffffffff\n      and\n        /* \"Project.sol\":3391:3407  payable(p1).send */\n      0xffffffffffffffffffffffffffffffffffffffff\n      and\n        /* \"Project.sol\":3391:3412  payable(p1).send(dep) */\n      0x08fc\n        /* \"Project.sol\":3408:3411  dep */\n      sload(0x02)\n        /* \"Project.sol\":3391:3412  payable(p1).send(dep) */\n      swap1\n      dup2\n      iszero\n      mul\n      swap1\n      mload(0x40)\n      0x00\n      mload(0x40)\n      dup1\n      dup4\n      sub\n      dup2\n      dup6\n      dup9\n      dup9\n      call\n      swap4\n      pop\n      pop\n      pop\n      pop\n        /* \"Project.sol\":3379:3412  bool sent = payable(p1).send(dep) */\n      swap1\n      pop\n        /* \"Project.sol\":3431:3435  sent */\n      dup1\n        /* \"Project.sol\":3423:3460  require(sent, \"Failed to send Ether\") */\n      tag_238\n      jumpi\n      mload(0x40)\n      0x08c379a000000000000000000000000000000000000000000000000000000000\n      dup2\n      mstore\n      0x04\n      add\n      tag_239\n      swap1\n      tag_22\n      jump\t// in\n    tag_239:\n      mload(0x40)\n      dup1\n      swap2\n      sub\n      swap1\n      revert\n    tag_238:\n        /* \"Project.sol\":3471:3481  bool sent2 */\n      0x00\n        /* \"Project.sol\":3492:3494  p2 */\n      0x01\n      0x00\n      swap1\n      sload\n      swap1\n      0x0100\n      exp\n      swap1\n      div\n      0xffffffffffffffffffffffffffffffffffffffff\n      and\n        /* \"Project.sol\":3484:3500  payable(p2).send */\n      0xffffffffffffffffffffffffffffffffffffffff\n      and\n        /* \"Project.sol\":3484:3505  payable(p2).send(dep) */\n      0x08fc\n        /* \"Project.sol\":3501:3504  dep */\n      sload(0x02)\n        /* \"Project.sol\":3484:3505  payable(p2).send(dep) */\n      swap1\n      dup2\n      iszero\n      mul\n      swap1\n      mload(0x40)\n      0x00\n      mload(0x40)\n      dup1\n      dup4\n      sub\n      dup2\n      dup6\n      dup9\n      dup9\n      call\n      swap4\n      pop\n      pop\n      pop\n      pop\n        /* \"Project.sol\":3471:3505  bool sent2 = payable(p2).send(dep) */\n      swap1\n      pop\n        /* \"Project.sol\":3524:3529  sent2 */\n      dup1\n        /* \"Project.sol\":3516:3554  require(sent2, \"Failed to send Ether\") */\n      tag_241\n      jumpi\n      mload(0x40)\n      0x08c379a000000000000000000000000000000000000000000000000000000000\n      dup2\n      mstore\n      0x04\n      add\n      tag_242\n      swap1\n      tag_22\n      jump\t// in\n    tag_242:\n      mload(0x40)\n      dup1\n      swap2\n      sub\n      swap1\n      revert\n    tag_241:\n        /* \"Project.sol\":3341:3562  {... */\n      pop\n      pop\n        /* \"Project.sol\":3308:3562  function _endGameDraw() internal {... */\n      jump\t// out\n        /* \"#utility.yul\":7:84   */\n    tag_243:\n        /* \"#utility.yul\":44:51   */\n      0x00\n        /* \"#utility.yul\":73:78   */\n      dup2\n        /* \"#utility.yul\":62:78   */\n      swap1\n      pop\n        /* \"#utility.yul\":7:84   */\n      swap2\n      swap1\n      pop\n      jump\t// out\n        /* \"#utility.yul\":90:270   */\n    tag_244:\n        /* \"#utility.yul\":138:215   */\n      0x4e487b7100000000000000000000000000000000000000000000000000000000\n        /* \"#utility.yul\":135:136   */\n      0x00\n        /* \"#utility.yul\":128:216   */\n      mstore\n        /* \"#utility.yul\":235:239   */\n      0x11\n        /* \"#utility.yul\":232:233   */\n      0x04\n        /* \"#utility.yul\":225:240   */\n      mstore\n        /* \"#utility.yul\":259:263   */\n      0x24\n        /* \"#utility.yul\":256:257   */\n      0x00\n        /* \"#utility.yul\":249:264   */\n      revert\n        /* \"#utility.yul\":276:467   */\n    tag_15:\n        /* \"#utility.yul\":316:319   */\n      0x00\n        /* \"#utility.yul\":335:355   */\n      tag_283\n        /* \"#utility.yul\":353:354   */\n      dup3\n        /* \"#utility.yul\":335:355   */\n      tag_243\n      jump\t// in\n    tag_283:\n        /* \"#utility.yul\":330:355   */\n      swap2\n      pop\n        /* \"#utility.yul\":369:389   */\n      tag_284\n        /* \"#utility.yul\":387:388   */\n      dup4\n        /* \"#utility.yul\":369:389   */\n      tag_243\n      jump\t// in\n    tag_284:\n        /* \"#utility.yul\":364:389   */\n      swap3\n      pop\n        /* \"#utility.yul\":412:413   */\n      dup3\n        /* \"#utility.yul\":409:410   */\n      dup3\n        /* \"#utility.yul\":405:414   */\n      add\n        /* \"#utility.yul\":398:414   */\n      swap1\n      pop\n        /* \"#utility.yul\":433:436   */\n      dup1\n        /* \"#utility.yul\":430:431   */\n      dup3\n        /* \"#utility.yul\":427:437   */\n      gt\n        /* \"#utility.yul\":424:460   */\n      iszero\n      tag_285\n      jumpi\n        /* \"#utility.yul\":440:458   */\n      tag_286\n      tag_244\n      jump\t// in\n    tag_286:\n        /* \"#utility.yul\":424:460   */\n    tag_285:\n        /* \"#utility.yul\":276:467   */\n      swap3\n      swap2\n      pop\n      pop\n      jump\t// out\n        /* \"#utility.yul\":473:667   */\n    tag_18:\n        /* \"#utility.yul\":513:517   */\n      0x00\n        /* \"#utility.yul\":533:553   */\n      tag_288\n        /* \"#utility.yul\":551:552   */\n      dup3\n        /* \"#utility.yul\":533:553   */\n      tag_243\n      jump\t// in\n    tag_288:\n        /* \"#utility.yul\":528:553   */\n      swap2\n      pop\n        /* \"#utility.yul\":567:587   */\n      tag_289\n        /* \"#utility.yul\":585:586   */\n      dup4\n        /* \"#utility.yul\":567:587   */\n      tag_243\n      jump\t// in\n    tag_289:\n        /* \"#utility.yul\":562:587   */\n      swap3\n      pop\n        /* \"#utility.yul\":611:612   */\n      dup3\n        /* \"#utility.yul\":608:609   */\n      dup3\n        /* \"#utility.yul\":604:613   */\n      sub\n        /* \"#utility.yul\":596:613   */\n      swap1\n      pop\n        /* \"#utility.yul\":635:636   */\n      dup2\n        /* \"#utility.yul\":629:633   */\n      dup2\n        /* \"#utility.yul\":626:637   */\n      gt\n        /* \"#utility.yul\":623:660   */\n      iszero\n      tag_290\n      jumpi\n        /* \"#utility.yul\":640:658   */\n      tag_291\n      tag_244\n      jump\t// in\n    tag_291:\n        /* \"#utility.yul\":623:660   */\n    tag_290:\n        /* \"#utility.yul\":473:667   */\n      swap3\n      swap2\n      pop\n      pop\n      jump\t// out\n        /* \"#utility.yul\":673:842   */\n    tag_245:\n        /* \"#utility.yul\":757:768   */\n      0x00\n        /* \"#utility.yul\":791:797   */\n      dup3\n        /* \"#utility.yul\":786:789   */\n      dup3\n        /* \"#utility.yul\":779:798   */\n      mstore\n        /* \"#utility.yul\":831:835   */\n      0x20\n        /* \"#utility.yul\":826:829   */\n      dup3\n        /* \"#utility.yul\":822:836   */\n      add\n        /* \"#utility.yul\":807:836   */\n      swap1\n      pop\n        /* \"#utility.yul\":673:842   */\n      swap3\n      swap2\n      pop\n      pop\n      jump\t// out\n        /* \"#utility.yul\":848:1018   */\n    tag_246:\n        /* \"#utility.yul\":988:1010   */\n      0x4661696c656420746f2073656e64204574686572000000000000000000000000\n        /* \"#utility.yul\":984:985   */\n      0x00\n        /* \"#utility.yul\":976:982   */\n      dup3\n        /* \"#utility.yul\":972:986   */\n      add\n        /* \"#utility.yul\":965:1011   */\n      mstore\n        /* \"#utility.yul\":848:1018   */\n      pop\n      jump\t// out\n        /* \"#utility.yul\":1024:1390   */\n    tag_247:\n        /* \"#utility.yul\":1166:1169   */\n      0x00\n        /* \"#utility.yul\":1187:1254   */\n      tag_295\n        /* \"#utility.yul\":1251:1253   */\n      0x14\n        /* \"#utility.yul\":1246:1249   */\n      dup4\n        /* \"#utility.yul\":1187:1254   */\n      tag_245\n      jump\t// in\n    tag_295:\n        /* \"#utility.yul\":1180:1254   */\n      swap2\n      pop\n        /* \"#utility.yul\":1263:1356   */\n      tag_296\n        /* \"#utility.yul\":1352:1355   */\n      dup3\n        /* \"#utility.yul\":1263:1356   */\n      tag_246\n      jump\t// in\n    tag_296:\n        /* \"#utility.yul\":1381:1383   */\n      0x20\n        /* \"#utility.yul\":1376:1379   */\n      dup3\n        /* \"#utility.yul\":1372:1384   */\n      add\n        /* \"#utility.yul\":1365:1384   */\n      swap1\n      pop\n        /* \"#utility.yul\":1024:1390   */\n      swap2\n      swap1\n      pop\n      jump\t// out\n        /* \"#utility.yul\":1396:1815   */\n    tag_22:\n        /* \"#utility.yul\":1562:1566   */\n      0x00\n        /* \"#utility.yul\":1600:1602   */\n      0x20\n        /* \"#utility.yul\":1589:1598   */\n      dup3\n        /* \"#utility.yul\":1585:1603   */\n      add\n        /* \"#utility.yul\":1577:1603   */\n      swap1\n      pop\n        /* \"#utility.yul\":1649:1658   */\n      dup2\n        /* \"#utility.yul\":1643:1647   */\n      dup2\n        /* \"#utility.yul\":1639:1659   */\n      sub\n        /* \"#utility.yul\":1635:1636   */\n      0x00\n        /* \"#utility.yul\":1624:1633   */\n      dup4\n        /* \"#utility.yul\":1620:1637   */\n      add\n        /* \"#utility.yul\":1613:1660   */\n      mstore\n        /* \"#utility.yul\":1677:1808   */\n      tag_298\n        /* \"#utility.yul\":1803:1807   */\n      dup2\n        /* \"#utility.yul\":1677:1808   */\n      tag_247\n      jump\t// in\n    tag_298:\n        /* \"#utility.yul\":1669:1808   */\n      swap1\n      pop\n        /* \"#utility.yul\":1396:1815   */\n      swap2\n      swap1\n      pop\n      jump\t// out\n        /* \"#utility.yul\":1821:1911   */\n    tag_248:\n        /* \"#utility.yul\":1855:1862   */\n      0x00\n        /* \"#utility.yul\":1898:1903   */\n      dup2\n        /* \"#utility.yul\":1891:1904   */\n      iszero\n        /* \"#utility.yul\":1884:1905   */\n      iszero\n        /* \"#utility.yul\":1873:1905   */\n      swap1\n      pop\n        /* \"#utility.yul\":1821:1911   */\n      swap2\n      swap1\n      pop\n      jump\t// out\n        /* \"#utility.yul\":1917:2026   */\n    tag_249:\n        /* \"#utility.yul\":1998:2019   */\n      tag_301\n        /* \"#utility.yul\":2013:2018   */\n      dup2\n        /* \"#utility.yul\":1998:2019   */\n      tag_248\n      jump\t// in\n    tag_301:\n        /* \"#utility.yul\":1993:1996   */\n      dup3\n        /* \"#utility.yul\":1986:2020   */\n      mstore\n        /* \"#utility.yul\":1917:2026   */\n      pop\n      pop\n      jump\t// out\n        /* \"#utility.yul\":2032:2242   */\n    tag_27:\n        /* \"#utility.yul\":2119:2123   */\n      0x00\n        /* \"#utility.yul\":2157:2159   */\n      0x20\n        /* \"#utility.yul\":2146:2155   */\n      dup3\n        /* \"#utility.yul\":2142:2160   */\n      add\n        /* \"#utility.yul\":2134:2160   */\n      swap1\n      pop\n        /* \"#utility.yul\":2170:2235   */\n      tag_303\n        /* \"#utility.yul\":2232:2233   */\n      0x00\n        /* \"#utility.yul\":2221:2230   */\n      dup4\n        /* \"#utility.yul\":2217:2234   */\n      add\n        /* \"#utility.yul\":2208:2214   */\n      dup5\n        /* \"#utility.yul\":2170:2235   */\n      tag_249\n      jump\t// in\n    tag_303:\n        /* \"#utility.yul\":2032:2242   */\n      swap3\n      swap2\n      pop\n      pop\n      jump\t// out\n        /* \"#utility.yul\":2248:2323   */\n    tag_250:\n        /* \"#utility.yul\":2281:2287   */\n      0x00\n        /* \"#utility.yul\":2314:2316   */\n      0x40\n        /* \"#utility.yul\":2308:2317   */\n      mload\n        /* \"#utility.yul\":2298:2317   */\n      swap1\n      pop\n        /* \"#utility.yul\":2248:2323   */\n      swap1\n      jump\t// out\n        /* \"#utility.yul\":2329:2446   */\n    tag_251:\n        /* \"#utility.yul\":2438:2439   */\n      0x00\n        /* \"#utility.yul\":2435:2436   */\n      dup1\n        /* \"#utility.yul\":2428:2440   */\n      revert\n        /* \"#utility.yul\":2575:2697   */\n    tag_253:\n        /* \"#utility.yul\":2648:2672   */\n      tag_308\n        /* \"#utility.yul\":2666:2671   */\n      dup2\n        /* \"#utility.yul\":2648:2672   */\n      tag_243\n      jump\t// in\n    tag_308:\n        /* \"#utility.yul\":2641:2646   */\n      dup2\n        /* \"#utility.yul\":2638:2673   */\n      eq\n        /* \"#utility.yul\":2628:2691   */\n      tag_309\n      jumpi\n        /* \"#utility.yul\":2687:2688   */\n      0x00\n        /* \"#utility.yul\":2684:2685   */\n      dup1\n        /* \"#utility.yul\":2677:2689   */\n      revert\n        /* \"#utility.yul\":2628:2691   */\n    tag_309:\n        /* \"#utility.yul\":2575:2697   */\n      pop\n      jump\t// out\n        /* \"#utility.yul\":2703:2842   */\n    tag_254:\n        /* \"#utility.yul\":2749:2754   */\n      0x00\n        /* \"#utility.yul\":2787:2793   */\n      dup2\n        /* \"#utility.yul\":2774:2794   */\n      calldataload\n        /* \"#utility.yul\":2765:2794   */\n      swap1\n      pop\n        /* \"#utility.yul\":2803:2836   */\n      tag_311\n        /* \"#utility.yul\":2830:2835   */\n      dup2\n        /* \"#utility.yul\":2803:2836   */\n      tag_253\n      jump\t// in\n    tag_311:\n        /* \"#utility.yul\":2703:2842   */\n      swap3\n      swap2\n      pop\n      pop\n      jump\t// out\n        /* \"#utility.yul\":2848:3177   */\n    tag_31:\n        /* \"#utility.yul\":2907:2913   */\n      0x00\n        /* \"#utility.yul\":2956:2958   */\n      0x20\n        /* \"#utility.yul\":2944:2953   */\n      dup3\n        /* \"#utility.yul\":2935:2942   */\n      dup5\n        /* \"#utility.yul\":2931:2954   */\n      sub\n        /* \"#utility.yul\":2927:2959   */\n      slt\n        /* \"#utility.yul\":2924:3043   */\n      iszero\n      tag_313\n      jumpi\n        /* \"#utility.yul\":2962:3041   */\n      tag_314\n      tag_251\n      jump\t// in\n    tag_314:\n        /* \"#utility.yul\":2924:3043   */\n    tag_313:\n        /* \"#utility.yul\":3082:3083   */\n      0x00\n        /* \"#utility.yul\":3107:3160   */\n      tag_315\n        /* \"#utility.yul\":3152:3159   */\n      dup5\n        /* \"#utility.yul\":3143:3149   */\n      dup3\n        /* \"#utility.yul\":3132:3141   */\n      dup6\n        /* \"#utility.yul\":3128:3150   */\n      add\n        /* \"#utility.yul\":3107:3160   */\n      tag_254\n      jump\t// in\n    tag_315:\n        /* \"#utility.yul\":3097:3160   */\n      swap2\n      pop\n        /* \"#utility.yul\":3053:3170   */\n      pop\n        /* \"#utility.yul\":2848:3177   */\n      swap3\n      swap2\n      pop\n      pop\n      jump\t// out\n        /* \"#utility.yul\":3183:3301   */\n    tag_255:\n        /* \"#utility.yul\":3270:3294   */\n      tag_317\n        /* \"#utility.yul\":3288:3293   */\n      dup2\n        /* \"#utility.yul\":3270:3294   */\n      tag_243\n      jump\t// in\n    tag_317:\n        /* \"#utility.yul\":3265:3268   */\n      dup3\n        /* \"#utility.yul\":3258:3295   */\n      mstore\n        /* \"#utility.yul\":3183:3301   */\n      pop\n      pop\n      jump\t// out\n        /* \"#utility.yul\":3307:3529   */\n    tag_34:\n        /* \"#utility.yul\":3400:3404   */\n      0x00\n        /* \"#utility.yul\":3438:3440   */\n      0x20\n        /* \"#utility.yul\":3427:3436   */\n      dup3\n        /* \"#utility.yul\":3423:3441   */\n      add\n        /* \"#utility.yul\":3415:3441   */\n      swap1\n      pop\n        /* \"#utility.yul\":3451:3522   */\n      tag_319\n        /* \"#utility.yul\":3519:3520   */\n      0x00\n        /* \"#utility.yul\":3508:3517   */\n      dup4\n        /* \"#utility.yul\":3504:3521   */\n      add\n        /* \"#utility.yul\":3495:3501   */\n      dup5\n        /* \"#utility.yul\":3451:3522   */\n      tag_255\n      jump\t// in\n    tag_319:\n        /* \"#utility.yul\":3307:3529   */\n      swap3\n      swap2\n      pop\n      pop\n      jump\t// out\n        /* \"#utility.yul\":3535:3661   */\n    tag_256:\n        /* \"#utility.yul\":3572:3579   */\n      0x00\n        /* \"#utility.yul\":3612:3654   */\n      0xffffffffffffffffffffffffffffffffffffffff\n        /* \"#utility.yul\":3605:3610   */\n      dup3\n        /* \"#utility.yul\":3601:3655   */\n      and\n        /* \"#utility.yul\":3590:3655   */\n      swap1\n      pop\n        /* \"#utility.yul\":3535:3661   */\n      swap2\n      swap1\n      pop\n      jump\t// out\n        /* \"#utility.yul\":3667:3763   */\n    tag_257:\n        /* \"#utility.yul\":3704:3711   */\n      0x00\n        /* \"#utility.yul\":3733:3757   */\n      tag_322\n        /* \"#utility.yul\":3751:3756   */\n      dup3\n        /* \"#utility.yul\":3733:3757   */\n      tag_256\n      jump\t// in\n    tag_322:\n        /* \"#utility.yul\":3722:3757   */\n      swap1\n      pop\n        /* \"#utility.yul\":3667:3763   */\n      swap2\n      swap1\n      pop\n      jump\t// out\n        /* \"#utility.yul\":3769:3891   */\n    tag_258:\n        /* \"#utility.yul\":3842:3866   */\n      tag_324\n        /* \"#utility.yul\":3860:3865   */\n      dup2\n        /* \"#utility.yul\":3842:3866   */\n      tag_257\n      jump\t// in\n    tag_324:\n        /* \"#utility.yul\":3835:3840   */\n      dup2\n        /* \"#utility.yul\":3832:3867   */\n      eq\n        /* \"#utility.yul\":3822:3885   */\n      tag_325\n      jumpi\n        /* \"#utility.yul\":3881:3882   */\n      0x00\n        /* \"#utility.yul\":3878:3879   */\n      dup1\n        /* \"#utility.yul\":3871:3883   */\n      revert\n        /* \"#utility.yul\":3822:3885   */\n    tag_325:\n        /* \"#utility.yul\":3769:3891   */\n      pop\n      jump\t// out\n        /* \"#utility.yul\":3897:4036   */\n    tag_259:\n        /* \"#utility.yul\":3943:3948   */\n      0x00\n        /* \"#utility.yul\":3981:3987   */\n      dup2\n        /* \"#utility.yul\":3968:3988   */\n      calldataload\n        /* \"#utility.yul\":3959:3988   */\n      swap1\n      pop\n        /* \"#utility.yul\":3997:4030   */\n      tag_327\n        /* \"#utility.yul\":4024:4029   */\n      dup2\n        /* \"#utility.yul\":3997:4030   */\n      tag_258\n      jump\t// in\n    tag_327:\n        /* \"#utility.yul\":3897:4036   */\n      swap3\n      swap2\n      pop\n      pop\n      jump\t// out\n        /* \"#utility.yul\":4042:4371   */\n    tag_38:\n        /* \"#utility.yul\":4101:4107   */\n      0x00\n        /* \"#utility.yul\":4150:4152   */\n      0x20\n        /* \"#utility.yul\":4138:4147   */\n      dup3\n        /* \"#utility.yul\":4129:4136   */\n      dup5\n        /* \"#utility.yul\":4125:4148   */\n      sub\n        /* \"#utility.yul\":4121:4153   */\n      slt\n        /* \"#utility.yul\":4118:4237   */\n      iszero\n      tag_329\n      jumpi\n        /* \"#utility.yul\":4156:4235   */\n      tag_330\n      tag_251\n      jump\t// in\n    tag_330:\n        /* \"#utility.yul\":4118:4237   */\n    tag_329:\n        /* \"#utility.yul\":4276:4277   */\n      0x00\n        /* \"#utility.yul\":4301:4354   */\n      tag_331\n        /* \"#utility.yul\":4346:4353   */\n      dup5\n        /* \"#utility.yul\":4337:4343   */\n      dup3\n        /* \"#utility.yul\":4326:4335   */\n      dup6\n        /* \"#utility.yul\":4322:4344   */\n      add\n        /* \"#utility.yul\":4301:4354   */\n      tag_259\n      jump\t// in\n    tag_331:\n        /* \"#utility.yul\":4291:4354   */\n      swap2\n      pop\n        /* \"#utility.yul\":4247:4364   */\n      pop\n        /* \"#utility.yul\":4042:4371   */\n      swap3\n      swap2\n      pop\n      pop\n      jump\t// out\n        /* \"#utility.yul\":4377:4481   */\n    tag_260:\n        /* \"#utility.yul\":4422:4429   */\n      0x00\n        /* \"#utility.yul\":4451:4475   */\n      tag_333\n        /* \"#utility.yul\":4469:4474   */\n      dup3\n        /* \"#utility.yul\":4451:4475   */\n      tag_256\n      jump\t// in\n    tag_333:\n        /* \"#utility.yul\":4440:4475   */\n      swap1\n      pop\n        /* \"#utility.yul\":4377:4481   */\n      swap2\n      swap1\n      pop\n      jump\t// out\n        /* \"#utility.yul\":4487:4629   */\n    tag_261:\n        /* \"#utility.yul\":4590:4622   */\n      tag_335\n        /* \"#utility.yul\":4616:4621   */\n      dup2\n        /* \"#utility.yul\":4590:4622   */\n      tag_260\n      jump\t// in\n    tag_335:\n        /* \"#utility.yul\":4585:4588   */\n      dup3\n        /* \"#utility.yul\":4578:4623   */\n      mstore\n        /* \"#utility.yul\":4487:4629   */\n      pop\n      pop\n      jump\t// out\n        /* \"#utility.yul\":4635:4889   */\n    tag_45:\n        /* \"#utility.yul\":4744:4748   */\n      0x00\n        /* \"#utility.yul\":4782:4784   */\n      0x20\n        /* \"#utility.yul\":4771:4780   */\n      dup3\n        /* \"#utility.yul\":4767:4785   */\n      add\n        /* \"#utility.yul\":4759:4785   */\n      swap1\n      pop\n        /* \"#utility.yul\":4795:4882   */\n      tag_337\n        /* \"#utility.yul\":4879:4880   */\n      0x00\n        /* \"#utility.yul\":4868:4877   */\n      dup4\n        /* \"#utility.yul\":4864:4881   */\n      add\n        /* \"#utility.yul\":4855:4861   */\n      dup5\n        /* \"#utility.yul\":4795:4882   */\n      tag_261\n      jump\t// in\n    tag_337:\n        /* \"#utility.yul\":4635:4889   */\n      swap3\n      swap2\n      pop\n      pop\n      jump\t// out\n        /* \"#utility.yul\":4895:5012   */\n    tag_262:\n        /* \"#utility.yul\":5004:5005   */\n      0x00\n        /* \"#utility.yul\":5001:5002   */\n      dup1\n        /* \"#utility.yul\":4994:5006   */\n      revert\n        /* \"#utility.yul\":5018:5120   */\n    tag_263:\n        /* \"#utility.yul\":5059:5065   */\n      0x00\n        /* \"#utility.yul\":5110:5112   */\n      0x1f\n        /* \"#utility.yul\":5106:5113   */\n      not\n        /* \"#utility.yul\":5101:5103   */\n      0x1f\n        /* \"#utility.yul\":5094:5099   */\n      dup4\n        /* \"#utility.yul\":5090:5104   */\n      add\n        /* \"#utility.yul\":5086:5114   */\n      and\n        /* \"#utility.yul\":5076:5114   */\n      swap1\n      pop\n        /* \"#utility.yul\":5018:5120   */\n      swap2\n      swap1\n      pop\n      jump\t// out\n        /* \"#utility.yul\":5126:5306   */\n    tag_264:\n        /* \"#utility.yul\":5174:5251   */\n      0x4e487b7100000000000000000000000000000000000000000000000000000000\n        /* \"#utility.yul\":5171:5172   */\n      0x00\n        /* \"#utility.yul\":5164:5252   */\n      mstore\n        /* \"#utility.yul\":5271:5275   */\n      0x41\n        /* \"#utility.yul\":5268:5269   */\n      0x04\n        /* \"#utility.yul\":5261:5276   */\n      mstore\n        /* \"#utility.yul\":5295:5299   */\n      0x24\n        /* \"#utility.yul\":5292:5293   */\n      0x00\n        /* \"#utility.yul\":5285:5300   */\n      revert\n        /* \"#utility.yul\":5312:5593   */\n    tag_265:\n        /* \"#utility.yul\":5395:5422   */\n      tag_342\n        /* \"#utility.yul\":5417:5421   */\n      dup3\n        /* \"#utility.yul\":5395:5422   */\n      tag_263\n      jump\t// in\n    tag_342:\n        /* \"#utility.yul\":5387:5393   */\n      dup2\n        /* \"#utility.yul\":5383:5423   */\n      add\n        /* \"#utility.yul\":5525:5531   */\n      dup2\n        /* \"#utility.yul\":5513:5523   */\n      dup2\n        /* \"#utility.yul\":5510:5532   */\n      lt\n        /* \"#utility.yul\":5489:5507   */\n      0xffffffffffffffff\n        /* \"#utility.yul\":5477:5487   */\n      dup3\n        /* \"#utility.yul\":5474:5508   */\n      gt\n        /* \"#utility.yul\":5471:5533   */\n      or\n        /* \"#utility.yul\":5468:5556   */\n      iszero\n      tag_343\n      jumpi\n        /* \"#utility.yul\":5536:5554   */\n      tag_344\n      tag_264\n      jump\t// in\n    tag_344:\n        /* \"#utility.yul\":5468:5556   */\n    tag_343:\n        /* \"#utility.yul\":5576:5586   */\n      dup1\n        /* \"#utility.yul\":5572:5574   */\n      0x40\n        /* \"#utility.yul\":5565:5587   */\n      mstore\n        /* \"#utility.yul\":5355:5593   */\n      pop\n        /* \"#utility.yul\":5312:5593   */\n      pop\n      pop\n      jump\t// out\n        /* \"#utility.yul\":5599:5728   */\n    tag_266:\n        /* \"#utility.yul\":5633:5639   */\n      0x00\n        /* \"#utility.yul\":5660:5680   */\n      tag_346\n      tag_250\n      jump\t// in\n    tag_346:\n        /* \"#utility.yul\":5650:5680   */\n      swap1\n      pop\n        /* \"#utility.yul\":5689:5722   */\n      tag_347\n        /* \"#utility.yul\":5717:5721   */\n      dup3\n        /* \"#utility.yul\":5709:5715   */\n      dup3\n        /* \"#utility.yul\":5689:5722   */\n      tag_265\n      jump\t// in\n    tag_347:\n        /* \"#utility.yul\":5599:5728   */\n      swap2\n      swap1\n      pop\n      jump\t// out\n        /* \"#utility.yul\":5734:5983   */\n    tag_267:\n        /* \"#utility.yul\":5809:5813   */\n      0x00\n        /* \"#utility.yul\":5899:5917   */\n      0xffffffffffffffff\n        /* \"#utility.yul\":5891:5897   */\n      dup3\n        /* \"#utility.yul\":5888:5918   */\n      gt\n        /* \"#utility.yul\":5885:5941   */\n      iszero\n      tag_349\n      jumpi\n        /* \"#utility.yul\":5921:5939   */\n      tag_350\n      tag_264\n      jump\t// in\n    tag_350:\n        /* \"#utility.yul\":5885:5941   */\n    tag_349:\n        /* \"#utility.yul\":5971:5975   */\n      0x20\n        /* \"#utility.yul\":5963:5969   */\n      dup3\n        /* \"#utility.yul\":5959:5976   */\n      mul\n        /* \"#utility.yul\":5951:5976   */\n      swap1\n      pop\n        /* \"#utility.yul\":5734:5983   */\n      swap2\n      swap1\n      pop\n      jump\t// out\n        /* \"#utility.yul\":5989:6106   */\n    tag_268:\n        /* \"#utility.yul\":6098:6099   */\n      0x00\n        /* \"#utility.yul\":6095:6096   */\n      dup1\n        /* \"#utility.yul\":6088:6100   */\n      revert\n        /* \"#utility.yul\":6130:6773   */\n    tag_269:\n        /* \"#utility.yul\":6224:6229   */\n      0x00\n        /* \"#utility.yul\":6249:6328   */\n      tag_353\n        /* \"#utility.yul\":6265:6327   */\n      tag_354\n        /* \"#utility.yul\":6320:6326   */\n      dup5\n        /* \"#utility.yul\":6265:6327   */\n      tag_267\n      jump\t// in\n    tag_354:\n        /* \"#utility.yul\":6249:6328   */\n      tag_266\n      jump\t// in\n    tag_353:\n        /* \"#utility.yul\":6240:6328   */\n      swap1\n      pop\n        /* \"#utility.yul\":6348:6353   */\n      dup1\n        /* \"#utility.yul\":6401:6405   */\n      0x20\n        /* \"#utility.yul\":6393:6399   */\n      dup5\n        /* \"#utility.yul\":6389:6406   */\n      mul\n        /* \"#utility.yul\":6381:6387   */\n      dup4\n        /* \"#utility.yul\":6377:6407   */\n      add\n        /* \"#utility.yul\":6430:6433   */\n      dup6\n        /* \"#utility.yul\":6422:6428   */\n      dup2\n        /* \"#utility.yul\":6419:6434   */\n      gt\n        /* \"#utility.yul\":6416:6538   */\n      iszero\n      tag_355\n      jumpi\n        /* \"#utility.yul\":6449:6528   */\n      tag_356\n      tag_268\n      jump\t// in\n    tag_356:\n        /* \"#utility.yul\":6416:6538   */\n    tag_355:\n        /* \"#utility.yul\":6564:6570   */\n      dup4\n        /* \"#utility.yul\":6547:6767   */\n    tag_357:\n        /* \"#utility.yul\":6581:6587   */\n      dup2\n        /* \"#utility.yul\":6576:6579   */\n      dup2\n        /* \"#utility.yul\":6573:6588   */\n      lt\n        /* \"#utility.yul\":6547:6767   */\n      iszero\n      tag_359\n      jumpi\n        /* \"#utility.yul\":6656:6659   */\n      dup1\n        /* \"#utility.yul\":6685:6722   */\n      tag_360\n        /* \"#utility.yul\":6718:6721   */\n      dup9\n        /* \"#utility.yul\":6706:6716   */\n      dup3\n        /* \"#utility.yul\":6685:6722   */\n      tag_254\n      jump\t// in\n    tag_360:\n        /* \"#utility.yul\":6680:6683   */\n      dup5\n        /* \"#utility.yul\":6673:6723   */\n      mstore\n        /* \"#utility.yul\":6752:6756   */\n      0x20\n        /* \"#utility.yul\":6747:6750   */\n      dup5\n        /* \"#utility.yul\":6743:6757   */\n      add\n        /* \"#utility.yul\":6736:6757   */\n      swap4\n      pop\n        /* \"#utility.yul\":6623:6767   */\n      pop\n        /* \"#utility.yul\":6607:6611   */\n      0x20\n        /* \"#utility.yul\":6602:6605   */\n      dup2\n        /* \"#utility.yul\":6598:6612   */\n      add\n        /* \"#utility.yul\":6591:6612   */\n      swap1\n      pop\n        /* \"#utility.yul\":6547:6767   */\n      jump(tag_357)\n    tag_359:\n        /* \"#utility.yul\":6551:6572   */\n      pop\n        /* \"#utility.yul\":6230:6773   */\n      pop\n      pop\n        /* \"#utility.yul\":6130:6773   */\n      swap4\n      swap3\n      pop\n      pop\n      pop\n      jump\t// out\n        /* \"#utility.yul\":6797:7136   */\n    tag_270:\n        /* \"#utility.yul\":6866:6871   */\n      0x00\n        /* \"#utility.yul\":6915:6918   */\n      dup3\n        /* \"#utility.yul\":6908:6912   */\n      0x1f\n        /* \"#utility.yul\":6900:6906   */\n      dup4\n        /* \"#utility.yul\":6896:6913   */\n      add\n        /* \"#utility.yul\":6892:6919   */\n      slt\n        /* \"#utility.yul\":6882:7004   */\n      tag_362\n      jumpi\n        /* \"#utility.yul\":6923:7002   */\n      tag_363\n      tag_262\n      jump\t// in\n    tag_363:\n        /* \"#utility.yul\":6882:7004   */\n    tag_362:\n        /* \"#utility.yul\":7027:7031   */\n      0x09\n        /* \"#utility.yul\":7049:7130   */\n      tag_364\n        /* \"#utility.yul\":7126:7129   */\n      dup5\n        /* \"#utility.yul\":7118:7124   */\n      dup3\n        /* \"#utility.yul\":7110:7116   */\n      dup6\n        /* \"#utility.yul\":7049:7130   */\n      tag_269\n      jump\t// in\n    tag_364:\n        /* \"#utility.yul\":7040:7130   */\n      swap2\n      pop\n        /* \"#utility.yul\":6872:7136   */\n      pop\n        /* \"#utility.yul\":6797:7136   */\n      swap3\n      swap2\n      pop\n      pop\n      jump\t// out\n        /* \"#utility.yul\":7142:7518   */\n    tag_57:\n        /* \"#utility.yul\":7224:7230   */\n      0x00\n        /* \"#utility.yul\":7273:7276   */\n      0x0120\n        /* \"#utility.yul\":7261:7270   */\n      dup3\n        /* \"#utility.yul\":7252:7259   */\n      dup5\n        /* \"#utility.yul\":7248:7271   */\n      sub\n        /* \"#utility.yul\":7244:7277   */\n      slt\n        /* \"#utility.yul\":7241:7361   */\n      iszero\n      tag_366\n      jumpi\n        /* \"#utility.yul\":7280:7359   */\n      tag_367\n      tag_251\n      jump\t// in\n    tag_367:\n        /* \"#utility.yul\":7241:7361   */\n    tag_366:\n        /* \"#utility.yul\":7400:7401   */\n      0x00\n        /* \"#utility.yul\":7425:7501   */\n      tag_368\n        /* \"#utility.yul\":7493:7500   */\n      dup5\n        /* \"#utility.yul\":7484:7490   */\n      dup3\n        /* \"#utility.yul\":7473:7482   */\n      dup6\n        /* \"#utility.yul\":7469:7491   */\n      add\n        /* \"#utility.yul\":7425:7501   */\n      tag_270\n      jump\t// in\n    tag_368:\n        /* \"#utility.yul\":7415:7501   */\n      swap2\n      pop\n        /* \"#utility.yul\":7371:7511   */\n      pop\n        /* \"#utility.yul\":7142:7518   */\n      swap3\n      swap2\n      pop\n      pop\n      jump\t// out\n        /* \"#utility.yul\":7524:7688   */\n    tag_271:\n        /* \"#utility.yul\":7664:7680   */\n      0x67616d652068617320656e646564000000000000000000000000000000000000\n        /* \"#utility.yul\":7660:7661   */\n      0x00\n        /* \"#utility.yul\":7652:7658   */\n      dup3\n        /* \"#utility.yul\":7648:7662   */\n      add\n        /* \"#utility.yul\":7641:7681   */\n      mstore\n        /* \"#utility.yul\":7524:7688   */\n      pop\n      jump\t// out\n        /* \"#utility.yul\":7694:8060   */\n    tag_272:\n        /* \"#utility.yul\":7836:7839   */\n      0x00\n        /* \"#utility.yul\":7857:7924   */\n      tag_371\n        /* \"#utility.yul\":7921:7923   */\n      0x0e\n        /* \"#utility.yul\":7916:7919   */\n      dup4\n        /* \"#utility.yul\":7857:7924   */\n      tag_245\n      jump\t// in\n    tag_371:\n        /* \"#utility.yul\":7850:7924   */\n      swap2\n      pop\n        /* \"#utility.yul\":7933:8026   */\n      tag_372\n        /* \"#utility.yul\":8022:8025   */\n      dup3\n        /* \"#utility.yul\":7933:8026   */\n      tag_271\n      jump\t// in\n    tag_372:\n        /* \"#utility.yul\":8051:8053   */\n      0x20\n        /* \"#utility.yul\":8046:8049   */\n      dup3\n        /* \"#utility.yul\":8042:8054   */\n      add\n        /* \"#utility.yul\":8035:8054   */\n      swap1\n      pop\n        /* \"#utility.yul\":7694:8060   */\n      swap2\n      swap1\n      pop\n      jump\t// out\n        /* \"#utility.yul\":8066:8485   */\n    tag_68:\n        /* \"#utility.yul\":8232:8236   */\n      0x00\n        /* \"#utility.yul\":8270:8272   */\n      0x20\n        /* \"#utility.yul\":8259:8268   */\n      dup3\n        /* \"#utility.yul\":8255:8273   */\n      add\n        /* \"#utility.yul\":8247:8273   */\n      swap1\n      pop\n        /* \"#utility.yul\":8319:8328   */\n      dup2\n        /* \"#utility.yul\":8313:8317   */\n      dup2\n        /* \"#utility.yul\":8309:8329   */\n      sub\n        /* \"#utility.yul\":8305:8306   */\n      0x00\n        /* \"#utility.yul\":8294:8303   */\n      dup4\n        /* \"#utility.yul\":8290:8307   */\n      add\n        /* \"#utility.yul\":8283:8330   */\n      mstore\n        /* \"#utility.yul\":8347:8478   */\n      tag_374\n        /* \"#utility.yul\":8473:8477   */\n      dup2\n        /* \"#utility.yul\":8347:8478   */\n      tag_272\n      jump\t// in\n    tag_374:\n        /* \"#utility.yul\":8339:8478   */\n      swap1\n      pop\n        /* \"#utility.yul\":8066:8485   */\n      swap2\n      swap1\n      pop\n      jump\t// out\n        /* \"#utility.yul\":8491:8651   */\n    tag_273:\n        /* \"#utility.yul\":8631:8643   */\n      0x6e6f206465706f73697400000000000000000000000000000000000000000000\n        /* \"#utility.yul\":8627:8628   */\n      0x00\n        /* \"#utility.yul\":8619:8625   */\n      dup3\n        /* \"#utility.yul\":8615:8629   */\n      add\n        /* \"#utility.yul\":8608:8644   */\n      mstore\n        /* \"#utility.yul\":8491:8651   */\n      pop\n      jump\t// out\n        /* \"#utility.yul\":8657:9023   */\n    tag_274:\n        /* \"#utility.yul\":8799:8802   */\n      0x00\n        /* \"#utility.yul\":8820:8887   */\n      tag_377\n        /* \"#utility.yul\":8884:8886   */\n      0x0a\n        /* \"#utility.yul\":8879:8882   */\n      dup4\n        /* \"#utility.yul\":8820:8887   */\n      tag_245\n      jump\t// in\n    tag_377:\n        /* \"#utility.yul\":8813:8887   */\n      swap2\n      pop\n        /* \"#utility.yul\":8896:8989   */\n      tag_378\n        /* \"#utility.yul\":8985:8988   */\n      dup3\n        /* \"#utility.yul\":8896:8989   */\n      tag_273\n      jump\t// in\n    tag_378:\n        /* \"#utility.yul\":9014:9016   */\n      0x20\n        /* \"#utility.yul\":9009:9012   */\n      dup3\n        /* \"#utility.yul\":9005:9017   */\n      add\n        /* \"#utility.yul\":8998:9017   */\n      swap1\n      pop\n        /* \"#utility.yul\":8657:9023   */\n      swap2\n      swap1\n      pop\n      jump\t// out\n        /* \"#utility.yul\":9029:9448   */\n    tag_72:\n        /* \"#utility.yul\":9195:9199   */\n      0x00\n        /* \"#utility.yul\":9233:9235   */\n      0x20\n        /* \"#utility.yul\":9222:9231   */\n      dup3\n        /* \"#utility.yul\":9218:9236   */\n      add\n        /* \"#utility.yul\":9210:9236   */\n      swap1\n      pop\n        /* \"#utility.yul\":9282:9291   */\n      dup2\n        /* \"#utility.yul\":9276:9280   */\n      dup2\n        /* \"#utility.yul\":9272:9292   */\n      sub\n        /* \"#utility.yul\":9268:9269   */\n      0x00\n        /* \"#utility.yul\":9257:9266   */\n      dup4\n        /* \"#utility.yul\":9253:9270   */\n      add\n        /* \"#utility.yul\":9246:9293   */\n      mstore\n        /* \"#utility.yul\":9310:9441   */\n      tag_380\n        /* \"#utility.yul\":9436:9440   */\n      dup2\n        /* \"#utility.yul\":9310:9441   */\n      tag_274\n      jump\t// in\n    tag_380:\n        /* \"#utility.yul\":9302:9441   */\n      swap1\n      pop\n        /* \"#utility.yul\":9029:9448   */\n      swap2\n      swap1\n      pop\n      jump\t// out\n        /* \"#utility.yul\":9454:9617   */\n    tag_275:\n        /* \"#utility.yul\":9594:9609   */\n      0x6e6f7420796f7572207475726e00000000000000000000000000000000000000\n        /* \"#utility.yul\":9590:9591   */\n      0x00\n        /* \"#utility.yul\":9582:9588   */\n      dup3\n        /* \"#utility.yul\":9578:9592   */\n      add\n        /* \"#utility.yul\":9571:9610   */\n      mstore\n        /* \"#utility.yul\":9454:9617   */\n      pop\n      jump\t// out\n        /* \"#utility.yul\":9623:9989   */\n    tag_276:\n        /* \"#utility.yul\":9765:9768   */\n      0x00\n        /* \"#utility.yul\":9786:9853   */\n      tag_383\n        /* \"#utility.yul\":9850:9852   */\n      0x0d\n        /* \"#utility.yul\":9845:9848   */\n      dup4\n        /* \"#utility.yul\":9786:9853   */\n      tag_245\n      jump\t// in\n    tag_383:\n        /* \"#utility.yul\":9779:9853   */\n      swap2\n      pop\n        /* \"#utility.yul\":9862:9955   */\n      tag_384\n        /* \"#utility.yul\":9951:9954   */\n      dup3\n        /* \"#utility.yul\":9862:9955   */\n      tag_275\n      jump\t// in\n    tag_384:\n        /* \"#utility.yul\":9980:9982   */\n      0x20\n        /* \"#utility.yul\":9975:9978   */\n      dup3\n        /* \"#utility.yul\":9971:9983   */\n      add\n        /* \"#utility.yul\":9964:9983   */\n      swap1\n      pop\n        /* \"#utility.yul\":9623:9989   */\n      swap2\n      swap1\n      pop\n      jump\t// out\n        /* \"#utility.yul\":9995:10414   */\n    tag_75:\n        /* \"#utility.yul\":10161:10165   */\n      0x00\n        /* \"#utility.yul\":10199:10201   */\n      0x20\n        /* \"#utility.yul\":10188:10197   */\n      dup3\n        /* \"#utility.yul\":10184:10202   */\n      add\n        /* \"#utility.yul\":10176:10202   */\n      swap1\n      pop\n        /* \"#utility.yul\":10248:10257   */\n      dup2\n        /* \"#utility.yul\":10242:10246   */\n      dup2\n        /* \"#utility.yul\":10238:10258   */\n      sub\n        /* \"#utility.yul\":10234:10235   */\n      0x00\n        /* \"#utility.yul\":10223:10232   */\n      dup4\n        /* \"#utility.yul\":10219:10236   */\n      add\n        /* \"#utility.yul\":10212:10259   */\n      mstore\n        /* \"#utility.yul\":10276:10407   */\n      tag_386\n        /* \"#utility.yul\":10402:10406   */\n      dup2\n        /* \"#utility.yul\":10276:10407   */\n      tag_276\n      jump\t// in\n    tag_386:\n        /* \"#utility.yul\":10268:10407   */\n      swap1\n      pop\n        /* \"#utility.yul\":9995:10414   */\n      swap2\n      swap1\n      pop\n      jump\t// out\n        /* \"#utility.yul\":10420:10600   */\n    tag_81:\n        /* \"#utility.yul\":10468:10545   */\n      0x4e487b7100000000000000000000000000000000000000000000000000000000\n        /* \"#utility.yul\":10465:10466   */\n      0x00\n        /* \"#utility.yul\":10458:10546   */\n      mstore\n        /* \"#utility.yul\":10565:10569   */\n      0x32\n        /* \"#utility.yul\":10562:10563   */\n      0x04\n        /* \"#utility.yul\":10555:10570   */\n      mstore\n        /* \"#utility.yul\":10589:10593   */\n      0x24\n        /* \"#utility.yul\":10586:10587   */\n      0x00\n        /* \"#utility.yul\":10579:10594   */\n      revert\n        /* \"#utility.yul\":10606:10781   */\n    tag_277:\n        /* \"#utility.yul\":10746:10773   */\n      0x746869732074696c6520697320616c7265616479207573656400000000000000\n        /* \"#utility.yul\":10742:10743   */\n      0x00\n        /* \"#utility.yul\":10734:10740   */\n      dup3\n        /* \"#utility.yul\":10730:10744   */\n      add\n        /* \"#utility.yul\":10723:10774   */\n      mstore\n        /* \"#utility.yul\":10606:10781   */\n      pop\n      jump\t// out\n        /* \"#utility.yul\":10787:11153   */\n    tag_278:\n        /* \"#utility.yul\":10929:10932   */\n      0x00\n        /* \"#utility.yul\":10950:11017   */\n      tag_390\n        /* \"#utility.yul\":11014:11016   */\n      0x19\n        /* \"#utility.yul\":11009:11012   */\n      dup4\n        /* \"#utility.yul\":10950:11017   */\n      tag_245\n      jump\t// in\n    tag_390:\n        /* \"#utility.yul\":10943:11017   */\n      swap2\n      pop\n        /* \"#utility.yul\":11026:11119   */\n      tag_391\n        /* \"#utility.yul\":11115:11118   */\n      dup3\n        /* \"#utility.yul\":11026:11119   */\n      tag_277\n      jump\t// in\n    tag_391:\n        /* \"#utility.yul\":11144:11146   */\n      0x20\n        /* \"#utility.yul\":11139:11142   */\n      dup3\n        /* \"#utility.yul\":11135:11147   */\n      add\n        /* \"#utility.yul\":11128:11147   */\n      swap1\n      pop\n        /* \"#utility.yul\":10787:11153   */\n      swap2\n      swap1\n      pop\n      jump\t// out\n        /* \"#utility.yul\":11159:11578   */\n    tag_88:\n        /* \"#utility.yul\":11325:11329   */\n      0x00\n        /* \"#utility.yul\":11363:11365   */\n      0x20\n        /* \"#utility.yul\":11352:11361   */\n      dup3\n        /* \"#utility.yul\":11348:11366   */\n      add\n        /* \"#utility.yul\":11340:11366   */\n      swap1\n      pop\n        /* \"#utility.yul\":11412:11421   */\n      dup2\n        /* \"#utility.yul\":11406:11410   */\n      dup2\n        /* \"#utility.yul\":11402:11422   */\n      sub\n        /* \"#utility.yul\":11398:11399   */\n      0x00\n        /* \"#utility.yul\":11387:11396   */\n      dup4\n        /* \"#utility.yul\":11383:11400   */\n      add\n        /* \"#utility.yul\":11376:11423   */\n      mstore\n        /* \"#utility.yul\":11440:11571   */\n      tag_393\n        /* \"#utility.yul\":11566:11570   */\n      dup2\n        /* \"#utility.yul\":11440:11571   */\n      tag_278\n      jump\t// in\n    tag_393:\n        /* \"#utility.yul\":11432:11571   */\n      swap1\n      pop\n        /* \"#utility.yul\":11159:11578   */\n      swap2\n      swap1\n      pop\n      jump\t// out\n        /* \"#utility.yul\":11584:11994   */\n    tag_232:\n        /* \"#utility.yul\":11624:11631   */\n      0x00\n        /* \"#utility.yul\":11647:11667   */\n      tag_395\n        /* \"#utility.yul\":11665:11666   */\n      dup3\n        /* \"#utility.yul\":11647:11667   */\n      tag_243\n      jump\t// in\n    tag_395:\n        /* \"#utility.yul\":11642:11667   */\n      swap2\n      pop\n        /* \"#utility.yul\":11681:11701   */\n      tag_396\n        /* \"#utility.yul\":11699:11700   */\n      dup4\n        /* \"#utility.yul\":11681:11701   */\n      tag_243\n      jump\t// in\n    tag_396:\n        /* \"#utility.yul\":11676:11701   */\n      swap3\n      pop\n        /* \"#utility.yul\":11736:11737   */\n      dup3\n        /* \"#utility.yul\":11733:11734   */\n      dup3\n        /* \"#utility.yul\":11729:11738   */\n      mul\n        /* \"#utility.yul\":11758:11788   */\n      tag_397\n        /* \"#utility.yul\":11776:11787   */\n      dup2\n        /* \"#utility.yul\":11758:11788   */\n      tag_243\n      jump\t// in\n    tag_397:\n        /* \"#utility.yul\":11747:11788   */\n      swap2\n      pop\n        /* \"#utility.yul\":11937:11938   */\n      dup3\n        /* \"#utility.yul\":11928:11935   */\n      dup3\n        /* \"#utility.yul\":11924:11939   */\n      div\n        /* \"#utility.yul\":11921:11922   */\n      dup5\n        /* \"#utility.yul\":11918:11940   */\n      eq\n        /* \"#utility.yul\":11898:11899   */\n      dup4\n        /* \"#utility.yul\":11891:11900   */\n      iszero\n        /* \"#utility.yul\":11871:11954   */\n      or\n        /* \"#utility.yul\":11848:11987   */\n      tag_398\n      jumpi\n        /* \"#utility.yul\":11967:11985   */\n      tag_399\n      tag_244\n      jump\t// in\n    tag_399:\n        /* \"#utility.yul\":11848:11987   */\n    tag_398:\n        /* \"#utility.yul\":11632:11994   */\n      pop\n        /* \"#utility.yul\":11584:11994   */\n      swap3\n      swap2\n      pop\n      pop\n      jump\t// out\n\n    auxdata: 0xa26469706673582212205f35fc0cbf3fab630d4fb0dd66cf9eeb2853bc460b05a16ef1753eec7911978664736f6c634300081a0033\n}\n",
				"bytecode": {
					"linkReferences": {},
					"object": "6080604052652d79883d2000600255348015610019575f80fd5b50604051611845380380611845833981810160405281019061003b9190610229565b815f806101000a81548173ffffffffffffffffffffffffffffffffffffffff021916908373ffffffffffffffffffffffffffffffffffffffff1602179055508060015f6101000a81548173ffffffffffffffffffffffffffffffffffffffff021916908373ffffffffffffffffffffffffffffffffffffffff1602179055505f60045f6101000a81548160ff0219169083151502179055506040518061012001604052805f60ff1681526020015f60ff1681526020015f60ff1681526020015f60ff1681526020015f60ff1681526020015f60ff1681526020015f60ff1681526020015f60ff1681526020015f60ff16815250600390600961013e929190610160565b505f600460016101000a81548160ff0219169083151502179055505050610267565b828054828255905f5260205f2090810192821561019f579160200282015b8281111561019e578251829060ff1690559160200191906001019061017e565b5b5090506101ac91906101b0565b5090565b5b808211156101c7575f815f9055506001016101b1565b5090565b5f80fd5b5f73ffffffffffffffffffffffffffffffffffffffff82169050919050565b5f6101f8826101cf565b9050919050565b610208816101ee565b8114610212575f80fd5b50565b5f81519050610223816101ff565b92915050565b5f806040838503121561023f5761023e6101cb565b5b5f61024c85828601610215565b925050602061025d85828601610215565b9150509250929050565b6115d1806102745f395ff3fe60806040526004361061007e575f3560e01c8063855a0fe31161004d578063855a0fe3146102fb5780638b29990314610325578063ad86287a1461034f578063c2a2747b146103775761022b565b80632f6fe3961461022f5780634e0e1a3e1461025957806370a082311461029557806381d01ed3146102d15761022b565b3661022b573460055f3373ffffffffffffffffffffffffffffffffffffffff1673ffffffffffffffffffffffffffffffffffffffff1681526020019081526020015f205f8282546100cf9190610fca565b9250508190555060025460055f3373ffffffffffffffffffffffffffffffffffffffff1673ffffffffffffffffffffffffffffffffffffffff1681526020019081526020015f20541115610229575f60025460055f3373ffffffffffffffffffffffffffffffffffffffff1673ffffffffffffffffffffffffffffffffffffffff1681526020019081526020015f20546101699190610ffd565b905060025460055f3373ffffffffffffffffffffffffffffffffffffffff1673ffffffffffffffffffffffffffffffffffffffff1681526020019081526020015f20819055505f3373ffffffffffffffffffffffffffffffffffffffff166108fc8390811502906040515f60405180830381858888f19350505050905080610226576040517f08c379a000000000000000000000000000000000000000000000000000000000815260040161021d9061108a565b60405180910390fd5b50505b005b5f80fd5b34801561023a575f80fd5b506102436103a1565b60405161025091906110c2565b60405180910390f35b348015610264575f80fd5b5061027f600480360381019061027a9190611112565b6103b4565b60405161028c919061114c565b60405180910390f35b3480156102a0575f80fd5b506102bb60048036038101906102b691906111bf565b6103d4565b6040516102c8919061114c565b60405180910390f35b3480156102dc575f80fd5b506102e56103e9565b6040516102f2919061120a565b60405180910390f35b348015610306575f80fd5b5061030f61040e565b60405161031c919061114c565b60405180910390f35b348015610330575f80fd5b50610339610414565b60405161034691906110c2565b60405180910390f35b34801561035a575f80fd5b5061037560048036038101906103709190611361565b610426565b005b348015610382575f80fd5b5061038b610929565b604051610398919061120a565b60405180910390f35b600460019054906101000a900460ff1681565b600381815481106103c3575f80fd5b905f5260205f20015f915090505481565b6005602052805f5260405f205f915090505481565b60015f9054906101000a900473ffffffffffffffffffffffffffffffffffffffff1681565b60025481565b60045f9054906101000a900460ff1681565b600460019054906101000a900460ff1615610476576040517f08c379a000000000000000000000000000000000000000000000000000000000815260040161046d906113d7565b60405180910390fd5b5f8054906101000a900473ffffffffffffffffffffffffffffffffffffffff1673ffffffffffffffffffffffffffffffffffffffff163373ffffffffffffffffffffffffffffffffffffffff16036106cc5760025460055f805f9054906101000a900473ffffffffffffffffffffffffffffffffffffffff1673ffffffffffffffffffffffffffffffffffffffff1673ffffffffffffffffffffffffffffffffffffffff1681526020019081526020015f205414610569576040517f08c379a00000000000000000000000000000000000000000000000000000000081526004016105609061143f565b60405180910390fd5b60045f9054906101000a900460ff16156105b8576040517f08c379a00000000000000000000000000000000000000000000000000000000081526004016105af906114a7565b60405180910390fd5b5f805b60098110156105f7575f8382600981106105d8576105d76114c5565b5b6020020151146105ea578091506105f7565b80806001019150506105bb565b505f6003828154811061060d5761060c6114c5565b5b905f5260205f20015414610656576040517f08c379a000000000000000000000000000000000000000000000000000000000815260040161064d9061153c565b60405180910390fd5b60016003828154811061066c5761066b6114c5565b5b905f5260205f20018190555060045f9054906101000a900460ff161560045f6101000a81548160ff0219169083151502179055506106ca5f8054906101000a900473ffffffffffffffffffffffffffffffffffffffff16600161094c565b505b60015f9054906101000a900473ffffffffffffffffffffffffffffffffffffffff1673ffffffffffffffffffffffffffffffffffffffff163373ffffffffffffffffffffffffffffffffffffffff16036109265760025460055f60015f9054906101000a900473ffffffffffffffffffffffffffffffffffffffff1673ffffffffffffffffffffffffffffffffffffffff1673ffffffffffffffffffffffffffffffffffffffff1681526020019081526020015f2054146107c2576040517f08c379a00000000000000000000000000000000000000000000000000000000081526004016107b99061143f565b60405180910390fd5b60045f9054906101000a900460ff16610810576040517f08c379a0000000000000000000000000000000000000000000000000000000008152600401610807906114a7565b60405180910390fd5b5f805b600981101561084f575f8382600981106108305761082f6114c5565b5b6020020151146108425780915061084f565b8080600101915050610813565b505f60038281548110610865576108646114c5565b5b905f5260205f200154146108ae576040517f08c379a00000000000000000000000000000000000000000000000000000000081526004016108a59061153c565b60405180910390fd5b6002600382815481106108c4576108c36114c5565b5b905f5260205f20018190555060045f9054906101000a900460ff161560045f6101000a81548160ff02191690831515021790555061092460015f9054906101000a900473ffffffffffffffffffffffffffffffffffffffff16600261094c565b505b50565b5f8054906101000a900473ffffffffffffffffffffffffffffffffffffffff1681565b8060035f81548110610961576109606114c5565b5b905f5260205f2001541480156109935750806003600181548110610988576109876114c5565b5b905f5260205f200154145b80156109bb57508060036002815481106109b0576109af6114c5565b5b905f5260205f200154145b156109ca576109c982610d9f565b5b8060036004815481106109e0576109df6114c5565b5b905f5260205f200154148015610a125750806003600581548110610a0757610a066114c5565b5b905f5260205f200154145b8015610a3a5750806003600681548110610a2f57610a2e6114c5565b5b905f5260205f200154145b15610a4957610a4882610d9f565b5b806003600781548110610a5f57610a5e6114c5565b5b905f5260205f200154148015610a915750806003600881548110610a8657610a856114c5565b5b905f5260205f200154145b8015610ab95750806003600981548110610aae57610aad6114c5565b5b905f5260205f200154145b15610ac857610ac782610d9f565b5b8060035f81548110610add57610adc6114c5565b5b905f5260205f200154148015610b0e57508060038081548110610b0357610b026114c5565b5b905f5260205f200154145b8015610b365750806003600681548110610b2b57610b2a6114c5565b5b905f5260205f200154145b15610b4557610b4482610d9f565b5b806003600181548110610b5b57610b5a6114c5565b5b905f5260205f200154148015610b8d5750806003600481548110610b8257610b816114c5565b5b905f5260205f200154145b8015610bb55750806003600781548110610baa57610ba96114c5565b5b905f5260205f200154145b15610bc457610bc382610d9f565b5b806003600281548110610bda57610bd96114c5565b5b905f5260205f200154148015610c0c5750806003600581548110610c0157610c006114c5565b5b905f5260205f200154145b8015610c345750806003600881548110610c2957610c286114c5565b5b905f5260205f200154145b15610c4357610c4282610d9f565b5b8060035f81548110610c5857610c576114c5565b5b905f5260205f200154148015610c8a5750806003600481548110610c7f57610c7e6114c5565b5b905f5260205f200154145b8015610cb25750806003600881548110610ca757610ca66114c5565b5b905f5260205f200154145b15610cc157610cc082610d9f565b5b806003600281548110610cd757610cd66114c5565b5b905f5260205f200154148015610d095750806003600481548110610cfe57610cfd6114c5565b5b905f5260205f200154145b8015610d315750806003600681548110610d2657610d256114c5565b5b905f5260205f200154145b15610d4057610d3f82610d9f565b5b5f606490505f5b6009811015610d88575f60038281548110610d6557610d646114c5565b5b905f5260205f20015403610d7b57809150610d88565b8080600101915050610d47565b5060648103610d9a57610d99610e42565b5b505050565b6001600460016101000a81548160ff0219169083151502179055505f8173ffffffffffffffffffffffffffffffffffffffff166108fc60028054610de3919061155a565b90811502906040515f60405180830381858888f19350505050905080610e3e576040517f08c379a0000000000000000000000000000000000000000000000000000000008152600401610e359061108a565b60405180910390fd5b5050565b6001600460016101000a81548160ff0219169083151502179055505f805f9054906101000a900473ffffffffffffffffffffffffffffffffffffffff1673ffffffffffffffffffffffffffffffffffffffff166108fc60025490811502906040515f60405180830381858888f19350505050905080610ef6576040517f08c379a0000000000000000000000000000000000000000000000000000000008152600401610eed9061108a565b60405180910390fd5b5f60015f9054906101000a900473ffffffffffffffffffffffffffffffffffffffff1673ffffffffffffffffffffffffffffffffffffffff166108fc60025490811502906040515f60405180830381858888f19350505050905080610f90576040517f08c379a0000000000000000000000000000000000000000000000000000000008152600401610f879061108a565b60405180910390fd5b5050565b5f819050919050565b7f4e487b71000000000000000000000000000000000000000000000000000000005f52601160045260245ffd5b5f610fd482610f94565b9150610fdf83610f94565b9250828201905080821115610ff757610ff6610f9d565b5b92915050565b5f61100782610f94565b915061101283610f94565b925082820390508181111561102a57611029610f9d565b5b92915050565b5f82825260208201905092915050565b7f4661696c656420746f2073656e642045746865720000000000000000000000005f82015250565b5f611074601483611030565b915061107f82611040565b602082019050919050565b5f6020820190508181035f8301526110a181611068565b9050919050565b5f8115159050919050565b6110bc816110a8565b82525050565b5f6020820190506110d55f8301846110b3565b92915050565b5f604051905090565b5f80fd5b6110f181610f94565b81146110fb575f80fd5b50565b5f8135905061110c816110e8565b92915050565b5f60208284031215611127576111266110e4565b5b5f611134848285016110fe565b91505092915050565b61114681610f94565b82525050565b5f60208201905061115f5f83018461113d565b92915050565b5f73ffffffffffffffffffffffffffffffffffffffff82169050919050565b5f61118e82611165565b9050919050565b61119e81611184565b81146111a8575f80fd5b50565b5f813590506111b981611195565b92915050565b5f602082840312156111d4576111d36110e4565b5b5f6111e1848285016111ab565b91505092915050565b5f6111f482611165565b9050919050565b611204816111ea565b82525050565b5f60208201905061121d5f8301846111fb565b92915050565b5f80fd5b5f601f19601f8301169050919050565b7f4e487b71000000000000000000000000000000000000000000000000000000005f52604160045260245ffd5b61126d82611227565b810181811067ffffffffffffffff8211171561128c5761128b611237565b5b80604052505050565b5f61129e6110db565b90506112aa8282611264565b919050565b5f67ffffffffffffffff8211156112c9576112c8611237565b5b602082029050919050565b5f80fd5b5f6112ea6112e5846112af565b611295565b90508060208402830185811115611304576113036112d4565b5b835b8181101561132d578061131988826110fe565b845260208401935050602081019050611306565b5050509392505050565b5f82601f83011261134b5761134a611223565b5b60096113588482856112d8565b91505092915050565b5f6101208284031215611377576113766110e4565b5b5f61138484828501611337565b91505092915050565b7f67616d652068617320656e6465640000000000000000000000000000000000005f82015250565b5f6113c1600e83611030565b91506113cc8261138d565b602082019050919050565b5f6020820190508181035f8301526113ee816113b5565b9050919050565b7f6e6f206465706f736974000000000000000000000000000000000000000000005f82015250565b5f611429600a83611030565b9150611434826113f5565b602082019050919050565b5f6020820190508181035f8301526114568161141d565b9050919050565b7f6e6f7420796f7572207475726e000000000000000000000000000000000000005f82015250565b5f611491600d83611030565b915061149c8261145d565b602082019050919050565b5f6020820190508181035f8301526114be81611485565b9050919050565b7f4e487b71000000000000000000000000000000000000000000000000000000005f52603260045260245ffd5b7f746869732074696c6520697320616c72656164792075736564000000000000005f82015250565b5f611526601983611030565b9150611531826114f2565b602082019050919050565b5f6020820190508181035f8301526115538161151a565b9050919050565b5f61156482610f94565b915061156f83610f94565b925082820261157d81610f94565b9150828204841483151761159457611593610f9d565b5b509291505056fea26469706673582212205f35fc0cbf3fab630d4fb0dd66cf9eeb2853bc460b05a16ef1753eec7911978664736f6c634300081a0033",
					"opcodes": "PUSH1 0x80 PUSH1 0x40 MSTORE PUSH6 0x2D79883D2000 PUSH1 0x2 SSTORE CALLVALUE DUP1 ISZERO PUSH2 0x19 JUMPI PUSH0 DUP1 REVERT JUMPDEST POP PUSH1 0x40 MLOAD PUSH2 0x1845 CODESIZE SUB DUP1 PUSH2 0x1845 DUP4 CODECOPY DUP2 DUP2 ADD PUSH1 0x40 MSTORE DUP2 ADD SWAP1 PUSH2 0x3B SWAP2 SWAP1 PUSH2 0x229 JUMP JUMPDEST DUP2 PUSH0 DUP1 PUSH2 0x100 EXP DUP2 SLOAD DUP2 PUSH20 0xFFFFFFFFFFFFFFFFFFFFFFFFFFFFFFFFFFFFFFFF MUL NOT AND SWAP1 DUP4 PUSH20 0xFFFFFFFFFFFFFFFFFFFFFFFFFFFFFFFFFFFFFFFF AND MUL OR SWAP1 SSTORE POP DUP1 PUSH1 0x1 PUSH0 PUSH2 0x100 EXP DUP2 SLOAD DUP2 PUSH20 0xFFFFFFFFFFFFFFFFFFFFFFFFFFFFFFFFFFFFFFFF MUL NOT AND SWAP1 DUP4 PUSH20 0xFFFFFFFFFFFFFFFFFFFFFFFFFFFFFFFFFFFFFFFF AND MUL OR SWAP1 SSTORE POP PUSH0 PUSH1 0x4 PUSH0 PUSH2 0x100 EXP DUP2 SLOAD DUP2 PUSH1 0xFF MUL NOT AND SWAP1 DUP4 ISZERO ISZERO MUL OR SWAP1 SSTORE POP PUSH1 0x40 MLOAD DUP1 PUSH2 0x120 ADD PUSH1 0x40 MSTORE DUP1 PUSH0 PUSH1 0xFF AND DUP2 MSTORE PUSH1 0x20 ADD PUSH0 PUSH1 0xFF AND DUP2 MSTORE PUSH1 0x20 ADD PUSH0 PUSH1 0xFF AND DUP2 MSTORE PUSH1 0x20 ADD PUSH0 PUSH1 0xFF AND DUP2 MSTORE PUSH1 0x20 ADD PUSH0 PUSH1 0xFF AND DUP2 MSTORE PUSH1 0x20 ADD PUSH0 PUSH1 0xFF AND DUP2 MSTORE PUSH1 0x20 ADD PUSH0 PUSH1 0xFF AND DUP2 MSTORE PUSH1 0x20 ADD PUSH0 PUSH1 0xFF AND DUP2 MSTORE PUSH1 0x20 ADD PUSH0 PUSH1 0xFF AND DUP2 MSTORE POP PUSH1 0x3 SWAP1 PUSH1 0x9 PUSH2 0x13E SWAP3 SWAP2 SWAP1 PUSH2 0x160 JUMP JUMPDEST POP PUSH0 PUSH1 0x4 PUSH1 0x1 PUSH2 0x100 EXP DUP2 SLOAD DUP2 PUSH1 0xFF MUL NOT AND SWAP1 DUP4 ISZERO ISZERO MUL OR SWAP1 SSTORE POP POP POP PUSH2 0x267 JUMP JUMPDEST DUP3 DUP1 SLOAD DUP3 DUP3 SSTORE SWAP1 PUSH0 MSTORE PUSH1 0x20 PUSH0 KECCAK256 SWAP1 DUP2 ADD SWAP3 DUP3 ISZERO PUSH2 0x19F JUMPI SWAP2 PUSH1 0x20 MUL DUP3 ADD JUMPDEST DUP3 DUP2 GT ISZERO PUSH2 0x19E JUMPI DUP3 MLOAD DUP3 SWAP1 PUSH1 0xFF AND SWAP1 SSTORE SWAP2 PUSH1 0x20 ADD SWAP2 SWAP1 PUSH1 0x1 ADD SWAP1 PUSH2 0x17E JUMP JUMPDEST JUMPDEST POP SWAP1 POP PUSH2 0x1AC SWAP2 SWAP1 PUSH2 0x1B0 JUMP JUMPDEST POP SWAP1 JUMP JUMPDEST JUMPDEST DUP1 DUP3 GT ISZERO PUSH2 0x1C7 JUMPI PUSH0 DUP2 PUSH0 SWAP1 SSTORE POP PUSH1 0x1 ADD PUSH2 0x1B1 JUMP JUMPDEST POP SWAP1 JUMP JUMPDEST PUSH0 DUP1 REVERT JUMPDEST PUSH0 PUSH20 0xFFFFFFFFFFFFFFFFFFFFFFFFFFFFFFFFFFFFFFFF DUP3 AND SWAP1 POP SWAP2 SWAP1 POP JUMP JUMPDEST PUSH0 PUSH2 0x1F8 DUP3 PUSH2 0x1CF JUMP JUMPDEST SWAP1 POP SWAP2 SWAP1 POP JUMP JUMPDEST PUSH2 0x208 DUP2 PUSH2 0x1EE JUMP JUMPDEST DUP2 EQ PUSH2 0x212 JUMPI PUSH0 DUP1 REVERT JUMPDEST POP JUMP JUMPDEST PUSH0 DUP2 MLOAD SWAP1 POP PUSH2 0x223 DUP2 PUSH2 0x1FF JUMP JUMPDEST SWAP3 SWAP2 POP POP JUMP JUMPDEST PUSH0 DUP1 PUSH1 0x40 DUP4 DUP6 SUB SLT ISZERO PUSH2 0x23F JUMPI PUSH2 0x23E PUSH2 0x1CB JUMP JUMPDEST JUMPDEST PUSH0 PUSH2 0x24C DUP6 DUP3 DUP7 ADD PUSH2 0x215 JUMP JUMPDEST SWAP3 POP POP PUSH1 0x20 PUSH2 0x25D DUP6 DUP3 DUP7 ADD PUSH2 0x215 JUMP JUMPDEST SWAP2 POP POP SWAP3 POP SWAP3 SWAP1 POP JUMP JUMPDEST PUSH2 0x15D1 DUP1 PUSH2 0x274 PUSH0 CODECOPY PUSH0 RETURN INVALID PUSH1 0x80 PUSH1 0x40 MSTORE PUSH1 0x4 CALLDATASIZE LT PUSH2 0x7E JUMPI PUSH0 CALLDATALOAD PUSH1 0xE0 SHR DUP1 PUSH4 0x855A0FE3 GT PUSH2 0x4D JUMPI DUP1 PUSH4 0x855A0FE3 EQ PUSH2 0x2FB JUMPI DUP1 PUSH4 0x8B299903 EQ PUSH2 0x325 JUMPI DUP1 PUSH4 0xAD86287A EQ PUSH2 0x34F JUMPI DUP1 PUSH4 0xC2A2747B EQ PUSH2 0x377 JUMPI PUSH2 0x22B JUMP JUMPDEST DUP1 PUSH4 0x2F6FE396 EQ PUSH2 0x22F JUMPI DUP1 PUSH4 0x4E0E1A3E EQ PUSH2 0x259 JUMPI DUP1 PUSH4 0x70A08231 EQ PUSH2 0x295 JUMPI DUP1 PUSH4 0x81D01ED3 EQ PUSH2 0x2D1 JUMPI PUSH2 0x22B JUMP JUMPDEST CALLDATASIZE PUSH2 0x22B JUMPI CALLVALUE PUSH1 0x5 PUSH0 CALLER PUSH20 0xFFFFFFFFFFFFFFFFFFFFFFFFFFFFFFFFFFFFFFFF AND PUSH20 0xFFFFFFFFFFFFFFFFFFFFFFFFFFFFFFFFFFFFFFFF AND DUP2 MSTORE PUSH1 0x20 ADD SWAP1 DUP2 MSTORE PUSH1 0x20 ADD PUSH0 KECCAK256 PUSH0 DUP3 DUP3 SLOAD PUSH2 0xCF SWAP2 SWAP1 PUSH2 0xFCA JUMP JUMPDEST SWAP3 POP POP DUP2 SWAP1 SSTORE POP PUSH1 0x2 SLOAD PUSH1 0x5 PUSH0 CALLER PUSH20 0xFFFFFFFFFFFFFFFFFFFFFFFFFFFFFFFFFFFFFFFF AND PUSH20 0xFFFFFFFFFFFFFFFFFFFFFFFFFFFFFFFFFFFFFFFF AND DUP2 MSTORE PUSH1 0x20 ADD SWAP1 DUP2 MSTORE PUSH1 0x20 ADD PUSH0 KECCAK256 SLOAD GT ISZERO PUSH2 0x229 JUMPI PUSH0 PUSH1 0x2 SLOAD PUSH1 0x5 PUSH0 CALLER PUSH20 0xFFFFFFFFFFFFFFFFFFFFFFFFFFFFFFFFFFFFFFFF AND PUSH20 0xFFFFFFFFFFFFFFFFFFFFFFFFFFFFFFFFFFFFFFFF AND DUP2 MSTORE PUSH1 0x20 ADD SWAP1 DUP2 MSTORE PUSH1 0x20 ADD PUSH0 KECCAK256 SLOAD PUSH2 0x169 SWAP2 SWAP1 PUSH2 0xFFD JUMP JUMPDEST SWAP1 POP PUSH1 0x2 SLOAD PUSH1 0x5 PUSH0 CALLER PUSH20 0xFFFFFFFFFFFFFFFFFFFFFFFFFFFFFFFFFFFFFFFF AND PUSH20 0xFFFFFFFFFFFFFFFFFFFFFFFFFFFFFFFFFFFFFFFF AND DUP2 MSTORE PUSH1 0x20 ADD SWAP1 DUP2 MSTORE PUSH1 0x20 ADD PUSH0 KECCAK256 DUP2 SWAP1 SSTORE POP PUSH0 CALLER PUSH20 0xFFFFFFFFFFFFFFFFFFFFFFFFFFFFFFFFFFFFFFFF AND PUSH2 0x8FC DUP4 SWAP1 DUP2 ISZERO MUL SWAP1 PUSH1 0x40 MLOAD PUSH0 PUSH1 0x40 MLOAD DUP1 DUP4 SUB DUP2 DUP6 DUP9 DUP9 CALL SWAP4 POP POP POP POP SWAP1 POP DUP1 PUSH2 0x226 JUMPI PUSH1 0x40 MLOAD PUSH32 0x8C379A000000000000000000000000000000000000000000000000000000000 DUP2 MSTORE PUSH1 0x4 ADD PUSH2 0x21D SWAP1 PUSH2 0x108A JUMP JUMPDEST PUSH1 0x40 MLOAD DUP1 SWAP2 SUB SWAP1 REVERT JUMPDEST POP POP JUMPDEST STOP JUMPDEST PUSH0 DUP1 REVERT JUMPDEST CALLVALUE DUP1 ISZERO PUSH2 0x23A JUMPI PUSH0 DUP1 REVERT JUMPDEST POP PUSH2 0x243 PUSH2 0x3A1 JUMP JUMPDEST PUSH1 0x40 MLOAD PUSH2 0x250 SWAP2 SWAP1 PUSH2 0x10C2 JUMP JUMPDEST PUSH1 0x40 MLOAD DUP1 SWAP2 SUB SWAP1 RETURN JUMPDEST CALLVALUE DUP1 ISZERO PUSH2 0x264 JUMPI PUSH0 DUP1 REVERT JUMPDEST POP PUSH2 0x27F PUSH1 0x4 DUP1 CALLDATASIZE SUB DUP2 ADD SWAP1 PUSH2 0x27A SWAP2 SWAP1 PUSH2 0x1112 JUMP JUMPDEST PUSH2 0x3B4 JUMP JUMPDEST PUSH1 0x40 MLOAD PUSH2 0x28C SWAP2 SWAP1 PUSH2 0x114C JUMP JUMPDEST PUSH1 0x40 MLOAD DUP1 SWAP2 SUB SWAP1 RETURN JUMPDEST CALLVALUE DUP1 ISZERO PUSH2 0x2A0 JUMPI PUSH0 DUP1 REVERT JUMPDEST POP PUSH2 0x2BB PUSH1 0x4 DUP1 CALLDATASIZE SUB DUP2 ADD SWAP1 PUSH2 0x2B6 SWAP2 SWAP1 PUSH2 0x11BF JUMP JUMPDEST PUSH2 0x3D4 JUMP JUMPDEST PUSH1 0x40 MLOAD PUSH2 0x2C8 SWAP2 SWAP1 PUSH2 0x114C JUMP JUMPDEST PUSH1 0x40 MLOAD DUP1 SWAP2 SUB SWAP1 RETURN JUMPDEST CALLVALUE DUP1 ISZERO PUSH2 0x2DC JUMPI PUSH0 DUP1 REVERT JUMPDEST POP PUSH2 0x2E5 PUSH2 0x3E9 JUMP JUMPDEST PUSH1 0x40 MLOAD PUSH2 0x2F2 SWAP2 SWAP1 PUSH2 0x120A JUMP JUMPDEST PUSH1 0x40 MLOAD DUP1 SWAP2 SUB SWAP1 RETURN JUMPDEST CALLVALUE DUP1 ISZERO PUSH2 0x306 JUMPI PUSH0 DUP1 REVERT JUMPDEST POP PUSH2 0x30F PUSH2 0x40E JUMP JUMPDEST PUSH1 0x40 MLOAD PUSH2 0x31C SWAP2 SWAP1 PUSH2 0x114C JUMP JUMPDEST PUSH1 0x40 MLOAD DUP1 SWAP2 SUB SWAP1 RETURN JUMPDEST CALLVALUE DUP1 ISZERO PUSH2 0x330 JUMPI PUSH0 DUP1 REVERT JUMPDEST POP PUSH2 0x339 PUSH2 0x414 JUMP JUMPDEST PUSH1 0x40 MLOAD PUSH2 0x346 SWAP2 SWAP1 PUSH2 0x10C2 JUMP JUMPDEST PUSH1 0x40 MLOAD DUP1 SWAP2 SUB SWAP1 RETURN JUMPDEST CALLVALUE DUP1 ISZERO PUSH2 0x35A JUMPI PUSH0 DUP1 REVERT JUMPDEST POP PUSH2 0x375 PUSH1 0x4 DUP1 CALLDATASIZE SUB DUP2 ADD SWAP1 PUSH2 0x370 SWAP2 SWAP1 PUSH2 0x1361 JUMP JUMPDEST PUSH2 0x426 JUMP JUMPDEST STOP JUMPDEST CALLVALUE DUP1 ISZERO PUSH2 0x382 JUMPI PUSH0 DUP1 REVERT JUMPDEST POP PUSH2 0x38B PUSH2 0x929 JUMP JUMPDEST PUSH1 0x40 MLOAD PUSH2 0x398 SWAP2 SWAP1 PUSH2 0x120A JUMP JUMPDEST PUSH1 0x40 MLOAD DUP1 SWAP2 SUB SWAP1 RETURN JUMPDEST PUSH1 0x4 PUSH1 0x1 SWAP1 SLOAD SWAP1 PUSH2 0x100 EXP SWAP1 DIV PUSH1 0xFF AND DUP2 JUMP JUMPDEST PUSH1 0x3 DUP2 DUP2 SLOAD DUP2 LT PUSH2 0x3C3 JUMPI PUSH0 DUP1 REVERT JUMPDEST SWAP1 PUSH0 MSTORE PUSH1 0x20 PUSH0 KECCAK256 ADD PUSH0 SWAP2 POP SWAP1 POP SLOAD DUP2 JUMP JUMPDEST PUSH1 0x5 PUSH1 0x20 MSTORE DUP1 PUSH0 MSTORE PUSH1 0x40 PUSH0 KECCAK256 PUSH0 SWAP2 POP SWAP1 POP SLOAD DUP2 JUMP JUMPDEST PUSH1 0x1 PUSH0 SWAP1 SLOAD SWAP1 PUSH2 0x100 EXP SWAP1 DIV PUSH20 0xFFFFFFFFFFFFFFFFFFFFFFFFFFFFFFFFFFFFFFFF AND DUP2 JUMP JUMPDEST PUSH1 0x2 SLOAD DUP2 JUMP JUMPDEST PUSH1 0x4 PUSH0 SWAP1 SLOAD SWAP1 PUSH2 0x100 EXP SWAP1 DIV PUSH1 0xFF AND DUP2 JUMP JUMPDEST PUSH1 0x4 PUSH1 0x1 SWAP1 SLOAD SWAP1 PUSH2 0x100 EXP SWAP1 DIV PUSH1 0xFF AND ISZERO PUSH2 0x476 JUMPI PUSH1 0x40 MLOAD PUSH32 0x8C379A000000000000000000000000000000000000000000000000000000000 DUP2 MSTORE PUSH1 0x4 ADD PUSH2 0x46D SWAP1 PUSH2 0x13D7 JUMP JUMPDEST PUSH1 0x40 MLOAD DUP1 SWAP2 SUB SWAP1 REVERT JUMPDEST PUSH0 DUP1 SLOAD SWAP1 PUSH2 0x100 EXP SWAP1 DIV PUSH20 0xFFFFFFFFFFFFFFFFFFFFFFFFFFFFFFFFFFFFFFFF AND PUSH20 0xFFFFFFFFFFFFFFFFFFFFFFFFFFFFFFFFFFFFFFFF AND CALLER PUSH20 0xFFFFFFFFFFFFFFFFFFFFFFFFFFFFFFFFFFFFFFFF AND SUB PUSH2 0x6CC JUMPI PUSH1 0x2 SLOAD PUSH1 0x5 PUSH0 DUP1 PUSH0 SWAP1 SLOAD SWAP1 PUSH2 0x100 EXP SWAP1 DIV PUSH20 0xFFFFFFFFFFFFFFFFFFFFFFFFFFFFFFFFFFFFFFFF AND PUSH20 0xFFFFFFFFFFFFFFFFFFFFFFFFFFFFFFFFFFFFFFFF AND PUSH20 0xFFFFFFFFFFFFFFFFFFFFFFFFFFFFFFFFFFFFFFFF AND DUP2 MSTORE PUSH1 0x20 ADD SWAP1 DUP2 MSTORE PUSH1 0x20 ADD PUSH0 KECCAK256 SLOAD EQ PUSH2 0x569 JUMPI PUSH1 0x40 MLOAD PUSH32 0x8C379A000000000000000000000000000000000000000000000000000000000 DUP2 MSTORE PUSH1 0x4 ADD PUSH2 0x560 SWAP1 PUSH2 0x143F JUMP JUMPDEST PUSH1 0x40 MLOAD DUP1 SWAP2 SUB SWAP1 REVERT JUMPDEST PUSH1 0x4 PUSH0 SWAP1 SLOAD SWAP1 PUSH2 0x100 EXP SWAP1 DIV PUSH1 0xFF AND ISZERO PUSH2 0x5B8 JUMPI PUSH1 0x40 MLOAD PUSH32 0x8C379A000000000000000000000000000000000000000000000000000000000 DUP2 MSTORE PUSH1 0x4 ADD PUSH2 0x5AF SWAP1 PUSH2 0x14A7 JUMP JUMPDEST PUSH1 0x40 MLOAD DUP1 SWAP2 SUB SWAP1 REVERT JUMPDEST PUSH0 DUP1 JUMPDEST PUSH1 0x9 DUP2 LT ISZERO PUSH2 0x5F7 JUMPI PUSH0 DUP4 DUP3 PUSH1 0x9 DUP2 LT PUSH2 0x5D8 JUMPI PUSH2 0x5D7 PUSH2 0x14C5 JUMP JUMPDEST JUMPDEST PUSH1 0x20 MUL ADD MLOAD EQ PUSH2 0x5EA JUMPI DUP1 SWAP2 POP PUSH2 0x5F7 JUMP JUMPDEST DUP1 DUP1 PUSH1 0x1 ADD SWAP2 POP POP PUSH2 0x5BB JUMP JUMPDEST POP PUSH0 PUSH1 0x3 DUP3 DUP2 SLOAD DUP2 LT PUSH2 0x60D JUMPI PUSH2 0x60C PUSH2 0x14C5 JUMP JUMPDEST JUMPDEST SWAP1 PUSH0 MSTORE PUSH1 0x20 PUSH0 KECCAK256 ADD SLOAD EQ PUSH2 0x656 JUMPI PUSH1 0x40 MLOAD PUSH32 0x8C379A000000000000000000000000000000000000000000000000000000000 DUP2 MSTORE PUSH1 0x4 ADD PUSH2 0x64D SWAP1 PUSH2 0x153C JUMP JUMPDEST PUSH1 0x40 MLOAD DUP1 SWAP2 SUB SWAP1 REVERT JUMPDEST PUSH1 0x1 PUSH1 0x3 DUP3 DUP2 SLOAD DUP2 LT PUSH2 0x66C JUMPI PUSH2 0x66B PUSH2 0x14C5 JUMP JUMPDEST JUMPDEST SWAP1 PUSH0 MSTORE PUSH1 0x20 PUSH0 KECCAK256 ADD DUP2 SWAP1 SSTORE POP PUSH1 0x4 PUSH0 SWAP1 SLOAD SWAP1 PUSH2 0x100 EXP SWAP1 DIV PUSH1 0xFF AND ISZERO PUSH1 0x4 PUSH0 PUSH2 0x100 EXP DUP2 SLOAD DUP2 PUSH1 0xFF MUL NOT AND SWAP1 DUP4 ISZERO ISZERO MUL OR SWAP1 SSTORE POP PUSH2 0x6CA PUSH0 DUP1 SLOAD SWAP1 PUSH2 0x100 EXP SWAP1 DIV PUSH20 0xFFFFFFFFFFFFFFFFFFFFFFFFFFFFFFFFFFFFFFFF AND PUSH1 0x1 PUSH2 0x94C JUMP JUMPDEST POP JUMPDEST PUSH1 0x1 PUSH0 SWAP1 SLOAD SWAP1 PUSH2 0x100 EXP SWAP1 DIV PUSH20 0xFFFFFFFFFFFFFFFFFFFFFFFFFFFFFFFFFFFFFFFF AND PUSH20 0xFFFFFFFFFFFFFFFFFFFFFFFFFFFFFFFFFFFFFFFF AND CALLER PUSH20 0xFFFFFFFFFFFFFFFFFFFFFFFFFFFFFFFFFFFFFFFF AND SUB PUSH2 0x926 JUMPI PUSH1 0x2 SLOAD PUSH1 0x5 PUSH0 PUSH1 0x1 PUSH0 SWAP1 SLOAD SWAP1 PUSH2 0x100 EXP SWAP1 DIV PUSH20 0xFFFFFFFFFFFFFFFFFFFFFFFFFFFFFFFFFFFFFFFF AND PUSH20 0xFFFFFFFFFFFFFFFFFFFFFFFFFFFFFFFFFFFFFFFF AND PUSH20 0xFFFFFFFFFFFFFFFFFFFFFFFFFFFFFFFFFFFFFFFF AND DUP2 MSTORE PUSH1 0x20 ADD SWAP1 DUP2 MSTORE PUSH1 0x20 ADD PUSH0 KECCAK256 SLOAD EQ PUSH2 0x7C2 JUMPI PUSH1 0x40 MLOAD PUSH32 0x8C379A000000000000000000000000000000000000000000000000000000000 DUP2 MSTORE PUSH1 0x4 ADD PUSH2 0x7B9 SWAP1 PUSH2 0x143F JUMP JUMPDEST PUSH1 0x40 MLOAD DUP1 SWAP2 SUB SWAP1 REVERT JUMPDEST PUSH1 0x4 PUSH0 SWAP1 SLOAD SWAP1 PUSH2 0x100 EXP SWAP1 DIV PUSH1 0xFF AND PUSH2 0x810 JUMPI PUSH1 0x40 MLOAD PUSH32 0x8C379A000000000000000000000000000000000000000000000000000000000 DUP2 MSTORE PUSH1 0x4 ADD PUSH2 0x807 SWAP1 PUSH2 0x14A7 JUMP JUMPDEST PUSH1 0x40 MLOAD DUP1 SWAP2 SUB SWAP1 REVERT JUMPDEST PUSH0 DUP1 JUMPDEST PUSH1 0x9 DUP2 LT ISZERO PUSH2 0x84F JUMPI PUSH0 DUP4 DUP3 PUSH1 0x9 DUP2 LT PUSH2 0x830 JUMPI PUSH2 0x82F PUSH2 0x14C5 JUMP JUMPDEST JUMPDEST PUSH1 0x20 MUL ADD MLOAD EQ PUSH2 0x842 JUMPI DUP1 SWAP2 POP PUSH2 0x84F JUMP JUMPDEST DUP1 DUP1 PUSH1 0x1 ADD SWAP2 POP POP PUSH2 0x813 JUMP JUMPDEST POP PUSH0 PUSH1 0x3 DUP3 DUP2 SLOAD DUP2 LT PUSH2 0x865 JUMPI PUSH2 0x864 PUSH2 0x14C5 JUMP JUMPDEST JUMPDEST SWAP1 PUSH0 MSTORE PUSH1 0x20 PUSH0 KECCAK256 ADD SLOAD EQ PUSH2 0x8AE JUMPI PUSH1 0x40 MLOAD PUSH32 0x8C379A000000000000000000000000000000000000000000000000000000000 DUP2 MSTORE PUSH1 0x4 ADD PUSH2 0x8A5 SWAP1 PUSH2 0x153C JUMP JUMPDEST PUSH1 0x40 MLOAD DUP1 SWAP2 SUB SWAP1 REVERT JUMPDEST PUSH1 0x2 PUSH1 0x3 DUP3 DUP2 SLOAD DUP2 LT PUSH2 0x8C4 JUMPI PUSH2 0x8C3 PUSH2 0x14C5 JUMP JUMPDEST JUMPDEST SWAP1 PUSH0 MSTORE PUSH1 0x20 PUSH0 KECCAK256 ADD DUP2 SWAP1 SSTORE POP PUSH1 0x4 PUSH0 SWAP1 SLOAD SWAP1 PUSH2 0x100 EXP SWAP1 DIV PUSH1 0xFF AND ISZERO PUSH1 0x4 PUSH0 PUSH2 0x100 EXP DUP2 SLOAD DUP2 PUSH1 0xFF MUL NOT AND SWAP1 DUP4 ISZERO ISZERO MUL OR SWAP1 SSTORE POP PUSH2 0x924 PUSH1 0x1 PUSH0 SWAP1 SLOAD SWAP1 PUSH2 0x100 EXP SWAP1 DIV PUSH20 0xFFFFFFFFFFFFFFFFFFFFFFFFFFFFFFFFFFFFFFFF AND PUSH1 0x2 PUSH2 0x94C JUMP JUMPDEST POP JUMPDEST POP JUMP JUMPDEST PUSH0 DUP1 SLOAD SWAP1 PUSH2 0x100 EXP SWAP1 DIV PUSH20 0xFFFFFFFFFFFFFFFFFFFFFFFFFFFFFFFFFFFFFFFF AND DUP2 JUMP JUMPDEST DUP1 PUSH1 0x3 PUSH0 DUP2 SLOAD DUP2 LT PUSH2 0x961 JUMPI PUSH2 0x960 PUSH2 0x14C5 JUMP JUMPDEST JUMPDEST SWAP1 PUSH0 MSTORE PUSH1 0x20 PUSH0 KECCAK256 ADD SLOAD EQ DUP1 ISZERO PUSH2 0x993 JUMPI POP DUP1 PUSH1 0x3 PUSH1 0x1 DUP2 SLOAD DUP2 LT PUSH2 0x988 JUMPI PUSH2 0x987 PUSH2 0x14C5 JUMP JUMPDEST JUMPDEST SWAP1 PUSH0 MSTORE PUSH1 0x20 PUSH0 KECCAK256 ADD SLOAD EQ JUMPDEST DUP1 ISZERO PUSH2 0x9BB JUMPI POP DUP1 PUSH1 0x3 PUSH1 0x2 DUP2 SLOAD DUP2 LT PUSH2 0x9B0 JUMPI PUSH2 0x9AF PUSH2 0x14C5 JUMP JUMPDEST JUMPDEST SWAP1 PUSH0 MSTORE PUSH1 0x20 PUSH0 KECCAK256 ADD SLOAD EQ JUMPDEST ISZERO PUSH2 0x9CA JUMPI PUSH2 0x9C9 DUP3 PUSH2 0xD9F JUMP JUMPDEST JUMPDEST DUP1 PUSH1 0x3 PUSH1 0x4 DUP2 SLOAD DUP2 LT PUSH2 0x9E0 JUMPI PUSH2 0x9DF PUSH2 0x14C5 JUMP JUMPDEST JUMPDEST SWAP1 PUSH0 MSTORE PUSH1 0x20 PUSH0 KECCAK256 ADD SLOAD EQ DUP1 ISZERO PUSH2 0xA12 JUMPI POP DUP1 PUSH1 0x3 PUSH1 0x5 DUP2 SLOAD DUP2 LT PUSH2 0xA07 JUMPI PUSH2 0xA06 PUSH2 0x14C5 JUMP JUMPDEST JUMPDEST SWAP1 PUSH0 MSTORE PUSH1 0x20 PUSH0 KECCAK256 ADD SLOAD EQ JUMPDEST DUP1 ISZERO PUSH2 0xA3A JUMPI POP DUP1 PUSH1 0x3 PUSH1 0x6 DUP2 SLOAD DUP2 LT PUSH2 0xA2F JUMPI PUSH2 0xA2E PUSH2 0x14C5 JUMP JUMPDEST JUMPDEST SWAP1 PUSH0 MSTORE PUSH1 0x20 PUSH0 KECCAK256 ADD SLOAD EQ JUMPDEST ISZERO PUSH2 0xA49 JUMPI PUSH2 0xA48 DUP3 PUSH2 0xD9F JUMP JUMPDEST JUMPDEST DUP1 PUSH1 0x3 PUSH1 0x7 DUP2 SLOAD DUP2 LT PUSH2 0xA5F JUMPI PUSH2 0xA5E PUSH2 0x14C5 JUMP JUMPDEST JUMPDEST SWAP1 PUSH0 MSTORE PUSH1 0x20 PUSH0 KECCAK256 ADD SLOAD EQ DUP1 ISZERO PUSH2 0xA91 JUMPI POP DUP1 PUSH1 0x3 PUSH1 0x8 DUP2 SLOAD DUP2 LT PUSH2 0xA86 JUMPI PUSH2 0xA85 PUSH2 0x14C5 JUMP JUMPDEST JUMPDEST SWAP1 PUSH0 MSTORE PUSH1 0x20 PUSH0 KECCAK256 ADD SLOAD EQ JUMPDEST DUP1 ISZERO PUSH2 0xAB9 JUMPI POP DUP1 PUSH1 0x3 PUSH1 0x9 DUP2 SLOAD DUP2 LT PUSH2 0xAAE JUMPI PUSH2 0xAAD PUSH2 0x14C5 JUMP JUMPDEST JUMPDEST SWAP1 PUSH0 MSTORE PUSH1 0x20 PUSH0 KECCAK256 ADD SLOAD EQ JUMPDEST ISZERO PUSH2 0xAC8 JUMPI PUSH2 0xAC7 DUP3 PUSH2 0xD9F JUMP JUMPDEST JUMPDEST DUP1 PUSH1 0x3 PUSH0 DUP2 SLOAD DUP2 LT PUSH2 0xADD JUMPI PUSH2 0xADC PUSH2 0x14C5 JUMP JUMPDEST JUMPDEST SWAP1 PUSH0 MSTORE PUSH1 0x20 PUSH0 KECCAK256 ADD SLOAD EQ DUP1 ISZERO PUSH2 0xB0E JUMPI POP DUP1 PUSH1 0x3 DUP1 DUP2 SLOAD DUP2 LT PUSH2 0xB03 JUMPI PUSH2 0xB02 PUSH2 0x14C5 JUMP JUMPDEST JUMPDEST SWAP1 PUSH0 MSTORE PUSH1 0x20 PUSH0 KECCAK256 ADD SLOAD EQ JUMPDEST DUP1 ISZERO PUSH2 0xB36 JUMPI POP DUP1 PUSH1 0x3 PUSH1 0x6 DUP2 SLOAD DUP2 LT PUSH2 0xB2B JUMPI PUSH2 0xB2A PUSH2 0x14C5 JUMP JUMPDEST JUMPDEST SWAP1 PUSH0 MSTORE PUSH1 0x20 PUSH0 KECCAK256 ADD SLOAD EQ JUMPDEST ISZERO PUSH2 0xB45 JUMPI PUSH2 0xB44 DUP3 PUSH2 0xD9F JUMP JUMPDEST JUMPDEST DUP1 PUSH1 0x3 PUSH1 0x1 DUP2 SLOAD DUP2 LT PUSH2 0xB5B JUMPI PUSH2 0xB5A PUSH2 0x14C5 JUMP JUMPDEST JUMPDEST SWAP1 PUSH0 MSTORE PUSH1 0x20 PUSH0 KECCAK256 ADD SLOAD EQ DUP1 ISZERO PUSH2 0xB8D JUMPI POP DUP1 PUSH1 0x3 PUSH1 0x4 DUP2 SLOAD DUP2 LT PUSH2 0xB82 JUMPI PUSH2 0xB81 PUSH2 0x14C5 JUMP JUMPDEST JUMPDEST SWAP1 PUSH0 MSTORE PUSH1 0x20 PUSH0 KECCAK256 ADD SLOAD EQ JUMPDEST DUP1 ISZERO PUSH2 0xBB5 JUMPI POP DUP1 PUSH1 0x3 PUSH1 0x7 DUP2 SLOAD DUP2 LT PUSH2 0xBAA JUMPI PUSH2 0xBA9 PUSH2 0x14C5 JUMP JUMPDEST JUMPDEST SWAP1 PUSH0 MSTORE PUSH1 0x20 PUSH0 KECCAK256 ADD SLOAD EQ JUMPDEST ISZERO PUSH2 0xBC4 JUMPI PUSH2 0xBC3 DUP3 PUSH2 0xD9F JUMP JUMPDEST JUMPDEST DUP1 PUSH1 0x3 PUSH1 0x2 DUP2 SLOAD DUP2 LT PUSH2 0xBDA JUMPI PUSH2 0xBD9 PUSH2 0x14C5 JUMP JUMPDEST JUMPDEST SWAP1 PUSH0 MSTORE PUSH1 0x20 PUSH0 KECCAK256 ADD SLOAD EQ DUP1 ISZERO PUSH2 0xC0C JUMPI POP DUP1 PUSH1 0x3 PUSH1 0x5 DUP2 SLOAD DUP2 LT PUSH2 0xC01 JUMPI PUSH2 0xC00 PUSH2 0x14C5 JUMP JUMPDEST JUMPDEST SWAP1 PUSH0 MSTORE PUSH1 0x20 PUSH0 KECCAK256 ADD SLOAD EQ JUMPDEST DUP1 ISZERO PUSH2 0xC34 JUMPI POP DUP1 PUSH1 0x3 PUSH1 0x8 DUP2 SLOAD DUP2 LT PUSH2 0xC29 JUMPI PUSH2 0xC28 PUSH2 0x14C5 JUMP JUMPDEST JUMPDEST SWAP1 PUSH0 MSTORE PUSH1 0x20 PUSH0 KECCAK256 ADD SLOAD EQ JUMPDEST ISZERO PUSH2 0xC43 JUMPI PUSH2 0xC42 DUP3 PUSH2 0xD9F JUMP JUMPDEST JUMPDEST DUP1 PUSH1 0x3 PUSH0 DUP2 SLOAD DUP2 LT PUSH2 0xC58 JUMPI PUSH2 0xC57 PUSH2 0x14C5 JUMP JUMPDEST JUMPDEST SWAP1 PUSH0 MSTORE PUSH1 0x20 PUSH0 KECCAK256 ADD SLOAD EQ DUP1 ISZERO PUSH2 0xC8A JUMPI POP DUP1 PUSH1 0x3 PUSH1 0x4 DUP2 SLOAD DUP2 LT PUSH2 0xC7F JUMPI PUSH2 0xC7E PUSH2 0x14C5 JUMP JUMPDEST JUMPDEST SWAP1 PUSH0 MSTORE PUSH1 0x20 PUSH0 KECCAK256 ADD SLOAD EQ JUMPDEST DUP1 ISZERO PUSH2 0xCB2 JUMPI POP DUP1 PUSH1 0x3 PUSH1 0x8 DUP2 SLOAD DUP2 LT PUSH2 0xCA7 JUMPI PUSH2 0xCA6 PUSH2 0x14C5 JUMP JUMPDEST JUMPDEST SWAP1 PUSH0 MSTORE PUSH1 0x20 PUSH0 KECCAK256 ADD SLOAD EQ JUMPDEST ISZERO PUSH2 0xCC1 JUMPI PUSH2 0xCC0 DUP3 PUSH2 0xD9F JUMP JUMPDEST JUMPDEST DUP1 PUSH1 0x3 PUSH1 0x2 DUP2 SLOAD DUP2 LT PUSH2 0xCD7 JUMPI PUSH2 0xCD6 PUSH2 0x14C5 JUMP JUMPDEST JUMPDEST SWAP1 PUSH0 MSTORE PUSH1 0x20 PUSH0 KECCAK256 ADD SLOAD EQ DUP1 ISZERO PUSH2 0xD09 JUMPI POP DUP1 PUSH1 0x3 PUSH1 0x4 DUP2 SLOAD DUP2 LT PUSH2 0xCFE JUMPI PUSH2 0xCFD PUSH2 0x14C5 JUMP JUMPDEST JUMPDEST SWAP1 PUSH0 MSTORE PUSH1 0x20 PUSH0 KECCAK256 ADD SLOAD EQ JUMPDEST DUP1 ISZERO PUSH2 0xD31 JUMPI POP DUP1 PUSH1 0x3 PUSH1 0x6 DUP2 SLOAD DUP2 LT PUSH2 0xD26 JUMPI PUSH2 0xD25 PUSH2 0x14C5 JUMP JUMPDEST JUMPDEST SWAP1 PUSH0 MSTORE PUSH1 0x20 PUSH0 KECCAK256 ADD SLOAD EQ JUMPDEST ISZERO PUSH2 0xD40 JUMPI PUSH2 0xD3F DUP3 PUSH2 0xD9F JUMP JUMPDEST JUMPDEST PUSH0 PUSH1 0x64 SWAP1 POP PUSH0 JUMPDEST PUSH1 0x9 DUP2 LT ISZERO PUSH2 0xD88 JUMPI PUSH0 PUSH1 0x3 DUP3 DUP2 SLOAD DUP2 LT PUSH2 0xD65 JUMPI PUSH2 0xD64 PUSH2 0x14C5 JUMP JUMPDEST JUMPDEST SWAP1 PUSH0 MSTORE PUSH1 0x20 PUSH0 KECCAK256 ADD SLOAD SUB PUSH2 0xD7B JUMPI DUP1 SWAP2 POP PUSH2 0xD88 JUMP JUMPDEST DUP1 DUP1 PUSH1 0x1 ADD SWAP2 POP POP PUSH2 0xD47 JUMP JUMPDEST POP PUSH1 0x64 DUP2 SUB PUSH2 0xD9A JUMPI PUSH2 0xD99 PUSH2 0xE42 JUMP JUMPDEST JUMPDEST POP POP POP JUMP JUMPDEST PUSH1 0x1 PUSH1 0x4 PUSH1 0x1 PUSH2 0x100 EXP DUP2 SLOAD DUP2 PUSH1 0xFF MUL NOT AND SWAP1 DUP4 ISZERO ISZERO MUL OR SWAP1 SSTORE POP PUSH0 DUP2 PUSH20 0xFFFFFFFFFFFFFFFFFFFFFFFFFFFFFFFFFFFFFFFF AND PUSH2 0x8FC PUSH1 0x2 DUP1 SLOAD PUSH2 0xDE3 SWAP2 SWAP1 PUSH2 0x155A JUMP JUMPDEST SWAP1 DUP2 ISZERO MUL SWAP1 PUSH1 0x40 MLOAD PUSH0 PUSH1 0x40 MLOAD DUP1 DUP4 SUB DUP2 DUP6 DUP9 DUP9 CALL SWAP4 POP POP POP POP SWAP1 POP DUP1 PUSH2 0xE3E JUMPI PUSH1 0x40 MLOAD PUSH32 0x8C379A000000000000000000000000000000000000000000000000000000000 DUP2 MSTORE PUSH1 0x4 ADD PUSH2 0xE35 SWAP1 PUSH2 0x108A JUMP JUMPDEST PUSH1 0x40 MLOAD DUP1 SWAP2 SUB SWAP1 REVERT JUMPDEST POP POP JUMP JUMPDEST PUSH1 0x1 PUSH1 0x4 PUSH1 0x1 PUSH2 0x100 EXP DUP2 SLOAD DUP2 PUSH1 0xFF MUL NOT AND SWAP1 DUP4 ISZERO ISZERO MUL OR SWAP1 SSTORE POP PUSH0 DUP1 PUSH0 SWAP1 SLOAD SWAP1 PUSH2 0x100 EXP SWAP1 DIV PUSH20 0xFFFFFFFFFFFFFFFFFFFFFFFFFFFFFFFFFFFFFFFF AND PUSH20 0xFFFFFFFFFFFFFFFFFFFFFFFFFFFFFFFFFFFFFFFF AND PUSH2 0x8FC PUSH1 0x2 SLOAD SWAP1 DUP2 ISZERO MUL SWAP1 PUSH1 0x40 MLOAD PUSH0 PUSH1 0x40 MLOAD DUP1 DUP4 SUB DUP2 DUP6 DUP9 DUP9 CALL SWAP4 POP POP POP POP SWAP1 POP DUP1 PUSH2 0xEF6 JUMPI PUSH1 0x40 MLOAD PUSH32 0x8C379A000000000000000000000000000000000000000000000000000000000 DUP2 MSTORE PUSH1 0x4 ADD PUSH2 0xEED SWAP1 PUSH2 0x108A JUMP JUMPDEST PUSH1 0x40 MLOAD DUP1 SWAP2 SUB SWAP1 REVERT JUMPDEST PUSH0 PUSH1 0x1 PUSH0 SWAP1 SLOAD SWAP1 PUSH2 0x100 EXP SWAP1 DIV PUSH20 0xFFFFFFFFFFFFFFFFFFFFFFFFFFFFFFFFFFFFFFFF AND PUSH20 0xFFFFFFFFFFFFFFFFFFFFFFFFFFFFFFFFFFFFFFFF AND PUSH2 0x8FC PUSH1 0x2 SLOAD SWAP1 DUP2 ISZERO MUL SWAP1 PUSH1 0x40 MLOAD PUSH0 PUSH1 0x40 MLOAD DUP1 DUP4 SUB DUP2 DUP6 DUP9 DUP9 CALL SWAP4 POP POP POP POP SWAP1 POP DUP1 PUSH2 0xF90 JUMPI PUSH1 0x40 MLOAD PUSH32 0x8C379A000000000000000000000000000000000000000000000000000000000 DUP2 MSTORE PUSH1 0x4 ADD PUSH2 0xF87 SWAP1 PUSH2 0x108A JUMP JUMPDEST PUSH1 0x40 MLOAD DUP1 SWAP2 SUB SWAP1 REVERT JUMPDEST POP POP JUMP JUMPDEST PUSH0 DUP2 SWAP1 POP SWAP2 SWAP1 POP JUMP JUMPDEST PUSH32 0x4E487B7100000000000000000000000000000000000000000000000000000000 PUSH0 MSTORE PUSH1 0x11 PUSH1 0x4 MSTORE PUSH1 0x24 PUSH0 REVERT JUMPDEST PUSH0 PUSH2 0xFD4 DUP3 PUSH2 0xF94 JUMP JUMPDEST SWAP2 POP PUSH2 0xFDF DUP4 PUSH2 0xF94 JUMP JUMPDEST SWAP3 POP DUP3 DUP3 ADD SWAP1 POP DUP1 DUP3 GT ISZERO PUSH2 0xFF7 JUMPI PUSH2 0xFF6 PUSH2 0xF9D JUMP JUMPDEST JUMPDEST SWAP3 SWAP2 POP POP JUMP JUMPDEST PUSH0 PUSH2 0x1007 DUP3 PUSH2 0xF94 JUMP JUMPDEST SWAP2 POP PUSH2 0x1012 DUP4 PUSH2 0xF94 JUMP JUMPDEST SWAP3 POP DUP3 DUP3 SUB SWAP1 POP DUP2 DUP2 GT ISZERO PUSH2 0x102A JUMPI PUSH2 0x1029 PUSH2 0xF9D JUMP JUMPDEST JUMPDEST SWAP3 SWAP2 POP POP JUMP JUMPDEST PUSH0 DUP3 DUP3 MSTORE PUSH1 0x20 DUP3 ADD SWAP1 POP SWAP3 SWAP2 POP POP JUMP JUMPDEST PUSH32 0x4661696C656420746F2073656E64204574686572000000000000000000000000 PUSH0 DUP3 ADD MSTORE POP JUMP JUMPDEST PUSH0 PUSH2 0x1074 PUSH1 0x14 DUP4 PUSH2 0x1030 JUMP JUMPDEST SWAP2 POP PUSH2 0x107F DUP3 PUSH2 0x1040 JUMP JUMPDEST PUSH1 0x20 DUP3 ADD SWAP1 POP SWAP2 SWAP1 POP JUMP JUMPDEST PUSH0 PUSH1 0x20 DUP3 ADD SWAP1 POP DUP2 DUP2 SUB PUSH0 DUP4 ADD MSTORE PUSH2 0x10A1 DUP2 PUSH2 0x1068 JUMP JUMPDEST SWAP1 POP SWAP2 SWAP1 POP JUMP JUMPDEST PUSH0 DUP2 ISZERO ISZERO SWAP1 POP SWAP2 SWAP1 POP JUMP JUMPDEST PUSH2 0x10BC DUP2 PUSH2 0x10A8 JUMP JUMPDEST DUP3 MSTORE POP POP JUMP JUMPDEST PUSH0 PUSH1 0x20 DUP3 ADD SWAP1 POP PUSH2 0x10D5 PUSH0 DUP4 ADD DUP5 PUSH2 0x10B3 JUMP JUMPDEST SWAP3 SWAP2 POP POP JUMP JUMPDEST PUSH0 PUSH1 0x40 MLOAD SWAP1 POP SWAP1 JUMP JUMPDEST PUSH0 DUP1 REVERT JUMPDEST PUSH2 0x10F1 DUP2 PUSH2 0xF94 JUMP JUMPDEST DUP2 EQ PUSH2 0x10FB JUMPI PUSH0 DUP1 REVERT JUMPDEST POP JUMP JUMPDEST PUSH0 DUP2 CALLDATALOAD SWAP1 POP PUSH2 0x110C DUP2 PUSH2 0x10E8 JUMP JUMPDEST SWAP3 SWAP2 POP POP JUMP JUMPDEST PUSH0 PUSH1 0x20 DUP3 DUP5 SUB SLT ISZERO PUSH2 0x1127 JUMPI PUSH2 0x1126 PUSH2 0x10E4 JUMP JUMPDEST JUMPDEST PUSH0 PUSH2 0x1134 DUP5 DUP3 DUP6 ADD PUSH2 0x10FE JUMP JUMPDEST SWAP2 POP POP SWAP3 SWAP2 POP POP JUMP JUMPDEST PUSH2 0x1146 DUP2 PUSH2 0xF94 JUMP JUMPDEST DUP3 MSTORE POP POP JUMP JUMPDEST PUSH0 PUSH1 0x20 DUP3 ADD SWAP1 POP PUSH2 0x115F PUSH0 DUP4 ADD DUP5 PUSH2 0x113D JUMP JUMPDEST SWAP3 SWAP2 POP POP JUMP JUMPDEST PUSH0 PUSH20 0xFFFFFFFFFFFFFFFFFFFFFFFFFFFFFFFFFFFFFFFF DUP3 AND SWAP1 POP SWAP2 SWAP1 POP JUMP JUMPDEST PUSH0 PUSH2 0x118E DUP3 PUSH2 0x1165 JUMP JUMPDEST SWAP1 POP SWAP2 SWAP1 POP JUMP JUMPDEST PUSH2 0x119E DUP2 PUSH2 0x1184 JUMP JUMPDEST DUP2 EQ PUSH2 0x11A8 JUMPI PUSH0 DUP1 REVERT JUMPDEST POP JUMP JUMPDEST PUSH0 DUP2 CALLDATALOAD SWAP1 POP PUSH2 0x11B9 DUP2 PUSH2 0x1195 JUMP JUMPDEST SWAP3 SWAP2 POP POP JUMP JUMPDEST PUSH0 PUSH1 0x20 DUP3 DUP5 SUB SLT ISZERO PUSH2 0x11D4 JUMPI PUSH2 0x11D3 PUSH2 0x10E4 JUMP JUMPDEST JUMPDEST PUSH0 PUSH2 0x11E1 DUP5 DUP3 DUP6 ADD PUSH2 0x11AB JUMP JUMPDEST SWAP2 POP POP SWAP3 SWAP2 POP POP JUMP JUMPDEST PUSH0 PUSH2 0x11F4 DUP3 PUSH2 0x1165 JUMP JUMPDEST SWAP1 POP SWAP2 SWAP1 POP JUMP JUMPDEST PUSH2 0x1204 DUP2 PUSH2 0x11EA JUMP JUMPDEST DUP3 MSTORE POP POP JUMP JUMPDEST PUSH0 PUSH1 0x20 DUP3 ADD SWAP1 POP PUSH2 0x121D PUSH0 DUP4 ADD DUP5 PUSH2 0x11FB JUMP JUMPDEST SWAP3 SWAP2 POP POP JUMP JUMPDEST PUSH0 DUP1 REVERT JUMPDEST PUSH0 PUSH1 0x1F NOT PUSH1 0x1F DUP4 ADD AND SWAP1 POP SWAP2 SWAP1 POP JUMP JUMPDEST PUSH32 0x4E487B7100000000000000000000000000000000000000000000000000000000 PUSH0 MSTORE PUSH1 0x41 PUSH1 0x4 MSTORE PUSH1 0x24 PUSH0 REVERT JUMPDEST PUSH2 0x126D DUP3 PUSH2 0x1227 JUMP JUMPDEST DUP2 ADD DUP2 DUP2 LT PUSH8 0xFFFFFFFFFFFFFFFF DUP3 GT OR ISZERO PUSH2 0x128C JUMPI PUSH2 0x128B PUSH2 0x1237 JUMP JUMPDEST JUMPDEST DUP1 PUSH1 0x40 MSTORE POP POP POP JUMP JUMPDEST PUSH0 PUSH2 0x129E PUSH2 0x10DB JUMP JUMPDEST SWAP1 POP PUSH2 0x12AA DUP3 DUP3 PUSH2 0x1264 JUMP JUMPDEST SWAP2 SWAP1 POP JUMP JUMPDEST PUSH0 PUSH8 0xFFFFFFFFFFFFFFFF DUP3 GT ISZERO PUSH2 0x12C9 JUMPI PUSH2 0x12C8 PUSH2 0x1237 JUMP JUMPDEST JUMPDEST PUSH1 0x20 DUP3 MUL SWAP1 POP SWAP2 SWAP1 POP JUMP JUMPDEST PUSH0 DUP1 REVERT JUMPDEST PUSH0 PUSH2 0x12EA PUSH2 0x12E5 DUP5 PUSH2 0x12AF JUMP JUMPDEST PUSH2 0x1295 JUMP JUMPDEST SWAP1 POP DUP1 PUSH1 0x20 DUP5 MUL DUP4 ADD DUP6 DUP2 GT ISZERO PUSH2 0x1304 JUMPI PUSH2 0x1303 PUSH2 0x12D4 JUMP JUMPDEST JUMPDEST DUP4 JUMPDEST DUP2 DUP2 LT ISZERO PUSH2 0x132D JUMPI DUP1 PUSH2 0x1319 DUP9 DUP3 PUSH2 0x10FE JUMP JUMPDEST DUP5 MSTORE PUSH1 0x20 DUP5 ADD SWAP4 POP POP PUSH1 0x20 DUP2 ADD SWAP1 POP PUSH2 0x1306 JUMP JUMPDEST POP POP POP SWAP4 SWAP3 POP POP POP JUMP JUMPDEST PUSH0 DUP3 PUSH1 0x1F DUP4 ADD SLT PUSH2 0x134B JUMPI PUSH2 0x134A PUSH2 0x1223 JUMP JUMPDEST JUMPDEST PUSH1 0x9 PUSH2 0x1358 DUP5 DUP3 DUP6 PUSH2 0x12D8 JUMP JUMPDEST SWAP2 POP POP SWAP3 SWAP2 POP POP JUMP JUMPDEST PUSH0 PUSH2 0x120 DUP3 DUP5 SUB SLT ISZERO PUSH2 0x1377 JUMPI PUSH2 0x1376 PUSH2 0x10E4 JUMP JUMPDEST JUMPDEST PUSH0 PUSH2 0x1384 DUP5 DUP3 DUP6 ADD PUSH2 0x1337 JUMP JUMPDEST SWAP2 POP POP SWAP3 SWAP2 POP POP JUMP JUMPDEST PUSH32 0x67616D652068617320656E646564000000000000000000000000000000000000 PUSH0 DUP3 ADD MSTORE POP JUMP JUMPDEST PUSH0 PUSH2 0x13C1 PUSH1 0xE DUP4 PUSH2 0x1030 JUMP JUMPDEST SWAP2 POP PUSH2 0x13CC DUP3 PUSH2 0x138D JUMP JUMPDEST PUSH1 0x20 DUP3 ADD SWAP1 POP SWAP2 SWAP1 POP JUMP JUMPDEST PUSH0 PUSH1 0x20 DUP3 ADD SWAP1 POP DUP2 DUP2 SUB PUSH0 DUP4 ADD MSTORE PUSH2 0x13EE DUP2 PUSH2 0x13B5 JUMP JUMPDEST SWAP1 POP SWAP2 SWAP1 POP JUMP JUMPDEST PUSH32 0x6E6F206465706F73697400000000000000000000000000000000000000000000 PUSH0 DUP3 ADD MSTORE POP JUMP JUMPDEST PUSH0 PUSH2 0x1429 PUSH1 0xA DUP4 PUSH2 0x1030 JUMP JUMPDEST SWAP2 POP PUSH2 0x1434 DUP3 PUSH2 0x13F5 JUMP JUMPDEST PUSH1 0x20 DUP3 ADD SWAP1 POP SWAP2 SWAP1 POP JUMP JUMPDEST PUSH0 PUSH1 0x20 DUP3 ADD SWAP1 POP DUP2 DUP2 SUB PUSH0 DUP4 ADD MSTORE PUSH2 0x1456 DUP2 PUSH2 0x141D JUMP JUMPDEST SWAP1 POP SWAP2 SWAP1 POP JUMP JUMPDEST PUSH32 0x6E6F7420796F7572207475726E00000000000000000000000000000000000000 PUSH0 DUP3 ADD MSTORE POP JUMP JUMPDEST PUSH0 PUSH2 0x1491 PUSH1 0xD DUP4 PUSH2 0x1030 JUMP JUMPDEST SWAP2 POP PUSH2 0x149C DUP3 PUSH2 0x145D JUMP JUMPDEST PUSH1 0x20 DUP3 ADD SWAP1 POP SWAP2 SWAP1 POP JUMP JUMPDEST PUSH0 PUSH1 0x20 DUP3 ADD SWAP1 POP DUP2 DUP2 SUB PUSH0 DUP4 ADD MSTORE PUSH2 0x14BE DUP2 PUSH2 0x1485 JUMP JUMPDEST SWAP1 POP SWAP2 SWAP1 POP JUMP JUMPDEST PUSH32 0x4E487B7100000000000000000000000000000000000000000000000000000000 PUSH0 MSTORE PUSH1 0x32 PUSH1 0x4 MSTORE PUSH1 0x24 PUSH0 REVERT JUMPDEST PUSH32 0x746869732074696C6520697320616C7265616479207573656400000000000000 PUSH0 DUP3 ADD MSTORE POP JUMP JUMPDEST PUSH0 PUSH2 0x1526 PUSH1 0x19 DUP4 PUSH2 0x1030 JUMP JUMPDEST SWAP2 POP PUSH2 0x1531 DUP3 PUSH2 0x14F2 JUMP JUMPDEST PUSH1 0x20 DUP3 ADD SWAP1 POP SWAP2 SWAP1 POP JUMP JUMPDEST PUSH0 PUSH1 0x20 DUP3 ADD SWAP1 POP DUP2 DUP2 SUB PUSH0 DUP4 ADD MSTORE PUSH2 0x1553 DUP2 PUSH2 0x151A JUMP JUMPDEST SWAP1 POP SWAP2 SWAP1 POP JUMP JUMPDEST PUSH0 PUSH2 0x1564 DUP3 PUSH2 0xF94 JUMP JUMPDEST SWAP2 POP PUSH2 0x156F DUP4 PUSH2 0xF94 JUMP JUMPDEST SWAP3 POP DUP3 DUP3 MUL PUSH2 0x157D DUP2 PUSH2 0xF94 JUMP JUMPDEST SWAP2 POP DUP3 DUP3 DIV DUP5 EQ DUP4 ISZERO OR PUSH2 0x1594 JUMPI PUSH2 0x1593 PUSH2 0xF9D JUMP JUMPDEST JUMPDEST POP SWAP3 SWAP2 POP POP JUMP INVALID LOG2 PUSH5 0x6970667358 0x22 SLT KECCAK256 PUSH0 CALLDATALOAD 0xFC 0xC 0xBF EXTCODEHASH 0xAB PUSH4 0xD4FB0DD PUSH7 0xCF9EEB2853BC46 SIGNEXTEND SDIV LOG1 PUSH15 0xF1753EEC7911978664736F6C634300 ADDMOD BYTE STOP CALLER "
				},
				"gasEstimates": {
					"creation": {
						"codeDepositCost": "1117000",
						"executionCost": "infinite",
						"totalCost": "infinite"
					},
					"external": {
						"balanceOf(address)": "2847",
						"dep()": "2425",
						"gameEnded()": "2518",
						"gameState(uint256)": "infinite",
						"makeTurn(uint256[9])": "infinite",
						"p1()": "2571",
						"p2()": "2575",
						"turn()": "2488"
					},
					"internal": {
						"_checkWin(address,uint256)": "infinite",
						"_endGame(address)": "infinite",
						"_endGameDraw()": "infinite"
					}
				},
				"methodIdentifiers": {
					"balanceOf(address)": "70a08231",
					"dep()": "855a0fe3",
					"gameEnded()": "2f6fe396",
					"gameState(uint256)": "4e0e1a3e",
					"makeTurn(uint256[9])": "ad86287a",
					"p1()": "c2a2747b",
					"p2()": "81d01ed3",
					"turn()": "8b299903"
				}
			},
			"storageLayout": {
				"storage": [
					{
						"astId": 3,
						"contract": "Project.sol:TTTGame",
						"label": "p1",
						"offset": 0,
						"slot": "0",
						"type": "t_address_payable"
					},
					{
						"astId": 5,
						"contract": "Project.sol:TTTGame",
						"label": "p2",
						"offset": 0,
						"slot": "1",
						"type": "t_address_payable"
					},
					{
						"astId": 8,
						"contract": "Project.sol:TTTGame",
						"label": "dep",
						"offset": 0,
						"slot": "2",
						"type": "t_uint256"
					},
					{
						"astId": 11,
						"contract": "Project.sol:TTTGame",
						"label": "gameState",
						"offset": 0,
						"slot": "3",
						"type": "t_array(t_uint256)dyn_storage"
					},
					{
						"astId": 13,
						"contract": "Project.sol:TTTGame",
						"label": "turn",
						"offset": 0,
						"slot": "4",
						"type": "t_bool"
					},
					{
						"astId": 15,
						"contract": "Project.sol:TTTGame",
						"label": "gameEnded",
						"offset": 1,
						"slot": "4",
						"type": "t_bool"
					},
					{
						"astId": 19,
						"contract": "Project.sol:TTTGame",
						"label": "balanceOf",
						"offset": 0,
						"slot": "5",
						"type": "t_mapping(t_address,t_uint256)"
					}
				],
				"types": {
					"t_address": {
						"encoding": "inplace",
						"label": "address",
						"numberOfBytes": "20"
					},
					"t_address_payable": {
						"encoding": "inplace",
						"label": "address payable",
						"numberOfBytes": "20"
					},
					"t_array(t_uint256)dyn_storage": {
						"base": "t_uint256",
						"encoding": "dynamic_array",
						"label": "uint256[]",
						"numberOfBytes": "32"
					},
					"t_bool": {
						"encoding": "inplace",
						"label": "bool",
						"numberOfBytes": "1"
					},
					"t_mapping(t_address,t_uint256)": {
						"encoding": "mapping",
						"key": "t_address",
						"label": "mapping(address => uint256)",
						"numberOfBytes": "32",
						"value": "t_uint256"
					},
					"t_uint256": {
						"encoding": "inplace",
						"label": "uint256",
						"numberOfBytes": "32"
					}
				}
			},
			"userdoc": {
				"kind": "user",
				"methods": {},
				"version": 1
			}
		}
	}
}